:1000000000300020C100000007360000973D0000CE
:1000100000000000000000000000000000000000E0
:100020000000000000000000000000009F3C0000F5
:100030000000000000000000253D00006D3D0000B4
:100040009F3D00009F3D00009F3D00009F3D000040
:100050009F3D00009F3D00009F3D00009F3D000030
:100060009F3D00009F3D00009F3D00009F3D000020
:100070009F3D00009F3D00009F3D00009F3D000010
:100080009F3D00009F3D00009F3D00009F3D000000
:100090009F3D00009F3D00009F3D00009F3D0000F0
:1000A0009F3D00009F3D00009F3D00009F3D0000E0
:1000B0009F3D00009F3D00009F3D00009F3D0000D0
:1000C0000749084A084B9B1A05DD002408591051BE
:1000D00004349C42FADB054880470548004700008D
:1000E00054540000C0F0FF1F64F1FF1F15360000DC
:0400F00029110000D2
:10040000FFFFFFFFFFFFFFFFFFFFFFFFFEFFFFFFFD
:1004100010B5064C2378002B07D1054B002B02D0DA
:10042000044800E000BF0123237010BD68F1FF1FE6
:100430000000000048540000084B10B5002B03D00A
:100440000749084800E000BF07480368002B00D1B7
:1004500010BD064B002BFBD09847F9E700000000C9
:100460006CF1FF1F4854000064F1FF1F0000000002
:10047000704703790B7043681B0A4B7043681B0C71
:100480008B7043681B0ECB70037A0B7183681B0A59
:100490004B7183681B0C8B71836808201B0ECB711A
:1004A00070470A7842604B781B021A4342608B788F
:1004B0001B0413434360CA781206134343600A794E
:1004C00082604B791B021A4382608B791B041343B1
:1004D0008360CA79120613438360082070470000C6
:1004E00000487047ED4F000000487047CC4F0000B7
:1004F000004870475E4F0000004870473D4F0000C5
:10050000004870472A4F000000487047094F00001C
:1005100000487047774F000000487047E84E0000E1
:1005200083880B7083881B0A4B70C3888B70C388C9
:100530001B0ACB7003890B7103891B0A4B7143891A
:100540008B7143891B0ACB7183890B7283891B0AC8
:100550004B72C3898B72C3890C201B0ACB72704704
:100560000B7883804A781202134383808B78C38090
:10057000CA7812021343C3800B7903814A791202AD
:10058000134303818B794381CA7912021343438158
:100590000B7A83814A7A1202134383818B7AC38157
:1005A000CA7A12021343C3810C2070470048704777
:1005B000D54E000000487047B44E0000014BC05CAF
:1005C0007047C0465C05000010B5040003F004FB52
:1005D000200010BD70B50E4C2368002B12D10121F4
:1005E0000C4E4942306801F065FF2368002B06D1AC
:1005F000094D002D02D0280003F000FB2560306873
:1006000001F082FF01212068494203F00FFB70BD19
:10061000E8070020CC0B0020EC07002070B50D4C43
:100620002368002B12D101210B4E4942306801F0A2
:1006300041FF2368002B06D1084D002D02D0280071
:1006400003F0DCFA2560306801F05EFF206803F0FB
:10065000F2FA70BDE8070020CC0B0020EC07002068
:10066000F7B50700042500240D4B68460093FFF7FB
:10067000B1FF390001A802F0C3FC6846FFF7CEFFC6
:100680006846FFF7A7FF01A802F012FD0600013D32
:100690006846FFF7C3FFA419002DE5D1A010FEBDE9
:1006A000144E0000002310B50C00DA00D440C454EE
:1006B0000133042BF8D110BD0379F7B50B704368F3
:1006C0000D001B0A4B7043680A1D1B0C8B7043689E
:1006D00004001B0ECB7000216068531B81420CD2BA
:1006E000E0688B001B580131180A13705070180C09
:1006F0001B0E9070D3700432EEE7227CEA5421691D
:10070000EA18090A517021690433090C91702169B2
:10071000EB18090ED170002122695E1B91420CD2A8
:10072000A0698A0012580131100A1A705870100C12
:10073000120E9870DA700433EEE70027237FAB5572
:10074000E269AB19120A5A70E2690436120C9A7007
:10075000E269120EDA70E3699F4215D2636ABA0049
:10076000985804F05FF901900199A819FFF79AFFD2
:10077000636ABA0004369958A819019A03F071FE09
:10078000019B01379E19E6E73000FEBD70B5037985
:1007900006000B7080680D0004F044F90400681C2A
:1007A0002100FFF77FFF681DB168220003F059FEAA
:1007B000601D70BDF8B5838806000B7083880C003F
:1007C0001B0A4B70806804F02DF90500A01C29005D
:1007D000FFF768FF2A00B168A01D03F042FEF06831
:1007E00004F020F90700AB1DE01839000A35FFF7C7
:1007F00059FF3A00F168601903F033FE306904F0E4
:1008000011F97D190700601939000435FFF74AFF17
:1008100060193A00316903F024FE73697F19E355CA
:100820001A0AE41962701A0C1B0E381DA270E370CC
:10083000F8BD002310B50360CA5CDC00A240046868
:10084000013322430260042BF6D110BDF7B50C0032
:100850000B7805000371013101A8FFF7EAFF221DA3
:1008600013000199481D01331E1BB04203D91F78A4
:100870005E1E3770F7E7002364182371AA60FEBD7F
:10088000F0B50C000B7885B083804A780600120220
:1008900013438380023101A8FFF7CBFF611D0B00DA
:1008A000019A951D0133181B854203D91F78581EE4
:1008B0000770F7E70023A218537102A8B16061190D
:1008C000FFF7B7FF029A2B1D9D181A00AA4204D207
:1008D000A05C511E60540132F8E700206119013B11
:1008E000E3184A1E1070F36003A8FFF7A2FF039BF2
:1008F0000435E8182B00834204D2E15C5A1EA1544F
:100900000133F8E700212218013D531E65191970C3
:100910003561537891781B020904D2780B43215C2E
:1009200012060B4313430430736105B0F0BDF7B5F5
:100930004B780E781B0233438E7804003604334321
:10094000CE780D0036061E4343689E4204D9B1009E
:10095000C06803F0FFFFE060002366602F1D62683F
:100960005E1CB000934215D221007B78BA781B023E
:10097000120413433A7804381343FA780831120604
:100980001343A360E3680422181803F06AFD0437D8
:100990003300E4E72A1857789378295C1B043F0258
:1009A0001F433943D77823693F060F43061D9F42F3
:1009B00004D9B900A06903F0CDFFA0612761002729
:1009C000AE192369721B9F4215D221007378B27849
:1009D0001B02120413433278B8001343F278143127
:1009E000120613436361A3690422181803F039FD4A
:1009F00001370436E5E7A9184F788B78A85C1B040B
:100A00003F021F433843CF78E3693F060743161D73
:100A10009F4204D9B900606A03F09CFF6062E761FD
:100A20000027E3699F421FD2A91901A8FFF701FF20
:100A3000019A331D9E181A00B24204D2A85C511EBE
:100A400068540132F8E70021AA19013A1170210017
:100A5000013BEB182362636AB800181804222031A6
:100A600003F0FFFC0137DCE73000FEBD1FB5084B8B
:100A700004000193002302930393036801AA1B68F7
:100A80000A2198472000603002F05DFE20671FBDFC
:100A90002C4E00000022F0B52D4B89B0029302AB22
:100AA0009A802C4B8027049305930693902305008E
:100AB000DB00C418284B0792C618BF002368002B20
:100AC00017D01989586802AA91801A68036804929D
:100AD0009B6898472368059058680368DB689847C7
:100AE00021682B68069007971B6802AA09692800ED
:100AF00098470434B442E1D1A9238026DB00EB18E7
:100B00000193B6002068002818D0828802AB9A8032
:100B10008368049303689B6898470590206803687E
:100B2000DB6898472B68069020681F680368079663
:100B30005B68984702AA01002800B847019B04346B
:100B4000A342DFD10122054BEA5409B0F0BDC046F3
:100B5000444E000081500000E40400005C050000E9
:100B6000F0B5264B060087B00393002304006036DF
:100B700030000F000493059302F0E5FD236F390068
:100B8000C51A03A8FFF78DFCFA212800890003F09D
:100B900007F9FA21049B8900181804902800019392
:100BA00003F084F9164B30005943059BC918019393
:100BB000059102F0C8FDFA21049B8900070001930A
:100BC0005D1E03F0EDF8FA212D1A65670D4B059DAA
:100BD00038008900ED1803F069F9094B20005943EA
:100BE000691AA16721007430783100F0B1FA300041
:100BF00002F0A9FD044BE05007B0F0BD2C4E000000
:100C000040420F0000CA9A3B6405000073B5334CA4
:100C1000334B20000025042208C0260080230092C8
:100C20005B0008216036019500F06AFB300002F09D
:100C30009FFDE1231B02E365300002F057FD294BC5
:100C4000294AE5541433E2502A00284BE550284B3A
:100C5000E5500433E5500833E550264BE550264B6C
:100C6000E5509023DB00EB18E31804351A60642D7F
:100C7000F7D100231900214A9A18A21804331160F1
:100C8000642BF8D100238021180089001A008032DB
:100C9000A218013310708B42F8D1002380211D006F
:100CA0008900A02292009A18A218013315708B4275
:100CB000F7D1134A13492000E56702F06DFF124B8C
:100CC000124A13491A60134A9D80DD801D815D819F
:100CD0009D81DD8115611160536073BD94F1FF1F2B
:100CE000A44E00005C050000744E00007405000076
:100CF0007C0500008C05000094050000E404000061
:100D0000C0F0FF1F1511000084F1FF1F8C4E000082
:100D1000B04E00002CF7FF1FF0B5040085B00E00A8
:100D2000632904DD00252B4BC35CAB424ED0136816
:100D300029491B68611810009847A023FF229B00D7
:100D4000E254264B013AE254254AC3B2A354254942
:100D50000212D2B262549B18A122DB439200A35428
:100D6000214B0522E654214B360AE6540023851D0B
:100D7000AA4206DCA02189005118615C01325B188F
:100D8000F6E7DB43144A050020188018037080231F
:100D900008359B009D420BDC8033E7183E00F31BB7
:100DA0009D4213DD3178201D00F013FB0136F6E77C
:100DB0000F4B01AA0193032313710E4B072193607C
:100DC000236820001B68012598476D42280005B064
:100DD000F0BDC0465C0500008702000081020000F3
:100DE00082020000830200008502000086020000EB
:100DF0005C4E0000934F00000300F0B56033040028
:100E000085B01800019302F09EFC834A8349A358E1
:100E10000700C31A03928B4202D90022804BE2548E
:100E2000A923DB00E258002A06D0AD22D200A25846
:100E3000BA4201D20022E250A925ED00E36F002B57
:100E400018D1261D300000F097F900281BD100258D
:100E5000734BE35CAB420AD0AC26F600A359714A4F
:100E6000FB1A934203D92000FFF700FEA751280088
:100E700005B0F0BD019802F066FCE36FC01B98421C
:100E8000DFD902259EE0300000F07EF90028DEDB8D
:100E9000AB23AB22DB00E35866590293D200C318A0
:100EA000A350072E0FD1604AA358591CE318A15034
:100EB00080335E4A1870A358013BA350002BBDD16C
:100EC00008236351BAE7002E13D1FF2807D101236D
:100ED000AD2263513B00D2001433A350AEE701981A
:100EE00002F031FC524BC01B9842A7D94C4BE65440
:100EF000C7E7012E0DD1FE2801D10223E1E700232F
:100F00006351474BE35C002B98D12000FFF7AEFD07
:100F100094E7022E0AD10022444BE050424BE250AB
:100F200003236351AB23DB00E05087E7032E06D198
:100F30003E4B0002E2581018E0500423C1E7042E93
:100F40000CD13C4A134003D53B4A013B13430133C8
:100F5000FF2B01D1FA3BB4E70023B2E7052E04D101
:100F6000AA23DB00E0500623DBE7062E0AD1AA23E2
:100F7000DB00E25800021018E050072363512B4BAE
:100F8000E3589BE7082E00D058E700226251294A17
:100F9000134003D5284A013B13430133FF2B00D0F4
:100FA0004CE7AA23DB00E358002B0DD12000FFF70C
:100FB0005DFD2000FFF76EFDAC230125DB00E7504F
:100FC000039BE7506D4252E70A2B05D12100200018
:100FD0008031FFF7C5FD31E7062B0AD1AE23210092
:100FE000DB00E0188031FFF7A2FC0122134BE25432
:100FF00024E70B2B02D10022094BF8E7D4339B00E6
:10100000E3185868002800D118E7210003688031F0
:101010001B68984712E7C04664050000F82A0000E4
:101020005C050000C4090000540500004C050000E8
:1010300088130000FF00008000FFFFFF6C05000028
:1010400070B5294C201DE16D02F0F1FBA9220023AF
:10105000D200A350254AA350254AA350043AA350D6
:1010600090219A00C9005218A258002A38D11900BC
:101070002131204AFF3189007D3362509360D46072
:101080001D4B0020185EFFF7EBFA1C4D1C4BA8808F
:101090000020185EFFF7E4FA1A4BE8800020185E83
:1010A000FFF7DEFA184B28810020185EFFF7D8FA08
:1010B000164B68810020185EFFF7D2FA144BA88106
:1010C0000020185EFFF7CCFA0A4BE881D8689968CF
:1010D000026816682A00B0472000FFF78DFECFE7B0
:1010E0000133192BBCD1CBE794F1FF1F4C05000055
:1010F000540500002CF7FF1FC4F0FF1F84F1FF1FF1
:10110000C6F0FF1FC8F0FF1FCAF0FF1FCCF0FF1F83
:10111000CEF0FF1F10B50400024B08C000F080F8AD
:10112000200010BDA44E00000748084A10B5121A4E
:10113000002103F0B1F902F0E7FC03F04FF902F0EF
:10114000EAFC02F02BFDC04668F1FF1F641100208D
:1011500070B50D6806000C002800064902F020FE5C
:101160003368044918183060280002F09FFE21609F
:1011700070BDC04600CA9A3B436B806B181A431E71
:10118000984170470120704770B50400836B5A1C6A
:101190008263026B806BD55CE36B591E02F086FEA6
:1011A0002800A16370BD10B5002801D01CC91CC067
:1011B00010BD704710B54468836861100268E0078D
:1011C00001D5585882585818904710BDC36810B5BB
:1011D0000400002B01D09B689847200010BD000040
:1011E00070B50600084B0C3604000360002E08D0D2
:1011F00005002C35B54204D0103D2800FFF7E6FF6E
:10120000F8E7200070BDC0465C53000010B5040034
:10121000FFF7E6FF200002F0DFFC200010BD000019
:1012200030B500250400124B85B0083303602A0056
:101230006946039502F04AFB6846FFF7C7FF0122A3
:1012400069462000039502F041FB6846FFF7BEFFA8
:101250002000403000F032F92000303000F02EF94C
:10126000044B20002360FFF7BBFF200005B030BD1A
:10127000845000004453000010B50400FFF7D0FF75
:10128000200002F0A9FC200010BD7FB50400251D40
:10129000280002F0A0F900281DD0626CA36C9A42CD
:1012A0000FD0A36C5A1CA264226CA06CD65CE36CB9
:1012B000591E02F0FBFD2800A164310002F097F9ED
:1012C000E5E70023200001226946039302F0FEFABD
:1012D0006846FFF77BFF7FBD10B5140086B003930F
:1012E00008AA064B1278049102A90593029402F011
:1012F000EDFA02A8FFF76AFF06B010BDFC4F000030
:101300007FB51D00962304009B01089E02F074FA2D
:1013100020000C4B290008332360303000F0E1F846
:10132000310020006943403000F0DBF8002320004A
:101330000093054A2100FFF7CFFF20002565666571
:1013400004B070BD84500000B113000030B504003B
:1013500087B0043002F03FF9002816D000250122A2
:1013600002A92000059502F0B1FA02A8FFF72EFFAE
:101370002000FFF78AFF0123054A009321002B007C
:10138000200002920395FFF7A7FF07B030BDC046CB
:101390008B12000010B5040043685A1C42600268BA
:1013A000D154E3684068591E02F080FD616010BDB1
:1013B00070B5051D0400280002F0F6F8002807D0DB
:1013C000280002F0FDF8C1B220003030FFF7E2FF44
:1013D00070BD70B505000C004030C9B2FFF7DAFFF0
:1013E0002800FFF7B3FF200070BD70B506000D00A8
:1013F000081E11D00C00300021784030002903D0A5
:101400000134FFF7C7FFF6E70A21FFF7C3FF3000FB
:10141000FFF79CFF601B013070BDF8B505000E00A2
:10142000081E12D0002082420FD00C008F18BC4240
:1014300006D0280021784030FFF7ACFF0134F6E7F2
:101440002800A41BFFF782FF2000F8BD0EB408227D
:101450001C23F0B586B002AFBA18D4186A4608CC7F
:1014600005007B60036D00210733DB08DB00D31A26
:101470009D4602AE026D300003F00EF8220079683E
:101480003000FC6003F0EEFA2B6D020083420CD2B8
:1014900000905D220748084900F034F90020BD465D
:1014A00004B0F0BC08BC03B0184731002800FFF7B7
:1014B000B4FFF4E7485000000850000010B50400E5
:1014C0000068002801D002F081FB200010BD03005D
:1014D000002110B5DA6841608160006802F0DCFF2D
:1014E00010BD70B5040008000D0002F063FBE5605C
:1014F00020602000FFF7EBFF200070BD70B50D00ED
:101500000400160001F0E0FB6B1C07D00021200056
:1015100001F0FAFB3100200001F0F0FB70BD70B566
:10152000436804000D00002A0AD0C268136020003E
:10153000012101F0E9FB2900200001F0DFFB70BD73
:101540000269F3E710B50222FFF7D8FF10BD70B5AE
:101550000D000400160001F0B7FB6B1C04D0320034
:1015600000212000FFF7DBFF70BD10B50022FFF760
:10157000EEFF10BD00487047B850000010B502489B
:1015800000F004F810BDC046B8500000036870B504
:10159000DB680400984763685A682368002A02D110
:1015A0009B68984770BD5B681568984763682D1AFB
:1015B0005A68002D07DC916859601B68002BEAD03F
:1015C00050689847E7E7236810681B699847E9E780
:1015D00010B503685B68984710BD000010B50400A3
:1015E000431C0CD110BD9C4208D12000896801F039
:1015F0006DFD0021200001F089FDF3E70C31002290
:101600008B5E5A1CEFD1024800F07CF8EAE7C04636
:101610000551000010B5884208D0431C06D04B1C71
:1016200006D0044800F06EF801214942080010BDC0
:101630000100FBE7D450000000228B5E5A1C01D150
:10164000180002E0834201D1486870470C31F3E78B
:1016500010B50400431C07D0FFF7EEFF0400431C45
:1016600002D1024800F04EF8200010BDE550000005
:1016700010B500F041F810BDEFF31083012098433E
:101680007047000010B5FFF7F7FF72B6064A1368FF
:10169000002B04D101335840044BC0B218701368BA
:1016A00013680133136010BD4CF7FF1F48F7FF1F8D
:1016B00010B5094C2368002B0CD0FFF7DDFF236821
:1016C000013B23602368002B04D1044B1B78002BC3
:1016D00000D162B610BDC0464CF7FF1F48F7FF1F90
:1016E00030B585B06D461824201C291CABBE041CE7
:1016F000200005B030BD0000014B18687047C0469F
:10170000D0F0FF1F0FB4012010B502F047FA00001F
:1017100010B588B0FFF7B6FF094902A8FFF725FF0B
:101720009624039A059B20001A60019202F028F982
:10173000039A069B20001A60019202F021F9F0E75B
:101740004810000010B501F0EFFA10BD10B5024BC3
:101750001B689847FBE7C046D4F0FF1F10B50C4844
:1017600000F086FE02000B4B0B481A6000F080FE72
:1017700002000A4B0A481A6000F07AFE094B186012
:1017800002F02CFE0021002002F0C5F910BDC04679
:1017900064510000CC0B00206051000058F7FF1F7F
:1017A0005C51000050F7FF1F10B5FFF7CFFF10BDD1
:1017B00010B5040000F0BCFD210002000148FFF755
:1017C000A1FF10BD2451000010B502F009FA10BDB0
:1017D00080220A490A4B10B55B1A92001800934206
:1017E00000D91000074A1B1A074C1360CB18074A90
:1017F0002360074B1060196010BDC04668110020BF
:10180000003000200409002060F7FF1F5CF7FF1F75
:101810000809002000F012FFFFF7DAFF034800215B
:1018200000F0B8FE00F0FCFCFEE70000D8F0FF1F5F
:10183000012110B5024B4942186800F03BFE10BD73
:1018400058F7FF1F10B5024B186800F05DFE10BD81
:1018500058F7FF1F027830B5013A8C784368D2B24E
:10186000002B02D09D78A54208D24B604160022A2D
:1018700007D8002B00D09960886030BD18005B68E5
:10188000EEE700238B60F8E7436810B504785968E9
:10189000013C41600022022C06D8914201D08860B0
:1018A0005A609A60180010BD5A60FBE7034B5A68F3
:1018B00042600022586082607047C046C01000201D
:1018C000124A10B5D368002B13D0938AD4688B4288
:1018D0000DD3C460D060C4680261002C00D02061C8
:1018E0005B1A9BB28382918ACB1A938208E0002C08
:1018F00007D10024CB1AC460D06002619382848235
:1019000010BDA28A9B182200E0E7C046D810002034
:1019100070B5194DEB68002B09D00126AB8A013B4D
:10192000AB82AA8A002A02D1EC68002C00D170BDDB
:10193000A368002B08D0616859606168002901D054
:101940008B6062600023A36021000C48FFF782FFD8
:10195000A38AAB826378042B04D1094BE28A1B680B
:101960009B18A3820022E3686670EB60934201D06B
:101970001D61E2602261D4E7D8100020C010002071
:10198000541100208368002B06D042685A604268D8
:10199000002A00D093607047044B5A68904202D1ED
:1019A00042685A60F7E7131EF7D1F4E7C010002031
:1019B00070B584680500002C05D14378012B0CD14B
:1019C000064C03E0A4682378002BFBD02800FFF727
:1019D000D9FF29002000FFF73DFF70BDC010002097
:1019E000036910B5002B0DD0C268DA60C268002A06
:1019F00009D0998A848A0919998213610023C360E6
:101A00000023036110BD9A82FAE7000070B5114A05
:101A1000D478EFF31086EFF3108372B693789C427C
:101A200011D90133937013785D1CAC4200D10025AD
:101A30001570002E00D162B69C4206D9DB00D31887
:101A40005860996070BD002EF5D00220FFF7B0FEFF
:101A5000F8E7C046440B00200323037000234380B3
:101A600043608360C3607047F7B543880500FF207B
:101A7000002B0BD0344AA96812680192914205D11B
:101A8000013B9BB26B80002B01D00020FEBD0B6A96
:101A90009D4235D1EB680B624B1DDB7F0C6A002C3D
:101AA00036D18B706A68294F002A3CD02800FFF796
:101AB000EBFE0600210000F0CBF83000FFF790FFAE
:101AC00001236B80336AAE60EB601F4B356219688F
:101AD0007B688A789B7830009A420DD23800FFF7F5
:101AE000B9FE38003100FFF7B5FE0122164B200089
:101AF0001B685A700123737000F090FEC5E7130055
:101B0000002BC9D0DA689542F9D1EA68DA60C3E7F8
:101B10006268002A05D09078021C984200D21A1CF4
:101B2000D3B2E468BBE77A6892789A42ADD93800BC
:101B3000FFF790FE0122044B20001B685A7000F052
:101B40006DFE2000A2E7C0460C110020C01000204E
:101B500070B5428804000E00164D002A08D12B688B
:101B6000196A8360C160186200200132628070BD12
:101B7000836829688B42F7D00120002EF7D08A783D
:101B80009978914203D29A701800FFF711FF6268AA
:101B9000002A09D029682000FFF75CFE30000921E7
:101BA00000F05CFE0120E2E72B6863605A609C60F5
:101BB000F4E7C0460C110020F7B5836A01919B0839
:101BC00002D1204B1B889B08066B9C0034196207CE
:101BD00000D5043C8027221F7F0417602700019A4C
:101BE0002500083F3A600022403D290094466246A5
:101BF00004C18F42FBD12200C769203A1760019AC5
:101C0000C56242630F4A12680192D20012D5112BAD
:101C100010D9103B5B08DB005B421A00383AA4186D
:101C20002A000949A24208D1EB1804339E4201D28E
:101C3000054A1A60054B3360F7BD083A51601160E0
:101C4000F0E7C0466C510000CCCCCCCCA52E5AE2BB
:101C5000C36A19627047C36A19625A62704700000A
:101C6000064B1B78002B04D18022054B52051A60CD
:101C700070470122034B1A70FAE7C046B4070020F0
:101C800004ED00E0B50700201B4B70B51868012378
:101C90004370FFF70BFE194C6578A378002B06D133
:101CA00065701748FFF7F0FD00F09AFD70BDEB007E
:101CB000E31858680278002A14D1996889B200F0B4
:101CC000C7F9E37801359D4200D10025EFF3108379
:101CD000EFF3108272B6A278013AA270002BDCD129
:101CE00062B6DAE7012A03D1996800F03FF9E8E724
:101CF00000F0C6FFE5E7C0460C110020440B0020B1
:101D0000C0100020094B01201A68094B40421A609C
:101D10000022084B1A60084B07321A60FF23074A5B
:101D20001B0611680B4313607047C04684510000C6
:101D300014E000E018E000E010E000E020ED00E03A
:101D4000704700000B4B10B5186801234370FFF774
:101D5000ADFD00F0B1F9084A136801331360FFF7D5
:101D6000D7FD00F0BFFC0548FFF78EFD00F038FD01
:101D700010BDC0460C11002054110020C0100020DE
:101D8000074B10B51A68136BD26A934203D8054A01
:101D90001B68934202D00120FFF70AFD10BDC04628
:101DA0000C110020A52E5AE230B50300002A18DAE3
:101DB0000720102452005208073282430120002AD3
:101DC00016D015198D4213D859181C195042596054
:101DD0001C609A600918A318994207D31B501C0075
:101DE000F9E70320033282430C24E7E70020206058
:101DF00030BDEFF3108272B601231A400368002B46
:101E000001D019680160002A00D162B6180070473D
:101E10000300012099420CD35A68914209D2EFF392
:101E2000108272B61868086019600020D30700D4C9
:101E300062B670470123037000231039890843708C
:101E400083704360038143818381C18170470000B7
:101E500070B5150082890400002A3AD04389181D04
:101E60008000005901330860E1899BB26381994287
:101E700001D1002363816368002B1ED06378022B9D
:101E80001BD12000FFF700FD05000021FFF7E0FE59
:101E90002389E9691A1D920011510133E2899BB22D
:101EA00023819A4201D1002323812800FFF798FD66
:101EB000280000F0B3FC002070BDEFF31083EFF3B7
:101EC000108172B60020013AA2818342F4D162B639
:101ED000F2E70120002DEFD06268094B002A09D0FB
:101EE00019682000FFF7B6FC2800082100F0B6FCB6
:101EF0000120E1E71B6863605A609C606070F3E753
:101F00000C110020C3898089181A704710B5FFF79B
:101F10007DFDFFF7A5FE10BD10B5040083890020EC
:101F2000834222D0638904339B001B590B60637882
:101F3000022B05D101002000FFF768FDFFF790FE9E
:101F4000EFF31083EFF3108272B6A289013AA281F7
:101F5000002B00D162B66389E28901339BB26381B1
:101F600004209A4201D10023638110BD436870B5FB
:101F700004000D00002B4AD04678022E1FD0032EFD
:101F80000AD0012E42D1FFF77FFC04002A00102165
:101F9000FFF761FE66700DE00800FFF72AFF051EDF
:101FA00034D02000FFF770FC29000400FFF750FE3A
:101FB000012363702000FFF713FD210023E0FFF7EA
:101FC00063FC05000021FFF743FE2389E9691A1D20
:101FD00092001151EFF31082EFF3108172B6A189D4
:101FE0000131A181002A00D162B60133E2899BB29E
:101FF00023819A4201D100232381012328006B70A1
:10200000FFF7EEFC29001148FFF724FC70BD828920
:10201000C089824215D22389191D89000D51EFF321
:102020001081EFF3108572B60132A281002900D130
:1020300062B601339BB2984201D02381E6E70023C8
:10204000FBE70320FFF7B4FBE0E7C046C010002029
:1020500010B5038B4278194304000183438B062A91
:1020600014D11A000A4093420FD1994321832000D2
:10207000FFF7B6FC0123082120006370628BFFF795
:10208000EAFD21000548FFF7E5FB10BD052AFCD15C
:102090001A000A40F9D04283E7E7C046C01000208A
:1020A0000022034B1A60034A1268DA807047C04668
:1020B000F81000206851000010B50D4B0D4C186849
:1020C00062680D49904205D01A60DA880868013AC2
:1020D00082189A8098880A88904208D100222000AD
:1020E0001A60FFF7D1FB01002000FFF7B3FB10BD22
:1020F000F8100020C010002054110020002230B53C
:102100000B4C2368002B0AD103608160002B02D0A6
:102110009D68691A9960002A08D0106030BD9D68DA
:10212000A942F1D31A00491B1B68EBE72060F5E7D1
:1021300008110020002313B50200984215D0431C5B
:1021400015D00C4C0C49230088420ED8FA200B4BBA
:10215000800050431B680193013BC018019901F0B6
:102160001FFE2300A04200D883B2180016BD044B06
:10217000FBE7C046FEFF000000093D0020510000C3
:10218000FFFF0000002806D0830705D103785A42DC
:1021900053415B42184070470020FCE7B0B50F4D3B
:1021A00000AF2878002815D10D4C23680533D97F5E
:1021B00000F076FB2368DA78FF2A03D1DA6A20324E
:1021C00082F309886268002A00D10CC400F01CFD6B
:1021D00001232B70BD460020B0BDC0460511002074
:1021E0000C110020014B18787047C04605110020E3
:1021F00090B5EFF31084002C07D1EFF30584002C89
:1022000003D1EFF31484E40702D4034B187890BD94
:10221000024FBC4600DFFAE705110020E52100006F
:10222000F0B589B000AFEFF310838225002B3AD1CF
:10223000EFF30583002B36D1FFF7DAFF002807D133
:102240001B4C2468002C03D06468002C00D0A047ED
:10225000EFF3148403263440022C18D0B4421DD06E
:10226000FF25012C1FD020243C1984F30988114C30
:102270002478E4070FD5022484F31488BFF34F8F2A
:10228000BFF36F8F0C4FBC4600DF05000BE0094C1D
:102290002478E407F6D486F31488EFE7054CFF258D
:1022A0002478E407EED52800BD4609B0F0BDC0464D
:1022B000F41000204E5100009D21000070B50B006D
:1022C0001500002802D10024200070BD0668002EF1
:1022D000F9D00422845EE21C92B2062AF3D80022CE
:1022E000C168914200D002690434090221433000E0
:1022F00000F016FB0028E6D00A4B01388000C458D5
:10230000094AE36A5A63094B1B68002B07D09B6894
:10231000002B04D0E07829009847E063D4E7E56318
:10232000D2E7C046280B0020D9240000F41000207A
:1023300010B500F0ADFA031E03D00138024B800047
:10234000C358180010BDC046280B002010B5FFF779
:1023500019FF8023041E0FD0084B1B68002B04D0EC
:10236000DB68002B01D0C06B9847E07800F02AFBB7
:102370008123FF2800D00023180010BDF410002096
:10238000002310B5984204D0FFF7D4FE00F072FC91
:102390004023180010BD0000B0B50500EFF3108415
:1023A0008220002C07D1EFF30584002C03D12800F4
:1023B000014FBC4600DFB0BD81230000830706D17A
:1023C000002807D0436901691B6818007047002383
:1023D0001900FAE70300FBE790B504000800034F7B
:1023E000BC4600DF20606160200090BDBD2300007E
:1023F00010B5031E0AD00468231E07D000232278DC
:102400009A4203D12000FFF727FB2300180010BDDC
:1024100070B5032405000E0004408023002C12D167
:10242000002810D00278032A0DD10800FFF782FEA1
:1024300001002800FFF78CFB2300012803D1C133E2
:10244000002E00D1403B180070BD10B5032480233E
:1024500004400AD1002808D00278032A05D1FFF7EA
:1024600003FB8123FF2800D02300180010BD0000CB
:10247000F8B50500EFF31086002086420FD1EFF388
:1024800005843000002C0AD1EFF31480C00707D474
:1024900006480078002803D12800FFF7A9FFF8BDFF
:1024A0002800034FBC4600DFF9E7C04605110020B5
:1024B000F1230000B0B50500EFF310848220002C5A
:1024C00007D1EFF30584002C03D12800014FBC464F
:1024D00000DFB0BD1124000001210848B0B5494219
:1024E0000068FFF7E7FF064FBC4600DF0400FFF778
:1024F0006BF92000034FBC4600DFFEE7001100200F
:10250000312300004D230000B0B50500EFF3108427
:102510008220002C07D1EFF30584002C03D1280082
:10252000014FBC4600DFB0BD4B240000F7B50600EC
:1025300000910192EFF310820024A24210D1EFF338
:1025400005831400002B0BD1EFF31483DB0709D4B0
:102550000D4B1B78002B05D1019AFFF7AFFE04004D
:102560002000FEBD0121094D49422868FFF7A2FF66
:1025700030000099019A064FBC4600DF040028682D
:10258000FFF7C2FFECE7C046051100200011002054
:10259000BD22000010B50022FFF7C8FF10BD10B526
:1025A0000300041E0FD001680B1E0CD04068031EF0
:1025B00009D0002302789A4205D10431890089B2FA
:1025C000FFF738FC6368180010BD000070B5124DAD
:1025D0002B78002B01D100F09BFAFF220F4B2C78B7
:1025E0001B689A70002C11D121000D48FFF7D7FF0E
:1025F0000C4B2200186021000B48FFF75FFE0B4BCD
:1026000018600B48FFF734FF0A4B186001230020C5
:102610002B70094B187070BD041100200C110020A4
:1026200054510000C80B002070510000BC10002065
:10263000885100000011002005110020B0B5EFF313
:1026400010858224002D0AD1EFF30585002D06D1D7
:10265000EFF31484E40704D4FFF7B8FF040020006C
:10266000B0BD024FBC4600DFF8E70000CD250000FA
:1026700030B5040085B00D00002817D00378012B79
:1026800014D10800FFF756FD02A902002000FFF751
:10269000DFFB012808D12800451EA84180010299CE
:1026A0000022130005B030BD1020F8E78020002183
:1026B000F6E770B5802304000E00150000280ED048
:1026C000002A0CD10278012A09D1FFF71BFC8123D3
:1026D000002804D031002000FFF718FC2B00180060
:1026E00070BD0000F8B5124E3468002C06D00127EA
:1026F000A368013BA360A268002A00D0F8BD0D4B7F
:102700002568210018683560FFF7D3FF002802D044
:102710000420FFF74DF86379012B07D1E168200011
:10272000FFF7ECFC002DE9D02C00E4E72771F9E776
:1027300008110020C80B00207FB504001600081EF9
:1027400001D0002A04D080232360200004B070BD93
:102750000B78012BF7D102A901ADFFF7DDFB0428AF
:1027600004D00196230007CD07C3EEE710230193A1
:10277000F8E70000B0B504001500EFF31080002862
:1027800003D1EFF30580002805D02A002000FFF7D1
:10279000D3FF2000B0BD08001100034FBC4600DF8E
:1027A00020606160A260F4E77126000010B501248A
:1027B00086B06442094B2200196803A8FFF7DAFFCC
:1027C000039B102BF6D1049901A8FFF705FE019B8E
:1027D000002BEFD002989847ECE7C046C80B0020CA
:1027E000074B10B5586002234370064B1B68002B43
:1027F00004D01B69002B01D0C06B984710BDC046A8
:102800000C110020F410002010B50348FFF73CF82D
:10281000FFF7E6FF10BDC046C010002070B5041ED3
:1028200002D1FFF7F1FF70BD0A4EA2783068012592
:1028300083789A4207D9FFF739F8336820005D7032
:10284000FFF7CEFFEFE7657021000348FFF702F8BE
:10285000E9E7C0460C110020C010002070B50D0043
:1028600000280ED0074B084C984203D00100206886
:10287000FFF726F8236805485D70FFF705F8FFF7B6
:10288000AFFF70BDFFFF00000C110020C010002042
:10289000024B1B68181E00D0D87870470C1100201E
:1028A00010B5002816D11A4B1B6899700533D977DB
:1028B000184843689B788B4202D80022100010BD54
:1028C000134C2168FEF7C6FF012223685A70FFF7F8
:1028D0009BFFF2E7104BFF221B889842EED8431E65
:1028E0000E489B001C58002CE8D0631DA170D977BE
:1028F000074B1B689C42DBD02000FFF759F8637838
:10290000012BDAD10348FEF7BFFFFFF787FFD4E7BB
:102910000C110020C010002050510000280B002096
:10292000F7B51F00CBB215005A4253410090214821
:10293000CE18FFF75EFA041E02D100252800FEBD66
:10294000056301251C4B320A198882628D42F4D836
:102950006B1E01931948AB00043BC358002B01D0F8
:102960000135F3E70121F6B26170611DE570E761A1
:10297000A7632370A670CE77A11D6360A360E36098
:1029800023612362A382E38223836383CB77002ABC
:1029900003D10B48FFF72DFA206320000099FFF7C1
:1029A0000BF96B1E054A9B002000D450FFF736FF41
:1029B000C4E7C046F00E002050510000280B002054
:1029C00018090020F7B54C4D002803D02B68DB78A0
:1029D000984240D100232C680127637001F033F93D
:1029E000E062FFF7CDF92B681C6A002C13D12A682E
:1029F0004249D3784248013B9B005C50116BFFF782
:102A000007FA29683F480C63FFF702FA2C60FFF7CA
:102A1000FBFE2000FEBD6368002B16D02000FEF7F1
:102A200033FF06000021FFF713F93000FEF7D8FF4F
:102A3000777031003448FEF70DFFE368326A678033
:102A4000A660E26034621C00CFE7E2686380A360A6
:102A5000E3601400C9E72D4BFF241B889842D8D8A7
:102A6000013883000193019A244BD658002ED0D010
:102A70003000FEF787FF3000FEF7B2FF346A002C0B
:102A800017D11E4B019A316B1D489C50FFF7C0F9BE
:102A9000310034631B48FFF7BBF91B4829684368C2
:102AA0009A788B789A42B4D901234B70FEF7D2FE04
:102AB000ADE76368002B18D02000FEF7E5FE0700A5
:102AC0000021FFF7C5F83800FEF78AFF012339001F
:102AD0007B700D48FEF7BEFE0122E36862803A6A11
:102AE000A760E2603C621C00C9E7E2686380A36003
:102AF000E3601400C3E7C0460C110020280B00203F
:102B000018090020F00E0020C010002050510000D5
:102B10002D4B70B5198800231C002C488B424ED3D6
:102B20002B4B402219882B48FFF73EF980222A4B75
:102B300012061B88294E1A43294B30001968FFF7EB
:102B400033F9284B08221988274B00251868FFF70E
:102B50002BF9FF23254C3000E370FE3B6370631DAF
:102B6000DD77A31DDD77A5622570A5706560A56082
:102B7000E56025612562A582E58225836583FFF7EF
:102B800038F91B4920632000FFF716F80422194B7F
:102B900020001A705D60184B1A70DD601D619D8207
:102BA000164B1C6002236370FFF71AFE144A154B84
:102BB00012781D705D70DA70FFF772FA70BD9A00BE
:102BC000121814600133A9E750510000280B0020AF
:102BD0001C510000F00E00206C510000180900206C
:102BE000185100001E51000054F7FF1F141100205F
:102BF000A9170000C0100020D81000200C110020E0
:102C00004D510000440B0020FF22154B120419689F
:102C100010B50A431A601B68124A5B0211689B0ECA
:102C20009B060B431360FFF76DF80F4908600028FF
:102C300015DB83080D4A9B009B181822C00010402A
:102C4000E73282401C6822431A600A680849530927
:102C50009B005B181F210A401E399140196010BD6E
:102C600020ED00E01CED00E0F010002000E400E0AA
:102C700000E100E010B50321FFF7F0FD10BD0000FA
:102C8000436810B5002B0ED0FEF7FEFD0400FEF7E2
:102C9000A7FE012120006170FEF7DAFF2100044841
:102CA000FEF7D8FD10BD438801334380FAE7C046E4
:102CB000C010002010B50400012100F007FA012027
:102CC0006406E40EA04010BD70B505000C0029801C
:102CD0004B1C0FD00800FFF7EDFF074B240BE41847
:102CE000A401231DEB6004332B61143408336860A6
:102CF0006B61AC6070BDC046C03FE00310B50023FF
:102D0000C05E00F003FA10BD002902D0012906D0F0
:102D100070478268416813688B431360F8E78268E4
:102D2000416813680B43F8E72A22034B1A7000220C
:102D3000024B1A6130BF704700E0074000ED00E031
:102D40000022064B1A609860196840320A431A60E4
:102D5000012219680A431A607047C0460000044007
:102D600080230D4A70B511680C4D0B4313602C681D
:102D7000002C05D00A48013CFFF7E2FF2C6070BD33
:102D8000084D2888002803D0FFF7DAFF2C80F6E7EB
:102D9000FEF7F4FBF3E7C04600000440CC07002038
:102DA000FFFF0000D0070020F7B5684B1A680192BA
:102DB000002A00D08FE001241C608023644E654A05
:102DC0001B04B158644D0B43B350019A634B644FDD
:102DD0001A6001235B426B610533EB61EB692343AE
:102DE000EB61604B3868F1580723090C1940091949
:102DF00000F0D6FF5C4B5D49C01800F0D1FF5C4A83
:102E000001386860EC60B3585A4D2343B350019BBE
:102E10001C202B60584900F04FFC8022574B520574
:102E20001A603F224F4B3F68F058554E000F3378E1
:102E3000001947439343802B33D03378934364D1B5
:102E400073795B0653D4B379DB065ED43378383AB2
:102E5000DB087178134029329C40114203D0FF23D4
:102E600064015B011C401F22F3789343602B35D033
:102E700007D8202B0ED0402B2ED0002B35D1A021EF
:102E800006E0A02B2DD0C02B2DD0802B2DD1B7212B
:102E9000890001E0A021C9002000784300F080FFF4
:102EA0000700002F31D03149380000F0FFFF0C1E21
:102EB0002BD12E49380000F073FF0723012842D0A0
:102EC00021000123400801281AD17823C9001940A4
:102ED000753B19436960F7BDF021DCE7A0210901CA
:102EE000DAE7B721D7E72749D6E72749D4E71F23F1
:102EF0003079717918400130194078431831CDE7A5
:102F0000184202D101314008DDE702233278134331
:102F10003370012372781343737000230E226B60A9
:102F2000337A13400AD0022B0CD0337A9343337296
:102F30000423327A1A4332726A6801E008236A680D
:102F4000134300E06B686B60C5E7C046C80700200C
:102F5000007004403C100000FC700340007003400F
:102F6000ECF0FF1F4410000020A1070040420F00BA
:102F70003810000000000440612D000000E100E076
:102F80000040064095080000710B0000054B10B58D
:102F90001B68002B01D1FFF707FF034B9869C04363
:102FA00010BDC046C8070020FC7003404021024A03
:102FB00013688B43136070470000044070470000A3
:102FC00070B50400FFF7E2FF201A002800DC0120A2
:102FD000084D094E041480B22C603080002C05D0BE
:102FE0000648013CFFF7ACFE2C6070BDFFF7A8FE61
:102FF0003480FAE7CC070020D0070020FFFF000054
:10300000F8B50E00224F040039003000FEF720FB17
:103010008022204B2049C5B2585812050243257022
:103020005A500122310B09318A401C481C58224356
:1030300020242C401A5062425441194A24019958C4
:10304000184B4903490F1868013100F0A9FE00230D
:10305000154A0100D940914203D90133042BF8D11C
:1030600003331F2059010540413001409B083C308B
:103070000E4A03430B4355609360042300211C4315
:10308000D4603000116239005362FEF7A7FAF8BD30
:103090008C510000007004403C100000381000000B
:1030A00044100000ECF0FF1F808D5B0000B0034077
:1030B0001F2302781A40044B1A60802219681142BB
:1030C000FCD0186980B2704700B00340030BF0B524
:1030D0001F0001220937BA40084D094C09022E5938
:1030E00032432A51074A9B187C221B0310401818B0
:1030F0000368054A134019430160F0BD00700440A5
:103100003810000049000400FFF8FFFF0322034BC2
:10311000C01803689343194301607047009004404E
:103120003F2100200E4A10B513788B4383420FD104
:103130000C490D4B58580D49000F096801304843A0
:1031400051790B4A490604D499580A4C21409950A8
:1031500010BD80219C584902214399504008F7E74F
:10316000004006404410000000700440ECF0FF1FD7
:1031700004100000FFFFFEFF70B50A4D8C00060032
:10318000605900280DD073B2002B03DA064B0121E1
:103190001B689847B30604D5034B00211B682859C8
:1031A000984770BDD8070020D407002010B5034B06
:1031B00001211879C0B2FFF7DFFF10BD00B0064053
:1031C00010B5034B02211879C0B2FFF7D5FF10BD2F
:1031D00000C0064010B5074C00212079C0B2FFF7AF
:1031E000CBFF082322791A4202D02279134323719C
:1031F00010BDC04600A00640F7B50D000C210368C5
:103200000600DC780C400194DA788A43DA70414A8F
:10321000934200D073E0FFF783FF002814D0FFF73C
:103220007FFF290100F0BCFD1F253268030A1178D9
:103230002B40A9430B431370C0B253785070D3781E
:10324000019C1C43D470F7BD334B344AD758344BE0
:103250003F0F1A683F2301375743324A9C46117883
:1032600099431300802953D064461178A143D8D1E3
:10327000517949063AD49279D206D2D419785A783B
:10328000890694460122490F8A4030206146014256
:1032900003D0FF21520149010A401F21DB788B43F3
:1032A000602B1AD007D8202B0ED0402B13D0002B28
:1032B0001AD1A02106E0A02B12D0C02B12D0802B57
:1032C00012D1B721890001E0A021C9007A43100082
:1032D00000F066FDA5E7F021F7E7A0210901F5E779
:1032E000B721F2E71049F1E71049EFE71F23107902
:1032F000517918400130194078431831E8E7064BFE
:10330000064AD158064B4903490F01311868DFE7D7
:10331000380086E700A0064044100000007004401A
:10332000ECF0FF1F0040064095080000710B000004
:10333000F0B50C270168C878CE783840BE43CE700F
:10334000012A15D0002A13D0022A14D064002C437D
:10335000E4B28C7020240A78013BA2430A700A78F8
:103360005B011343DBB20B70CB781843C870F0BD20
:1033700015001400EAE700250124E7E7F8B50E0080
:103380000400494930001700FEF762F9474905007B
:103390003800FEF75DF901002800FEF73BF9444BC9
:1033A00005002060984200D16CE0424B984200D169
:1033B00070E0414B984210D1FFF7B2FE3F4B404ABC
:1033C00000285BD080219858C9040143995080227D
:1033D0003C49D200585802435A500C212368DA78ED
:1033E0008A43DA700822D9780A43DA7040221979C0
:1033F0001142FCD00C21DA788A43DA702C4B9D42C2
:103400004ED02C4B9D424DD02B4B9D4201D10023E1
:103410006360962120008901FFF7EEFE0123002260
:1034200008212000FFF784FF1F493000FEF7D6F87F
:103430001E493800FEF7D2F8731C08D00823226812
:103440003000D1780B43D3700221FFF75FFE7B1C65
:1034500008D0042322683800D1780B43D3700221AE
:10346000FFF754FE144B9D4207D10122164B210059
:103470001A601648073200F0F4FFF8BD8021985812
:103480000905A2E780230D490E4A1B018858034312
:103490008B50A2E7802309490A4A5B018858F6E766
:1034A0000123B5E70223B3E7C452000058520000DD
:1034B00000B0064000C0064000A006400070044076
:1034C0000410000034100000E40700205811002010
:1034D000034B1960436803499B005A507047C0462C
:1034E000D4070020D80700200368274810B583427E
:1034F00016D02648834216D02548834216D10C2484
:103500002448002A1DD0002913D0012916D001001B
:10351000200000F0D1F80123A3401F4A136010BD22
:103520001E480D24EDE71E480E24EAE700200400A3
:10353000E7E72022D9780A43DA70E8E7DA788021D1
:10354000F9E7002904D001290BD0002904D00CE0B0
:103550002021DA788A43DA70DB785BB2DB43DB0F59
:1035600007E07F21DA780A40DA70DA78012352091D
:103570009343002BD3D00123A3400A4AD367BFF360
:103580004F8FBFF36F8FCAE700B0064000C0064000
:1035900000A00640D531000000E100E0AD310000A0
:1035A000C131000004E100E00822036819791142EA
:1035B00002D019790A431A711879202318407047EC
:1035C00010B504002000FFF7EFFF0028FAD02368B1
:1035D000D879C0B210BD082203681979114202D00F
:1035E00019790A431A7118797F239843704770B587
:1035F00005000C002800FFF7EEFF0028FAD02B682A
:10360000E4B2DC7170BD7FB510216846FDF79AFF0A
:1036100007B000BD882200201F4B520110B5985002
:1036200080221E4992005C5822435A501C491D4A70
:103630001D4C99501D4B996C21409964DA6C1F21E7
:103640002240DA6489221A4B1A701A4B653A5A7072
:1036500076321A70DA780A40DA7001221A715871DB
:103660000F3299791142FCD10C219A790A40082A2B
:10367000FBD10C2138325A719A790A40082AFBD1C1
:10368000383299791142FCD01A220C211A709A7999
:103690000A400C2AFBD110BD007004403810000015
:1036A0000000011044100000FFF8FFFE00900440ED
:1036B00000500640004006400A4AF0B593689568FD
:1036C0001C00002D0AD11D00074CC035E61A1F68EA
:1036D000F7500433AB42FAD19460034C10308000B1
:1036E0000151F0BD00ED00E000F0FF1F10B5040037
:1036F000FDF7C8FF2368002B05D1E068FDF768FFE0
:10370000012360602360FDF7D3FF10BD70B5050095
:10371000FDF7B8FF2C68002C04D0E868FDF758FFCF
:103720006C68041BFDF7C4FF200070BD70B5050078
:10373000FDF7A8FF2800AC68FFF7E8FF2418FDF7A5
:10374000B7FF200070BD10B5FFF7F0FFFA21890028
:1037500000F0B0FB10BD10B50400FDF793FFE0686A
:10376000FDF736FF00236060A360FDF7A1FF10BDE9
:10377000002310B50360436083600400FDF7FAFE88
:10378000E0602000FFF7E7FF200010BD10B50368E0
:10379000984710BD002801D00B6803607047704740
:1037A00070B504000D0088420CD0FDF70FFD002C11
:1037B00008D0EB68002B03D05B68290020009847F5
:1037C000EB68E360200070BD7047000010B5040096
:1037D000034B08330360FDF703FD200010BDC04616
:1037E0003C53000010B50400FFF7F0FF200000F08C
:1037F000F3F9200010BD000010B5040000F028F817
:10380000024B20000833236010BDC0463C5300002B
:103810007047704770470B01013110B5090141181D
:103820008A680C33C31812681800904710BD70B531
:1038300004000D0003681B6898472900201DFFF74E
:10384000DBFC2368E5625B682000984770BD0000E0
:10385000F0B587B00192194A0400083202600022D4
:10386000174E184DC36242608260826182620F000F
:103870000C3002A905950296FFF792FF02A8FDF70A
:10388000A5FC200002A91C3005950296251DFFF716
:1038900087FF02A8FDF79AFC019A39002800FFF77C
:1038A0006DFDE16A2800FFF7A7FC28002200064909
:1038B000FFF70EFE200007B0F0BDC04654530000D5
:1038C000113800003053000017380000F0B50F0029
:1038D00004001500036887B01B689847FDF7D2FE07
:1038E000FB6828010193261D002B11D00C302018F5
:1038F0003900FFF755FF012229003000FFF7F4FDE2
:10390000FDF7D6FE236820005B68984707B0F0BD3E
:10391000064B0C300293064B02A920180593FFF7C3
:103920003FFF02A8FDF752FC019AE5E711380000BD
:103930003053000010B500F001FE10BD10B500F0CE
:103940005BFE10BD10B500F0AFFD10BD70B50400FA
:10395000FFF71CFBFA2105008900200000F0AAFAFD
:10396000061E03DDFDF788FE002805D1FFF70EFBDC
:10397000401BA042FAD370BD300000F03BF9F5E7E0
:10398000FA2310B59B005843FFF7E0FF10BD00007D
:10399000084B10B51B68002B0AD1074C08212000EA
:1039A0000422FFF7EBFC962120008901FFF724FC9D
:1039B00010BDC046E40700205811002070470000E9
:1039C00010B50400022801DC002010BD00F05EFBF1
:1039D000092300220360033C084BA400E058E25096
:1039E000904208D003681B699847041EECDA00F087
:1039F0004DFB6442046001204042E6E704080020D9
:103A000070B506000D00140000F040FB09230360B0
:103A1000022E0EDC124B1B68002B01D1FFF7B8FF02
:103A20002E19B54216D029780E48FFF7E0FD013572
:103A3000F7E7033E0C4BB600F05800280CD00368A3
:103A40002200DB6829009847041E03DA00F01EFB01
:103A500063420360200070BD01246442FAE7C0465F
:103A6000E4070020581100200408002070B504006D
:103A70000D00160000F00AFB09230360022C0CDC89
:103A8000104B1B68002B01D1FFF782FF0E48FFF798
:103A900097FD01242870200070BD033C0B4BA4004F
:103AA000E05800280BD0036832009B682900984733
:103AB000041EF0DA00F0EAFA63420360EBE7012447
:103AC0006442E8E7E40700205811002004080020C1
:103AD00070B504000D00160000F0D8FA0923036049
:103AE0000020022C0ADD033C064BA400E05800280D
:103AF00005D003683200DB692900984770BD0120BA
:103B00004042FBE70408002010B5FFF757FFFDF720
:103B100081FE10BD704710B5FFF7FCFFFDF790FA6E
:103B200010BD00000C4910B50B681818EFF308829F
:103B3000904205D30C220120084B40421A6010BD70
:103B4000074A1468002C04D0064A126812199042E1
:103B5000F0D208601800F2E7F0F0FF1F60110020BB
:103B6000040900200809002070B50A4C05002368EC
:103B7000986800F047FB2368D86800F043FBFDF726
:103B800077FD002801D0FDF7ABFD002D01D0FDF73A
:103B9000BFFDFEE7F4F0FF1F0120704710B5FFF7EF
:103BA000E3FF10B5FDF744FE10BD10B5FDF74AFE6A
:103BB00010BD000010B500F035FC041E02D1024813
:103BC000FDF7A0FD200010BD6C53000010B50028CB
:103BD00001D000F031FC10BD10B5FFF7F7FF10BDAC
:103BE000034B10B51B68002B00D0984710BDC04692
:103BF0000C09002010B5FEF7CFFB10BD70B5050015
:103C00000400083510220021280000F045FC656002
:103C1000201DFEF72DFC2060002802D10248FDF790
:103C200071FD200070BDC0468B53000010B50068C8
:103C3000FEF740FC10BD10B50068FEF765FC10BD36
:103C400080F309887047EFF309807047684680F376
:103C500009884A480078C00703D1032080F31488FC
:103C60007047022080F314887047454B9C46EFF361
:103C700005831B0605D1EFF31483DB0701D000DFBA
:103C8000704760473F4B9C46EFF305831B0605D109
:103C9000EFF31483DB0701D000DF70476047EFF3D9
:103CA000098081690239097800292BD1A6461FC8ED
:103CB000A4467446E047EFF3098307C3324B06CBB3
:103CC00091421CD0083B00290DD0EFF30980203829
:103CD000C862F0C044464D4656465F46F0C00CB43C
:103CE000FEF74EF80CBC1A60D06A1030F0C8A0463F
:103CF000A946B246BB4680F309882038F0C80220A6
:103D0000C043004710B5214A1268914209D8204C9F
:103D100089006458A6461FC8A446F047EFF30984FB
:103D20000FC410BDFDF7B0FF174B06CB91421AD060
:103D3000083BEFF309802038C862F0C044464D4686
:103D400056465F46F0C00CB4FEF71AF80CBC1A6079
:103D5000D06A1030F0C8A046A946B246BB4680F3F0
:103D600009882038F0C80220C0430047FDF7EAFF69
:103D7000DAE7FDF7E5FFFDF7E5FFD5E74E51000077
:103D8000F31D0000111E00000C11002000000000B7
:103D9000FCFFFFFFFEE7FEE7FEE7FEE7FEE7FEE7CC
:103DA000002243088B4274D303098B425FD3030A7A
:103DB0008B4244D3030B8B4228D3030C8B420DD38D
:103DC000FF22090212BA030C8B4202D3121209021B
:103DD00065D0030B8B4219D300E0090AC30B8B4259
:103DE00001D3CB03C01A5241830B8B4201D38B0307
:103DF000C01A5241430B8B4201D34B03C01A5241AC
:103E0000030B8B4201D30B03C01A5241C30A8B42EE
:103E100001D3CB02C01A5241830A8B4201D38B02D9
:103E2000C01A5241430A8B4201D34B02C01A52417D
:103E3000030A8B4201D30B02C01A5241CDD2C309EF
:103E40008B4201D3CB01C01A524183098B4201D36B
:103E50008B01C01A524143098B4201D34B01C01A56
:103E6000524103098B4201D30B01C01A5241C308CE
:103E70008B4201D3CB00C01A524183088B4201D33D
:103E80008B00C01A524143088B4201D34B00C01A29
:103E90005241411A00D20146524110467047FFE795
:103EA00001B5002000F0F0F802BDC0460029F7D0AF
:103EB00076E7704703460B437FD4002243088B42CA
:103EC00074D303098B425FD3030A8B4244D3030BA1
:103ED0008B4228D3030C8B420DD3FF22090212BA66
:103EE000030C8B4202D31212090265D0030B8B42E2
:103EF00019D300E0090AC30B8B4201D3CB03C01ACC
:103F00005241830B8B4201D38B03C01A5241430BA6
:103F10008B4201D34B03C01A5241030B8B4201D396
:103F20000B03C01A5241C30A8B4201D3CB02C01A01
:103F30005241830A8B4201D38B02C01A5241430A79
:103F40008B4201D34B02C01A5241030A8B4201D368
:103F50000B02C01A5241CDD2C3098B4201D3CB010F
:103F6000C01A524183098B4201D38B01C01A5241BE
:103F700043098B4201D34B01C01A524103098B42C2
:103F800001D30B01C01A5241C3088B4201D3CB00AD
:103F9000C01A524183088B4201D38B00C01A524190
:103FA00043088B4201D34B00C01A5241411A00D240
:103FB00001465241104670475DE0CA0F00D04942A9
:103FC000031000D34042534000229C4603098B4219
:103FD0002DD3030A8B4212D3FC22890112BA030AA1
:103FE0008B420CD3890192118B4208D38901921123
:103FF0008B4204D389013AD0921100E08909C309A8
:104000008B4201D3CB01C01A524183098B4201D3A9
:104010008B01C01A524143098B4201D34B01C01A94
:10402000524103098B4201D30B01C01A5241C3080C
:104030008B4201D3CB00C01A524183088B4201D37B
:104040008B00C01A5241D9D243088B4201D34B0096
:10405000C01A5241411A00D20146634652415B10D8
:10406000104601D34042002B00D5494270476346B9
:104070005B1000D3404201B5002000F005F802BDFE
:104080000029F8D016E770477047C046014B186802
:104090007047C046F4F0FF1FF7B58A8905000C0091
:1040A000130760D44B68002B04DC0B6C002B01DC85
:1040B0000020FEBDE76A002FFAD000232E682B6097
:1040C00080235B011A4034D0606DA3895B0706D55D
:1040D0006368C01A636B002B01D0236CC01A020006
:1040E000216A00232800E76AB847A189431C06D14A
:1040F0002B681D2B31D82C4ADA40D3072DD500234D
:10410000636023692360CB0405D5431C02D12B686F
:10411000002B00D16065616B2E600029C8D02300A0
:104120004433994202D02800FFF70CFC0020606362
:10413000BFE70123216A2800B847431CC5D12B687B
:10414000002BC2D01D2B01D0162B01D12E60AFE762
:104150004023A2891343A381ABE740230B430120F3
:10416000A3814042A5E70F69002FA1D00B680F6023
:10417000DB1B01930023920700D14B69A360019BD5
:10418000002B00DC94E7019B3A00216A2800A66A14
:10419000B047002803DC4023A2891343DFE7019BDB
:1041A0003F181B1A0193EAE7010040200B6970B524
:1041B00005000C00002B01D1002070BD002804D0A8
:1041C0008369002B01D100F073F80B4B9C4209D19D
:1041D0006C680C22A35E002BEED021002800FFF7B4
:1041E0005BFFEAE7054B9C4201D1AC68F1E7044B69
:1041F0009C42EED1EC68ECE7D0530000F053000095
:10420000B053000010B5011E05D1054B05491868D3
:1042100000F0C2F810BD044B1868FFF7C7FFF9E7BC
:1042200010540000AD410000F4F0FF1F10B502492A
:1042300000F0B2F810BDC046AD410000002310B53B
:10424000040003604360836081814366C28103612F
:1042500043618361190008225C3000F01DF9054BB1
:1042600024626362044BA362044BE362044B236346
:1042700010BDC0468D490000B5490000ED49000061
:10428000194A000070B568254A1E55430E002900E2
:104290007431FFF74FFB041E08D000212A00016093
:1042A00046600C30A060683200F0F6F8200070BD67
:1042B000836913B50400002B28D18364C3640365AC
:1042C000134B144A1B6882620193984201D1012367
:1042D0008361200000F020F86060200000F01CF8EE
:1042E000A060200000F018F80022E060042160685F
:1042F000FFF7A4FF01220921A068FFF79FFF022218
:104300001221E068FFF79AFF0123A36113BDC046A5
:10431000105400002D420000F8B51E4B07001E6827
:10432000B369002B02D13000FFF7C2FF4836B468F2
:104330007368013B04D53368002B07D03668F6E775
:104340000C22A55E002D0DD06834F2E70421380060
:10435000FFF798FF30600028F0D10C2304003B6089
:104360002000F8BD012320005B42E3810233A381DA
:1043700065662560A560656025616561A5610822A7
:1043800029005C3000F088F86563A563A564E564E6
:10439000E6E7C04610540000F7B504000700002609
:1043A00001914834002C01D13000FEBD6368A5683E
:1043B0000093009B013B009301D52468F2E7AB8991
:1043C000012B08D90E22AB5E013304D0290038003E
:1043D000019B984706436835EBE7000070B500265F
:1043E0000C4D0D4C641BA410A64209D1002600F010
:1043F00001FD0A4D0A4C641BA410A64205D170BDF4
:10440000B300EB5898470136EEE7B300EB589847F6
:104410000136F2E758F1FF1F58F1FF1F58F1FF1F57
:1044200060F1FF1F10B5034B01001868FFF782FA17
:1044300010BDC046F4F0FF1F10B5034B0100186813
:10444000FFF780FA10BDC046F4F0FF1FC9B2821812
:10445000904201D10020704703788B42FBD001309D
:10446000F6E7002310B59A4200D110BDCC5CC454CD
:104470000133F8E710B5884202D98B18984208D367
:1044800000239A4207D0CC5CC4540133F9E78B5C1B
:104490008354013AFBD210BD03008218934200D12D
:1044A000704719700133F9E770B50500002910D085
:1044B0000C1F2368002B00DAE4182800FFF771FBBB
:1044C0001D4A1368002B05D1636014602800FFF7B4
:1044D0006CFB70BDA34209D9216860188342F3D1F7
:1044E00018685B6841182160EEE713005A68002ADB
:1044F00001D0A242F9D919685818A0420BD12068FE
:104500000918581819608242E0D1106852684118A1
:1045100019605A60DAE7A04202D90C232B60D5E774
:1045200021686018824203D11068526841182160E6
:1045300062605C60CAE7C04610090020032370B5C2
:10454000CD1C9D43083506000C2D1ED20C25A9421A
:104550001DD83000FFF725FB254A146821000029EB
:1045600019D1244C2368002B03D1300000F0FCF952
:1045700020602900300000F0F7F9431C2CD10C23F7
:1045800030003360FFF711FB03E0002DDFDA0C236E
:104590003360002070BD0B685B1B1AD40B2B03D952
:1045A0000B60CC18256003E08C420ED16368136069
:1045B0003000FFF7FAFA200007220B30231D90434A
:1045C000C31AE7D05A42E250E4E74B6863600C003C
:1045D000EEE70C004968C2E70323C41C9C43A042D9
:1045E000E0D0211A300000F0BFF9431CDAD1C6E751
:1045F0001009002014090020F8B507000D0016006E
:10460000002905D11100FFF795F904002000F8BD3D
:10461000002A03D1FFF796F93400F7E700F068FAB3
:104620002C008642F2D931003800FFF783F9041ECE
:10463000ECD029003200FFF714FF29003800FFF703
:1046400081F9E3E7F7B5150001938A680B690090DB
:104650000C00934200DA130022002B6043321278E0
:10466000002A01D001332B6023689B0602D52B68FA
:1046700002332B60062723681F4027D023004333D3
:104680001B785A1E93412268920630D42200019969
:1046900043320098089EB047431C25D0062320686B
:1046A0002A68E16803400025042B03D18D1AEB43EF
:1046B000DB171D40A3682269934201DD9B1AED18A8
:1046C0000027BD4220D1002010E00137E3682A68AE
:1046D0009B1A9F42D2DA22000123193201990098D5
:1046E000089EB047431CF0D101204042FEBD30205F
:1046F000E1184331087021005A1C45310978A2188D
:10470000433202331170C1E7220001231A320199AA
:104710000098089EB047431CE6D00137D1E700005F
:10472000F0B58BB006920A004332079305900492CD
:104730000A7E0C00109B6E2A00D18FE017D8632AE6
:104740002CD008D8002A00D199E0582A54D026004D
:104750004236327029E0642A01D0692AF7D12168F3
:104760001A68080623D5111D1960156825E0732AFB
:1047700000D188E008D86F2A29D0702AE7D12022FA
:1047800009680A43226003E0752A20D0782ADED126
:1047900022007821453211706C4A30E00E001A6810
:1047A0004236111D196013683370012379E0490600
:1047B000D9D5111D19600023D55E002D03DA2D23F4
:1047C000049A6D421370624B0A2703932FE020680E
:1047D0001968050603D5081D18600D6805E0400638
:1047E000F9D50D68081D1860ADB2594B0827039321
:1047F0006F2A18D00A2716E045310A70544A0392EE
:104800001A682168101D18601568080622D5CB07A4
:1048100002D52023194321601027002D03D1202326
:1048200022689A4322602300002243331A7063688F
:10483000A360002B5CDB0422216891432160002DE2
:1048400058D1049E002B64D02600039B42361B786F
:1048500033705EE04806DAD5ADB2D8E709681A6869
:10486000080605D5111D1960136862691A6006E013
:104870004906F7D5111D19601368A28A1A80002312
:10488000049E236154E01A68111D19601668002106
:1048900062683000FFF7DAFD002801D0801B6060FD
:1048A000636823610023049A137041E02369320096
:1048B00006990598079DA847431C43D02368002507
:1048C0009B070FD4099BE06898423DDA18003BE053
:1048D00022000123193206990598079EB047431C10
:1048E00030D00135E368099A9B1A9D42F0DBE9E775
:1048F000002DA9D0049E28003900FFF7D7FA039BAA
:10490000013E5B5C280033703900FFF749FA051E51
:10491000F1D1082F09D12368DB0706D56368226926
:10492000934202DC3023013E3370049B9B1B2361C6
:10493000079B09AA00932100069B0598FFF782FEBA
:10494000431CB3D1012040420BB0F0BD2554000000
:104950001454000010B5034B0A0001001868FEF75C
:10496000EDFF10BDF4F0FF1F002370B5064C0500ED
:1049700008002360FFF7D6F8431C03D12368002BFF
:1049800000D02B6070BDC0466011002070B50C00D7
:104990000E25495F00F01AFA002803DB636D1B182F
:1049A000636570BDA389024A1340A381F9E7C0463D
:1049B000FFEFFFFFF8B51F008B8905000C00160004
:1049C000DB0505D50E23C95E0022022300F07CF82A
:1049D000A389054A28001340A38132000E23E15E1B
:1049E0003B0000F04BF8F8BDFFEFFFFF70B50C0087
:1049F0000E25495F00F068F8A389421C03D1054ADF
:104A00001340A38170BD802252011343A3816065CE
:104A1000F8E7C046FFEFFFFF10B50E23C95E00F0B8
:104A200041F810BD0023C25C0133002AFBD1581E9F
:104A30007047000030B59BB00091049108496D4665
:104A400002910591012182244942E981A40069462D
:104A5000AC8100F0B7F80023009A13701BB030BD92
:104A6000FFFFFF7F10B513000A0001000248006835
:104A7000FFF7E0FF10BDC046F4F0FF1F70B5050062
:104A8000080011000022064C22601A00FEF7B8FF51
:104A9000431C03D12368002B00D02B6070BDC0469F
:104AA00060110020002370B5064C0500080023604B
:104AB000FEF786FF431C03D12368002B00D02B6038
:104AC00070BDC0466011002070B5050008001100DF
:104AD0000022064C22601A00FEF7FAFF431C03D1A5
:104AE0002368002B00D02B6070BDC04660110020F1
:104AF0000B1F1B68181F002B01DA0B58C0187047DA
:104B0000F0B58E6885B007000C00039201939E42B9
:104B100039D890238A89DB001A4234D003250969E9
:104B200023685B1A0293636902985D43EB0F5D197A
:104B3000019B6D1001331B18AB4200D91D005305BA
:104B400032D529003800FEF7F5FE061E09D10C23E8
:104B50003B6040230120A28940421343A38105B05A
:104B6000F0BD029A2169FFF77CFCA389144A1A4020
:104B700080231343A381029B2661F618266065619A
:104B8000019EED1AA560019BB34200D21E003200C7
:104B900003992068FFF76EFCA36800209B1BA360AD
:104BA00023689E192660DAE72A003800FEF7C6FE61
:104BB000061EE0D121693800FEF7C4FEC7E7C046F3
:104BC0007FFBFFFFF0B59FB0029005938B890F002C
:104BD00016001B0611D50B69002B0ED14021FEF7E4
:104BE000A9FE38603861002805D10C23029A0138EB
:104BF00013601FB0F0BD40237B61002306AD6B61E5
:104C000020336B761033AB7634002378002B47D1FA
:104C1000A31B04930DD0A31B320039000298FFF7A9
:104C20006FFF431C00D1B5E06A69049B944663445E
:104C30006B612378002B00D1ACE0012200235242AB
:104C40006A6002A95432521801342B60EB60AB60E9
:104C50001370AB65584E052221783000FFF7F6FB44
:104C6000621C002820D12968CB0604D5532302AE4C
:104C700020309B1918700B0704D553232B2002AE4C
:104C80009B19187023782A2B16D000200A21099B23
:104C90002278303A092A55D9002815D0099313E013
:104CA000252BB5D00134B0E70123801B8340296850
:104CB00014000B432B60CDE7059B181D1B68059066
:104CC000002B39DB0993140023782E2B0BD163784A
:104CD000621C2A2B3ED1059B02341A1D1B680592CB
:104CE000002B34DB0793354E217803223000FFF789
:104CF000ADFB002806D04023801B83402A68013486
:104D000013432B60217806222D48661C2976FFF775
:104D10009DFB002846D02B4B002B2FD12968059BEB
:104D20000722C90528D59B189343083305936B695F
:104D3000039A9B186B6167E75B42EB6002230B43AE
:104D40002B60C0E74B4301349B180120A0E70123EF
:104D50005B42C7E7002314000A201A006B60217829
:104D60003039092903D9002BBDD00792BBE7424354
:104D7000013452180123F2E70733D5E705AB00935E
:104D80003A00114B2900029800E000BF0390039BFA
:104D90000133CCD1BB890B985B0600D429E70120F5
:104DA000404226E705AB00933A00074B29000298E2
:104DB000FFF7B6FCEAE7C046365400003C5400005A
:104DC0004054000000000000014B000070B50500D9
:104DD000080011000022064C22601A00FEF746FE71
:104DE000431C03D12368002B00D02B6070BDC0464C
:104DF00060110020F8B5C046F8BC08BC9E4670475C
:104E0000F8B5C046F8BC08BC9E46704700000000DC
:104E10000000000071040000C9050000D505000075
:104E20001D060000000000000000000073040000E8
:104E3000A3040000E1040000E904000000000000F9
:104E400000000000B507000081080000F104000028
:104E5000F904000000000000000000008D070000C1
:104E60004D080000010500000905000000000000D9
:104E700000000000B90600002F0900001105000025
:104E800019050000000000000000000021050000DE
:104E900061050000AD050000B50500000000000040
:104EA00000000000190D0000F90D0000BD05000014
:104EB00061646300366437383533613631346532C6
:104EC0006538323133313930363833313166326119
:104ED0006632356200726F7373657269616C5F6D03
:104EE0006265642F416463003966306539386264F5
:104EF0006136353938313938366464663533616640
:104F0000613761343065343900313161626437337F
:104F100031633235393333323631636436313833C5
:104F200062643132643632393500726F7373657280
:104F300069616C5F6D7367732F4C6F6700306164DC
:104F4000353166383866633434383932663863311F
:104F50003036383430373736343630303500726FCB
:104F60007373657269616C5F6D7367732F546F70D3
:104F70006963496E666F00726F7373657269616C05
:104F80005F6D7367732F52657175657374506172CD
:104F9000616D004D6573736167652066726F6D208A
:104FA0006465766963652064726F707065643A2029
:104FB0006D657373616765206C61726765722074DB
:104FC00068616E206275666665722E0063643731B3
:104FD0003636633734633535326333313166626375
:104FE00063326665356137626332383900737464E1
:104FF0005F6D7367732F54696D650000B511000014
:10500000A7110000B31100002F686F6D652F776F37
:105010006F313137392F726F732F6C69622F726F56
:10502000735F6C69622F427566666572656453656D
:105030007269616C2F42756666657265645365724C
:1050400069616C2E63707000257320256420627581
:1050500066666572206F766572777269746520285E
:105060006D61785F6275665F73697A653A20256461
:105070002065786365656465643A20256429210D9F
:105080000A0000000000000000000000C937000016
:10509000C9370000211200007912000079110000C8
:1050A0008511000089110000D3130000EB130000EC
:1050B0004D1400001B140000C050000040F7FF1FFB
:1050C000A92D00008D2F0000AD2F0000BD2F000086
:1050D000C12F000070696E6D6170206D69732D6D58
:1050E000617463680070696E6D6170206E6F74200A
:1050F000666F756E6420666F722070657269706885
:105100006572616C00636F756C64206E6F742070E3
:10511000696E6F757400000010020000CC01000081
:10512000E8030000525458206572726F7220636F5A
:1051300064653A203078253038582C207461736BC0
:105140002049443A203078253038580A00100100B0
:10515000070000000400000064F7FF1F84F7FF1F32
:1051600094F7FF1FA4F7FF1F0500010000020001D4
:10517000AD27000002000000010000002003000035
:10518000D00B00207FBB0000B8070020504000007B
:105190000000000000000000584000000300000074
:1051A0000000000054400000240000000000000047
:1051B000744000000400000000000000784000007F
:1051C00017000000000000005C4000002700000005
:1051D00000000000001000000800000000000000B7
:1051E000041000000900000000000000081000008A
:1051F0000C000000000000000C1000000D0000007A
:1052000000000000002000000E0000000000000070
:10521000042000000F000000000000000820000033
:105220000B0000000000000004300000050000003A
:105230000000000014300000060000000000000024
:10524000183000000700000000000000FFFF000011
:10525000FFFFFFFF000000000C20000000B0064030
:10526000030000000400000000A00640020000004F
:105270001030000000C006400300000008300000AD
:1052800000C00640030000001830000000A00640E7
:10529000030000005C40000000C006400400000065
:1052A0005440000000A0064004000000044000003C
:1052B00000B0064003000000FFFF0000FFFFFFFFFB
:1052C000000000001020000000B0064003000000B5
:1052D0000800000000A0064002000000143000009A
:1052E00000C00640030000000C30000000C0064073
:1052F000030000001C30000000A006400300000076
:105300005040000000A0064004000000584000008B
:1053100000C00640040000000040000000B006404D
:1053200003000000FFFF0000FFFFFFFF0000000080
:105330008D370000953700009F3700000000000007
:1053400000000000C9370000C9370000CD37000059
:10535000E5370000000000000000000013380000E6
:1053600015380000E11100000D1200004F70657249
:1053700061746F72206E65775B5D206F7574206F4E
:1053800066206D656D6F72790D0A004572726F72DD
:1053900020696E697469616C697A696E67207468E6
:1053A00065206D75746578206F626A6563740A00A4
:1053B00000000000000000000000000000000000ED
:1053C00000000000000000000000000000000000DD
:1053D00000000000000000000000000000000000CD
:1053E00000000000000000000000000000000000BD
:1053F00000000000000000000000000000000000AD
:10540000000000000000000000000000000000009C
:10541000F8F0FF1F303132333435363738394142F6
:1054200043444546003031323334353637383961FC
:10543000626364656600232D302B2000686C4C008D
:0C5440006566674546470000000000005C
:08544C00F4E7FF7F01000000FE
:10545400000000000010041008100C1008200420A4
:1054640001000000451700005D1700000000000067
:105474000100000000100000B4F7FF1F006CDC0204
:1054840068110020F8F0FF1F00000000D053000056
:10549400F0530000B05300000000000000000000C2
:1054A40000000000000000000000000000000000F8
:1054B40000000000000000000000000000000000E8
:1054C40000000000000000000000000000000000D8
:1054D40000000000000000000000000000000000C8
:1054E4000000000000000000390400000D0C000062
:0454F400110400009F
:04000003000000C138
:00000001FF
