:1000000000800010E9350000193600001B360000A2
:100010001D3600001F3600002136000000000000E1
:100020000000000000000000000000001D3500007E
:10003000253600000000000087350000BD350000B7
:100040002B3600002B3600002B3600002B3600002C
:100050002B3600002B3600002B3600002B3600001C
:100060002B3600002B3600002B3600002B3600000C
:100070002B3600002B3600002B3600002B360000FC
:100080002B3600002B3600002B3600002B360000EC
:100090002B3600002B3600002B3600002B360000DC
:1000A0002B3600002B3600002B3600002B360000CC
:1000B0002B3600002B3600002B3600002B360000BC
:1000C0002B3600002B3600002B36000010B5054CF7
:1000D000237833B9044B13B10448AFF300800123F4
:1000E000237010BDD0020010000000001C6700004B
:1000F0000C4B43B10C4810B50C49AFF300800C48D1
:10010000036823B910BD0A48036833B97047094B27
:10011000002BF7D0BDE810401847064B002BF5D058
:10012000184700BF000000001C670000D402001048
:10013000CC0200100000000070470000024B1A695A
:100140005B681360704700BF1C030010036818470A
:1001500008B10B680360704770470000064B10B58C
:10016000186803F0C7FBBDE8104002460B46034881
:10017000034902F0E9BC00BFE80300108C03001043
:100180008460000070B50D4C236883B90C4D4FF0AE
:10019000FF31286801F0E4F923682BB9261D02D04D
:1001A000304603F067F92660286801F001FA2068FC
:1001B0004FF0FF31BDE8704003F074B9A81500108E
:1001C000CC19001010B5044603F06DF8204610BDA0
:1001D00070B50C4C236883B90B4D4FF0FF31286884
:1001E00001F0BEF923682BB9261D02D0304603F07A
:1001F00041F92660286801F0DBF92068BDE870400D
:1002000003F053B9A8150010CC19001038B50446F6
:100210000D461822002104F04AFA2046294600F033
:100220006DFA204638BD00000D4B70B5196803F01B
:10023000B9FB0021064620F0004003F065FE0030C7
:1002400018BF01200021440030464FF0010503F0A3
:1002500065FE00B9054644EA050000F0030070BDE4
:10026000CC000010044B1A695B681360034BDA681A
:100270005B681360704700BF04030010EC020010BD
:1002800008B5002103F098FC4FF07C5103F08CFB83
:10029000014B186008BD00BFCC0000104068FFF79C
:1002A000EFBFC36810B504460BB19B689847204662
:1002B00010BD000038B505460446064B45F8183B0E
:1002C00002F0B4FB2846FFF7ECFF204602F0C4FD25
:1002D000204638BD6063000010B50446FFF7EAFF12
:1002E000204602F0E0FF204610BD000010B5044695
:1002F000024B0360FFF7DEFF204610BD5064000094
:1003000070B50546074B064645F80C3B45B100F174
:100310002C04AC4204D0103C2046FFF7C2FFF8E7A3
:10032000304670BD2464000010B50446FFF7E8FFB6
:10033000204602F0B8FF204610BD000010B504466C
:10034000084B443040F8443C203340F8143C03F060
:10035000AFF804F1300002F0E5FB2046FFF7D0FFD4
:10036000204610BDF0620000A0F13000E6E700BFBB
:1003700038B5CB6804460D460BB15B689847EB680F
:100380002046E36038BD0000F0B5154685B006464E
:100390006846FFF7EDFF0E49284603F00DFC6C465A
:1003A00003F0D0FD06F11805A542074607D0284600
:1003B000FFF777FF1DB169462846FFF7D9FF394699
:1003C000304602F01FFB2046FFF76BFF05B0F0BD83
:1003D000002474491FB50B4B6946DA685B680A480C
:1003E00013600A4BDA685B681360094B094A009393
:1003F000094B0393FFF7C8FF6846FFF752FF05B0AC
:100400005DF804FBEC020010EC0300101C0300106C
:100410003D01000052499D39686000001FB50B4B3B
:1004200069461A695B680A4813600A4BDA685B68B8
:100430001360094B094A0093094B0393FFF7A4FF8C
:100440006846FFF72EFF05B05DF804FBEC020010D4
:10045000EC0300101C0300103D01000052499D39BF
:100460006860000010B50E48FFF78CFE0D4802F0E2
:10047000B7F904460A48FFF7ABFE2046FFF7D4FE63
:10048000430803D0BDE81040FFF7ECBEC30703D517
:10049000BDE81040FFF79EBFBDE81040FFF7BEBFAC
:1004A000B8030010BC03001030B5104B89B00FCB5F
:1004B0000F4D8DE80F000F4B0F4A04A90F4804930E
:1004C0000795FFF761FF04A8FFF7EBFE0C4B0D4803
:1004D0000D4A04A904930795FFF756FF04A86C463C
:1004E000FFF7DFFE2046FFF7D9FEFBE77460000050
:1004F000686000005D010000CDCCCC3DC003001061
:100500006504000034030010A69BC43A10B50446ED
:10051000FFF714FF204602F0C6FE204610BDA0F1F2
:100520003000F3E710B50446FFF7E0FE204602F086
:10053000BAFE204610BD00004FF416532DE9F341DA
:1005400000262B4D2B4C00932B4A00232B49284689
:1005500002F030FA28462A4D22462A49DFF8E48084
:10056000294F02F077FE284602F058FC2246394611
:10057000C5F800806E622846244D02F06BFE244BC5
:1005800028462B60FFF7FEFD2249281D02F0ECF8FB
:100590002846FFF71DFE22461F49284602F05AFE54
:1005A0001E491F48FFF732FE1E4D1F491F48FFF727
:1005B0002DFE1F491F48FFF729FE284602F02EFC9A
:1005C000C5F800806E6228461B4D2246394602F06F
:1005D00041FE284602F022FC22462846174B1849C5
:1005E0006E622B6002B0BDE8F04102F033BE00BF86
:1005F0005C030010C800001003C0092002C00920DD
:10060000C00300103D030000B5020000B803001055
:10061000586000003FC00920390100000BC00920CC
:1006200004030010340300100AC00920EC0200107B
:1006300005C009201C030010EC03001050640000EA
:10064000ED020000606300000748084A08B5121A6E
:10065000002104F02CF802F0B6FD03F05DFF02F07B
:10066000B9FD02F0F9FD00BFD002001064210010B6
:10067000022801DD02F05ABD0120704708B50120B3
:1006800002F0EAFD08B5FFF7F9FF70B50E46044623
:10069000154601F085FC013609D02046002101F005
:1006A00099FC29462046BDE8704001F090BC70BD21
:1006B00038B504460D4643685AB1C26820461360F7
:1006C000012101F087FC29462046BDE8384001F0B1
:1006D0007EBC0269F2E70322FFF7D7BF70B50E4672
:1006E0000446154601F05CFC013606D02A46204639
:1006F000BDE870400221FFF7DBBF70BD0022FFF7AD
:10070000EDBF00000048704788600000014800F01D
:100710000CB800BF8860000038B504460D46036879
:100720001B68984763681D6038BD036870B5DB6857
:100730000446984763685A6823681AB99B68BDE8FD
:10074000704018475B68156898476368281A002846
:100750005A6807DC916859601B68002BEAD0506822
:100760009847E7E7236810681B69BDE870401847A1
:10077000F8B506460C461F46154600F09FF80021C6
:10078000706884E8A000436853B9A36079B93368FE
:1007900044601B6928469847BDE8F84000F0A4B8BB
:1007A0001A68AA1A002AF0DB19469B68ECE78C60ED
:1007B000F2E738B505460C4600F080F86A685368E1
:1007C000A3420ED19B6853602A682BB9936898475F
:1007D000BDE8384000F088B8126918689047F7E71C
:1007E0001346002BF4D09A689442F9D1A2689A601B
:1007F000EEE703685B68184710B5044601300DD179
:1008000010BD9C4209D12046896801F0F5FF2046C1
:10081000BDE81040022102F008B80C310B685A1CE8
:10082000EFD10248BDE8104000F0CEB8D56000001E
:10083000884208B508D0431C06D0013106D00448D0
:1008400000F0C2F84FF0FF31084608BD0146FBE753
:10085000A46000000B685A1C01D1184670478342FF
:1008600001D1486870470C31F4E70000421C10B514
:10087000044607D0FFF7EEFF431C044602D10248AE
:1008800000F0A2F8204610BDB560000000F04CB8A2
:1008900008B500F049F838B100F04EF830B900F072
:1008A00043F80028FBD108BD4FF0FF3008BDEFF33F
:1008B0001080C04300F001007047000008B5FFF74A
:1008C000F6FF72B6064B1A6822B980F00100054A9D
:1008D000C0B210701A681A6801321A6008BD00BFF1
:1008E000200400101C04001008B5074B1A6852B110
:1008F000FFF7DDFF1A68013A1A601B681BB9034B4A
:100900001B7803B962B608BD200400101C04001057
:1009100030B585B06D46182420462946ABBE044646
:10092000204605B030BD0000024B186800F0010001
:10093000704700BFF0ED00E037B540F2051401AD9F
:1009400020462946ABBE0446204603B030BD000019
:1009500000B599B0FFF7B2FF17496846FFF7CEFE22
:10096000164906A8FFF7CAFE15490CA8FFF7C6FEF0
:10097000144912A8FFF7C2FE019A039B96201A6041
:10098000079A0A9B1A600D9A109B1A60139A159B7E
:100990001A6002F019FB019A049B96201A60079ACC
:1009A000099B1A600D9A0F9B1A60139A169B1A6086
:1009B00002F00AFBE0E700BF32C0092034C0092082
:1009C00035C0092037C009200FB4012008B502F056
:1009D00043FC01F00FBB000008B5024C23689847A8
:1009E000FCE700BFD000001008B50B4800F09AFDEE
:1009F0000A4B18600A4800F095FD0A4B18600A4837
:100A000000F090FD094B186003F086FDBDE808403A
:100A10000021084602F0DEBB34610000CC19001052
:100A2000306100002C0400102C6100002404001030
:100A3000FFF7D2BF10B5044600F0D4FC2146BDE854
:100A4000104002460148FFF7BFBF00BFF46000003E
:100A500002F006BD0B4AF0B4C2F1805303F5004327
:100A6000B3F5806F194628BF4FF48061064F074DDC
:100A70005B1A074C07489E183A602E60236001609D
:100A8000F0BC704768210010E41600103404001018
:100A9000E01600103004001000F028FEFFF7DAFF27
:100AA0000348002100F0C6FD00F01EFCFEE7000038
:100AB000D4000010024B4FF0FF31186800F050BD19
:100AC0002C040010014B186800F072BD2C040010BB
:100AD00030B502788C78013A4368D2B213B19D7870
:100AE000A54207D2022A4B60416006D803B1996043
:100AF000886030BD18465B68F0E700238B6030BD2E
:100B0000436802785968013A022A41604FF00002B6
:100B100005D809B188605A609A60184670475A60D3
:100B2000FBE70000034B5A68426000225860826075
:100B3000704700BFC0200010104B10B5DA688AB1B2
:100B40009A8A8A42DC680CD3C460D860C4680361A6
:100B500004B12061521A92B28282998A8A1A9A82C8
:100B600010BD3CB900248A1AC460D86003619A821F
:100B7000848210BDA38A1A442346E2E7D8200010DD
:100B80002DE9F041174DEB6853B10026AB8A164FA3
:100B9000013BDFF85880AB82AA8A0AB9EC680CB92D
:100BA000BDE8F081A36833B161685960616809B13B
:100BB0008B606260A66021463846FFF789FFA38AF2
:100BC000AB826378042B01BFD8F80030E28A9B180F
:100BD000A38201236370E368EB600BB11D61E660E3
:100BE0002661D9E7D8200010C02000105421001041
:100BF00083682BB142685A6042685AB1936070476B
:100C0000054B5A68904202D142685A6070471346B9
:100C1000002AF6D1704700BFC020001010B58468CC
:100C200001462CB94378012B0DD1074C03E0A46891
:100C30002378002BFBD00846FFF7DAFF2046BDE8FB
:100C40001040FFF745BF10BDC0200010036910B56C
:100C500063B1C268DA60C2684AB1998A848A214461
:100C6000998213610023C3600023036110BD9A823F
:100C7000FAE7000070B4114BDD78EFF31086EFF364
:100C8000108272B69A78954211D901329A701A7808
:100C9000541CA54208BF00241C7006B962B69542D8
:100CA00007D970BC03EBC203586099607047002EEF
:100CB000F4D070BC0220FFF7BDBE00BF4419001085
:100CC000054B1B7823B94FF08052044B1A607047D4
:100CD0000122034B1A7070478814001004ED00E0E5
:100CE0008914001038B51A4B1A4C18680123437048
:100CF000FFF718FF6578A3783BB917486570FFF7D1
:100D0000FFFEBDE8384000F0CBBD04EBC5035868DA
:100D100002789AB9198900F00BFAE37801359D42FF
:100D200008BF0025EFF31083EFF3108272B6A278AC
:100D3000013AA270002BDED162B6DCE7012A03D1B2
:100D4000996800F083F9E8E701F006F9E5E700BFEC
:100D50000C21001044190010C0200010084B4FF067
:100D6000FF301A68074B1A6000225A60072243F8C6
:100D7000042C054A136843F07F431360704700BF9B
:100D80005461000014E000E020ED00E07047000036
:100D900008B50B4B186801234370FFF7C3FE00F042
:100DA000FDF9084A136801331360FFF7E9FE00F00C
:100DB000FFFC0548FFF7A4FEBDE8084000F070BD49
:100DC0000C21001054210010C0200010064B1A689E
:100DD000136BD26A934203D81A68044B9A4202D02A
:100DE0000120FFF727BE70470C210010A52E5AE204
:100DF000F0B54FF080764FF0000E836A056B9B08CC
:100E000002BF1E4B1B889B0805EB8302540748BF9B
:100E1000043A02E94200A2F14004A2F14406A2F120
:100E20000C0746F804EFBE42FBD1C66942F8206CBD
:100E300041631249C4620968C90017D5112B15D93D
:100E40006FF00701103B5B084B43A3F138010A44E4
:100E50004FF0CC30214691420BD108331C44231F64
:100E60009D423CBF4FF0CC3344F8043C044B2B6014
:100E7000F0BD41F8040C41F8080DECE73C610000BE
:100E8000A52E5AE2C36A19627047C36A19625A6290
:100E90007047002ABBBF22F000420732033222F023
:100EA0000702A8BF22F0030210B5B4BF10230C2321
:100EB00092B1D4188C420FD801440344544241608B
:100EC0000360826021449818814202D30051034696
:100ED000F9E70020186010BD012010BDEFF310836A
:100EE00072B6026803F001030AB11168016003B928
:100EF00062B61046704781420DD3436899420AD2C8
:100F0000EFF3108372B602680A60016013F001000B
:100F100003D162B67047012070470020704701235B
:100F20000370002310398908437083704360038184
:100F300043818381C181704770B585890446164617
:100F4000002D38D043891A1D50F8222001330A6041
:100F5000C2899BB29A42438104BF00234381436804
:100F6000F3B14378022B1BD1FFF7CAFD05460021E0
:100F7000FFF788FF2389E9691A1D44F8221001331D
:100F8000E2899BB29A42238108BF0023284608BF0A
:100F90002381FFF75BFE284600F09CFC002070BD1B
:100FA000EFF31080EFF3108372B6013DA5810028A6
:100FB000F4D162B670BD4AB14268094B42B11968BA
:100FC000FFF786FD0821304600F0A6FC012070BD29
:100FD0001B6843605A60986001234370F2E700BFCA
:100FE0000C210010C2898089101A704708B5FFF7DC
:100FF00041FEBDE80840FFF763BE838910B5044693
:101000000BB34389043350F823300B604378022B31
:1010100004D10021FFF72EFEFFF752FEEFF31083FD
:10102000EFF3108272B6A289013AA28103B962B6C7
:101030006389E28901339BB29A42638101D1002323
:101040006381042010BD184610BD0000436870B5D0
:1010500004460E46002B4BD04578022D20D0032DA0
:101060000AD0012D61D1FFF74BFD04463246102115
:10107000FFF70BFF65700EE00846FFF72FFF0546F0
:10108000002852D02046FFF73BFD29460446FFF7D3
:10109000F9FE012363702046FFF7D8FD214622E0C8
:1010A000FFF72EFD05460021FFF7ECFE2389E969D5
:1010B0001A1D44F82210EFF31082EFF3108172B67C
:1010C000A1890131A18102B962B6E28901339BB2E3
:1010D0009A42238104BF00232381012328466B7099
:1010E000FFF7B4FD2946BDE870401048FFF7F0BC9B
:1010F0008089E189884213D223891A1D44F822602D
:10110000EFF31082EFF3108572B60130A08102B9BF
:1011100062B601339BB2994208BF0023238170BDA0
:101120000320BDE87040FFF785BC70BDC0200010F3
:1011300010B5038B42781943062A04460183438B7A
:1011400015D133EA010219D121EA03012183204696
:10115000FFF77CFD012320466370628B0821FFF7B7
:1011600094FE2146BDE810400548FFF7B1BC052AB2
:1011700004D111EA030201D04283E5E710BD00BFAC
:10118000C02000100022034B1A60034A1268DA8064
:10119000704700BFF82000103861000008B50E4B02
:1011A0005A680E4B196891420D4905D01A60DA88C9
:1011B0000868013A02449A8098880A8890420AD1C5
:1011C000002205481A60FFF79BFCBDE80840014675
:1011D0000148FFF77DBC08BDC0200010F8200010BA
:1011E0005421001030B500240A4A136843B9036043
:1011F000816013B19D68691A996044B1206030BD67
:101200009D68A942F3D31C46491B1B68EEE710609A
:1012100030BD00BF08210010C0B1431C11D00C4BE1
:10122000984211D84FF47A710A4B1B685A1E01FB81
:101230000020B0FBF3F34FF6FE70834206D898B25D
:1012400070474FF6FF7070474FF6FE70704700BF53
:1012500000093D00F060000038B1830704D1037835
:10126000002B18BF0020704700207047B0B50E4D0E
:1012700000AF2878A8B90D4C236893F8241000F02B
:101280006DFB2368DA78FF2A03D1DA6A203282F311
:10129000098862680AB984E80C0000F017FD012390
:1012A0002B700020B0BD00BF052100100C210010E4
:1012B000014B1878704700BF0521001010B5EFF3FF
:1012C000108434B9EFF305841CB9EFF31484E407F8
:1012D00002D4034B187810BDDFF808C000DF10BD42
:1012E00005210010B112000090B589B000AFEFF3F6
:1012F0001083002B37D1EFF30583002B33D1FFF799
:10130000DDFF28B9194C246814B1646804B1A04702
:10131000EFF3148404F00304022C18D0032C1CD027
:10132000012C1ED007F1200484F30988104C247886
:10133000E40710D5022484F31488BFF34F8FBFF362
:101340006F8FDFF830C000DF2437BD4690BD084CFA
:101350002478E407F5D40324EDE7054C2478E4076A
:10136000EFD5FF20F0E78220EEE700BFF420001069
:101370001E6100006D12000070B50B461646024655
:1013800010B90024204670BD00680028F9D0B2F9D9
:101390000440E51CADB2062DF3D8D168C1B1126985
:1013A000043444EA012100F017FB0028E9D00A4B7D
:1013B000013853F82040094AE36A5A63084B1B6816
:1013C00043B19B6833B13146E0789847E063D9E791
:1013D0000A46E5E7E663D5E7081900108115000025
:1013E000F420001008B500F0B1FA18B1024B013832
:1013F00053F8200008BD00BF0819001010B5FFF712
:101400002BFF044670B1084B1B681BB1DB680BB1A6
:10141000C06B9847E07800F035FBFF280CBF8120B7
:10142000002010BD802010BDF420001008B528B1A8
:10143000FFF7F2FE00F08CFD402008BD08BD000063
:1014400010B5EFF3108434B9EFF305841CB9DFF85D
:101450000CC000DF10BD822010BD00002D14000064
:10146000830705D138B1436901691B681846704785
:1014700000231946FAE70346FBE7000010B50446CF
:101480000846DFF80CC000DF84E80300204610BDEA
:101490006114000010B548B1046824B1237823B961
:1014A000204600F059FC204610BD002010BD70B54C
:1014B00010F0030405460E4611D180B10378032BCA
:1014C0000DD10846FFF7A8FE0146284600F012FDA0
:1014D000012806D1002E14BFC120812070BD8020BC
:1014E00070BD204670BD820708B50AD148B10378A7
:1014F000032B06D100F08EFCFF280CBF81200020BA
:1015000008BD802008BD10B510F0030407D130B12C
:101510000378032B03D100F027FC204610BD802068
:1015200010BD000070B50546EFF3108494B9EFF3D9
:1015300005867EB9EFF31484E40706D4064C2478BC
:101540001CB9BDE87040FFF7A5BF2846DFF80CC006
:1015500000DF70BD002070BD052100109514000053
:1015600010B5EFF3108434B9EFF305841CB9DFF83C
:101570000CC000DF10BD822010BD0000AF140000C1
:10158000084808B54FF0FF310068FFF7E9FFDFF8C2
:1015900018C000DF0446FFF75BFA2046DFF80CC0F6
:1015A00000DFFEE700210010E5130000FD1300003E
:1015B00010B5EFF3108434B9EFF305841CB9DFF8EC
:1015C0000CC000DF10BD822010BD0000E714000039
:1015D0002DE9F04180460F461646EFF3108404BB18
:1015E000EFF30583D3B9EFF31483DB0706D40E4B77
:1015F0001B781BB9BDE8F041FFF7BEBE0B4D4FF0A5
:10160000FF312868FFF7ACFF404639463246DFF825
:1016100020C000DF04462868FFF7CAFF2046BDE867
:10162000F0810024FAE700BF05210010002100101E
:10163000791300000022FFF7CBBF000010B5EFF3D5
:10164000108434B9EFF305841CB9DFF80CC000DF57
:1016500010BD822010BD00000715000010B5044623
:1016600060B1016851B1406848B1037833B90431C1
:10167000890089B2FFF753FC606810BD002010BDDF
:1016800038B5114C23780BB900F0A6FAFF220F4BA6
:1016900025781B689A708DB929460D48FFF7DEFF43
:1016A0000C4B2A46186029460B48FFF765FE0B4B8A
:1016B00018600B48FFF736FF0A4B18600123002023
:1016C0002370094B187038BD042100100C21001044
:1016D00024610000C819001040610000BC20001007
:1016E00058610000002100100521001010B5EFF333
:1016F000108474B9EFF305845CB9EFF31484E40744
:1017000003D4BDE81040FFF7BBBFDFF80CC000DF1B
:1017100010BD822010BD0000811600002DE9FF41A0
:101720000C46804618B30378012B25D10846FFF7F5
:1017300073FD02A902464046FFF7FEFB012811D1C6
:101740000020002C0246034618BF402002990446A0
:101750000D4616461F462046294632463B4604B0F3
:10176000BDE8F0810020024603461020EEE7802409
:10177000054606460746EEE7002580242E462F46FE
:10178000E9E770B50E461446054660B15AB90378CC
:10179000012B08D1FFF726FC38B128463146FFF768
:1017A00025FC204670BD802070BD812070BD0000EA
:1017B000F8B5114E34682CB1A368104F013BA360FB
:1017C000A26802B1F8BD2568214638683560FFF788
:1017D000D8FF10B10420FFF72DF96379012B07D151
:1017E000E1682046FFF7FEFC002DEBD02C46E7E732
:1017F00001232371F8E700BF08210010C819001069
:101800007FB504461646084601B122B18023236005
:10181000204604B070BD0B78012BF7D102A9FFF769
:10182000ECFB042808BF102301AD14BF01960193FF
:1018300095E8070084E80700EAE7000038B50446A9
:101840001546EFF3108010B9EFF3058028B12A4652
:101850002046FFF7D5FF204638BD08461146DFF881
:101860000CC000DF84E80700F5E700001D1700004A
:101870007FB50A4C4FF0FF32216803A8FFF7DEFF67
:10188000039B102BF6D1049901A8FFF7F7FD019BEC
:10189000002BEFD002989847ECE700BFC819001062
:1018A000054B586002234370044B1B681BB11B6936
:1018B0000BB1C06B184770470C210010F4200010CA
:1018C00008B50348FFF71CF9BDE80840FFF7E8BF7B
:1018D000C020001070B5044618B9BDE87040FFF78D
:1018E000EFBF0B4EA2783068012583789A4208D961
:1018F000FFF718F9336820465D70BDE87040FFF7C8
:10190000CFBF65702146BDE870400248FFF7E0B8E0
:101910000C210010C020001038B50D46014680B1E2
:101920004FF6FF739842074C02D02068FFF704F986
:10193000236805485D70FFF7E3F8BDE83840FFF71E
:10194000AFBF38BD0C210010C0200010024B18683A
:1019500000B1C078704700BF0C21001010B5A8B9C5
:10196000194B1B68997083F82410184843689B78BA
:101970008B4201D8002010BD134C2168FFF7A8F856
:10198000012223685A70FFF79BFFF3E7104B1B8877
:10199000984217D80F4B013853F8204094B10A4BA6
:1019A000A1701B6884F824109C42DED02046FFF70B
:1019B00035F96378012BDDD10448FFF7A1F8FFF773
:1019C00089FFD7E7FF2010BD0C210010C0200010B8
:1019D00020610000081900102DE9F0470D4611F0B4
:1019E000FF0F8046234816469A4608BF0135FFF789
:1019F00075FA044620B94FF000094846BDE8F08763
:101A000000211D4B06631B88280A1C4EA0628B42D6
:101A100001F10109EFD006EB890252F8042C0F46C0
:101A20004946002AF3D10123EDB284F80390C4F8AB
:101A30001CA0C4F838A022706370A57084F82450EC
:101A40006260A260E26022612262A282E28222835C
:101A5000628384F8252018B90948FFF73FFA20630C
:101A600020464146FFF7C4F9204646F82740FFF7D5
:101A700031FFC2E7F01C00102061000008190010BF
:101A8000F81600102DE9F84F4D4D18B12B68DB7892
:101A9000984241D100232C680127637001F013FDA7
:101AA000E062FFF793F92B68DFF828811C6AA4B97C
:101AB0002A684449D3784448013B41F82340116BDC
:101AC000FFF719FA296841480C63FFF714FA2C60F4
:101AD000FFF7F6FE2046BDE8F88F6368B3B12046F5
:101AE000FFF70EF806460021FFF7CCF93046FFF766
:101AF000ADF8777031464046FEF7EAFFE368326A98
:101B00006780A660E26034621C46D0E7E2686380CA
:101B1000A360E3601446CAE72D4B1B8898424DD85A
:101B2000284B471E53F827609946002E46D04FF0A9
:101B3000010A3046FFF75CF83046FFF787F8DFF818
:101B400094B0346AB4B9316B1F4849F82740FFF7A5
:101B5000D2F9314634631D48FFF7CDF91D48296895
:101B600043689A788B789A42B4D901234B70FEF778
:101B7000AFFFADE76368DBB12046FEF7C1FF8046EB
:101B80000021FFF77FF94046FFF760F888F801A0D1
:101B900041465846FEF79CFFE368D8F82020A4F899
:101BA00002A0C4F80880E260C8F820401C46C9E7DB
:101BB000E2686380A360E3601446C3E7FF2489E71B
:101BC0000C21001008190010F8160010F01C00106D
:101BD00020610000C020001038B52C4B2C491A8819
:101BE0000023184693424DD32A4B402219882A4895
:101BF000FFF74FF9294B2A481A882A4B42F0004236
:101C00001968FFF746F9284B08221988274B284CFA
:101C10001868FFF73EF9FF230025E37001232048F1
:101C20006370A5622570A57084F824506560A56076
:101C3000E56025612562A582E5822583658384F8B8
:101C40002550FFF74BF91B4920632046FFF7D0F8DA
:101C50000422194B20461A705D60184B1A70DD6023
:101C60001D619D82164B1C6002236370FFF718FEF6
:101C7000144A154B12781D705D70DA70BDE838405B
:101C8000FFF780BA41F823000133ABE72061000081
:101C900008190010EC600000F01C00103C6100000E
:101CA000F8160010E8600000EE6000002804001044
:101CB00014210010310A0000C0200010D8200010AC
:101CC0000C2100101D6100004419001008B51E4BC6
:101CD0001A6842F47F021A601B681B0203F07F43FC
:101CE000DB43B3FA83F3194ADBB21268C3F108038A
:101CF000C2F30222934298BF531C6FF080721448C3
:101D000002FA03F3016803F07F4321F07F4213439B
:101D10000360FFF723F80F4B0028186012DBFF2247
:101D2000012100F1604000F5644002701A68530917
:101D30009B0003F1604302F01F0203F5614301FAC7
:101D400002F21A6008BD00BF20ED00E00CED00E0DB
:101D50001CED00E0F02000100323037000234380FB
:101D600043608360C3607047F8B5438804469BB105
:101D70008068036A9C4228D1E368036290F82430AB
:101D8000026A52BB82789A4206D083701F4B1B684E
:101D9000984201D0FEF742FF01261D4F656825BB22
:101DA0001B4843686BB1194E9A7831688B789A4218
:101DB00007D9FEF78DFE0122336828465A70FFF7D7
:101DC00089FD00202070F8BD1346002BD6D0DA68BC
:101DD0009442F9D1E268DA60D0E7516819B18978A4
:101DE0008B4238BF0B46D268CBE72046FEF788FE11
:101DF00005460021FFF746F82846FEF727FF6E70DC
:101E000029463846FEF764FEC8E700BF0C210010E3
:101E1000C02000102DE9F84343880546002B63D00D
:101E2000324F81683A6891425ED1013B9BB2438058
:101E30001BB100242046BDE8F8830B6A984229D1E3
:101E4000C3680B6291F824300C6A5CBB8B706A68C3
:101E5000DFF89C80002A3BD02846FEF751FE06465C
:101E60004FF001092146FFF70DF83046FEF7EEFE70
:101E7000336A3968EB60D8F80430A5F80290AE6098
:101E800035628A789B789A4214D33046FFF722FD58
:101E9000D0E71346002BD5D0DA689542F9D1EA682D
:101EA000DA60CFE762681AB19278934238BF13467E
:101EB000E468CAE74046FEF70BFE31464046FEF7AF
:101EC00007FE3B6883F8019086F801902046DDE725
:101ED000D8F8042092789A42ABD94046FEF7F8FD34
:101EE00001223B685A70F1E7FF24A3E70C210010A0
:101EF000C0200010438870B504460E46134D43B908
:101F00002A68116A8260C160106201336380002018
:101F100070BD80682A689042F7D081B1937882784A
:101F20009A4202D28370FEF779FE62684AB129684C
:101F30002046FEF7CDFD09213046FFF7EDFC0120DC
:101F400070BD2B6863605A609C60F4E70C21001040
:101F50000321FFF7E1BC0000426810B57AB1FEF73B
:101F6000CFFD0446FEF772FE012120466170FEF7A8
:101F700089FF2146BDE810400348FEF7A9BD42880D
:101F80000132428010BD00BFC020001010B50021FA
:101F9000044600F031FC012004F01F04A04010BDF5
:101FA00038B505464B1C0C4629600FD00846FFF794
:101FB000EDFF24F01F0404F11803EB6004F11C038F
:101FC0002B6104F1140368606B61AC6038BD00687C
:101FD00000F02BBC11B1012907D07047826841681D
:101FE000136823EA0103136070478268416813682D
:101FF0000B43F8E708B5FEF74BFC0022044BC3F88F
:10200000C020044A136923F00403136130BF08BDE4
:1020100000C00F4000ED00E0012810B408D00228F5
:1020200008D010BC7047506820F00100506010E0EC
:1020300003460EE038230F4803FB010358680130C4
:1020400006D018699C68046093F83630002BEAD0FB
:102050000023382251430748421840580028E0D056
:102060001BB992F83620002ADBD0034A19461268C1
:1020700010BC1047A41400109C140010034A002147
:102080009068C0F34200FFF7C7BF00BF00C0004028
:10209000034A01219068C0F34200FFF7BDBF00BFB3
:1020A00000000140034A02219068C0F34200FFF79C
:1020B000B3BF00BF00800940034A03219068C0F30A
:1020C0004200FFF7A9BF00BF00C0094070B50B4632
:1020D000066829498E4222D006DCA1F580418E4255
:1020E0000CD000210C460BE024498E421AD001F599
:1020F00080418E42F5D12249082401E0052421497E
:102100009AB10125726805FA03F313437360204600
:1021100000F0B8FB1C4B05FA04F41C6070BD1B49B1
:102120000624EDE71A490724EAE7012B0AD04268A2
:102130003820184900FB021292F8361092F8352028
:10214000D14217D1012202FA03F0B3FA83F3716886
:102150005B0921EA00017160716802FA03F30B4226
:1021600008D1094B02FA04F4C3F88040BFF34F8F43
:10217000BFF36F8F70BD00BF0000014000800940B9
:10218000B92000007D20000000E100E09120000067
:10219000A5200000A41400102DE9F04F644B046842
:1021A00087B09C4200F08D806ADCA3F580439C429E
:1021B00079D0604B0801D3F800C0BCFBF0F293B2B9
:1021C00000FB12C2002A00F0AA800125E6469946CB
:1021D000AB464FF0000A0191039100264FEA4E03EF
:1021E0000493DDF804804FEA8E03EFB20593F3B257
:1021F0000093049B002BABBF059BB3FBF8F3B3FB31
:10220000F8F31B09A8BF5B090133C3F34F03002B8D
:1022100000F0888016B1012B08BF0223A81958438B
:10222000C000BEFBF0F00130C1EB50000028B8BF89
:1022300040420290029A0398824262DA91425AD155
:102240000F2D07D1BB469946DDF800A05F464B46EF
:10225000CDF800A0217B41F080012173C3F3072159
:10226000DBB221712370009B43EA0712D2B284F8DB
:102270002820237B03F07F03237307B0BDE8F08F92
:102280002D4B9C4229D003F580439C4291D12B4B8E
:10229000D3F8AC2122F44022C3F8AC21D3F8AC210E
:1022A00042F4802224E0254BD3F8A82122F0C0027A
:1022B000C3F8A821D3F8A82142F04002C3F8A8210E
:1022C00077E71E4BD3F8A82122F44072C3F8A82167
:1022D000D3F8A82142F48072F0E7184BD3F8AC2170
:1022E00022F44032C3F8AC21D3F8AC2142F480325E
:1022F000C3F8AC215DE7BB469946029ADDF800A021
:1023000003920136F3B2BB428844FFF470AF0F2D45
:102310009CD0019B01350B44E64401935DE7012706
:10232000009297E7002E0CBF0123022376E700BF3F
:1023300000000140E80000100080094000C00F408C
:10234000034B1960382341684B430249CA50704718
:102350009C140010A414001010B50268137DDB0754
:10236000FCD5382443680848117804FB03035868F7
:10237000C9B2013006D058699B680360536843F0C6
:1023800001035360084610BDA41400103821114AFF
:10239000436801FB0323DA69013209D01A6B1B6A17
:1023A00012681A4214D10368187DC0F38010704778
:1023B0000268127D920604D50022012083F83420A1
:1023C000704793F834000F288CBF0020012070471D
:1023D00000207047A414001038B504460D4620466E
:1023E000FFF7D4FF0028FAD038212368EDB21D7022
:1023F0006368044A01FB032393F83420013283F815
:10240000342038BDA41400102DE9F84F9A463C4CF6
:1024100003680546A34218BF0024894690464768D2
:102420001CB1237C03F03F03237438234FF0FF32A9
:10243000344E284603FB0763DA615A60002283F8B2
:1024400035201146FFF742FEB9F1000F55D02E4955
:102450004046FEF7FFF92D4983465046FEF7FAF94C
:10246000A9F10203012B1BD8BAF1FF3F0BD0244B7B
:1024700098420DD164B1237C244943F08003237436
:102480005046FEF7B9F9B9F1030F0CD0BDE8F88F4B
:10249000382000FB076051461C30FEF71CF9F2E7BC
:1024A000B9F1010F29D1B8F1FF3F01D1BDE8F88F93
:1024B00007222B681A72124B9B450AD14CB1237C20
:1024C000404643F0400323740F49BDE8F84FFEF740
:1024D00093B9382404FB0760414600220430FEF71C
:1024E000FDF801226B68284604FB036686F8352058
:1024F0000021BDE8F84FFFF7E9BDBDE8F88F00BF48
:1025000000000140A4140010806100005C61000024
:102510002DE9F0410F460546464938461646FEF776
:10252000A5F9454904463046FEF7A0F90146204684
:10253000FEF77EF9414B0446984228605DD047D8AB
:10254000A3F58043984250D001234FF00008237236
:102550004FF416512846C4F80480FFF71DFE0322ED
:102560002B6834491A733846FEF746F9324930462B
:10257000FEF742F97A1C03D04146384600F055F97F
:10258000731C03D00021304600F04FF92B4B9C42C6
:102590004BD03ED8A3F580439C4243D038216A6893
:1025A000274B284601FB02324FF0FF3300215360D6
:1025B000D3611A46FFF728FF224B9C4206D1012225
:1025C000214B69681A602868204B03C3BDE8F0817D
:1025D0001F4B984217D003F580439842B4D11D4A4F
:1025E000D2F8C43043F0007304E01A4AD2F8C43081
:1025F00043F00803C2F8C430A6E7164AD2F8C43044
:1026000043F01003F6E7134AD2F8C43043F0807366
:10261000F0E70F4B9C420AD003F580439C42BDD1AA
:10262000032300E000236B60B8E70123FBE70223EC
:10263000F9E700BF10620000A46100000000014043
:10264000A414001000C00040A01400105821001075
:102650000080094000C00F4008B5104B1868E0B971
:1026600001210F4A1960D2F8C43043F40003C2F8C4
:10267000C430A2F5D022106702200A4B1B685060BC
:102680000948B3FBF0F3013BD360042051600749D4
:1026900000F0F8F81022064B1A6008BD84150010EF
:1026A00000C00F40E800001000093D000D070000C9
:1026B00000E100E008B5044B1B680BB9FFF7CCFF45
:1026C000024B986808BD00BF841500100040094007
:1026D000034B98615A6942F001025A61704700BF8A
:1026E00000400940024A536923F0010353617047D7
:1026F000004009400122014B1A6070470040094028
:102700000C4B00781A6822F0FF021A600122196847
:1027100082400A431A601A6842F080721A60586850
:102720000028FCDA1A68C0F30B1022F080721A60DD
:10273000704700BF0040034070B50646FFF7E0FF5A
:1027400004463046FFF7DCFF05463046FFF7D8FF6A
:10275000AC4282BF23462C461D46A84228BF2846CD
:10276000A04238BF204670BD70B50C46164D0646D7
:1027700029462046FEF77AF8144B3070D3F8C4206F
:10278000294642F48052C3F8C420D3F8A821204639
:10279000BDE8704022F04072C3F8A821D3F8A82108
:1027A00042F08072C3F8A821094B1A68094B134400
:1027B000094A93FBF2F3013B1B02084A43F400135E
:1027C0001360FEF719B800BF7C62000000C00F4024
:1027D000E80000103F5DC600405DC60000400340B9
:1027E00008B5FFF7A9FF01F08FF9024901F0E4F9FC
:1027F00008BD00BF0108803910B5032400F1604016
:10280000A0F51C2043000009800000F1804000F585
:102810003030026803F01E039C4022EA040202608A
:10282000026899401143016010BD00F16040A0F5BD
:102830001C2043099B0003F1804303F5303330B57E
:1028400000F01F029C6EC1F3800505FA02F224EA33
:1028500002049C669C6E22439A6695B90324430049
:102860000009800000F1804000F53030026C03F078
:102870001E039C4022EA04020264026C9940114348
:10288000016430BD30B50C4CA268A4681346B4F1A5
:10289000805F0CD2131F094C094A53F8045F42F8B9
:1028A000045FA242F9D14FF08053034A9360103085
:1028B00043F8201030BD00BF00ED00E0C000001064
:1028C000FCFFFF0F2022264BC3F8A021D3F8A02144
:1028D000920603D5D3F8A0215006FBD50222C3F8F7
:1028E000042100220120C3F8A821C3F8AC210B2247
:1028F000C3F80C01AA21C3F884205522C3F88C1018
:10290000C3F88C20C3F88000C3F88C10C3F88C2067
:10291000134B1A46D3F888104901FBD50321C3F89D
:102920008010AA21C3F88C105521C3F88C10D2F85E
:10293000883013F0407FFAD00523C2F80831094BE4
:10294000C2F8C4300023C2F8C831136823F47043BE
:1029500023F03A0343F4405343F03A0313607047C3
:1029600000C00F40DE8728040368DB69184703684E
:102970005B69184703689B6A184700F002BAA0F128
:102980003000FFF7FABF00F0FFB9A0F13000FFF709
:10299000FABF4FF0FF31443000F084BDA0F13000A9
:1029A000FFF7F7BF443000F080BDA0F13000FFF723
:1029B000F9BF000038B504461D46049B00F0ECF951
:1029C000294604F1300000F08FF8064B04F1440072
:1029D00003F1080228332260236300F04BFD2046F8
:1029E00038BD00BFE862000010B504464369416885
:1029F000194400F027FA636A04F118001B68BDE867
:102A00001040184738B504460D46FDF757FF2046DD
:102A100000F01EFA65612069FDF7EBFE29182046DB
:102A200000F010FABDE83840FDF75EBF7FB50646FE
:102A30006D46FDF743FF304600F00AFA002306F129
:102A40001804AC4203930BD02046FDF72AFC3CB19E
:102A5000039B1BB15B68694620469847039B7362E2
:102A60002846FDF71EFCFDF73FFF04B070BD704720
:102A70007047F8B50E46036804469B6B8F183546C1
:102A80009847BD4207D0236815F8011B1B6C2046F0
:102A900098470130F5D123682046DB6B9847A81B87
:102AA000F8BDF8B50E46036804469B6B8F18354693
:102AB0009847BD4208D0236820465B6C9847431C6A
:102AC00002D005F8010BF4E723682046DB6B98473A
:102AD000A81BF8BD002070470020704770470020F9
:102AE00070470020704700001FB50446002200F028
:102AF00077F8094B2246236000230849236101A887
:102B000002F0F0FB064901A801F04EFC206100F044
:102B1000A6FB204604B010BDC4630000B4630000EF
:102B2000B863000010B50446054B0360006901F06E
:102B300081FA044B2046236000F076F8204610BD51
:102B4000C4630000746300000EB477B504460368E4
:102B500007AD55F8046B9B6B98472069019501F010
:102B600023FB019A3146206901F0B8FF054623682E
:102B70002046DB6B9847284603B0BDE8704003B0A1
:102B80007047884238B504460D460AD0FDF789FBE8
:102B90003CB1EB681BB15B68294620469847EB685F
:102BA000E360204638BD007B70470000036870B5C5
:102BB000044683B9094D4FF0FF312868FEF7D0FC79
:102BC00023682BB9261D02D0304600F053FC266046
:102BD0002868FEF7EDFC206870BD00BFCC1900101E
:102BE00038B50E4B0446036000230D464360A160D8
:102BF00002730B48FFF7DAFF4FF0FF3100F052FC91
:102C000055B1084B1A681C6062600548FFF7CEFF9B
:102C100000F04BFC204638BD6560F6E71464000008
:102C20008C1500108815001010B50446114B036078
:102C30001148FFF7BBFF4FF0FF3100F033FCA368F2
:102C40002BB10E4A13689C420ED1636813600A4888
:102C5000FFF7ACFF00F029FC237B13B9204600F0FE
:102C600025FB204610BD13465A689442FBD162688A
:102C70005A60ECE7146400008C15001088150010F1
:102C800010B50446FFF7D0FF204600F00CFB2046AD
:102C900010BD0000F8B5074610480E46FFF786FF46
:102CA0004FF0FF3100F0FEFB0D4B1C6864B1A568CE
:102CB0008DB132463946284602F0B9FB58B928464C
:102CC00002F0ADFB864206D10448FFF76FFF00F02B
:102CD000ECFB2046F8BD6468E8E700BF8C150010E7
:102CE00088150010002310B5036043600A7804467D
:102CF0002F2A0DD14A785AB1481C19462060236802
:102D00001A782F2A06D101332360FFF7C3FF6060D2
:102D1000204610BD002AF8D0013301312360EEE7D0
:102D200000687047406808B520B1FFF73CFF431EBC
:102D30005842584108BD10B50446FFF7F3FF00B1F3
:102D4000606810BD406808B520B1FFF72CFFB0FAED
:102D500080F0400908BD10B50446FFF7F3FF00B14D
:102D6000606810BD4068003018BF01207047704790
:102D70007047704700EB0112936902F10C001B6869
:102D800018470430FFF7E8BA10B50C460430FFF7D7
:102D900023FB204610BD00002DE9FF410F46002116
:102DA00004469046174A184E184DC36202604160AF
:102DB00081608161816269460C3003950096FFF75E
:102DC000E0FE6846FDF76DFA694604F11C000395C4
:102DD0000096251DFFF7D5FE6846FDF762FA4246CC
:102DE00039462846FFF794FBE16A2846FFF7D4F9F5
:102DF000284622460649FFF7A3FA204604B0BDE85C
:102E0000F08100BF246400006F2D000068600000A6
:102E1000752D000003689B6818470000074B10B52C
:102E20000360002343608360C3600446FDF76AFCCF
:102E300003492061FDF770FC204610BD3C64000092
:102E4000152E000003460A46011D0069FDF790BCDF
:102E5000011D0069FDF7ADBC10B50446024B0360CF
:102E6000FFF7F6FF204610BD3C640000436A1830AF
:102E70001B68184710B50446006930B103686169E2
:102E80005B6A98470023236110BD6FF0150010BDE9
:102E900030B40446006903689D6A1346AC460A468E
:102EA000616930BC604730B4044600690368DD6A7C
:102EB0001346AC460A46616930BC60470369416904
:102EC0001A681846126B1047036941691A68184658
:102ED000526B104730B40446006903689D6B13467B
:102EE000AC460A46616930BC6047036941691A68AB
:102EF0001846D26B1047036941691A681846126C6C
:102F00001047036941691A681846526C104770B53A
:102F10000D460169044641B929680E6A00F11401A1
:102F20002846B04718B9256170BD6FF0150070BD17
:102F3000074B10B50360036904460BB1FFF79AFF16
:102F4000044B20462360FFF76FFE204610BD00BFF4
:102F5000646400007463000010B50446FFF7E8FFE6
:102F6000204600F0A0F9204610BD0000002210B558
:102F700004461146FFF734FE034B2046236000232E
:102F80002361636110BD00BF6464000001F0E4BB15
:102F900001F040BC01F094BB70B505464FF47A7463
:102FA000FFF788FB95FBF4F4002C064602DDFDF7E5
:102FB0007EFC28B9FFF77EFB801BA842FAD370BDC8
:102FC000204600F055FAF5E74FF47A735843FFF7BF
:102FD000E3BF0000034B10B503600446FFF7A8FFF2
:102FE000204610BDB064000008B5084B1B685BB9F3
:102FF00007490848084AFFF78BFA4FF41651BDE815
:1030000008400448FFF7C8B808BD00BFA01400106E
:1030100002C009205821001003C009207047000099
:10302000022810B5044601DC002010BD00F0AAFF04
:10303000092300220360094B033C53F8240043F8A2
:10304000242040B103681B699847041EECDA00F0A5
:1030500099FF644204604FF0FF3010BDC4150010AA
:10306000F8B505460E46144600F08CFF0923022DE4
:1030700003600FDC124B1B680BB9FFF7B5FF354639
:103080003719104EBD4215D015F8011B3046FFF719
:10309000A3F9F7E70C4B033D53F8250060B1036833
:1030A0002246DB6831469847041E03DA00F06AFFC7
:1030B000634203602046F8BD4FF0FF34FAE700BFDB
:1030C000A014001058210010C415001070B504465B
:1030D0000D46164600F056FF0923022C03600BDC58
:1030E0000F4B1B680BB9FFF77FFF0E48FFF734F952
:1030F00001242870204670BD0B4B033C53F824007C
:1031000058B1036832469B6829469847041EF1DA95
:1031100000F038FF63420360ECE74FF0FF34E9E76B
:10312000A014001058210010C415001010B504465A
:1031300000F028FF0923022C036010DD0A4B033C3A
:1031400053F8240040B103689B699847041E08DACD
:1031500000F018FF644204604FF0FF3010BD012002
:1031600010BD002010BD00BFC415001070B504468E
:103170000D46164600F006FF0923022C03600BDD06
:10318000084B033C53F8240040B1036832462946FB
:10319000BDE87040DB691847002070BD4FF0FF307C
:1031A00070BD00BFC4150010022808B504DC4FF440
:1031B000005300204B6008BD00F0E4FE09230360CB
:1031C0004FF0FF3008BD08B5FFF728FFFDF764FC9E
:1031D00008BD704708B5FFF7FCFFBDE80840FDF7E4
:1031E00063B900000C4A10B513681844EFF3088166
:1031F000884205D30C22094B4FF0FF301A6010BDF6
:1032000007490C6824B10749096821448842F1D272
:103210001060184610BD00BFEC00001060210010C7
:10322000E0160010E4160010094C08B523680546A6
:10323000986800F0B9FF2368D86800F0B5FFFDF783
:1032400025FB08B1FDF764FB0DB1FDF781FBFEE73F
:10325000F00000100120704708B5FFF7E5FF0021DE
:1032600001F089BF08B5FDF725FC08BD08B5FDF7DD
:1032700029FC08BD10B501F0D7F9044610B9024881
:10328000FDF7A2FB204610BDF464000008B101F078
:10329000D3B9704710B50446FFF79CFE2046FFF7F0
:1032A000F5FF204610BDFFF7F1BF000010B5044642
:1032B0000C48FFF77BFC4FF0FF3100F0F3F80023E0
:1032C0001946094A52F82300A04208BF42F82310C9
:1032D0000133402BF6D10348FFF768FCBDE81040EE
:1032E00000F0E3B8C4160010C41500102DE9F34730
:1032F00089464E49064602F088F8044628B9FFF789
:1033000073FE204602B0BDE8F0874949304602F01E
:103310007CF818B9FFF768FE0124F2E7454930460A
:1033200002F073F818B9FFF75FFE0224E9E700F036
:1033300029FE0923404F03604048FFF737FC4FF058
:10334000FF3100F0AFF80024B84657F82450002DA4
:1033500054D00134402CF8D100F014FE182303603F
:103360003648FFF723FC00F0A0F80DE03146684630
:10337000FFF7B8FC6846FFF7F5FC40B947F82400B2
:1033800000F000FE022303604FF0FF34B9E7684607
:10339000FFF7D8FC20B16846FFF7DDFC05463FE0AB
:1033A0006846FFF7C8FC824630B900F0EBFD022307
:1033B000036047F824A0E7E71820FFF75BFF064605
:1033C000FFF7D4FD1E4B68463360FFF7A9FC29F4D4
:1033D0008033024651463046FFF799FD071E0BDA4F
:1033E00000F0D0FD7F4207601EB1336830465B6855
:1033F000984748F82450C7E7354611E04FF0FF33AF
:103400000E4847F82430FFF7D1FB00F04EF8337830
:103410003A2BABD16A460B49304601F087FF009D3D
:10342000002DE6D048F8245003346AE719650000FF
:103430002065000011650000C4150010C4160010BE
:10344000B0640000B463000038B50446FFF712FD15
:1034500005461CB1236820465B689847284638BD5E
:10346000024B1B6803B11847704700BFE8160010F5
:10347000FDF7E6BF38B5044600F10805102200212B
:10348000284601F014F9204640F8045FFEF74AF898
:10349000206010B90248FDF797FA204638BD00BFFA
:1034A000286500000068FEF75BB80068FEF780B88A
:1034B00010B504460068FEF7C1F8204610BD0000B4
:1034C00080F309887047EFF309807047684680F3FE
:1034D00009883F480078C00714BF0220032080F30A
:1034E00014887047DFF8ECC0EFF305831B0618BFA4
:1034F0006047EFF31483DB0708BF604700DF7047C6
:10350000DFF8D4C0EFF305831B0618BF6047EFF365
:103510001483DB0708BF604700DF7047EFF30980C3
:10352000816911F8021CF1B990E80F10E047EFF340
:10353000098C8CE80700294B93E8060091420FD0D4
:1035400039B12CE9F00FC1F82CC00CB4FDF73EFCEA
:103550000CBC1A60D2F82CC0BCE8F00F8CF30988C0
:103560006FF0020E704710B51D4A1268914209D8DB
:103570001C4C54F8214090E80F10A047EFF3098C41
:103580008CE80F0010BDFDF7ADFB144B93E806006F
:10359000914210D0EFF3098C2CE9F00FC1F82CC048
:1035A0000CB4FDF713FC0CBC1A60D2F82CC0BCE8BC
:1035B000F00F8CF309886FF0020E7047FDF7E8FBFF
:1035C000FFF7E3BFFDF7E2FBFDF7E2FBFFF7DDBF2F
:1035D0001E610000DD0E0000F70E00000C2100103F
:1035E00000000000FCFFFFFF0649074A074B9A4214
:1035F000BEBF51F8040B42F8040BF8E704488047BB
:103600000448004728670000C8000010CC020010E2
:10361000C528000049060000FEE7FEE7FEE7FEE7DA
:10362000FEE7FEE7FEE7FEE7FEE7FEE781F000418A
:1036300002E000BF83F0004330B54FEA41044FEA97
:10364000430594EA050F08BF90EA020F1FBF54EA32
:10365000000C55EA020C7FEA645C7FEA655C00F0CE
:10366000E2804FEA5454D4EB5555B8BF6D420CDD9F
:103670002C4480EA020281EA030382EA000083EA22
:10368000010180EA020281EA0303362D88BF30BDC2
:1036900011F0004F4FEA01314FF4801C4CEA113118
:1036A00002D0404261EB410113F0004F4FEA033377
:1036B0004CEA133302D0524263EB430394EA050F02
:1036C00000F0A780A4F10104D5F1200E0DDB02FA71
:1036D0000EFC22FA05F2801841F1000103FA0EF205
:1036E000801843FA05F359410EE0A5F120050EF1CB
:1036F000200E012A03FA0EFC28BF4CF0020C43FAFC
:1037000005F3C01851EBE37101F0004507D54FF008
:10371000000EDCF1000C7EEB00006EEB0101B1F558
:10372000801F1BD3B1F5001F0CD349085FEA30009E
:103730004FEA3C0C04F101044FEA445212F5800FA9
:1037400080F09A80BCF1004F08BF5FEA500C50F146
:10375000000041EB045141EA050130BD5FEA4C0C29
:10376000404141EB010111F4801FA4F10104E9D1B2
:1037700091F0000F04BF01460020B1FA81F308BFA9
:103780002033A3F10B03B3F120020CDA0C3208DD75
:1037900002F1140CC2F10C0201FA0CF021FA02F150
:1037A0000CE002F11402D8BFC2F1200C01FA02F1C0
:1037B00020FA0CFCDCBF41EA0C019040E41AA2BFE5
:1037C00001EB0451294330BD6FEA04041F3C1CDAAD
:1037D0000C340EDC04F11404C4F1200220FA04F0CD
:1037E00001FA02F340EA030021FA04F345EA030177
:1037F00030BDC4F10C04C4F1200220FA02F001FA39
:1038000004F340EA0300294630BD21FA04F02946BA
:1038100030BD94F0000F83F4801306BF81F4801153
:103820000134013D4EE77FEA645C18BF7FEA655CC6
:1038300029D094EA050F08BF90EA020F05D054EA98
:10384000000C04BF1946104630BD91EA030F1EBF9D
:103850000021002030BD5FEA545C05D140004941A1
:1038600028BF41F0004130BD14F580043CBF01F594
:10387000801130BD01F0004545F0FE4141F470017A
:103880004FF0000030BD7FEA645C1ABF1946104655
:103890007FEA655C1CBF0B46024650EA013406BF56
:1038A00052EA033591EA030F41F4002130BD00BF15
:1038B00090F0000F04BF0021704730B54FF48064D2
:1038C00004F132044FF000054FF0000150E700BF53
:1038D00090F0000F04BF0021704730B54FF48064B2
:1038E00004F1320410F0004548BF40424FF000019F
:1038F0003EE700BF42004FEAE2014FEA31014FEAE2
:1039000002701FBF12F07F4393F07F4F81F0605130
:10391000704792F0000F14BF93F07F4F704730B59F
:103920004FF4607401F0004521F0004120E700BF32
:1039300050EA010208BF704730B54FF000050AE0B9
:1039400050EA010208BF704730B511F0004502D5BA
:10395000404261EB41014FF4806404F132045FEABC
:10396000915C3FF4DCAE4FF003025FEADC0C18BF61
:1039700003325FEADC0C18BF033202EBDC02C2F157
:10398000200300FA03FC20FA02F001FA03FE40EAE9
:103990000E0021FA02F11444C1E600BF80F000409D
:1039A00002E000BF81F0004142001FBF5FEA410317
:1039B00092EA030F7FEA226C7FEA236C6AD04FEA17
:1039C0001262D2EB1363C1BFD2184140484041405C
:1039D000B8BF5B42192B88BF704710F0004F40F40E
:1039E000000020F07F4018BF404211F0004F41F42A
:1039F000000121F07F4118BF494292EA030F3FD0F6
:103A0000A2F1010241FA03FC10EB0C00C3F1200308
:103A100001FA03F100F0004302D5494260EB400097
:103A2000B0F5000F13D3B0F1807F06D340084FEA02
:103A3000310102F10102FE2A51D2B1F1004F40EBF7
:103A4000C25008BF20F0010040EA0300704749005F
:103A500040EB000010F4000FA2F10102EDD1B0FA2A
:103A600080FCACF1080CB2EB0C0200FA0CF0AABF1F
:103A700000EBC25052421843BCBFD04018437047BD
:103A800092F0000F81F4000106BF80F400000132C3
:103A9000013BB5E74FEA41037FEA226C18BF7FEA9A
:103AA000236C21D092EA030F04D092F0000F08BFDC
:103AB0000846704790EA010F1CBF0020704712F0C3
:103AC0007F4F04D1400028BF40F00040704712F102
:103AD00000723CBF00F50000704700F0004343F067
:103AE000FE4040F4000070477FEA226216BF08469D
:103AF0007FEA23630146420206BF5FEA412390EA60
:103B0000010F40F4800070474FF0000304E000BF55
:103B100010F0004348BF40425FEA000C08BF704706
:103B200043F0964301464FF000001CE050EA0102CA
:103B300008BF70474FF000030AE000BF50EA0102DF
:103B400008BF704711F0004302D5404261EB4101CC
:103B50005FEA010C02BF84460146002043F0B643F1
:103B600008BFA3F18053A3F50003BCFA8CF2083A16
:103B7000A3EBC25310DB01FA02FC634400FA02FC1F
:103B8000C2F12002BCF1004F20FA02F243EB020026
:103B900008BF20F00100704702F1200201FA02FC88
:103BA000C2F1200250EA4C0021FA02F243EB02007B
:103BB00008BF20EADC7070474FF0FF0C1CEAD052BF
:103BC0001EBF1CEAD15392EA0C0F93EA0C0F6FD080
:103BD0001A4480EA010C400218BF5FEA41211ED05E
:103BE0004FF0006343EA501043EA5111A0FB01314A
:103BF0000CF00040B1F5000F3EBF490041EAD3711F
:103C00005B0040EA010062F17F02FD2A1DD8B3F19A
:103C1000004F40EBC25008BF20F00100704790F009
:103C2000000F0CF0004C08BF49024CEA502040EA5B
:103C300051207F3AC2BFD2F1FF0340EAC250704721
:103C400040F400004FF00003013A5DDC12F1190F5F
:103C5000DCBF00F000407047C2F10002410021FAD1
:103C600002F1C2F1200200FA02FC5FEA310040F1E9
:103C7000000053EA4C0308BF20EADC70704792F062
:103C8000000F00F0004C02BF400010F4000F013A9A
:103C9000F9D040EA0C0093F0000F01F0004C02BF95
:103CA000490011F4000F013BF9D041EA0C018FE704
:103CB0000CEAD15392EA0C0F18BF93EA0C0F0AD00A
:103CC00030F0004C18BF31F0004CD8D180EA010030
:103CD00000F00040704790F0000F17BF90F0004FC9
:103CE000084691F0000F91F0004F14D092EA0C0FAB
:103CF00001D142020FD193EA0C0F03D14B0218BF3E
:103D0000084608D180EA010000F0004040F0FE4083
:103D100040F40000704740F0FE4040F4400070471F
:103D20004FF0FF0C1CEAD0521EBF1CEAD15392EA9E
:103D30000C0F93EA0C0F69D0A2EB030280EA010C8E
:103D400049024FEA402037D04FF0805343EA111127
:103D500043EA10130CF000408B4238BF5B0042F185
:103D60007D024FF4000C8B4224BF5B1A40EA0C002A
:103D7000B3EB510F24BFA3EB510340EA5C00B3EB5C
:103D8000910F24BFA3EB910340EA9C00B3EBD10F4A
:103D900024BFA3EBD10340EADC001B0118BF5FEA9C
:103DA0001C1CE0D1FD2A3FF650AF8B4240EBC250C5
:103DB00008BF20F0010070470CF0004C4CEA502086
:103DC0007F32C2BFD2F1FF0340EAC250704740F4D5
:103DD00000004FF00003013A37E792F0000F00F0C7
:103DE000004C02BF400010F4000F013AF9D040EA45
:103DF0000C0093F0000F01F0004C02BF490011F4D9
:103E0000000F013BF9D041EA0C0195E70CEAD153D0
:103E100092EA0C0F08D142027FF47DAF93EA0C0FB7
:103E20007FF470AF084676E793EA0C0F04D14B029B
:103E30003FF44CAF08466EE730F0004C18BF31F04D
:103E4000004CCAD130F000427FF45CAF31F0004347
:103E50007FF43CAF5FE700BF4FF0FF3C06E000BFE0
:103E60004FF0010C02E000BF4FF0010C4DF804CD03
:103E70004FEA40024FEA41037FEA226C18BF7FEA13
:103E8000236C11D001B052EA530C18BF90EA010F15
:103E900058BFB2EB030088BFC81738BF6FEAE170A4
:103EA00018BF40F0010070477FEA226C02D15FEA40
:103EB000402C05D17FEA236CE4D15FEA412CE1D0AC
:103EC0005DF8040B704700BF844608466146FFE773
:103ED0000FB5FFF7C9FF002848BF10F1000F0FBD55
:103EE0004DF808EDFFF7F4FF0CBF012000205DF84E
:103EF00008FB00BF4DF808EDFFF7EAFF34BF0120D3
:103F000000205DF808FB00BF4DF808EDFFF7E0FF6B
:103F100094BF012000205DF808FB00BF4DF808EDBC
:103F2000FFF7D2FF94BF012000205DF808FB00BF1F
:103F30004DF808EDFFF7C8FF34BF012000205DF801
:103F400008FB00BF42000ED2B2F1FE4F0BD34FF080
:103F50009E03B3EB126209D44FEA002343F00043FF
:103F600023FA02F070474FF00000704712F1610F22
:103F700001D1420202D14FF0FF3070474FF00000F4
:103F8000704700BF014B1868704700BFF000001079
:103F900070B505460C4611B90026304670BD18B103
:103FA00083690BB900F052F91F4B9C4232D16C6807
:103FB000B4F90C30002BEFD02146284600F042F82F
:103FC000236B064633B1216A284698470028B8BFBC
:103FD0004FF0FF36A3891B0603D521692846FEF75B
:103FE000D9FF616B41B104F14403994202D02846E4
:103FF000FEF7D0FF00236363A16C21B12846FEF7D2
:10400000C9FF0023A36400F08DF90023A38100F011
:104010008AF9C2E7054B9C4201D1AC68C8E7044B62
:104020009C4208BFEC68C3E7706500009065000023
:1040300050650000024B01461868FFF7A9BF00BF9A
:10404000F00000108A892DE9F041054610070C4662
:104050005AD44B68002B05DC0B6C002B02DC0020D3
:10406000BDE8F081E66A002EF9D0002312F48052F8
:104070002F682B6033D0606DA3895A0705D563681C
:10408000C01A636B0BB1236CC01A00230246E66AA8
:10409000216A2846B047431CA38906D129681D29F7
:1040A0004BD82B4ACA40D60747D500226260226906
:1040B000D904226004D5421C01D12B6803B9606584
:1040C000616B2F600029CAD004F14403994202D0E9
:1040D0002846FEF75FFF00206063BDE8F081216A9B
:1040E00001232846B047411CC6D12B68002BC3D002
:1040F0001D2B01D0162B01D12F60B0E7A38943F00F
:104100004003A381BDE8F0810F69002FA7D093077A
:1041100018BF00230E6808BF4B69A6EB07080F60A5
:104120008B60B8F1000F9ADD43463A46216A284673
:10413000A66AB047002807DCA38943F04003A381A7
:104140004FF0FF30BDE8F0810744A8EB0008E8E736
:104150000100402038B50B6905460C46DBB118B1AB
:1041600083690BB900F072F80C4B9C4209D16C6862
:10417000B4F90C307BB121462846BDE83840FFF742
:1041800061BF074B9C4201D1AC68F1E7054B9C42F3
:1041900008BFEC68ECE7002038BD00BF7065000088
:1041A0009065000050650000014620B9044B0549A8
:1041B000186800F093B9044B1868FFF7CBBF00BF35
:1041C000B065000055410000F0000010014900F00A
:1041D00085B900BF55410000002310B504460360B7
:1041E0004360836081814366C2810361436183616F
:1041F000194608225C3000F05AFA054B24626362CB
:10420000044BA362044BE362044B236310BD00BF65
:1042100081530000A7530000DF5300000354000047
:1042200070B568254A1E55430E4605F17401FEF728
:10423000ADFE044640B1002180E842000C30A06091
:1042400005F1680200F033FA204670BD836910B5AD
:10425000044633BB8364C3640365124B124A1B6874
:104260008262984204BF0123836100F01FF86060FE
:10427000204600F01BF8A060204600F017F800224E
:10428000E06004216068FFF7A7FF01220921A06810
:10429000FFF7A2FF02221221E068FFF79DFF012332
:1042A000A36110BDB0650000CD410000F8B51C4B06
:1042B00007461E68B36913B93046FFF7C7FF483693
:1042C000B4687368013B03D5336833B13668F7E7E8
:1042D000B4F90C506DB16834F4E704213846FFF7A7
:1042E0009FFF30600028F1D10C2304463B6020463C
:1042F000F8BD4FF6FF73E38101236566A381256056
:10430000A560656025616561A5610822294604F103
:104310005C0000F0CCF96563A563A564E564E6E79D
:10432000B065000070477047F7B50F46114601AA07
:10433000054601F0CDFA064618B90024204603B020
:10434000F0BD2846FFF7B2FF04460028F5D04FF431
:10435000DB73019A3946284600F0BCFE002806DAD5
:104360000025FFF7DFFFA581FFF7DDFFE5E70A4B3B
:10437000E0816362094BA681A362094B2462E36278
:10438000084B2363F305D9D5022300222146284692
:1043900000F012F8D2E700BF81530000A7530000DD
:1043A000DF53000003540000024B0A460146186820
:1043B000FFF7BABFF000001000F000B82DE9F84395
:1043C0000C4691461E46054618B183690BB9FFF7A6
:1043D0003DFF3F4B9C4212D16C68A38903F4847368
:1043E000B3F5847F03D121462846FFF7B3FED4F806
:1043F0002C80B8F1000F0CD11D232B6057E0354BFA
:104400009C4201D1AC68E8E7334B9C4208BFEC68A2
:10441000E3E7012E30D0022E01D0002E55D12369C2
:104420001BB92146284600F0BFF821462846FFF771
:1044300091FE074600283AD133464A46216A28466B
:10444000C047013033D0616B41B104F1440399425C
:1044500002D02846FEF79EFD0023636300212369F6
:1044600061602360A389082223F40263A38104F11D
:104470005C0000F01CF91CE021462846FFF76AFEAC
:10448000A28912F480520CD0606DA3895A0713D50B
:104490006368C01A636B0BB1236CC01A8144002699
:1044A000BDE7216A33462846C047411CEDD14FF095
:1044B000FF373846BDE8F8831B07EFD52368002B8C
:1044C000ECD022699B1A1844E8E7162395E700BF51
:1044D0007065000090650000506500002DE9F8430C
:1044E00080468946002600F1480414B93046BDE8EC
:1044F000F883A5686768013F01D52468F5E7AB89B3
:10450000012B07D9B5F90E30013303D029464046B7
:10451000C84706436835EEE770B500250C4E0D4CD4
:10452000A41BA410A54209D101F086FD00250A4E66
:104530000A4CA41BA410A54205D170BD56F8253025
:1045400098470135EEE756F8253098470135F2E7F0
:10455000C0020010C0020010C0020010C80200100B
:1045600070B50E46B1F90E1090B0002914461D46E4
:1045700007DA00232B60B3891A0610D44FF4806346
:104580000EE001AA01F0DAF90028F2DB029A02F447
:104590007042A2F500535A425A412A60EEE7402386
:1045A0000020236010B070BD8B8973B59D0706464F
:1045B0000C4607D504F1470323602361012363619F
:1045C00002B070BD01AB6A46FFF7CAFF009905460D
:1045D0003046FEF7DBFC48B9B4F90C309A05EFD44D
:1045E00023F0030343F00203A381E3E70D4BB3621F
:1045F000A389206043F08003A381009B2061636155
:10460000019B5BB1B4F90E10304601F0A9F928B155
:10461000A38923F0030343F00103A381A3891D436E
:10462000A581CDE7CD410000024B01461868FEF799
:10463000ADBC00BFF0000010024B01461868FEF749
:10464000A9BC00BFF000001010B5C9B202449042EE
:10465000034601D1002010BD1C7801308C42F6D1F8
:10466000184610BD10B5431E0A44914200D110BD3A
:1046700011F8014B03F8014FF7E7884210B501EB41
:10468000020303D8421E99420CD110BD9842F9D2C0
:104690008118D21AD34200D110BD13F8014D01F890
:1046A000014DF7E711F8014B02F8014FEBE7034624
:1046B0000244934200D1704703F8011BF9E7000060
:1046C00038B50546002943D051F8043C0C1F002B97
:1046D000B8BFE418FEF7C6FD1E4A1368104633B98A
:1046E000636014602846BDE83840FEF7BFBDA342B2
:1046F0000BD921686218934201BF1A685B6852188F
:10470000226063600460EDE713465A680AB1A24272
:10471000FAD919685818A0420BD1206801445818DA
:1047200082421960DED110685268014419605A60F3
:10473000D8E702D90C232B60D4E7206821188A42DD
:1047400001BF116852680918216062605C60C9E7A6
:1047500038BD00BFEC16001070B5CD1C25F0030568
:1047600008350C2D38BF0C25002D064601DBA9426B
:1047700003D90C233360002070BDFEF773FD234A7C
:104780001468214691B9224C23681BB9304600F0C9
:10479000B3FC20602946304600F0AEFC431C26D115
:1047A0000C2330463360FEF761FDE4E70B685B1BCA
:1047B0001AD40B2B0FD90B60CC18CD503046FEF716
:1047C00055FD04F10B00231D20F00700C31A1BD078
:1047D0005A42E25070BD8C420BBF63684B68136055
:1047E000636018BF0C46E9E70C464968CAE7C41C79
:1047F00024F00304A04205D0211A304600F07CFCCE
:104800000130CDD02560D9E770BD00BFEC16001097
:10481000F0160010F8B5074614460E4621B91146A9
:10482000BDE8F840FEF7B2BB22B9FEF7B3FB254660
:104830002846F8BD01F0DAF884420FD921463846FF
:10484000FEF7A4FB05460028F2D031462246FFF7CA
:1048500009FF31463846FEF79DFBE9E73546E7E7B5
:10486000936810B4013B002B936008DA9469A3426B
:1048700002DBCBB20A2B02D110BC00F047BF136899
:10488000581C10601970C8B210BC7047F8B50646C5
:104890000F461446D518AC4201D1002007E03A4635
:1048A00014F8011B3046FFF7DBFF431CF3D1F8BDC2
:1048B0002DE9F04F9DB00C4617460393064618B1FC
:1048C00083690BB9FFF7C2FC7C4B9C4257D17468DB
:1048D000A38918075DD52369002B5AD000230993BB
:1048E00020238DF8293030234FF0010B8DF82A302A
:1048F000B846454615F8013B002B55D1B8EB070AE1
:104900000BD053463A4621463046FFF7BFFF0130F1
:1049100000F0C480099B5344099398F80030002BA1
:1049200000F0BC8000234FF0FF3204930793059200
:1049300006938DF853301A93052229786048FFF7C3
:1049400083FE05F10108049B002831D1D90644BF3C
:1049500020228DF853201A0744BF2B228DF85320B4
:104960002A782A2A2CD000210A20079AA84698F8EB
:1049700000300135303B092B6DD971B326E0514B26
:104980009C4201D1B468A3E74F4B9C4208BFF46836
:104990009EE72146304600F01DFF00289ED04FF0D4
:1049A000FF301DB0BDE8F08F252BA7D0A846A0E7AB
:1049B000434A4546801A0BFA00F018430490BBE7BF
:1049C000039A111D12680391002A01DB079204E08B
:1049D000524243F002030792049398F800302E2BC2
:1049E00010D198F8013008F101012A2B37D1039B2F
:1049F00008F102081A1D1B680392002BB8BF4FF084
:104A0000FF330593314D032298F800102846FFF735
:104A10001BFE40B14023401B03FA00F0049B08F149
:104A200001080343049398F800100622284808F16F
:104A300001078DF82810FFF707FE002834D0254B1A
:104A400003BB039B073323F0070308330393099B3E
:104A50004B4409934CE700FB0232012186E7002317
:104A60000A2518460593884698F800200131303A07
:104A7000092A03D9002BC5D00590C3E705FB002008
:104A80000123F0E703AB00932246134B04A9304601
:104A9000AFF30080B0F1FF3F8146D8D1A3895B0618
:104AA0003FF57DAF09987CE703AB009322460A4BA4
:104AB00004A9304600F094F8ECE700BF70650000F0
:104AC000B46500009065000050650000BA65000004
:104AD000BE650000000000008D48000013460A4635
:104AE000014602480068FFF7E3BE00BFF000001077
:104AF0002DE9F04791461F468A680B6906469342A6
:104B0000B8BF1346C9F8003091F843200C46DDF8D1
:104B1000208012B10133C9F800302368990642BFE2
:104B2000D9F800300233C9F80030256815F00605C1
:104B300007D104F1190AE368D9F800209B1A9D42B5
:104B40002ADB94F843302268003318BF0123920611
:104B50002FD404F1430239463046C047013022D0F9
:104B60002368E56803F00603042B18BF0025D9F875
:104B700000204FF0000908BFAD1AA368226908BFE2
:104B800025EAE5759342C4BF9B1AED181A344D45CA
:104B90001BD10020BDE8F08701235246394630463C
:104BA000C047013003D14FF0FF30BDE8F087013539
:104BB000C1E73020E11881F843005A1C94F84510F1
:104BC0002244023382F84310C3E7012322463946C8
:104BD0003046C0470130E6D009F10109D7E70000AF
:104BE0002DE9F04317460A7E85B06E2A98460646A0
:104BF0000C460C9B01F1430E00F0BC801AD8632ACE
:104C00002ED00AD8002A00F0C880582A00F08A80E6
:104C100004F1420584F842202AE0642A01D0692A7E
:104C2000F6D121681A6811F0800F23D0111D196088
:104C3000136827E0732A00F0B48008D86F2A2AD0BE
:104C4000702AE5D10A6842F020020A6003E0752A62
:104C500021D0782ADCD178226F4984F8452064E09D
:104C60001A6801F14205111D1960136884F8423079
:104C70000123A3E011F0400F02F104011960D7D025
:104C8000B2F90030002B03DA2D225B4284F8432076
:104C900062490A2217E02068196810F0800F03D0DB
:104CA000081D18600B6806E010F0400F01F10400C9
:104CB0001860F7D00B886F2A14BF0A2208225749C0
:104CC000002084F843006568002DA560C0F29C8038
:104CD000206820F004002060002B3FD1002D40F020
:104CE00095807546082A0BD12368DA0708D5236911
:104CF00062689A42DEBF302305F8013C05F1FF35BA
:104D0000AEEB05032361CDF800803B4603AA2146A4
:104D10003046FFF7EDFE013055D14FF0FF3005B0C2
:104D2000BDE8F08381F845203C492268186812F0FC
:104D3000800F00F104051D6001D0036802E05506F4
:104D4000FBD50388D00744BF42F0200222601BB984
:104D5000226822F0200222601022B1E77546B3FBE0
:104D6000F2F002FB1033CB5C05F8013D034600284E
:104D7000F5D1B7E708681A6810F0800F496904D0C8
:104D8000101D18601368196007E010F0400F02F161
:104D9000040018601368F6D019800023754623615B
:104DA000B1E71A68111D196015680021626828466C
:104DB000FFF74AFC08B1401B606063682361002371
:104DC00084F843309FE723692A4639463046C04776
:104DD0000130A2D023689B0707D5002504F11909EB
:104DE000E368039A9B1A9D4205DBE068039B9842A7
:104DF000B8BF184693E701234A4639463046C047B4
:104E000001308AD00135EBE7002BA7D10B7804F1F4
:104E1000420584F8423065E7D6650000C5650000AC
:104E20002DE9F04115468A6880460C4632B98A69F8
:104E3000002A0CBF01224FF0FF328A600026226850
:104E4000D1065FBF1A68111D19601768A369DBB12D
:104E5000012B07D12B6862691B78D35CA3B9002EA4
:104E600031D106E0022B07D0002E2CD1A369012BF3
:104E700029D10120BDE8F08100F086FD2B681B7868
:104E8000184443781B07EFD423680136DA065EBF67
:104E90002B681B783B702A686B6802F101022A605C
:104EA000A26803F1FF3302F1FF326B6058BF013794
:104EB000A26042B1002BC9DCD4F8803129464046BB
:104EC00098470028C2D0236813F0100305D1E26888
:104ED0000132E260A26902B13B70236900201E44E6
:104EE0002661BDE8F08100002DE9F04F0C469A469E
:104EF000744B87B08346164693E8070003ABA76858
:104F000083E80700704BA169704A04F11C0903296A
:104F100018BF1A467B1EB3F5AE7F84BF40F25D1307
:104F2000A360236888BF6FF4AE7543F450632360B9
:104F300098BF00274B464FF00008009288BF7F19AA
:104F40003168019303AB53F8280002220978FFF778
:104F50007BFB019B28B3B8F1010F56D162682AB9D7
:104F600008226260226842F400722260226822F401
:104F7000A0622260A268511EA16092B132685D1CDD
:104F8000511C316012781A707368013B002B7360FA
:104F900006DCD4F88031314658469847002877D14E
:104FA0002B4608F10108B8F1030FC9D162680AB9AC
:104FB0000A226260626846496069891A019300F0BA
:104FC000ABF8019B4FF000081D46A368002B39D0B9
:104FD000316860690A78805C002833D0302A226802
:104FE00021D110051FD508F1010817B10133013F88
:104FF000A3607368013B002B73601CDD33680133D1
:105000003360A368013BA360DFE7B8F1020FB1D1C1
:10501000226802F4C061B1F5007FC2D1102142F4D0
:1050200080726160A5E722F4106222600B7801357E
:1050300005F8013CDDE7D4F8803131465846984701
:105040000028DED02368D9050CD54D4508D915F8C0
:10505000011C6F1ED4F87C313246584698473D46B5
:105060004D452CD0226812F010021ED12A706368C0
:1050700049465846009EB0472268DAF8003012F0E0
:10508000200F08D01A1DCAF800201B68186009E01C
:105090004FF00008D6E7D207F4D51A1DCAF8002051
:1050A0001B681880E3680133E3600020A5EB090565
:1050B000A84425694544256107B0BDE8F08F01206B
:1050C000FAE700BFE865000075560000555500007E
:1050D0000466000038B50546084611460022054C16
:1050E00022601A46FEF702F9431C02D1236803B17D
:1050F0002B6038BD6021001038B50023054C0546F3
:1051000008462360FEF76EF8431C02D1236803B102
:105110002B6038BD6021001070B50B78441E5E2BEB
:1051200013BF4A1C8A1C4B78002108BF012100F1E3
:10513000FF0504F8011FA542FBD113B9013A10463F
:1051400070BD81F001041146C4540D784A1C2D2D08
:1051500006D05D2DF3D00DB90A46F0E72B46F2E7F5
:105160004E785D2EFAD0B342F8DC023101339E4214
:10517000C454FBDCE9E700294FF480630CBF022232
:10518000002200F001B800002DE9F7431D46514B05
:1051900004461E680F46904626B1B36913B93046DF
:1051A000FFF754F84C4B9C4252D17468B8F1020F8F
:1051B00006D0B8F1010F00F28980002DC0F2868080
:1051C00021463046FEF7C6FF616B41B104F144034E
:1051D000994202D03046FDF7DDFE002363630023D1
:1051E000A3616360A3891B0603D521693046FDF7DF
:1051F000D1FEA389B8F1020F23F44A6323F003031D
:10520000A3815DD001AB6A4621463046FFF7A8F97D
:10521000A3891843A0812DBB009D2846FFF704FAFF
:10522000074600284ED1DDF80090A9453CD14FF04B
:10523000FF30A38943F00203A3810023A36004F19C
:105240004703236023610123636103B0BDE8F0835A
:10525000224B9C4201D1B468A8E7214B9C4208BF75
:10526000F468A3E7002FD8D0B36913B93046FEF72E
:10527000EDFFB8F1010F08BFA389276004BF43F019
:105280000103A381A389276113F0080065611BD086
:1052900013F001004FF000031FBF6D42A360A56132
:1052A000184608BFA560D0E74846FFF7BDF9074696
:1052B0000028BCD0A3894D4643F08003A381D3E7E7
:1052C0000020B6E7A946F5E7A060BEE74FF0FF3043
:1052D000BBE700BFF00000107065000090650000A3
:1052E000506500000EB44FF4027100B59CB0ADF8EB
:1052F00014106FF00041049107914FF6FF711DAB40
:1053000002900690084853F8042BADF81610006878
:1053100002A9019300F0CEFB0022029B1A701CB080
:105320005DF804EB03B07047F00000100EB44FF4CA
:10533000017230B59CB01FAC54F8045BADF814207A
:105340000290069000F06BF80B4B03900B93002338
:105350000F9314934FF6FF7307900848ADF816307B
:105360002A46234602A90068019400F0F1FC1CB013
:10537000BDE8304003B07047A3530000F0000010B8
:1053800010B50C46B1F90E1000F036FE0028ABBF88
:10539000636DA3891B1823F48053ACBF6365A3819D
:1053A00010BD002070472DE9F0411F468B8905464E
:1053B000DB050C46164605D502230022B1F90E1076
:1053C00000F0F0FAA389324623F48053A381B4F9A4
:1053D0000E103B462846BDE8F04100F0E9B910B593
:1053E0000C46B1F90E1000F0DDFA431CA38915BF7D
:1053F000606523F4805343F48053A38118BFA381D5
:1054000010BDB1F90E1000F053BA10F8012B11F8CD
:10541000013B012A28BF9A42F7D0D01A70470346B1
:1054200013F8012B002AFBD1181A0138704710B568
:105430006AB10139841810F8013B11F8012F934229
:1054400003D1A04201D0002BF5D1981A10BD10460F
:1054500010BD2DE9F84F8046894692461F468B467F
:105460005D460A9815F8014B00F08AFA2044467808
:1054700016F008060BD12D2C0BD101262C780BF140
:10548000020567B1102F14D1302C0AD011E0AB46C1
:10549000E6E72B2C04BF2C780BF10205F1E7302C4A
:1054A00027D12B7803F0DF03582B4BD110276C78D2
:1054B0000235002E0CBF6FF000414FF0004100227A
:1054C000B1FBF7FE104607FB1E1CA4F13003092BAD
:1054D00011D81C46A7421DDD531C07D0864516D3A4
:1054E00001D1A44513DB012200FB074015F8014B55
:1054F000EBE70A27DDE7A4F14103192B01D8373C7C
:10550000E8E7A4F16103192B04D8573CE2E74FF018
:10551000FF32EBE7531C08D122230846C8F80030BD
:10552000BAF1000F07D1BDE8F88F06B14042BAF1D9
:10553000000F0CD022B1013DCAF80050BDE8F88F31
:105540004D46F9E73024002FB3D10827B1E7BDE875
:10555000F88F000037B5064C064D2468246A002CED
:1055600008BF2C460094FFF774FF03B030BD00BFA6
:10557000F0000010540100102DE9F04780468946E4
:1055800092461E460F463D46089815F8014B00F01E
:10559000F7F92044437813F008030AD12D2C0AD1DF
:1055A00001232C78BD1C5EB1102E13D1302C09D0F4
:1055B00010E02F46E7E72B2C04BF2C78BD1CF2E748
:1055C000302C25D12A7802F0DF02582A4AD1102641
:1055D0006C7802354FF0FF31B1FBF6F1002706FB86
:1055E00001FE38466FEA0E0EA4F13002092A11D8E6
:1055F0001446A6421DDD002F18DB814216D301D1CF
:10560000A64513DB012700FB064015F8014BEBE72D
:105610000A26DFE7A4F14102192A01D8373CE8E75E
:10562000A4F16102192A04D8573CE2E74FF0FF3792
:10563000EBE7002F09DA22234FF0FF30C8F80030E3
:10564000BAF1000F07D1BDE8F08703B14042BAF1CB
:10565000000F0CD027B1013DCAF80050BDE8F0871B
:105660004D46F9E73024002EB4D10826B2E7BDE854
:10567000F087000037B5064C064D2468246A002CDC
:1056800008BF2C460094FFF777FF03B030BD00BF82
:10569000F0000010540100102DE9F0410C46496B58
:1056A00004F1440399421CD14FF48061FDF76EFC74
:1056B00018B94FF0FF30BDE8F0814FF48063A36369
:1056C00094F84630606380F8FF3394F8453000F278
:1056D000FD30437094F84430037020600020BDE832
:1056E000F081A66B77003A46FDF752FC054600288C
:1056F000DFD000EB0608014632464046FEF7B2FF17
:10570000C4F800806563A763E8E70000F8B50E46BB
:105710001446054618B183690BB9FEF797FD214B76
:105720009C422AD16C68A369A360A3891A072ED56D
:10573000236963B323692068F6B2C01A63693746E8
:10574000984204DB21462846FEF704FD28BBA368E7
:105750000130013BA36023685A1C22601E706369FC
:10576000984204D0A389DB0719D50A2E17D1214608
:105770002846FEF7EFFC90B10FE00B4B9C4201D1A5
:10578000AC68D0E7094B9C4208BFEC68CBE72146E8
:10579000284600F01FF80028CCD04FF0FF373846DD
:1057A000F8BD00BF70650000906500005065000006
:1057B00038B50546084611460022054C22601A46B7
:1057C000FDF74EFC431C02D1236803B12B6038BDAA
:1057D00060210010324B70B51D6806460C4625B19D
:1057E000AB6913B92846FEF731FD2E4B9C420FD111
:1057F0006C68B4F90C309AB215072CD4D00611D4C9
:105800000922326043F04003A3814FF0FF3070BDA6
:10581000254B9C4201D1AC68EBE7244B9C4208BF6E
:10582000EC68E6E7510712D5616B41B104F144031E
:10583000994202D03046FDF7ADFB00236363A38994
:1058400023F02403A3810023636023692360A389D9
:1058500043F00803A38123694BB9A38903F42073A0
:10586000B3F5007F03D021463046FEF79DFEA289A6
:1058700012F001030CD00023A36063695B42A361B3
:10588000236953B9B4F90C3013F08000BAD170BD5C
:10589000920758BF6369A360F2E70020F7E700BFF3
:1058A000F000001070650000906500005065000079
:1058B00038B50023054C054608462360FDF7B0FBCC
:1058C000431C02D1236803B12B6038BD6021001056
:1058D0000B7830B5722B13D0772B07D0612B13D1F7
:1058E0004FF4027401234FF4847003E04FF4C0645A
:1058F0000123082011F8015F55B92343136030BD1F
:10590000002404202346F5E716230360002030BD61
:10591000622D0CD0782D0DD02B2DEBD120F01C005A
:1059200023F0030340F0100043F00203E2E743F4E6
:105930008033DFE743F40063DCE7000038B5002381
:10594000064C0546084611462360FDF72DFC431C16
:1059500002D1236803B12B6038BD00BF6021001065
:1059600038B50023054C054608462360FAF780FE4B
:10597000431C02D1236803B12B6038BD60210010A5
:10598000D0F8EC0070470000044B054A1B681B6A06
:10599000002B08BF1346D3F8EC007047F00000104E
:1059A0005401001038B50546084611460022054C42
:1059B00022601A46FDF7DAFB431C02D1236803B1CB
:1059C0002B6038BD6021001082B001B901A942B13D
:1059D0004BB113780B601278101C18BF012002B075
:1059E00070471046FBE76FF00100F8E751F8040C30
:1059F0000028A0F10400BCBF0B58C01870472DE967
:105A0000F0478E6882469E420C469146984635D8AD
:105A10008A8912F4906F31D00223256809696F1AC0
:105A2000656905EB450595FBF3F508F101033B447A
:105A30009D4238BF1D46530531D52946FDF7A6FACC
:105A4000064650B90C23CAF80030A3894FF0FF3046
:105A500043F04003A381BDE8F0873A462169FEF791
:105A600001FEA38923F4906343F08003A3812661A0
:105A70003E44266046466561ED1BA560464528BF4D
:105A80004646494632462068FEF7F7FDA3680020E7
:105A90009B1BA36023681E442660BDE8F0872A464E
:105AA000FDF776FA06460028E1D121695046FDF758
:105AB00071FAC7E72DE9F04F9DB003938B898046BB
:105AC0001C060D4616460FD50B696BB94021FDF734
:105AD0005DFA2860286128B90C23C8F800304FF01F
