:020000040800F2
:1000000000800120ED4A0008214B0008214B000828
:10001000214B0008214B0008214B00080000000084
:10002000000000000000000000000000B1490008CE
:10003000214B000800000000574A0008B74A00089A
:10004000214B0008214B0008214B0008214B0008E0
:10005000214B0008214B0008214B0008214B0008D0
:10006000214B0008214B0008214B0008214B0008C0
:10007000214B0008214B0008214B0008214B0008B0
:10008000214B0008214B0008214B00080000000014
:10009000000000000000000000000000214B0008EC
:1000A000214B0008214B0008214B0008214B000880
:1000B000214B0008214B0008214B0008214B000870
:1000C000214B0008214B0008214B0008214B000860
:1000D000214B0008214B0008214B000800000000C4
:1000E000214B0008214B0008214B000800000000B4
:1000F000000000000000000000000000214B00088C
:1001000000000000214B0008214B0008214B000893
:1001100000000000000000000000000000000000DF
:10012000214B0008214B0008214B0008214B0008FF
:10013000214B00080000000000000000000000004B
:10014000000000000000000000000000214B00083B
:10015000214B0008214B0008214B0008214B0008CF
:10016000214B0008214B00080000000000000000A7
:10017000000000000000000000000000000000007F
:1001800000000000214B00080000000000000000FB
:10019000214B000810B5054C237833B9044B13B13B
:1001A0000448AFF300800123237010BD40020020FB
:1001B00000000000C85F00080C4B43B10C480D491B
:1001C00010B5AFF300800C48036823B910BD0A488E
:1001D000036833B97047094B002BF7D0BDE81040D6
:1001E0001847064B002BF5D0184700BF0000000051
:1001F000C85F000844020020380200200000000010
:10020000704743680B7043681B0A4B70C3888B7040
:10021000C379CB7083680B7183681B0A4B71438968
:100220008B71C37ACB71082070470B7843604A7892
:1002300043EA022343608A7843EA02434360CA7870
:1002400043EA026343600B7983604A7943EA0223FD
:1002500083608A7943EA02438360CA7943EA02638E
:10026000836008207047000000487047CD5A00089E
:1002700000487047AC5A0008004870473E5A0008D2
:10028000004870471D5A0008004870470A5A000885
:1002900000487047E959000800487047575A00085D
:1002A00000487047C859000883880B7083881B0A70
:1002B0004B70C3888B70C3881B0ACB7003890B718A
:1002C00003891B0A4B7143898B7143891B0ACB71CC
:1002D00083890B7283891B0A4B72C3898B72C38912
:1002E0001B0ACB720C2070470B7883804A7843EA54
:1002F000022383808B78C380CA7843EA0223C380B9
:100300000B7903814A7943EA022303818B79438184
:10031000CA7943EA022343810B7A83814A7A43EA0A
:10032000022383818B7AC381CA7A43EA0223C38181
:100330000C20704700487047B559000800487047C6
:100340009459000890F8E805704710B5044604F089
:10035000D7FA204610BD000070B50D4C236883B954
:100360000C4D4FF0FF31286801F0F4FE23682BB9E3
:10037000261D02D0304604F0CFFA2660286801F02E
:1003800011FF20684FF0FF31BDE8704004F0DCBA87
:10039000641B0020CC1F002070B50C4C236883B96F
:1003A0000B4D4FF0FF31286801F0D4FE23682BB9C4
:1003B000261D02D0304604F0AFFA2660286801F00E
:1003C000F1FE2068BDE8704004F0C1BA641B002053
:1003D000CC1F00202DE9FF41DFF8408007460425AF
:1003E000002401A8CDF80480FFF7B6FF394602A823
:1003F00002F0AEFD01A8FFF7CFFF01A8FFF7ACFFA9
:1004000002A802F005FE064601A8FFF7C5FF013D60
:100410003444E6D1A01004B0BDE8F081F4580008DF
:100420000138002321FA03F20833202B00F8012FB2
:10043000F8D1704743682DE9F0410B7043681B0AFF
:100440004B70C3888B70C379CB700D460A1D044670
:10045000002160688142A2EB050302F104020FD281
:10046000E36853F8213002F8043C180A02F8030C40
:10047000180C1B0E02F8020C02F8013C0131E8E7EF
:100480002269EA542169EA18090A5170618A917057
:10049000E17CD17004332B44002122699142A3EB0B
:1004A000050603F104030FD2A26952F8212003F8D4
:1004B000042C100A03F8030C100C120E03F8020CA3
:1004C00003F8012C0131E8E7E369AB55E269AB19A8
:1004D000120A5A70E28B9A70E27FDA7004360027B3
:1004E000E3699F4214D2636A53F8270005F029F8A4
:1004F00080460146A819FFF793FF636A043653F854
:100500002710A819424604F02BFD46440137E7E7BF
:100510003046BDE8F081F8B50E46037906F8013B98
:10052000054680680F4605F00CF804460146304643
:10053000FFF776FF2246A968781D04F011FD601DC3
:10054000F8BD83882DE9F0410B7083881B0A4B703E
:10055000054680680C4604F0F4FF07460146A01CDF
:10056000FFF75EFF3A46A968A01D04F0F9FCE868B1
:1005700004F0E7FF07F10608064601460A3704EBD8
:100580000800FFF74DFF3246E968E01904F0E8FC87
:10059000286904F0D6FF3E4401460746A0190436F8
:1005A000FFF73EFF3A46A01929693E4404F0D8FC03
:1005B0006B69A35534441A0A62701A0C1B0EA270A0
:1005C000E370301DBDE8F08110B5002303600139F0
:1005D00011F8012F02FA03F4026808332243202B9A
:1005E0000260F5D110BD37B50C4611F8013B03711F
:1005F000054601A8FFF7E8FF019B621D581D111B6E
:10060000884204D912F8011B02F8021CF7E72344C0
:10061000002204341A71AC6003B030BDF0B50B7821
:1006200083804A7885B043EA022383800C460646DD
:10063000023101A8FFF7C8FF019FA31DBD1D1A1BB2
:10064000954204D913F8012B03F8022CF7E7E319BC
:1006500000225A71631DB360611902A8FFF7B4FF4D
:100660002B1D029D07F10A021D442244111B8D42DD
:1006700004D912F8011B02F8021CF7E76119013BCB
:100680002344002201F8012C03A8F360FFF79CFF2C
:1006900003980435284463191A1B904204D913F8AF
:1006A000012B03F8022CF7E72218013D0023254413
:1006B00002F8013C356193785178D2781B0443EA03
:1006C0000123215C0B4343EA02630430736105B0EC
:1006D000F0BD2DE9F34143680D689D4204460E4686
:1006E00004D9A900C06804F0D1FEE0606560321D45
:1006F000002160688142A2EB060302F1040213D2DA
:1007000012F8023C12F8030C1B0443EA002312F80F
:10071000040C034312F8010C43EA0063E068A36091
:1007200040F821300131E4E7F218F15C9578507817
:10073000D2782D0445EA00250D431F1D236945EAA3
:1007400002659D4204D9A900A06904F09FFEA06142
:100750002561F319002122699142A3EB060503F1FB
:10076000040313D213F8022C13F8030C120442EA08
:10077000002213F8040C024313F8010C42EA006251
:10078000A069626140F821200131E4E77319725DCC
:100790009F785978DB783F0447EA0127174347EAF7
:1007A0000367E3699F4205F1040504D9B900606A53
:1007B00004F06CFE6062E7610027B846E3699F427F
:1007C0001AD2711901A8FFF7FFFE2B1D019DF21827
:1007D0001D44911BA94204D212F8011B02F8021C0D
:1007E000F7E77219013B02F8018C626A3344236215
:1007F00042F827300137E1E7284602B0BDE8F08132
:1008000030B585B00446094B01930023029303934E
:1008100054F8EC3B01AA1B680A210546984720467C
:1008200003F0CEFDC5F8FC0005B030BD0C59000842
:100830002DE9F04186B02B4B009300222A4BADF8F6
:1008400004200546029303930493059200F20C548E
:1008500000F5AE664FF400772368BBB158689A681C
:10086000ADF804201A68036802929B6898472368D1
:10087000039058680368DB68984721682B680490E8
:1008800005971B6809696A46284698470434B442AC
:10089000E2D105F2D4564FF400772068C8B143681E
:1008A000ADF804308368029303689B68984703900F
:1008B00020680368DB6898472B6804902068D3F8A9
:1008C0000080036805975B6898476A46014628469A
:1008D000C0470434A642E0D1012385F8E83506B0CC
:1008E000BDE8F08124590008615B0008F0B585B0CF
:1008F00000F1EC051F4B01930446002328460293A8
:1009000003930E4603F05CFDD4F8FC203146871AB1
:1009100001A8FFF78AFC029B4FF47A76B7FBF6F248
:100920001344029306FB1272039B134F284607FBE6
:100930000232039203F044FD029AB0FBF6F3013A4F
:10094000D21A0399C4F800210C4A06FB13030A4487
:1009500007FB1323C4F8043104F5827104F5807099
:1009600000F07AFA284603F02BFDC4F8F00505B034
:10097000F0BD00BF0C59000840420F0000CA9A3B6E
:1009800037B5324C324B2046002540F8043B042357
:10099000032202218DE828004FF4807300F052FBFF
:1009A00004F1EC0003F022FD4FF4614304F1EC008C
:1009B000C4F8E83003F0D8FC264B84F8E855C4F8B6
:1009C000FC35C4F80056C4F80856C4F80C56C4F8F0
:1009D0001456C4F81856C4F820562A46631904352C
:1009E000642DC3F80C25F9D100231946E21804330D
:1009F000642BC2F87015F9D100231946E2180133AF
:100A0000B3F5007F82F80C11F8D100231D46E218DF
:100A10000133B3F5007F82F80C53F8D10E4A0F4929
:100A20000A48C4F8085103F04DFF0D4B0D4A1A60F7
:100A30000D490E4A9D80DD801D815D819D81DD8196
:100A400082E80A00156103B030BD00BF70020020CB
:100A5000845900085459000894010020190E000818
:100A6000600200206C59000890590008940800208A
:100A7000F0B5632985B004460E4603DD90F8E855CD
:100A8000002D4DD0136804F213311B6810469847AF
:100A9000FF2384F80C33FE23C0F3072284F80D33C0
:100AA000C3B284F80E331344DB4384F8116346F376
:100AB000072684F80F2384F8103384F8126304F2B5
:100AC000113105220023861DB24204DC11F8015BBE
:100AD00001322B44F8E700F108052044DB43B5F56B
:100AE000007F80F813330CDC04F543773E46043472
:100AF000F31B9D4214DD16F8011B204600F012FB8B
:100B0000F6E7094B019303238DF80830074B039355
:100B1000236801AA1B680721204698474FF0FF353C
:100B2000284605B0F0BD00BF3C590008735A0008C4
:100B30002DE9F04700F1EC080446404603F040FC84
:100B4000D4F8F03542F6F822C31A934284BF00234A
:100B500084F8E835D4F8D435054633B1D4F8F43503
:100B600083423CBF0023C4F8D43504F104090026B5
:100B700004F58677D4F80831ABB9484600F07AF925
:100B8000E8B994F8E80560B1D4F8EC3540F6C41241
:100B9000EB1A934204D92046FFF732FEC4F8EC5515
:100BA0000020BDE8F087404603F00AFCD4F8083185
:100BB000401B9842E1D96FF00100BDE8F08748463C
:100BC00000F062F90028DCDBD4F8E435D4F8D4A5D1
:100BD0000344BAF1070FC4F8E43512D1D4F8E03574
:100BE0005A1C2344C4F8E02583F80C01D4F8D83506
:100BF000013BC4F8D835002BBCD10823C4F8D43548
:100C0000B8E7BAF1000F14D1FF2807D10123C4F8C7
:100C1000D43505F11403C4F8F435ABE7404603F0CE
:100C2000CFFB41F28833401B9842A3D984F8E8A552
:100C3000C1E7BAF1010F0DD1FE2801D10223DDE792
:100C400094F8E835C4F8D465002B93D12046FFF71B
:100C5000D7FD8FE7BAF1020F09D1C4F8D805C4F85F
:100C6000E0650323C4F8D435C4F8E40582E7BAF19B
:100C7000030F07D1D4F8D83503EB0020C4F8D8050A
:100C80000423BBE7BAF1040F0BD15A42D2B2DBB254
:100C900058BF5342FF2B01D10523AFE7C4F8D465F9
:100CA00068E7BAF1050F03D1C4F8DC050623D9E7DC
:100CB000BAF1060F0BD1D4F8DC3503EB0020072383
:100CC000C4F8D435C4F8DC05D4F8D83593E7BAF1C4
:100CD000080F7FF44FAF5A42D2B2DBB258BF534233
:100CE000FF2BC4F8D4657FF445AFD4F8DC356BB97D
:100CF0002046FFF785FD2046FFF79AFDC4F8EC5526
:100D0000C4F8F0554FF0FF30BDE8F0870A2B04D14E
:100D100039462046FFF7EAFD2CE7062B08D1394675
:100D200004F2FC50FFF7D5FC012384F8F83521E7E5
:100D30000B2B02D184F8E8651CE7F83354F8230044
:100D400000283FF417AF036839461B68984711E73E
:100D5000284C80B5D4F8E810201D03F0ADFB00232B
:100D6000C4F8D435C4F8D835C4F8E035C4F8DC3557
:100D700004F5A16252F8041F002937D11E4A04EB82
:100D800083017D33C1F80C259360D4601B4F1C4C4C
:100D90001C4EB7F90000FFF71DFBA080B6F900005C
:100DA000FFF718FB184BE080B3F90000FFF712FBC8
:100DB000164B2081B3F90000FFF70CFB144B608148
:100DC000B3F90000FFF706FB124BA081B3F9000056
:100DD000FFF700FB084BE081D86899680268156846
:100DE000074AA8470348FFF7A3FED2E70133192BB0
:100DF000C0D1CBE770020020940800205C020020E4
:100E000060020020980100209A0100209C0100202F
:100E10009E010020A001002010B5044B044640F8BC
:100E2000043B00F0C3F8204610BD00BF8459000801
:100E30000748084A08B5121A002104F0B6F803F072
:100E4000FFFC04F003F803F002FD03F03DFD00BFDA
:100E5000400200203028002030B502680D68044CA4
:100E6000B5FBF4F31A4404FB135302600B6030BD6E
:100E700000CA9A3BD0F8C020D0F8C400101A18BF9E
:100E8000012070470120704710B5D0F8C420D0F879
:100E9000BC100346501CC3F8C400885CD3F8C820BB
:100EA000D3F8C440013AB4FBF2F102FB1142C3F89B
:100EB000C42010BD034610B107C983E8070070477E
:100EC000704742688168036812F0010F4FEA6202BE
:100ED0001CBF8858C35888181847C36810B5044603
:100EE0000BB19B689847204610BD30B5044685B0CD
:100EF00000F14C05284602F033FA30B3D4F8D02084
:100F0000D4F8D4309A4216D0D4F8D430D4F8CC20C7
:100F1000591CC4F8D410D15CD4F8D830D4F8D4001B
:100F2000013BB0FBF3F203FB1203C4F8D4302846B4
:100F300002F020FADEE700232046012269460393EF
:100F400003F036FB6846FFF7C8FF05B030BDC36845
:100F500010B504460BB19B689847204610BD0000B1
:100F600070B506460B4B46F8983B044646B100F177
:100F7000B805B54204D0103D2846FFF7AEFFF8E7AC
:100F800004F13800FFF7E3FF04F12800FFF7DFFF6B
:100F9000204670BDDC5E000810B50446FFF7E0FF98
:100FA000204603F0ADFC204610BD000030B5134BC9
:100FB000036085B000252A4669460446039503F080
:100FC000F7FA6846FFF789FF012269462046039534
:100FD00003F0EEFA6846FFF780FF04F1CC0000F062
:100FE00023F904F1BC0000F01FF9054B23602046F3
:100FF000FFF7B6FF204605B030BD00BF6C5B0008B0
:10100000C45E000810B50446FFF7D0FF204603F089
:1010100077FC204610BD000010B586B08DE80C00AE
:10102000019B029203930491054B9DF820200593A8
:1010300002A903F0BDFA02A8FFF74FFF06B010BDEA
:10104000DC5A00087FB504461D464FF41653089E2F
:1010500003F0F4F920460F4B40F8BC3B294600F062
:10106000F2F806FB05F104F1CC0000F0ECF80A4BB5
:10107000029300230393009304AB204613E90C0072
:101080002146FFF7C9FF2046C4F8DC50C4F8E060F1
:1010900004B070BD6C5B00080311000870B5044615
:1010A00086B04C3002F05CF9C0B102AD0122294695
:1010B00000262046059603F07BFA2846FFF70DFF31
:1010C0002046FFF712FF064B02930123039600937D
:1010D00095E80C0021462046FFF79EFF06B070BD44
:1010E000EB0E00084368026810B55C1C4460D154E4
:1010F000C3684168013BB1FBF3F203FB1213436089
:1011000010BD38B500F14C050446284602F00CF934
:1011100038B1284602F012F9C1B204F1BC00FFF761
:10112000E1FF38BD38B505460C46CC30C9B2FFF7F3
:10113000D9FF2846FFF7B2FF204638BD2DE9F04120
:1011400007460C46B1B10D4600F1CC082E4616F804
:10115000011B21B14046FFF7C5FF3546F6E70A21DE
:101160004046FFF7BFFF2C1B3846FFF797FF601C78
:10117000BDE8F0810846BDE8F0812DE9F041074661
:101180000D4691B1A2B18C180E4600F1CC08B442C4
:1011900005D016F8011B4046FFF7A4FFF7E73846D5
:1011A000FFF77CFF601BBDE8F0810846BDE8F081D9
:1011B0001046BDE8F08100000EB42DE9F04185B085
:1011C000D0F8DC2002AFD31D23F0070307F124047D
:1011D000ADEB030D54F8048B02AE054600213046FA
:1011E00003F0E3FE2246414630467C6004F0CAF933
:1011F000D5F8DC30834202460CD200905D220848CC
:10120000084900F01DF900200C37BD46BDE8F0414B
:1012100003B0704731462846FFF7AFFFF4E700BF41
:10122000285B0008E85A000810B50446006808B1B9
:1012300003F062FB204610BD00214160C26881605E
:10124000006803F0B2BE38B5044608460D4603F008
:1012500047FBE56020602046FFF7EEFF204638BDE3
:1012600038B504460D4603685AB1826813602046BB
:10127000012101F0BDFC29462046BDE8384001F0BF
:10128000B3BCC2681B04F1E770B50E4604461546B0
:1012900001F08AFC013606D02A4620460021BDE82E
:1012A0007040FFF7DDBF70BD0022FFF7EDBF00000B
:1012B00000487047985B0008014800F003B800BF81
:1012C000985B0008036870B5DB680446984763685C
:1012D0005A6823681AB99B68BDE8704018475B6874
:1012E000156898476368281A00285A6807DC9168CF
:1012F00059601B68002BEAD050689847E7E72368DD
:1013000010681B69BDE87040184703685B681847A0
:1013100010B5044601300DD110BD9C4209D12046C4
:10132000896801F0FDFC20460021BDE8104001F075
:101330007BBD0C31B1F900305A1CEED10248BDE83A
:10134000104000F07DB800BF035C0008884208B57B
:1013500008D0431C06D0013106D0044800F070F8D4
:101360004FF0FF31084608BD0146FBE7D25B00089D
:10137000B1F900305A1C01D118467047834201D19F
:10138000486870470C31F3E7421C10B5044607D09B
:10139000FFF7EEFF431C044602D1024800F050F86C
:1013A000204610BDE35B0008B1F900305A1C01D1A2
:1013B00018467047834201D1886870470C31F3E7C3
:1013C000421C10B5044607D0FFF7EEFF431C04464D
:1013D00002D1024800F034F8204610BDB45B00088A
:1013E000EFF31080C04300F00100704708B5FFF72D
:1013F000F7FF72B6064B1A6822B980F00100054A61
:10140000C0B210701A681A6801321A6008BD00BFB5
:10141000B4080020B008002008B5074B1A6852B184
:10142000FFF7DEFF1A68013A1A601B681BB9034B0D
:101430001B7803B962B608BDB4080020B0080020CC
:101440000FB4012008B503F03FFA00B589B0FFF7EB
:10145000CDFF052101A8FFF727FF039B019A1A6022
:10146000962003F02DF9019B049A1B04136096202B
:1014700003F026F9F1E701F0E4BB000008B5024CE7
:1014800023689847FCE700BFA401002008B50B487B
:1014900000F042FE0A4B18600A4800F03DFE0A4B7D
:1014A00018600A4800F038FE094B186003F0CEFCC3
:1014B00000210846BDE8084003F0C9B9605C000897
:1014C000CC1F00205C5C0008C0080020585C0008AD
:1014D000B8080020FFF7D2BF10B5044600F08AFD1F
:1014E00021460246BDE810400148FFF7A9BF00BFF2
:1014F000205C000803F006BA0B4A0C4B0C4830B4D1
:101500001A60C2F1005303F5C033B3F5806F19467A
:1015100028BF4FF48061074D074C01605B1A1A44E5
:101520002A60236030BC704730280020E81C00206F
:10153000C4080020C8080020E41C002000F0C0FE01
:10154000FFF7DAFF0348002100F06EFE00F0D4FC44
:10155000FEE70000A8010020024B4FF0FF311868A1
:1015600000F0F8BDC0080020014B186800F01ABE5A
:10157000C008002030B502788C784368013AD2B2B6
:1015800013B19D78A54207D2022A4B60416006D86C
:1015900003B19960886030BD18465B68F0E70023AE
:1015A0008B6030BD02784368013A59684160022A75
:1015B0004FF0000205D809B188605A609A60184659
:1015C00070475A60FBE70000034B5A6842600022F4
:1015D00082605860704700BFC0260020104BDA6858
:1015E00010B58AB19A8ADC688A420CD3C460D8608C
:1015F000C468036104B12061521A92B28282998A4E
:101600008A1A9A8210BD3CB900248A1AC460D86034
:1016100003619A82848210BDA38A1A442346E2E7BA
:10162000D82600202DE9F041174DEB6853B1AB8A65
:10163000164FDFF85C80013BAB820026AA8A0AB90C
:10164000EC680CB9BDE8F081A36833B161685960FA
:10165000616809B18B606260A66021463846FFF779
:1016600089FFA38AAB826378042B01BFD8F80030CE
:10167000E28A9B18A38201236370E368EB600BB1DD
:101680001D61E6602661D9E7D8260020C02600202B
:101690005427002083682BB142685A6042685AB1CF
:1016A00093607047054B5A68904202D142685A6075
:1016B00070471346002AF6D1704700BFC0260020AD
:1016C00010B5846801462CB94378012B0DD1074C25
:1016D00003E0A4682378002BFBD00846FFF7DAFF6D
:1016E0002046BDE81040FFF745BF10BDC0260020D2
:1016F000036910B563B1C268DA60C2684AB1998AF9
:10170000848A2144998213610023C360002303610A
:1017100010BD9A82FAE7000070B4114BDD78EFF348
:101720001086EFF3108272B69A78954211D9013281
:101730009A701A78541CA54208BF00241C7006B980
:1017400062B6954207D903EBC20370BC586099603A
:101750007047002EF4D0022070BCFFF7BDBE00BF62
:10176000441F0020032303700023438043608360F1
:10177000C36070472DE9F84343880546002B63D0CA
:10178000324F81683A6891425ED1013B9BB24380FF
:101790001BB100242046BDE8F8830B6A984229D18A
:1017A000C3680B6291F824300C6A5CBB8B706A686A
:1017B000DFF89C80002A3BD02846FFF7F3FE214645
:1017C000064600F0C1F83046FFF792FF336AEB603F
:1017D0004FF001093968D8F80430A5F80290AE60DE
:1017E00035628A789B789A4214D3304600F05CFECA
:1017F000D0E71346002BD5D0DA689542F9D1EA68D4
:10180000DA60CFE762681AB19278934238BF134624
:10181000E468CAE74046FFF7ADFE31464046FFF7B1
:10182000A9FE3B6883F8019086F801902046DDE729
:10183000D8F8042092789A42ABD94046FFF79AFE36
:101840003B6801225A70F1E7FF24A3E70C27002030
:10185000C0260020438870B504460E46134D43B998
:101860002A688260116AC1601062013363800020BF
:1018700070BD80682A689042F7D081B193788278F1
:101880009A4202D28370FFF71BFF62684AB129684F
:101890002046FFF76FFE0921304600F029FE0120A7
:1018A00070BD2B6863605A609C60F4E70C270020D1
:1018B000836A9B0804BF224B1B88F0B5056B08BFE9
:1018C0009B0805EB8302540748BF043A4FF080762B
:1018D00002E94200A2F14004A2F14406A2F10C0781
:1018E0004FF0000E46F804EFBE42FBD1C66942F845
:1018F000206C41631249C4620968C90017D5112BD5
:1019000015D9103B6FF007015B084B43A3F1380179
:101910000A444FF0CC30214691420BD108331C448D
:10192000231F9D423CBF4FF0CC3344F8043C054B91
:101930002B60F0BD41F8040C41F8080DECE700BF46
:10194000685C0008A52E5AE290F82520C36A12B1FF
:101950006033196070472033FBE710B590F82540DD
:10196000C36A1CB1603383E8060010BD2033FAE778
:10197000054B1B7823B9054B4FF080521A60704716
:10198000034B01221A7070471C19002004ED00E07F
:101990001D19002038B51A4B1A4C186801234370E2
:1019A000FFF712FE6578A3783BB917486570FFF71B
:1019B000F9FDBDE8384000F05DBD04EBC503586893
:1019C00002789AB9198900F0BBF9E37801359D4294
:1019D00008BF0025EFF31083EFF3108272B6A278F0
:1019E000013AA270002BDED162B6DCE7012A03D1F6
:1019F000996800F033F9E8E700F09EFFE5E700BFE3
:101A00000C270020441F0020C0260020084B1A6825
:101A1000084B1A6000225A60072243F8042C064A39
:101A2000136843F07F4313604FF0FF30704700BFEF
:101A3000805C000814E000E020ED00E0704700004A
:101A400008B50B4B186801234370FFF7BDFD00F08C
:101A5000ADF9084A136801331360FFF7E3FD00F0A6
:101A600091FC0548FFF79EFDBDE8084000F002BD6F
:101A70000C27002054270020C0260020064B1A689F
:101A8000136BD26A934203D81A68044B9A4202D06D
:101A90000120FFF721BD70470C270020A52E5AE238
:101AA000002ABBBF22F000420732033222F00702B5
:101AB000A8BF22F0030210B5B4BF10230C2392B1CB
:101AC000D4188C420FD8014403445442416003604F
:101AD000826021449818814202D300510346F9E7FD
:101AE0000020186010BD012010BDEFF3108372B606
:101AF000026803F001030AB11168016003B962B61C
:101B00001046704781420DD3436899420AD2EFF3E1
:101B1000108372B602680A60016013F0010003D1FD
:101B200062B67047012070470020704701231039CA
:101B300003708908002343708370436003814381ED
:101B40008381C1817047000070B5858904461646BF
:101B5000002D38D043891A1D013350F822200A6025
:101B6000C2899BB29A42438104BF002343814368E8
:101B7000F3B14378022B1BD1FFF714FD002105467A
:101B8000FFF7E2FE2389E9691A1D013344F82210A8
:101B9000E2899BB29A42238108BF0023284608BFEE
:101BA0002381FFF7A5FD284600F07EFC002070BDD4
:101BB000EFF31080EFF3108372B6013DA58100288A
:101BC000F4D162B670BD4AB14268094B42B119689E
:101BD000FFF7D0FC0821304600F08AFC012070BDE0
:101BE0001B6843605A60986001234370F2E700BFAE
:101BF0000C270020C2898089101A704708B5FFF7AA
:101C00008BFDBDE80840FFF7B3BE838910B50446DD
:101C10000BB34389043350F823300B604378022B15
:101C200004D10021FFF778FDFFF7A2FEEFF3108348
:101C3000EFF3108272B6A289013AA28103B962B6AB
:101C40006389E28901339BB29A42638101D1002307
:101C50006381042010BD184610BD0000436870B5B4
:101C600004460E46002B4BD04578022D20D0032D84
:101C70000AD0012D61D1FFF795FC044632461021B0
:101C8000FFF76BFE65700EE00846FFF72EFF054676
:101C9000002852D02046FFF785FC29460446FFF76E
:101CA00053FE012363702046FFF722FD214622E008
:101CB000FFF778FC00210546FFF746FE2389E96916
:101CC0001A1D44F82210EFF31082EFF3108172B660
:101CD000A1890131A18102B962B6E28901339BB2C7
:101CE0009A42238104BF0023238101236B7028467D
:101CF000FFF7FEFC29461148BDE87040FFF73ABCEB
:101D00008089E189884213D223891A1D44F8226010
:101D1000EFF31082EFF3108572B60130A08102B9A3
:101D200062B601339BB2994208BF0023238170BD84
:101D30000320BDE87040FFF7CFBB70BDC026002078
:101D400010B5038B42781943062A04460183438B5E
:101D500015D133EA010219D121EA0301218320467A
:101D6000FFF7C6FC012320466370628B0821FFF752
:101D7000F4FD21460648BDE81040FFF7FBBB052AED
:101D800004D111EA030201D04283E5E710BD00BF90
:101D9000C0260020034B00221A60034A1268DA8032
:101DA000704700BFF8260020645C000808B50E4BA1
:101DB0005A680E4B196891420D4905D01A60DA88AD
:101DC0000868013A02449A8098880A8890420AD1A9
:101DD000002205481A60FFF7E5FBBDE80840014610
:101DE0000148FFF7C7BB08BDC0260020F826002029
:101DF000542700200B4A136830B5002443B9036010
:101E0000816013B19D68691A996044B1206030BD4A
:101E10009D68A942F3D31C46491B1B68EEE710607E
:101E200030BD00BF08270020C0B1431C11D00C4BAF
:101E3000984211D80B4B1B684FF47A715A1E01FB64
:101E40000020B0FBF3F34FF6FE70834206D898B241
:101E500070474FF6FF7070474FF6FE70704700BF37
:101E600000093D001C5C000838B1830704D10378E9
:101E7000002B18BF0020704700207047B0B50E4DF2
:101E8000287800AFA8B90D4C236893F8241000F00F
:101E900051FB2368DA78FF2A03D1DA6A203282F311
:101EA000098862680AB984E80C0000F0FBFC012391
:101EB0002B700020B0BD00BF052700200C2700209C
:101EC000014B1878704700BF0527002010B5EFF3CD
:101ED000108434B9EFF305841CB9EFF31484E407DC
:101EE00002D4034B187810BDDFF808C000DF10BD26
:101EF00005270020C11E000890B589B000AFEFF3A0
:101F00001083002B37D1EFF30583002B33D1FFF77C
:101F1000DDFF28B9194C246814B1646804B1A047E6
:101F2000EFF3148404F00304022C18D0032C1CD00B
:101F3000012C1ED007F1200484F30988104C24786A
:101F4000E40710D5022484F31488BFF34F8FBFF346
:101F50006F8FDFF830C000DF2437BD4690BD084CDE
:101F60002478E407F5D40324EDE7054C2478E4074E
:101F7000EFD5FF20F0E78220EEE700BFF426002037
:101F80004A5C00087D1E000870B50B4616460246E6
:101F900010B90024204670BD00680028F9D0B2F9BD
:101FA0000440E51CADB2062DF3D8D168C1B1126969
:101FB000043444EA012100F0FBFA0028E9D00A4B7E
:101FC0000A4A013853F82040E36A5A63084B1B68F9
:101FD00043B19B6833B13146E0789847E063D9E775
:101FE0000A46E5E7E663D5E7081F002075210008EB
:101FF000F426002008B500F095FA18B10138024B1C
:1020000053F8200008BD00BF081F002010B5FFF7DF
:102010002BFF044670B1084B1B681BB1DB680BB18A
:10202000C06B9847E07800F019FBFF280CBF8120B7
:10203000002010BD802010BDF426002008B528B176
:10204000FFF7F2FE00F074FC402008BD08BD000060
:1020500010B5EFF3108434B9EFF305841CB9DFF841
:102060000CC000DF10BD822010BD00003D20000824
:10207000830705D138B1436901691B681846704769
:1020800000231946FAE70346FBE7000010B50446B3
:102090000846DFF80CC000DF84E80300204610BDCE
:1020A0007120000810B548B1046824B1237823B921
:1020B0002046FFF757FB204610BD002010BD70B52D
:1020C00010F0030405460E4611D180B10378032BAE
:1020D0000DD10846FFF7A8FE01462846FFF7BAFBD8
:1020E000012806D1002E14BFC120812070BD8020A0
:1020F00070BD204670BD820708B50AD148B103788B
:10210000032B06D1FFF736FBFF280CBF81200020F0
:1021100008BD802008BD000070B50546EFF31084AF
:1021200094B9EFF305867EB9EFF31484E40706D47F
:10213000064C24781CB9BDE87040FFF7B3BF2846B1
:10214000DFF80CC000DF70BD002070BD0527002047
:10215000A520000810B5EFF3108434B9EFF305841F
:102160001CB9DFF80CC000DF10BD822010BD0000DC
:10217000BF200008084808B54FF0FF310068FFF79E
:10218000E9FFDFF818C000DF0446FFF7B3F9204687
:10219000DFF80CC000DFFEE700270020F51F000875
:1021A0000D20000810B5EFF3108434B9EFF3058467
:1021B0001CB9DFF80CC000DF10BD822010BD00008C
:1021C000F72000082DE9F04180460F461646EFF350
:1021D000108404BBEFF30583D3B9EFF31483DB075B
:1021E00006D40E4B1B781BB9BDE8F041FFF7CCBEFF
:1021F0000B4D4FF0FF312868FFF7ACFF40463946E2
:102200003246DFF820C000DF04462868FFF7CAFF27
:102210002046BDE8F0810024FAE700BF0527002032
:1022200000270020891F00080022FFF7CBBF10B550
:10223000044660B1016851B1406848B1037833B9D0
:102240000431890089B2FFF771FC606810BD00207D
:1022500010BD000038B5114C23780BB900F0A8FA76
:102260000F4B25781B68FF229A708DB929460D48BF
:10227000FFF7DDFF0C4B2A46186029460B48FFF795
:1022800083FE0B4B18600B48FFF746FF0A4B1860A4
:1022900001232370094B0020187038BD042700204B
:1022A0000C270020505C0008C81F00206C5C000850
:1022B000BC260020845C00080027002005270020A1
:1022C00010B5EFF3108474B9EFF305845CB9EFF344
:1022D0001484E40703D4BDE81040FFF7BBBFDFF868
:1022E0000CC000DF10BD822010BD00005522000888
:1022F0002DE9FF410C46804618B30378012B25D108
:102300000846FFF791FD02A902464046FFF71CFC74
:10231000012811D10020002C0246034618BF40209E
:10232000029904460D4616461F4620462946324667
:102330003B4604B0BDE8F081002002460346102071
:10234000EEE78024054606460746EEE70025802492
:102350002E462F46E9E770B50E461446054660B195
:102360005AB90378012B08D1FFF744FC38B128464D
:102370003146FFF743FC204670BD802070BD8120B0
:1023800070BD0000F8B5114E34682CB1A368104F31
:10239000013BA360A26802B1F8BD256838683560CA
:1023A0002146FFF7D8FF10B10420FFF795F86379B5
:1023B000012B07D1E1682046FFF71CFD002DEBD073
:1023C0002C46E7E701232371F8E700BF0827002028
:1023D000C81F00207FB504461646084601B122B149
:1023E00080232360204604B070BD0B78012BF7D109
:1023F00002A9FFF70AFC042808BF102301AD14BF8F
:102400000196019395E8070084E80700EAE70000D9
:1024100038B504461546EFF3108010B9EFF3058088
:1024200028B12A462046FFF7D5FF204638BD08468A
:102430001146DFF80CC000DF84E80700F5E7000074
:10244000F12200087FB50A4C21684FF0FF3203A843
:10245000FFF7DEFF039B102BF6D1049901A8FFF7CD
:1024600015FE019B002BEFD002989847ECE700BFC8
:10247000C81F0020054B586002234370044B1B68A3
:102480001BB11B690BB1C06B184770470C270020AC
:10249000F426002008B50348FFF784F8BDE808409B
:1024A000FFF7E8BFC026002070B5044618B9BDE8A4
:1024B0007040FFF7EFBF0C4EA278306883789A42E5
:1024C0004FF0010508D9FFF77FF833685D702046AB
:1024D000BDE87040FFF7CEBF657021460348BDE8F8
:1024E0007040FFF747B800BF0C270020C02600202F
:1024F00038B50D46014680B14FF6FF739842074C40
:1025000002D02068FFF76AF8236805485D70FFF77E
:1025100049F8BDE83840FFF7ADBF38BD0C270020B3
:10252000C0260020024B186800B1C078704700BF79
:102530000C27002010B5A8B9194B1B68997083F8B7
:102540002410184843689B788B4201D8002010BDA6
:10255000134C2168FFF70EF8236801225A70FFF729
:1025600099FFF3E7104B1B88984217D801380F4B9F
:1025700053F8204094B10A4BA1701B6884F82410D2
:102580009C42DED02046FFF79BF86378012BDDD11B
:102590000448FFF707F8FFF787FFD7E7FF2010BDD4
:1025A0000C270020C02600204C5C0008081F0020DB
:1025B0002DE9F04711F0FF0F0D46804623481646DF
:1025C0009A4608BF0135FFF790FA044620B94FF04C
:1025D00000094846BDE8F0871D4B06631B881D4E69
:1025E000280AA06200218B4201F10109EFD006EB1D
:1025F00089020F4652F8042C4946002AF3D1EDB265
:10260000012384F80390C4F81CA0C4F838A02270F9
:102610006370A57084F824506260A260E260226159
:102620002262A282E2822283628384F8252018B982
:102630000948FFF75AFA206320464146FFF738F968
:10264000204646F82740FFF72FFFC2E7F022002080
:102650004C5C0008081F0020F81C00202DE9F84FF2
:102660004D4D18B12B68DB78984241D12C68DFF8CA
:102670003C810023637002F070F9E062FFF7FEF91D
:102680002B681C6A0127A4B92A684449D3784448B6
:10269000013B41F82340116BFFF734FA29684148A8
:1026A0000C63FFF72FFA2C60FFF7F4FE2046BDE81D
:1026B000F88F6368B3B12046FEF774FF0021064629
:1026C000FFF742F93046FFF713F87770314640467E
:1026D000FEF750FFE368326A6780A660E26034620A
:1026E0001C46D0E7E2686380A360E3601446CAE753
:1026F0002D4B1B8898424DD8284B471E994653F8BE
:102700002760002E46D03046FEF7C4FF3046FEF765
:10271000EFFFDFF898B0346A4FF0010AB4B9316BBB
:102720001F4849F82740FFF7EDF9314634631D484B
:10273000FFF7E8F91D48296843689A788B789A4230
:10274000B4D901234B70FEF715FFADE76368DBB129
:102750002046FEF727FF00218046FFF7F5F84046A8
:10276000FEF7C6FF88F801A041465846FEF702FF73
:10277000E368D8F82020A4F802A0C4F80880E2603A
:10278000C8F820401C46C9E7E2686380A360E360A4
:102790001446C3E7FF2489E70C270020081F002008
:1027A000F81C0020F02200204C5C0008C02600200D
:1027B00038B52C4B2C491A880023184693424DD328
:1027C0002A4B2B4819882B4C4022FFF769F92A4BDA
:1027D0002A481A882A4B42F000421968FFF760F92C
:1027E000284B1988284B08221868FFF759F9FF234E
:1027F0000025E3702148A562012363702570A57050
:1028000084F824506560A560E56025612562A58295
:10281000E5822583658384F82550FFF766F91B4917
:1028200020632046FFF744F8194B04221A705D60BC
:10283000184B1A70DD601D619D82174B20461C608D
:1028400002236370FFF716FE144A154B12781D70B1
:102850005D70DA70BDE83840FFF79CBA41F823009C
:102860000133ABE74C5C0008081F0020185C00082F
:10287000F022002014270020685C0008F81C0020CB
:10288000145C00081A5C0008BC080020D51400087D
:10289000C0260020D82600200C270020495C000814
:1028A000441F002008B51E4B1A6842F47F021A60CC
:1028B0001B681B0203F07F43DB43B3FA83F3194A1F
:1028C000194812680168DBB2C3F10803C2F302229F
:1028D000934298BF531C6FF0807202FA03F303F027
:1028E0007F4321F07F4213430360FFF78FF80F4BC4
:1028F0000028186012DB00F1604000F56440FF2200
:1029000002701A6853099B0003F1604303F56143A9
:1029100002F01F02012101FA02F21A6008BD00BF95
:1029200020ED00E00CED00E01CED00E0F0260020C2
:102930000321FFF7DDBD0000426810B57AB1FEF754
:1029400031FE0446FEF7D4FE012161702046FEF7F9
:10295000FBFF21460448BDE81040FEF70BBE42884D
:102960000132428010BD00BFC026002070B5134C5C
:1029700023681A69950707D5DA68900704D56FF0C0
:1029800002021A61FEF798FC23681A69510713D5F1
:10299000DA68520710D56FF00402094E1A615D6AB9
:1029A0003368EB1AB3F57A7F06D301F0CFFC2368C6
:1029B00005F57A729A63356070BD00BF5827002014
:1029C0003019002030B589B001A903A801F088FCB6
:1029D00001F056FC00230293244B01901A6C244C06
:1029E00042F008021A641A6C02F008020292029A7B
:1029F0001A6A42F008021A621A6A22F008021A627F
:102A0000069AA3F50B3323604FF0FF33E360194BB5
:102A10004ABBB0FBF3F00138002560601448256123
:102A2000A560656101F07EF91349322000F0CCFD0C
:102A3000124B0F484FF480225A60294601F0AEF93C
:102A400004210B4801F0AAF923680D4A596A116064
:102A5000126802F57A729A63DA68284642F0040234
:102A6000DA6009B030BD4000D3E700BF0038024053
:102A70005827002040420F006D29000800E100E0C7
:102A800030190020034B044A1360DA6822F0040274
:102A9000DA607047000C004058270020034B044ABE
:102AA0001360DA6842F00402DA607047000C0040FC
:102AB000582700207FB50023072855D8DFE800F00D
:102AC0000413202D3A54544700932A4B2A481A6B7A
:102AD00042F001021A631B6B03F001030093009B99
:102AE00007B05DF804FB0193224B24481A6B42F0B7
:102AF00002021A631B6B03F002030193019BEFE7D1
:102B000002931C4B1E481A6B42F004021A631B6BA3
:102B100003F004030293029BE2E70393154B194869
:102B20001A6B42F008021A631B6B03F0080303934D
:102B3000039BD5E704930F4B13481A6B42F0100226
:102B40001A631B6B03F010030493049BC8E70593FF
:102B5000084B0E481A6B42F080021A631B6B03F09D
:102B600080030593059BBBE70948FEF769FC00203D
:102B7000B6E700BF003802400000024000040240F7
:102B800000080240000C024000100240001C0240FD
:102B9000885C000810B50021044604F00F0400F022
:102BA000BFF80120A04010BD70B504464B1C0E4676
:102BB000218216D0C1F30310FFF77CFF0546304693
:102BC000FFF7E8FF238A074A656103F00F032060DF
:102BD00052F82330A36105F1100318356360A56036
:102BE000E56070BDAC5C0008B0F9100000F01CB9E5
:102BF00010B58369446971B9216893FAA3F2B2FAF6
:102C000082F20320520000FA02F221EA020293FA51
:102C1000A3F3226010BD226893FAA3F1B1FA81F107
:102C200093FAA3F30320490000FA01F1B3FA83F306
:102C300022EA01025B00012101FA03F3134323603E
:102C400010BD08B5FFF71EFF0121002001F0A8F814
:102C5000BDE80840FFF722BF054B186830B90122D4
:102C60001A60044B044A1A60FFF7ACBE704700BFFD
:102C70003419002058270020000C004008B5044BF0
:102C80001B680BB9FFF7E8FF024B586A08BD00BF8D
:102C900034190020000C0040044B054A13605863AF
:102CA000DA6842F00202DA60704700BF000C0040B0
:102CB00058270020034B044A1360DA6822F002020E
:102CC000DA607047000C004058270020034A044B8C
:102CD00013606FF002021A61704700BF582700208E
:102CE000000C004030B5C36891FAA1F4B4FA84F442
:102CF00091FAA1F10325B1FA81F1640005FA04F417
:102D0000490023EA040302FA01F11943C16030BD0E
:102D1000012A02D0022A18BF0022FFF7E3BF0000F9
:102D20002DE9F0413F4B00F00F08C0F3031053F8BA
:102D300028400E4601F00705FFF7BCFE836894FAB1
:102D4000A4F1B1FA81F194FAA4F20327490007FA39
:102D500001F1B2FA82F223EA01035200022101FAE0
:102D600002F213438D42836028D0BD4241D0012D31
:102D70003FD00023026894FAA4F7B7FA87F794FAD1
:102D8000A4F14FF0030EB1FA81F17F000EFA07F7BC
:102D9000490022EA07028B40013D1343012D0360E5
:102DA00005D8436832074CBF2343A3434360C6F3AF
:102DB00001122146BDE8F041FFF7AABFB8F1070FA5
:102DC000C6F3032717D9426A230A93FAA3F1B1FA8B
:102DD00081F193FAA3F34FF00F0EB3FA83F3890056
:102DE0000EFA01F19B0022EA010207FA03F31343F2
:102DF00043622B46BEE7026A94FAA4F3B3FA83F364
:102E000094FAA4F14FF00F0EB1FA81F19B000EFA83
:102E100003F3890022EA030207FA01F31343036272
:102E2000E7E700BFAC5C000838B500F00F02194BB3
:102E3000C0F3031053F822400D46FFF73BFE04FB9E
:102E400004F2016802EB42030B40B3FBF2F3013BD7
:102E5000012B05D8EB1E022B436809D8234343609E
:102E6000032D08D101222146BDE83840FFF750BFAD
:102E700023EA04034360012DF4D0052D01D0022D77
:102E800001D10222EFE721460022BDE83840FFF7DA
:102E900029BF00BFAC5C00081FB50446102200210A
:102EA000684602F082F8284B22681A60A279012352
:102EB00001930293122A44D8DFE802F00C0B0A2394
:102EC0002527292B2D2F31333537393B3D3F410005
:102ED000022300931D4A1C48536823F440036946AB
:102EE000536000F0F1FC184800F03AFC0A21164843
:102EF00000F096FC28BB144800F0E2FC80B204B05D
:102F000010BD0323E5E70423E3E70523E1E70623F8
:102F1000DFE70723DDE70823DBE70923D9E70A23F7
:102F2000D7E70B23D5E70C23D3E70D23D1E70E23F7
:102F3000CFE70F23CDE71023CBE71123C9E71223F7
:102F4000C7E70020DBE700BF9427002000230140F3
:102F50004FF0FF33EF2973B505460C4603603DDCA7
:102F600024492046FEF710FA224928602046FEF741
:102F700027FA204906462046FEF7CAF929681E4B63
:102F8000AC80C6F304369942AE710FD11B4803687A
:102F900013BB01931A4B5A6C42F480725A645B6CF7
:102FA00003F480730193019B012303601548002300
:102FB00001220160436083600361836103624362B5
:102FC000C3628362C360C2610363436100F01EFB9E
:102FD00010B10D48FEF734FA02B070BD0B4920461F
:102FE000FEF7D2F9094928602046FEF7E9F90646BE
:102FF000C4E700BF1C5D0008002001403819002014
:103000000038024094270020EC5C0008D05D0008E6
:1030100008B5FFF741FFC0F3032343EA001080B275
:1030200008BD00004309012200F01F0002FA00F071
:103030002033044A42F82300BFF34F8FBFF36F8F52
:10304000704700BF00E100E042681649920110B5E8
:103050008B1804688C5082685A60C2689A60026952
:10306000DA6042691A61026A9A610022DA61DA84DE
:103070009A84DA859A85B0F91A2001320AD1082299
:103080005A61184600F0D3FD58B10748BDE810401A
:10309000FEF7D6B9B0F9182001320CBF04220C2279
:1030A000EEE710BD64190020035D0008F7B5194E66
:1030B000074656F8200000282AD0174CBD01635956
:1030C0001A6852060AD5DB68590607D5134B012149
:1030D0001B68984763596FF040021A6063591A6879
:1030E00092060CD5DB68980609D50C4B56F82700DC
:1030F0001B680021984763596FF020021A606359DA
:103100001A68110704D55A69D20744BF5B68019356
:1031100003B0F0BD40190020641900203C190020C4
:103120000020FFF7C3BF0120FFF7C0BF0520FFF756
:10313000BDBF0000F0B50E4685B004464549304697
:103140001546FEF721F9444907462846FEF71CF9C3
:1031500001463846FEF7FAF8404B206098421ED0F0
:1031600003F5806398425ED0A3F5504398422BD17B
:103170003B4B1A6A42F400321A621A6A22F4003295
:103180001A62002202921A6C42F400321A641B6C1A
:1031900003F400330293029B0123636014E0304B7D
:1031A0005A6A42F010025A625A6A002122F0100252
:1031B0005A6201915A6C42F010025A645B6C616071
:1031C00003F010030193019B22493046FEF7A0F85B
:1031D00021492846FEF79CF8721C03D00121304695
:1031E000FFF722FE6B1C03D001212846FFF71CFECF
:1031F0004FF41653A3600023E360236163612362ED
:10320000268365832046FFF71FFF2268154B9A42ED
:1032100007D1154B154801221A6021464C2201F0B6
:103220009FFE05B0F0BD0E4B5A6A42F020025A6272
:103230005A6A22F020025A62002203925A6C42F02B
:1032400020025A645B6C03F020030393039B052365
:10325000A3E700BF485E0008005E000800100140C0
:10326000003802400044004060190020DC270020A4
:103270008160FFF7E9BE0000034B19604168034B12
:1032800043F82120704700BF3C190020401900205E
:1032900038B54368012B0D461AD0052B1BD0EBB96E
:1032A0001C4925241C489B01F2B1C258D368C5B9FA
:1032B00043F02003D360204600F086F96209012321
:1032C00004F0070403FA04F4144B43F8224038BD19
:1032D00013492624E6E713494724E3E700210C4677
:1032E000E0E743F04003E5E7C358DA6835B922F078
:1032F0002002DA60DB681A0606D538BD22F04002EB
:10330000DA60DB689B0604D42046BDE83840FFF74E
:1033100089BE38BD213100086419002000E100E0B9
:10332000273100082D3100084368034A9B01D35818
:103330001868C0F34010704764190020416810B548
:1033400004462046FFF7F0FF0028FAD08901034B1E
:103350005B585868C0F3080010BD00BF6419002016
:103360004368034A9B01D3581868C0F3C0107047E4
:103370006419002038B5446805462846FFF7F0FF79
:103380000028FAD0A401034B1B59C1F3080159606E
:1033900038BD00BF6419002008B500F019F8BDE879
:1033A000084000F0BBBF7FB50F230193022100232B
:1033B0004FF4805201A8029103930492059300F008
:1033C000A9FEB0FA80F0400907B05DF804FB0000E8
:1033D000174A1849936803F00C03042B10B50DD05D
:1033E000082B0DD0144B0B60114B144A9B68C3F390
:1033F0000313D25C0B68D3400B6010BD104BF2E797
:103400005468506852686302C2F3881200F03F00AB
:103410004CBF0B4B084BB3FBF0F35343044A5268C9
:10342000C2F3014201325200B3FBF2F3DBE700BF0B
:1034300000380240BC0100200024F400905E000827
:1034400000127A0000B58FB01B4B002100911A6C5E
:1034500042F080521A641B6C184A03F080530093A8
:10346000009B0191136823F4404343F4004313602D
:10347000136803F440430193019B01230293B8B9FD
:103480000393022308934FF48003099308230A93BC
:103490004FF4A8730B9304230C9302A807230D93F6
:1034A00000F08EFC30B9FFF77EFF0FB05DF804FB33
:1034B0000523E5E70020F8E70038024000700040EF
:1034C00010B58EB000241A4B00941A6C42F0805252
:1034D0001A641B6C174A03F080530093009B0194FD
:1034E000136823F4404343F40043136013680394C8
:1034F00003F440430193019B0994032302930123A6
:103500000593102306930A934FF4A8730B93042397
:1035100002220C9302A8072308920D9300F050FC9E
:1035200018B9FFF740FF0EB010BD2046FBE700BF03
:10353000003802400070004008B50120FFF782FF0C
:1035400030B9FFF77FFF18B9FFF7BAFF00B9FEE700
:1035500008BD0000174AD2F8883010B543F4700354
:10356000154CC2F888302368002143F00103236022
:10357000A160236823F0847323F4803323600F4B0E
:103580006360236823F4802323604FF00063E160CD
:1035900093600B4B0B4A1A6000F0C0FEFFF7CCFFA4
:1035A000236A43F008032362236A23F0080323629B
:1035B00010BD00BF00ED00E00038024010300024D4
:1035C000BC0100200024F40030B50C4CA268A468B3
:1035D000B4F1006F13460CD1131F094C094A53F87C
:1035E000045F42F8045FA242F9D1044A4FF000534D
:1035F0009360103043F8201030BD00BF00ED00E0B4
:1036000090010020FCFFFF1F7047000010B504462A
:10361000002800F09F80036C23B9436480F83C309D
:10362000FFF7F2FF236CDB0600F19280236C23F49A
:10363000885323F0020343F002032364464B5A6885
:1036400022F440325A605A6861680A435A6023681B
:1036500021695A6822F480725A605A6842EA01224B
:103660005A605A68A16822F040725A605A680A4348
:103670005A609A68E16822F400629A609A680A4384
:103680009A603649A26A8A4256D0996821F07061E0
:10369000996099680A439A609A68E16A22F04052F8
:1036A0009A609A680A439A609A68A16922F00202B5
:1036B0009A609A6842EA41029A60226A002A43D0DC
:1036C0005A6842F400625A605A6822F460425A60B2
:1036D0004FF4604292FAA2F2B2FA82F1626A58683A
:1036E000013A8A4002435A60DA6AE16922F47002C0
:1036F000DA62DA6A013942EA0152DA629A68216BC7
:1037000022F400729A609A6842EA41229A609A68AA
:10371000616922F480629A609A68002042EA8122FC
:103720009A606064236C23F0030343F00103236475
:10373000002384F83C3010BD9A6822F070629A60D1
:103740009A6822F04052AEE75A6822F40062CAE753
:103750000120EDE7012010BD002301400100000F12
:1037600082B00023019390F83C30012B4ED001230E
:1037700080F83C3003689A68D10705D59A68D2076B
:1037800014D4002002B070479A68214942F0010227
:103790009A60204A1268B2FBF1F202EB42020192F7
:1037A000019A002AEAD0019A013AF8E7026C22F461
:1037B000E06222F0010242F4807202645A6851050C
:1037C00041BF026C22F4405242F480520264026C07
:1037D00012F480521CBF426C22F0060242640022A6
:1037E00080F83C206FF022021A600B4A5268D20621
:1037F00008D1986810F04050C3D19A6842F08042D6
:103800009A60BFE7054A9342BBD1F2E70220B9E7CD
:1038100040420F00BC010020002301400020014075
:1038200003689A6870B5560504460D460BD59B682B
:10383000D80508D5236C43F020032364002384F8C3
:103840003C30012070BD00F089FD064623681A68EF
:1038500092070CD56FF012021A60226C42F40072CB
:1038600022649A6812F0405F13D0002070BD691C7A
:10387000EDD045B9236C43F004032364002384F89E
:103880003C30032070BD00F069FD801B8542DDD215
:10389000F0E7A269002AE8D1DA6A12F4700F02D0C8
:1038A0009B685B05E1D4236C23F480732364206C54
:1038B00010F48050D9D1236C43F00103236470BD10
:1038C0000368D86C70470000F7B50023019390F8A7
:1038D0003C30012B00F083800D6804688A68012366
:1038E000092D80F83C30AEB22AD906EB4603E768D2
:1038F0001E3B4FF0070E0EFA03FE27EA0E07E760A5
:10390000E76802FA03F33B43E3604A68062A4FEA9A
:10391000820325D81344676B591F1F238B4027EA66
:1039200003036363626B06FA01F1114361632D4B7C
:103930009C4234D0002380F83C30184603B0F0BDE0
:10394000276905EB45034FF0070E0EFA03FE27EA41
:103950000E072761276902FA03F33B432361D4E78B
:103960000C2A0ED81344216BA3F123021F2393408A
:1039700021EA03032363236B06FA02F21A4322634C
:10398000D5E71344E16A413B1F229A4021EA020233
:10399000E262E26A06FA03F11143E162C7E7122D1F
:1039A00004D1114A536843F480035360A5F1100316
:1039B000012BBFD80C4A5368102D43F40003536009
:1039C000B8D10A4B0A4A1B68B3FBF2F20A235343ED
:1039D0000193019B002BADD0019B013BF8E7022036
:1039E000ACE700BF0020014000230140BC010020E3
:1039F00040420F00704700002DE9F0470668C2689A
:103A00003369C16923F44053134333610446836827
:103A10000069F2680343606922F41642034322F00E
:103A20000C020B431343F3607369A26923F44073E0
:103A30001343B1F5004F73617A4B7CD19E4203D0A2
:103A400003F580639E4244D100F032FC192505FB4A
:103A500000F360684FF064094000B3FBF0F3B3FB80
:103A6000F9F34FEA031800F023FC636868435B0036
:103A7000B0FBF3F700F01CFC636868435B00B0FB2D
:103A8000F3F3B3FBF9F309FB1373DB003233B3FB3E
:103A9000F9F35B0003F4F87700F00AFC626868430E
:103AA0005200B0FBF2FA00F003FC636868435B006D
:103AB000B0FBF3F3B3FBF9F309FB13A3DB003233E1
:103AC000B3FBF9F303F0070343443B44B360BDE8A1
:103AD000F08700F0D5FB192505FB00F360684FF077
:103AE00064094000B3FBF0F3B3FBF9F34FEA0318AA
:103AF00000F0C6FB636868435B00B0FBF3F700F0BF
:103B0000BFFB636868435B00B0FBF3F3B3FBF9F3FF
:103B100009FB1373DB003233B3FBF9F35B0003F4EF
:103B2000F87700F0ADFB626868435200B0FBF2FA30
:103B300000F0A6FBB9E79E4202D03B4B9E4240D12B
:103B400000F0B6FB676819254FF0640905FB00F328
:103B5000BF00B3FBF7F3B3FBF9F31F0100F0A8FBC1
:103B6000636868439B00B0FBF3F800F0A1FB636857
:103B700068439B00B0FBF3F3B3FBF9F309FB13833A
:103B80001B013233B3FBF9F303F0F00800F090FBB4
:103B9000626868439200B0FBF2FA00F089FB636848
:103BA00068439B00B0FBF3F3B3FBF9F309FB13A3EA
:103BB0001B013233B3FBF9F303F00F0343EA0803AD
:103BC00083E700F05DFB676819254FF0640905FB8A
:103BD00000F3BF00B3FBF7F3B3FBF9F31F0100F0F1
:103BE0004FFB636868439B00B0FBF3F800F048FBB1
:103BF000636868439B00B0FBF3F3B3FBF9F309FB85
:103C000013831B013233B3FBF9F303F0F00800F028
:103C100037FB626868439200B0FBF2FA00F030FBB9
:103C2000BDE700BF0010014000140140704710B50F
:103C3000044640B390F8393003F0FF021BB980F816
:103C40003820FFF7F3FF2268242384F83930D36843
:103C500023F40053D3602046FFF7CEFE23681A6991
:103C600022F490421A615A6922F02A025A61DA68F3
:103C700042F40052DA6000202023E06384F83930F7
:103C800084F83A3010BD012010BD7047224A036805
:103C900090420ED0B0F1804F0BD0A2F57C42904202
:103CA00007D002F58062904203D002F58062904214
:103CB00019D14A6823F070031343174A904204D184
:103CC000CA6823F44073134318E0B0F1804FF7D073
:103CD000124A9042F4D002F580629042F0D002F590
:103CE00080629042ECD00E4A9042E9D002F58062A8
:103CF0009042E5D002F580629042E1D003608B688B
:103D0000C3620B688362044B984204BF0B69036370
:103D100001234361704700BF0000014000040040E0
:103D20000040014010B50446A0B190F8393003F0CE
:103D3000FF021BB980F83820FFF7A7FF022384F8A1
:103D400039302068211DFFF7A1FF012384F83930A5
:103D5000002010BD012010BD036A10B501248C4065
:103D600023EA04030362036A8A401A43026210BD15
:103D700010B5044601220068FFF7EEFF2368064AEB
:103D8000934202BF5A6C42F400425A641A6842F0ED
:103D900001021A60002010BD00000140FFF7E8BFDB
:103DA000064A1369012923F00403136101D130BFCE
:103DB000704740BF20BF20BF704700BF00ED00E04C
:103DC0000368F7B5DD07044638D42368980771D433
:103DD00023681E0700F1BD8023685D0728D50023F6
:103DE0000193A84BA84D1A6C42F080521A641B6CC8
:103DF00003F080530193019B2B6843F480732B6085
:103E000000F0ACFA06462B68DA0540F1C4809F4BFF
:103E1000227A1A70A368002B00F0CB8000F09EFA83
:103E2000984D064641F288372B6F9B0740F1BA80C8
:103E3000A269002A40F0CD80002015E0914B9A68DD
:103E400002F00C02042A07D09A6802F00C02082A39
:103E50000CD15B68590209D58A4B1B689A03B4D50B
:103E60006368002BB1D1012003B0F0BD884B2279EB
:103E70001A7063687BB100F071FA824D064641F218
:103E800088372B689B03A0D400F068FA801BB842E7
:103E9000F7D90320E8E700F061FA7A4D064641F2CF
:103EA00088372B68980390D500F058FA801BB842E9
:103EB000F7D9EEE7734B9A6812F00C0F07D09A68A7
:103EC00002F00C02082A16D15B68590213D46D4B1C
:103ED0001A68920702D5E268012AC4D11868F8224C
:103EE00092FAA2F2B2FA82F122698A4020F0F80135
:103EF0000A431A606CE7E268664BDAB101221A6085
:103F000000F02CFA5F4D06462B689B070CD52968FC
:103F1000F82393FAA3F3B3FA83F22369934021F0D1
:103F2000F80213432B6053E700F018FA801B0228B5
:103F3000EAD9AEE71A6000F011FA524D06462B6836
:103F40009F077FF545AF00F009FA801B0228F6D9DC
:103F50009FE76269504B7AB101221A6000F0FEF9C6
:103F6000484D06466B6F98073FF536AF00F0F6F9FF
:103F7000801B0228F6D98CE71A6000F0EFF9414D5A
:103F800006466B6F99077FF527AF00F0E7F9801BB6
:103F90000228F6D97DE700F0E1F9801B02287FF6C0
:103FA00032AF76E700F0DAF9801BB8427FF63CAF1B
:103FB0006FE700F0D3F9334D064641F288372B6F97
:103FC00098077FF535AF00F0C9F9801BB842F6D9E4
:103FD0005FE72C4DAB6803F00C03082B3FF443AFB5
:103FE0002E4E0023022A33603ED100F0B7F9074677
:103FF0002B68990132D447F6C07797FAA7F74FF4A8
:104000004032B7FA87F792FAA2F24FF07061B2FA33
:1040100082F091FAA1F1226AE3691343626A02FA1B
:1040200007F7A26A5208013A82403B431343E26A0F
:10403000144CB1FA81F102FA01F10B436B600123D8
:10404000336000F08BF9054623689A013FF5F4AE22
:1040500000F084F9401B0228F6D91AE700F07EF937
:10406000C01B0228C4D914E700F078F904462B6875
:104070009B017FF5E1AE00F071F9001B0228F6D933
:1040800007E700BF0038024000700040703802406F
:104090000238024000004742800E4742600047421B
:1040A000194A936803F00C03042B10B503D0082BB6
:1040B00003D0164810BD164810BD5168536801F072
:1040C0003F0113F4800F47F6C074536894FAA4F0CC
:1040D000B0FA80F003EA040323FA00F314BF0C489B
:1040E0000A48B0FBF1F05843074B4FF440325B688D
:1040F00092FAA2F2B2FA82F203F44033D3400133CF
:104100005B00B0FBF3F010BD003802400024F40067
:1041100000127A00564B1A6802F00F028A422DE90B
:10412000F04105460E4630D32A68940737D4D007AD
:104130003DD44F4B1A6802F00F029642C0F08880BF
:104140002A68510700F18C80130707D5494A29696D
:10415000936823F4604343EAC1039360FFF7A0FF31
:10416000444BF0229B6892FAA2F2B2FA82F203F078
:10417000F003D340404AD35CD840404B18600F2036
:10418000FEF720FC0020BDE8F081CAB21A701B685F
:1041900003F00F039942C7D00120BDE8F0813549F3
:1041A000A8688B6823F0F00303438B60BFE76A685D
:1041B000304B012A1ED11B6813F4003FECD02D4C6C
:1041C000A36823F003031343A36000F0C7F86B68F0
:1041D000012B074641F2883816D1A36803F00C037F
:1041E000042BA6D000F0BAF8C01B4045F5D9032037
:1041F000BDE8F081911E01291B6802D813F0007FF1
:10420000DCE713F0020FD9E7022B0AD1A36803F011
:104210000C03082B8DD000F0A1F8C01B4045F5D948
:10422000E5E7032B0FD1A36803F00C030C2B80D020
:1042300000F094F8C01B4045F5D9D8E700F08EF89F
:10424000C01B4045D3D8A36813F00C0FF6D170E71C
:10425000F2B21A701B6803F00F039E429CD16FE705
:104260000449E8688B6823F4E05303438B606BE7F1
:10427000003C024000380240A05E0008BC01002063
:10428000084B4FF4E0529B6892FAA2F2B2FA82F223
:1042900003F4E053D340044AD35C044A1068D84086
:1042A000704700BF00380240A05E0008BC0100203B
:1042B000084B4FF460429B6892FAA2F2B2FA82F283
:1042C00003F46043D340044AD35C044A1068D840E6
:1042D000704700BF00380240A05E0008BC0100200B
:1042E0000F2303600B4B9A6802F0030242609A6846
:1042F00002F0F00282609A6802F4E052C2609B68A9
:10430000DB0803F4E0530361034B1B6803F00F0366
:104310000B60704700380240003C024008B50A4B71
:104320001A6842F400721A601A6842F480621A60D5
:104330001A6842F480721A600F20FEF743FBFFF701
:1043400059FB002008BD00BF003C0240024A136830
:1043500001331360704700BF28280020014B186804
:10436000704700BF2828002010B50446FDF73EF82E
:1043700023682BB9E068FCF7C8FF01236060236065
:10438000BDE81040FDF748B838B50546FDF72EF8F2
:104390002C6824B1E868FCF7B8FF6C68041BFDF7D3
:1043A0003BF8204638BD38B50546FDF71FF82846CE
:1043B000AC68FFF7E9FF0444FDF72EF8204638BD4E
:1043C00008B5FFF7F0FF4FF47A7390FBF3F008BDE8
:1043D00010B50446FDF70AF8E068FCF796FF0023E5
:1043E0006060A360BDE81040FDF716B8002310B56B
:1043F0000360436083600446FCF75AFFE060204698
:10440000FFF7E6FF204610BD0368184708B10B68A8
:10441000036070477047884238B504460D460AD09D
:10442000FCF75BFD3CB1EB681BB15B68294620469D
:104430009847EB68E360204638BD704710B50446E6
:1044400000F04EF8014B2360204610BDC45E00080A
:1044500010B5034B03600446FCF782FD204610BDF7
:10446000C45E000810B50446FFF7F2FF204600F0D6
:1044700047FA204610BD70477047704700EB0112A5
:1044800002F19800D2F8A4301B68184710B480B12C
:10449000146853680CB9DA070BD513F0010F4FEA13
:1044A00063031CBFC2581459184423465DF8044BDB
:1044B00018475DF8044B704770B50546044655F83B
:1044C0004C3B0E461B68984728463146FEF7D0FE07
:1044D0002368C4F8B86020465B68BDE870401847A0
:1044E0002DE9F04387B000259146009502460195DD
:1044F000044688461F469DE80300274B42F8083BC8
:10450000264B82E80300236148F207036361244BD2
:10451000E561A46122626362BFF36F8FBFF34F8FC7
:1045200004F14C064C226563656484F8485084F8B5
:104530004950304600F039FD02A9C4F8A450C4F82F
:10454000B450C4F8B870174D174F029704F1980093
:104550000595FFF760FF02A8FCF7BFFC02A904F174
:10456000A80002970595FFF756FF02A8FCF7B5FCD7
:104570004A4641463046FEF7DDFDD4F8B8103046D5
:10458000FEF776FE304622460849FEF775FE2046C5
:1045900007B0BDE8F08300BFDC5E000801A090E832
:1045A0008D440008B05E0008774400087D44000890
:1045B0002DE9FF410546884655F84C3B1B680446EB
:1045C00016469847FCF712FFD8F80C70300197B1E7
:1045D000983041462044FFF71EFF0122314628460D
:1045E000FEF756FEFCF718FF236820465B689847E5
:1045F00004B0BDE8F081074B00939830064B03935D
:1046000069462044FFF707FF6846FCF766FC3A4618
:10461000E4E700BF77440008B05E000838B5044600
:1046200048B15830A04206D0A0F12C051438FCF750
:104630008EFC2846F6E7204638BD000070B50E4CCB
:104640002046002528263246294640F8045B00F023
:10465000ACFC3246294604F13000E56200F0A5FCCE
:10466000A5652046E565054A84F860500449BDE823
:10467000704000F027B900BF801B0020940100208B
:104680001D46000800F0E8BC00F044BD00F096BCF8
:1046900070B50546FEF7F2FA4FF47A7495FBF4F420
:1046A000002C064602DDFCF79BFE28B9FEF7E6FA71
:1046B000801BA842FAD370BD204600F02BF9F5E725
:1046C0004FF47A735843FFF7E3BF000008B5084B77
:1046D0001B685BB9022107480322FEF72BFD4FF44C
:1046E00016510448BDE80840FEF7C2BD08BD00BF32
:1046F00060190020DC270020022810B5044601DCE8
:10470000002010BD00F00EFA09230360033C094BA2
:1047100053F82400002243F8242040B103681B69A9
:104720009847041EECDA00F0FDF9644204604FF093
:10473000FF3010BDE41B0020F8B505460E461446B8
:1047400000F0F0F90923022D03600FDC124B1B6807
:104750000BB9FFF7BBFF35463719104EBD4215D0D8
:1047600015F8011B3046FEF705FEF7E7033D0C4B3D
:1047700053F8250060B103682246DB68314698474C
:10478000041E03DA00F0CEF9634203602046F8BD50
:104790004FF0FF34FAE700BF60190020DC2700204B
:1047A000E41B002070B504460D46164600F0BAF929
:1047B0000923022C03600BDC0F4B1B680BB9FFF7BE
:1047C00085FF0E48FEF7BAFD01242870204670BD13
:1047D000033C0B4B53F8240058B1036832469B68E6
:1047E00029469847041EF1DA00F09CF96342036001
:1047F000ECE74FF0FF34E9E760190020DC270020E8
:10480000E41B002070B504460D46164600F08AF9F8
:104810000923022C03600BDD033C084B53F82400F2
:1048200040B1036832462946DB69BDE8704018474D
:10483000002070BD4FF0FF3070BD00BFE41B0020B2
:1048400008B5FEF7A9FDFCF779FE08BD704708B56D
:10485000FFF7FCFFBDE80840FCF77ABA0C4A136882
:1048600010B51844EFF30881884205D3094B0C2298
:104870001A604FF0FF3010BD07490C6824B107499A
:10488000096821448842F1D21060184610BD00BF6B
:10489000C00100202C280020E41C0020E81C00207F
:1048A000074C08B523680546986800F0F3F92368BB
:1048B000D86800F0EFF90DB1FCF7C7FDFEE700BFC7
:1048C000C40100200120704708B5FFF7E9FF08B5D3
:1048D000FCF742FE08BD08B5FCF746FE08BD000027
:1048E00010B500F0D7FA044610B90248FCF7A8FD4D
:1048F000204610BDEC5E000808B100F0D3BA704746
:10490000FFF7FABF024B1B6803B11847704700BF9F
:10491000EC1C0020FDF79CBB38B500F108050446EF
:1049200010220021284600F040FB204640F8045F9A
:10493000FDF7F2FB206010B90248FCF781FD20462C
:1049400038BD00BF0B5F00080068FDF703BC0068BE
:10495000FDF728BC80F309887047EFF309807047A2
:10496000684680F309885A480078C00714BF0220BF
:10497000032080F314887047DFF858C1EFF30583F4
:104980001B0618BF6047EFF31483DB0708BF6047BF
:1049900000DF7047DFF840C1EFF305831B0618BF47
:1049A0006047EFF31483DB0708BF604700DF704701
:1049B000EFF30980816911F8021CE1BB90E80F1048
:1049C00010B5E047BDE81040EFF3098C8CE8070014
:1049D000424B93E80600914208BF704741B91EF070
:1049E000100F16D13E49086820F00100086010E061
:1049F0001EF0100F06BF2CED108A0120002081F858
:104A000025002CE9F00FC1F82CC00CB4FDF736F8E6
:104A10000CBC1A60D2F82CC0BCE8F00F92F825004C
:104A200000280EBF6FF0020E6FF0120EBCEC108A61
:104A30008CF30988704710B52A4A1268914209D848
:104A4000294C54F8214090E80F10A047EFF3098C4F
:104A50008CE80F0010BD10B5FCF79CFFBDE81040BE
:104A60001E4B93E80600914208BF7047EFF3098C94
:104A70001EF0100F06BF2CED108A0120002081F8D7
:104A800025002CE9F00FC1F82CC00CB4FCF7F6FFA0
:104A90000CBC1A60D2F82CC0BCE8F00F92F82500CC
:104AA00000280EBF6FF0020E6FF0120EBCEC108AE1
:104AB0008CF30988704710B5FCF7C2FFFFF7CEBF33
:104AC00010B5FCF7BBFFFCF7BBFFFFF7C7BF00004B
:104AD0004A5C0008EB1A0008051B00080C270020A0
:104AE00034EF00E000000000FCFFFFFFDFF820D003
:104AF000002103E0074B5B58435004310648074B45
:104B000042189A42F6D3FEF725FDFCF791F970475B
:104B100000800120D45F0008940100203C020020A6
:104B2000FEE70000014B1868704700BFC401002079
:104B30008A892DE9F041054610070C465AD44B6886
:104B4000002B05DC0B6C002B02DC0020BDE8F081A3
:104B5000E66A002EF9D0002312F480522F682B60F1
:104B600033D0606DA3895A0705D56368C01A636B9B
:104B70000BB1236CC01A00230246E66A216A28465C
:104B8000B047431CA38906D129681D294BD82B4A5D
:104B9000CA40D60747D500226260D9042269226044
:104BA00004D5421C01D12B6803B96065616B2F608D
:104BB0000029CAD004F14403994202D02846FFF7E5
:104BC00065FD00206063BDE8F081216A012328466D
:104BD000B047411CC6D12B68002BC3D01D2B01D080
:104BE000162B01D12F60B0E7A38943F04003A381C6
:104BF000BDE8F0810F69002FA7D093070E6808BFAA
:104C00004B690F6018BF0023A6EB07088B60B8F153
:104C1000000F9ADD43463A46216AA66A2846B04705
:104C2000002807DCA38943F04003A3814FF0FF3045
:104C3000BDE8F0810744A8EB0008E8E70100402048
:104C400038B50B6905460C46DBB118B183690BB961
:104C500000F072F80C4B9C4209D16C68B4F90C302E
:104C60007BB121462846BDE83840FFF761BF074BBE
:104C70009C4201D1AC68F1E7054B9C4208BFEC684F
:104C8000ECE7002038BD00BF505F0008705F0008EF
:104C9000305F0008014620B9044B0549186800F050
:104CA000B7B8044B1868FFF7CBBF00BF905F000890
:104CB000414C0008C4010020014900F0A9B800BF20
:104CC000414C0008002310B5044603604360836034
:104CD00081814366C2810361436183611946082271
:104CE0005C3000F062F9054B6362054BA362054B33
:104CF000E362054B2462236310BD00BFBD5400086E
:104D0000DF540008175500083B55000870B54A1ECF
:104D1000682555430E4605F17401FFF7B3FC0446C0
:104D200040B1002180E842000C30A06005F168022B
:104D300000F03BF9204670BD836910B5044633BBD3
:104D40008364C3640365124B124A1B6882629842F3
:104D500004BF0123836100F01FF86060204600F06B
:104D60001BF8A060204600F017F80022E060042144
:104D70006068FFF7A7FF01220921A068FFF7A2FFE3
:104D800002221221E068FFF79DFF0123A36110BDFD
:104D9000905F0008B94C0008F8B51C4B1E68B36959
:104DA000074613B93046FFF7C7FF4836B468736843
:104DB000013B03D5336833B13668F7E7B4F90C50DB
:104DC0006DB16834F4E704213846FFF79FFF306087
:104DD0000028F1D10C233B6004462046F8BD4FF675
:104DE000FF73E3810123A38165662560A56065608B
:104DF00025616561A5610822294604F15C0000F087
:104E0000D4F86563A563A564E564E6E7905F0008F0
:104E10002DE9F8438046894600F14804002614B97C
:104E20003046BDE8F883A5686768013F01D524686E
:104E3000F5E7AB89012B07D9B5F90E30013303D063
:104E400029464046C84706436835EEE770B50D4E23
:104E50000D4CA41BA4100025A54209D10B4E0C4CEF
:104E600000F038FDA41BA4100025A54205D170BD9B
:104E700056F8253098470135EEE756F82530984723
:104E80000135F2E728020020280200202802002035
:104E900034020020024B01461868FFF7F3BB00BF45
:104EA000C4010020024B01461868FFF7EFBB00BFAA
:104EB000C40100200000000000000000000000000D
:104EC00001F0FF01102A2BDB10F0070F08D010F8BB
:104ED000013B013A8B422DD010F0070F42B3F6D1BF
:104EE000F0B441EA012141EA014122F007047FF0D8
:104EF00000070023F0E80256083C85EA010586EA2F
:104F0000010685FA47F5A3FA87F586FA47F6A5FA6A
:104F100087F68EB9EED1F0BC01F0FF0102F0070276
:104F200032B110F8013B013A83EA010313B1F8D121
:104F30000020704701387047002D06BF3546033802
:104F4000073815F0010F07D1013015F4807F02BF3B
:104F5000013015F4C03F0130F0BC0138704700BF8C
:104F600010B5431E0A44914200D110BD11F8014B07
:104F700003F8014FF7E7884210B501EB020303D8AD
:104F8000421E99420CD110BD9842F9D28118D21A12
:104F9000D34200D110BD13F8014D01F8014DF7E7E0
:104FA00011F8014B02F8014FEBE70244034693422C
:104FB00000D1704703F8011BF9E7000038B505463A
:104FC000002945D051F8043C0C1F002BB8BFE41851
:104FD000FFF77DFC1F4A1368104633B96360146005
:104FE0002846BDE83840FFF776BCA3420CD92168BB
:104FF0006218934204BF1A685B68636004BF52186A
:1050000022600460ECE713465A680AB1A242FAD95A
:1050100019685818A0420BD12068014458188242E0
:105020001960DDD1106852685A6001441960D7E7F1
:1050300002D90C232B60D3E7206821188A4204BFD1
:1050400011685268626004BF091821605C60C7E79C
:1050500038BD00BFF01C002070B5CD1C25F0030545
:1050600008350C2D38BF0C25002D064601DBA94262
:1050700003D90C233360002070BDFFF728FC234ABE
:105080001468214691B9224C23681BB9304600F0C0
:1050900005FA20602946304600F000FA431C26D16C
:1050A0000C2333603046FFF716FCE4E70B685B1B0C
:1050B0001AD40B2B0FD90B60CD50CC183046FFF70C
:1050C0000AFC04F10B00231D20F00700C31A1BD0BB
:1050D0005A42E25070BD8C420DBF63684B686360FA
:1050E000136018BF0C46E9E70C464968CAE7C41CC0
:1050F00024F00304A04205D0211A304600F0CEF976
:105100000130CDD02560D9E770BD00BFF01C002074
:10511000F41C0020F8B5074614460E4621B9114686
:10512000BDE8F840FFF7AEBA22B9FFF7AFFA25465F
:105130002846F8BD00F064FA84420FD9214638466B
:10514000FFF7A0FA05460028F2D031462246FFF7C5
:1051500007FF31463846FFF799FAE9E73546E7E7B2
:105160002DE9F04791461F468A680B69DDF82080DB
:105170009342B8BF1346C9F8003091F84320064661
:105180000C4612B10133C9F800302368990642BFBA
:10519000D9F800300233C9F80030256815F006054B
:1051A00007D104F1190AE368D9F800209B1A9D423F
:1051B00029DB94F843302268003318BF012392069C
:1051C0002ED404F1430239463046C047013021D085
:1051D0002368E568D9F8002003F00603042B08BF14
:1051E000AD1AA36822690CBF25EAE5750025934234
:1051F000C4BF9B1AED184FF000091A344D451BD15E
:105200000020BDE8F0870123524639463046C047AA
:10521000013003D14FF0FF30BDE8F0870135C2E720
:10522000E1185A1C302081F84300224494F84510BC
:1052300082F843100233C4E7012322463946304640
:10524000C0470130E6D009F10109D7E72DE9F04365
:1052500017460A7E85B06E2A984606460C460C9B79
:1052600001F1430E00F0BC801AD8632A2ED00AD870
:10527000002A00F0C880582A00F08A8004F1420514
:1052800084F842202AE0642A01D0692AF6D12168F4
:105290001A6811F0800F23D0111D1960136827E0E0
:1052A000732A00F0B48008D86F2A2AD0702AE5D17A
:1052B0000A6842F020020A6003E0752A21D0782AA9
:1052C000DCD1782284F845206E4964E01A6801F147
:1052D0004205111D1960136884F842300123A3E0D0
:1052E00011F0400F02F104011960D7D0B2F900307B
:1052F000002B03DA2D225B4284F8432062490A2204
:1053000017E02068196810F0800F03D0081D18609E
:105310000B6806E010F0400F01F104001860F7D0B0
:105320000B8859496F2A14BF0A220822002084F8EA
:1053300043006568A560002DC0F29C80206820F0C5
:1053400004002060002B3FD1002D40F09580754671
:10535000082A0BD12368DA0708D5236962689A42C4
:10536000DEBF302305F8013C05F1FF35AEEB050348
:105370002361CDF800803B4603AA21463046FFF763
:10538000EFFE013055D14FF0FF3005B0BDE8F0839E
:1053900081F845203C492268186812F0800F00F11E
:1053A00004051D6001D0036802E05506FBD50388A3
:1053B000D00744BF42F0200222601BB9226822F0CD
:1053C000200222601022B1E77546B3FBF2F002FB27
:1053D0001033CB5C05F8013D03460028F5D1B7E753
:1053E00008681A68496910F0800F04D0101D186011
:1053F0001368196007E010F0400F02F10400186014
:105400001368F6D01980002323617546B1E71A6846
:10541000111D19601568626800212846FFF750FDCC
:1054200008B1401B606063682361002384F8433047
:105430009FE723692A4639463046C0470130A2D04B
:1054400023689B0707D5002504F11909E368039A2F
:105450009B1A9D4205DBE068039B9842B8BF184643
:1054600093E701234A4639463046C04701308AD087
:105470000135EBE7002BA7D10B7884F8423004F11B
:10548000420565E7A55F0008945F0008024B0A46E5
:1054900001461868FFF7F8B8C401002038B5064C7B
:1054A0000023054608462360FFF7D8F9431C02D1C4
:1054B000236803B12B6038BD2C28002010B50C46A2
:1054C000B1F90E1000F0F4F90028ABBF636DA389A9
:1054D0001B1823F48053ACBF6365A38110BD2DE975
:1054E000F0411F468B89DB0505460C46164605D55F
:1054F00002230022B1F90E1000F070F8A389B4F96C
:105500000E1023F48053A38132463B462846BDE863
:10551000F04100F041B810B50C46B1F90E1000F0A2
:105520005DF8431CA38915BF606523F4805343F4E1
:105530008053A38118BFA38110BDB1F90E1000F0F4
:105540003DB8034613F8012B002AFBD1181A013885
:10555000704710B59AB04FF40274009104916FF047
:105560000041029105914FF6FF71ADF80E106946AA
:10557000ADF80C4000F0A8F8009B00221A701AB099
:1055800010BD000013460A46014602480068FFF7B6
:10559000E0BF00BFC401002038B5074C05460846EF
:1055A0001146002222601A46FFF7C6F8431C02D1BA
:1055B000236803B12B6038BD2C28002038B5064C79
:1055C0000023054608462360FFF796F8431C02D1E6
:1055D000236803B12B6038BD2C28002038B5074C58
:1055E000054608461146002222601A46FFF70AF9CE
:1055F000431C02D1236803B12B6038BD2C28002046
:1056000051F8040C0028A0F10400BCBF0B58C018CE
:1056100070472DE9F0478E689E4282460C469146BF
:10562000984635D88A8912F4906F31D02568096977
:105630006F1A6569022305EB450595FBF3F508F143
:1056400001033B449D4238BF1D46530531D52946D1
:10565000FFF718F8064650B90C23CAF80030A389A2
:1056600043F04003A3814FF0FF30BDE8F0873A4696
:105670002169FFF775FCA38923F4906343F080034D
:10568000A381266165613E44ED1B2660A560464608
:10569000464528BF4646324649462068FFF76BFC20
:1056A000A3689B1BA36023681E4426600020BDE8FE
:1056B000F0872A46FEF7E8FF06460028E1D1216977
:1056C0005046FEF7E3FFC7E72DE9F04F9DB0804657
:1056D00003938B891C060D4616460FD50B696BB9D3
:1056E0004021FEF7CFFF2860286128B90C23C8F8B5
:1056F00000304FF0FF30C5E040236B610023099379
:1057000020238DF8293030238DF82A304FF0010BFB
:1057100037463C4614F8013B002B3CD1B7EB060A58
:105720000BD05346324629464046FFF772FF013000
:1057300000F0A380099B534409933B78002B00F0B1
:105740009C8000234FF0FF32049307930592069349
:105750008DF853301A93052221785048FFF7B0FB9B
:10576000671C049BD8B9D90644BF20228DF853206A
:105770001A0744BF2B228DF8532022782A2A16D0EC
:10578000079A00210A20274601343B78303B092B39
:1057900051D9C9B111E0252BC0D02746B9E73F4AFE
:1057A000801A0BFA00F0184304903C46D3E7039AA2
:1057B000111D12680391002A01DB079204E0524296
:1057C00043F00203079204933B782E2B0ED17B7893
:1057D0002A2B07F1010132D1039B1A1D1B6803928A
:1057E000002BB8BF4FF0FF33023705932C4C3978AC
:1057F00003222046FFF764FB38B14023001B03FA65
:1058000000F0049B034304930137397825488DF851
:10581000281006227E1CFFF753FB002835D0224BB0
:10582000FBB9039B073323F0070308330393099B5A
:105830004B4409936CE700FB02320121A3E70023EC
:10584000059318460A240F4601313A78303A092A5E
:1058500003D9002BCAD00590C8E704FB0020012320
:10586000F1E703AB00932A46104B04A94046AFF37F
:105870000080B0F1FF3F8146D9D1AB895B063FF58F
:1058800038AF09981DB0BDE8F08F03AB00932A46EE
:10589000064B04A94046FFF7D9FCEAE7B65F0008CB
:1058A000BC5F0008C05F000800000000135600083D
:1058B00038B5074C054608461146002222601A46B4
:1058C000FEF770FF431C02D1236803B12B6038BD83
:1058D0002C280020F8B500BFF8BC08BC9E467047D5
:1058E000F8B500BFF8BC08BC9E4670470000000039
:1058F00000000000010200084B03000859030008E3
:1059000099030008000000000000000003020008E6
:105910002B02000869020008710200080000000064
:1059200000000000430500081D0600087902000879
:1059300081020008000000000000000017050008B8
:10594000E705000889020008910200080000000035
:105950000000000035040008D30600089902000882
:10596000A10200080000000000000000A9020008D9
:10597000E9020008350300083D03000800000000AC
:1059800000000000710A0008310B00084503000800
:1059900061646300366437383533613631346532DB
:1059A000653832313331393036383331316632612E
:1059B0006632356200726F7373657269616C5F6D18
:1059C0006265642F4164630039663065393862640A
:1059D0006136353938313938366464663533616655
:1059E0006137613430653439003131616264373395
:1059F00031633235393333323631636436313833DB
:105A000062643132643632393500726F7373657295
:105A100069616C5F6D7367732F4C6F6700306164F1
:105A20003531663838666334343839326638633134
:105A30003036383430373736343630303500726FE0
:105A40007373657269616C5F6D7367732F546F70E8
:105A50006963496E666F00726F7373657269616C1A
:105A60005F6D7367732F52657175657374506172E2
:105A7000616D004D6573736167652066726F6D209F
:105A80006465766963652064726F707065643A203E
:105A90006D657373616765206C61726765722074F0
:105AA00068616E206275666665722E0063643731C8
:105AB000363663373463353532633331316662638A
:105AC00063326665356137626332383900737464F6
:105AD0005F6D7367732F54696D650000C30E000816
