:1000000000800010F94A0000294B00002B4B000033
:100010002D4B00002F4B0000314B00000000000072
:100020000000000000000000000000002D4A000059
:10003000354B000000000000974A0000CD4A000048
:100040003B4B00003B4B00003B4B00003B4B000098
:100050003B4B00003B4B00003B4B00003B4B000088
:100060003B4B00003B4B00003B4B00003B4B000078
:100070003B4B00003B4B00003B4B00003B4B000068
:100080003B4B00003B4B00003B4B00003B4B000058
:100090003B4B00003B4B00003B4B00003B4B000048
:1000A0003B4B00003B4B00003B4B00003B4B000038
:1000B0003B4B00003B4B00003B4B00003B4B000028
:1000C0003B4B00003B4B00003B4B000010B5054C88
:1000D000237833B9044B13B10448AFF300800123F4
:1000E000237010BDD0020010000000003085000019
:1000F0000C4B43B10C4810B50C49AFF300800C48D1
:10010000036823B910BD0A48036833B97047094B27
:10011000002BF7D0BDE810401847064B002BF5D058
:10012000184700BF0000000030850000D402001016
:10013000CC0200100000000043680B7043681B0AEB
:100140004B70C3888B70C379CB7083680B718368E5
:100150001B0A4B7143898B71C37A0820CB7170479E
:100160000B7843604A7843EA022343608A7843EA83
:1001700002434360CA7843EA026343600B798360B9
:100180004A7943EA022383608A7943EA024383601F
:10019000CA7943EA026383600820704700487047C9
:1001A000E57C000000487047C47C000000487047B0
:1001B000567C000000487047357C000000487047BE
:1001C000227C000000487047017C00000048704716
:1001D0006F7C000000487047E07B0000436804200B
:1001E0001A0A0B704A701A0C1B0E8A70CB7070477B
:1001F0000B6843600420704700487047147D00007E
:1002000000487047F37C000090F85C05704738B5F3
:1002100004460D461822002105F09BFF2046294682
:1002200001F087FA204638BD70B50546094B0646F1
:1002300045F80C3B5DB100F12C04AC4207D0103CFA
:10024000E368002BF9D09B6820469847F5E73046D5
:1002500070BD00BF2082000010B50446084B44303A
:1002600040F8443C203340F8143C04F0A9FB04F16E
:10027000300003F06FFD2046FFF7D6FF204610BD8B
:10028000C4800000A0F13000E6E700BF10B50446CE
:10029000FFF7CAFF204604F08EFA204610BDC3685F
:1002A00010B41A6814680A4681681846234610BCC0
:1002B00018470023013821FA03F20833202B00F8F5
:1002C000012FF8D1704743682DE9F0410B70436866
:1002D0000D461B0A4B70C3880A1D8B70C3790446F8
:1002E000CB7000216068531B814202F104020FD2DF
:1002F000E36853F821300131180A02F8043C02F88F
:10030000030C180C1B0E02F8020C02F8013CE9E782
:100310002269EA542169EA18090A5170618A043392
:100320009170E17C2B44D170002122695E1B9142C7
:1003300003F104030FD2A26952F821200131100AFF
:1003400003F8042C03F8030C100C120E03F8020C33
:1003500003F8012CE9E70027E369AB55E269AB1923
:10036000120A5A70E28B04369A70E27FDA70E369FF
:100370009F4214D2636A53F8270006F0AAFD804614
:100380000146A819FFF795FF636A043653F8271052
:10039000A819424605F0B8FE46440137E7E7304663
:1003A000BDE8F081F8B50E460379054606F8013B35
:1003B00080680F4606F08DFD044601463046FFF783
:1003C00078FF2246A968781D05F09EFE601DF8BDE5
:1003D00083882DE9F0410B70838805461B0A4B701A
:1003E00080680C4606F075FD07460146A01CFFF725
:1003F00060FF3A46A968A01D05F086FEE86806F091
:1004000068FD064607F1060801460A3704EB0800B6
:10041000FFF74FFF3246E968E01905F075FE2869DD
:1004200006F057FD3E4407460146A0190436FFF783
:1004300040FF3A46A019296905F066FE6B693E4403
:10044000A3551A0A344462701A0C1B0EA270E37092
:10045000301DBDE8F081002310B50360013911F8AB
:10046000012F02FA03F4026808332243202B0260B2
:10047000F5D110BD37B50C4611F8013B05460371A7
:1004800001A8FFF7E8FF019B621D581D111B884260
:1004900004D912F8011B02F8021CF7E700222344DA
:1004A00004341A71AC6003B030BDF0B50C460B7863
:1004B00085B083804A78064643EA0223838002316E
:1004C00001A8FFF7C8FF019FA31DBD1D1A1B954280
:1004D00004D913F8012B03F8022CF7E70022E319E3
:1004E0005A71631DB360611902A8FFF7B4FF2B1D99
:1004F000029D07F10A021D442244111B8D4204D9BA
:1005000012F8011B02F8021CF7E70022013B6119F7
:10051000234401F8012C03A8F360FFF79CFF039824
:100520000435284463191A1B904204D913F8012B8F
:1005300003F8022CF7E70023013D2218254402F8B6
:10054000013C3561937851781B0443EA0123215C17
:10055000D2780B4343EA02630430736105B0F0BD07
:100560002DE9F34143680D6804469D420E4604D9C7
:10057000A900C06806F012FBE06000216560321D32
:100580006068931B814202F1040213D212F8023C0C
:1005900012F8030C1B0443EA002312F8040C034373
:1005A00012F8010C43EA0063E068A36040F82130D0
:1005B0000131E5E7F21895785078F15C2D0445EAB1
:1005C0000025D2780D431F1D236945EA02659D422F
:1005D00004D9A900A06906F0E1FAA0610021256113
:1005E000F31922699D1B914203F1040313D213F8FE
:1005F000022C13F8030C120442EA002213F8040C34
:10060000024313F8010C42EA0062A069626140F8FB
:1006100021200131E5E773199F785978725D3F0415
:10062000DB7847EA0127174347EA0367E3690435A4
:100630009F4204D9B900606A06F0B0FA6062E761CF
:100640000027B846E3699F421AD2711901A8FFF743
:1006500002FF2B1D019DF2181D44911BA94204D2DB
:1006600012F8011B02F8021CF7E7721902F8018C5C
:10067000013B626A3344236242F827300137E1E7E5
:10068000284602B0BDE8F08130B50A4B85B004467B
:10069000019300230293039354F8603B01AA1B6863
:1006A0000A2105469847204603F070FD286705B0EB
:1006B00030BD00BF507B000000222DE9F04105460F
:1006C0004FF40077294B86B00093294BADF80420F6
:1006D000029303930493059200F5906400F2E446BC
:1006E0002368BBB19A685868ADF804201A6803689B
:1006F00002929B6898472368039058680368DB68F8
:10070000984721682B68049005971B686A46096919
:10071000284698470434B442E2D14FF4007705F5F7
:10072000A9662068C8B14368ADF8043083680293B5
:1007300003689B689847039020680368DB689847C4
:100740002B6804902068D3F80080036805975B68E5
:1007500098476A4601462846C0470434A642E0D17D
:10076000012385F85C3506B0BDE8F081687B0000A8
:10077000327D0000F0B51F4B85B0019300230E467B
:10078000044600F1600528460293039303F0FEFC43
:1007900031464FF47A76226F871A01A8FFF7E0FC02
:1007A000B7FBF6F2029B2846134406FB1272029333
:1007B000114F039B07FB0232039203F0E7FCB0FBEF
:1007C000F6F3029A0399013AD21A62670B4A06FBC2
:1007D00013030A44214607FB132304F1740041F874
:1007E000783F00F0B7FD284603F0D0FCC4F864055C
:1007F00005B0F0BD507B000040420F0000CA9A3B9C
:1008000010B50446FFF728FD204603F0D4FF20462C
:1008100010BDA0F13000F3E74FF4165337B55A4A34
:1008200000935A4900235A4803F0D2F9594A5A49C9
:10083000574803F08BFF59495948FFF7E8FC5949DD
:100840005948FFF7E4FC59495948FFF7E0FC59497A
:10085000594800F021FD4F4A5849574803F076FFA8
:100860005749584800F018FD4A4A5449554803F082
:100870006DFF5549554800F00FFD464A4F49534812
:1008800003F064FF5249534800F006FD414A4B49CA
:10089000504803F05BFF5049504800F0FDFC3D4AD2
:1008A00046494E484E4C03F051FF4E494E4800F029
:1008B000F3FC384A41494C4803F048FF20464B4B73
:1008C000002540F8043B04232F4A30498DE82800D6
:1008D0004FF4807300F0ECFD04F1600003F06CFC59
:1008E0004FF4614304F16000E36503F017FC2A460E
:1008F0003F4B84F85C55C4F87035C4F87455C4F89F
:100900007C55C4F88055C4F88855C4F88C55C4F893
:10091000945563190435642DC3F88024F9D100235C
:100920001946E2180433642BC2F8E414F9D1002309
:100930001946E2180133B3F5007F82F88010F8D130
:1009400000231D46E2180133B3F5007F82F8805280
:10095000F8D1104A27492248E56703F0F7FE002343
:100960002549264A26484B60086010605360254898
:10097000254B83E803001D612449254B83E80600CD
:100980001D6103B030BD00BF03C0092002C00920B3
:10099000EC020010C80000105902000032C009200B
:1009A000A803001034C009203804001035C0092005
:1009B0002004001045C00920400B00101910000051
:1009C00044C009204803001043C00920500400100F
:1009D00042C00920E00A001041C00920B004001004
:1009E0001005001040C00920C0030010C87B0000A3
:1009F000987B000001100000D80A0010D00A0010F7
:100A0000B07B0000D47B0000BC0A0010DA7B000041
:100A1000A80A0010F0B5632985B004460E4603DD30
:100A200090F85C55002D4DD0136804F287211B68A7
:100A300010469847FF2384F88032FE23C0F3072234
:100A400084F88132C3B284F882321344DB4384F8E1
:100A5000832284F884320522002384F8856246F3D9
:100A6000072684F8866204F28521861DB24204DCE2
:100A700011F8015B01322B44F8E7DB4300F1080574
:100A8000B5F5007F204480F887320CDC04F5207730
:100A90003E460434F31B9D4214DD16F8011B20462C
:100AA00000F073FDF6E7094B01AA019303238DF8CB
:100AB0000830074B07210393236820461B6898479B
:100AC0004FF0FF35284605B0F0BD00BF807B000029
:100AD0008B7C00002DE9F047044600F16008404699
:100AE00003F054FB42F6F822D4F864350546C31AE5
:100AF000934284BF002384F85C35D4F8483533B181
:100B0000D4F8683583423CBF0023C4F8483500263A
:100B100004F1040904F18007E36FABB9484600F023
:100B200027FCE0B994F85C0560B140F6C412D4F833
:100B30006035EB1A934204D92046FFF7A5FDC4F8AF
:100B400060550020BDE8F087404603F01FFBE36FCF
:100B5000401B9842E2D96FF00100BDE8F08748469B
:100B600000F00EFC0028DDDBD4F85835D4F848A599
:100B70000344BAF1070FC4F8583512D1D4F85435EC
:100B80005A1C2344C4F8542583F88000D4F84C350B
:100B9000013BC4F84C35002BBED10823C4F84835BE
:100BA000BAE7BAF1000F14D1FF2807D10123C4F826
:100BB000483505F11403C4F86835ADE7404603F045
:100BC000E5FA41F28833401B9842A5D984F85CA528
:100BD000C1E7BAF1010F0DD1FE2801D10223DDE7F3
:100BE00094F85C35C4F84865002B95D12046FFF792
:100BF0004BFD91E7BAF1020F09D10323C4F84C056C
:100C0000C4F85465C4F84835C4F8580584E7BAF107
:100C1000030F07D1D4F84C3503EB0020C4F84C0582
:100C20000423BBE7BAF1040F0BD15A42D2B2DBB2B4
:100C300058BF5342FF2B01D10523AFE7C4F84865E5
:100C40006AE7BAF1050F03D1C4F850050623D9E7C6
:100C5000BAF1060F0BD1D4F8503503EB002007236F
:100C6000C4F85005C4F84835D4F84C3593E7BAF1C8
:100C7000080F7FF451AF5A42D2B2DBB258BF534291
:100C8000FF2BC4F848657FF447AFD4F850356BB9F3
:100C90002046FFF7F9FC2046FFF70EFDC4F860552B
:100CA000C4F864554FF0FF30BDE8F0870A2B04D13B
:100CB00039462046FFF75EFD2EE7062B08D1394660
:100CC00004F5AE60FFF74CFC012384F86C3523E794
:100CD0000B2B02D184F85C651EE704EB8303D3F889
:100CE000540300283FF418AF036839461B6898473F
:100CF00012E70000000000002DE9F84FAE4CE16D56
:100D0000201D03F071FA002304F27C421146C4F85E
:100D10004835C4F84C35C4F85435C4F8503551F84A
:100D2000040F002840F00781A44903F590707D333B
:100D300044F820108B60CC60002352F8041F002977
:100D400040F0FE809E4A03F590717D3344F82120E7
:100D50009360D4604FF07E5600244FF07C59994840
:100D600000F093FA984800F090FA984800F08DFA55
:100D70000746974800F089FA0546964800F085FA3C
:100D80008046954800F081FA8246384604F03AF8E9
:100D900083A3D3E9002303F0D5FE83A3D3E9002383
:100DA00004F0AEF904F01CFB0746284604F02AF8CC
:100DB0007BA3D3E9002303F0C5FE7BA3D3E9002383
:100DC00004F09EF904F00CFB0546404604F01AF8C6
:100DD00073A3D3E9002303F0B5FE73A3D3E9002383
:100DE00004F08EF904F0FCFA8046504604F00AF84C
:100DF0006BA3D3E9002303F0A5FE6BA3D3E9002383
:100E000004F07EF904F0ECFA31468246384604F0EC
:100E100001FE002840F099802146384604F0DCFDB0
:100E200000B127463146284604F0F4FD002840F082
:100E30008E802146284604F0CFFD00B1254631467C
:100E4000404604F0E7FD002840F0838021464046FC
:100E500004F0C2FD00B1A0463146504604F0DAFD70
:100E6000DFF894B158B92146504604F0B5FD00288A
:100E700071D14946504604F0CDFD00286BD04FF0AB
:100E8000010ADBF80C30DBF804201A6049464046C2
:100E900004F0C0FD514B002865D01A695B68DFF88B
:100EA0005C811360BAF1000F74D04946284604F003
:100EB000B1FD002859D0284603F0A4FF0022484B7A
:100EC00003F040FE02460B4603F03EFE04F088FAB3
:100ED0000546D8F81030D8F804201A60384603F0D8
:100EE00091FF00223E4B03F02DFE02460B4603F01D
:100EF0002BFE04F075FA074603F084FF02460B460A
:100F00003848394902F038FF284603F07BFF024693
:100F10000B463448354902F02FFF354927484F60CA
:100F2000FFF7BDF9334926484D60FFF7B8F922486D
:100F3000FFF7D0FD13E70133192B7FF4F0AEFBE68A
:100F40000133192B7FF4F9AE04E737466AE73546DB
:100F500075E7B04680E7DBF81030DBF804204FF08F
:100F6000000A1A6092E7DA6898E74946284604F0D2
:100F700033FD78B1284603F045FF0DA3D3E90023E4
:100F800004F024FA30B1D8F81030D8F804202546FF
:100F90001A60A3E7D8F80C30F7E700BFAFF3008082
:100FA000567DAEB6627FA93FE4A59BC420B0A23FA8
:100FB0009A9999999999D93F10050010BC0A001087
:100FC000A80A0010400B001048030010E00A0010AF
:100FD00050040010B0040010C003001038040010CA
:100FE0000000E03F1C030010257D0000337D000061
:100FF000D80A0010D00A0010A80300102004001026
:1010000010B50446034B40F8043B00F0DDF92046E0
:1010100010BD00BFC87B000010B5044602F07CFF85
:10102000204610BD70470368184708B10B6803607D
:101030007047704770B50D4C236883B90C4D4FF065
:10104000FF31286801F0A6FA23682BB9261D02D0CB
:10105000304603F097FC2660286801F0C3FA206848
:101060004FF0FF31BDE8704003F0A4BC1C1F00101E
:101070003C23001010B5044603F09DFB204610BD34
:1010800070B50C4C236883B90B4D4FF0FF312868C5
:1010900001F080FA23682BB9261D02D0304603F0F8
:1010A00071FC2660286801F09DFA2068BDE8704058
:1010B00003F083BC1C1F00103C230010C36810B554
:1010C00004460BB19B689847204610BD38B50546CD
:1010D0000446064B45F8183B02F0A2FD2846FFF7F0
:1010E000EDFF204603F034F9204638BD348100007E
:1010F00010B50446FFF7EAFF204603F05CFB2046EC
:1011000010BD000010B50446024B0360FFF7DEFF80
:10111000204610BD4C82000010B50446FFF7F2FFD8
:10112000204603F048FB204610BD00004FF4165344
:101130002DE9F34100262B4D2B4C00932B4A002325
:101140002B49284602F044FD28462A4D22462A49CA
:10115000DFF8E480294F03F0F9FA284603F0DAF8C3
:1011600022463946C5F800806E622846244D03F0B9
:10117000EDFA244B28462B60FFF75CFF2249281D1F
:1011800002F00CFC2846FFF77BFF22461F49284649
:1011900003F0DCFA1E491F48FFF739F81E4D1F49BE
:1011A0001F48FFF734F81F491F48FFF730F828465B
:1011B00003F0B0F8C5F800806E6228461B4D224649
:1011C000394603F0C3FA284603F0A4F8224628461D
:1011D000174B18496E622B6002B0BDE8F04103F076
:1011E000B5BA00BF100C0010C800001003C00920E1
:1011F00002C00920740C001059020000CD1000003C
:101200006C0C00104C7D00003FC009202510000030
:101210000BC00920B80B0010E80B00100AC0092011
:10122000A00B001005C00920D00B00109C0C001072
:101230004C8200000511000034810000034610B10B
:1012400007C983E80700704770474268816812F059
:10125000010F4FEA620203681CBF8858C358881800
:10126000184710B50446483002F084FFA06510BD51
:1012700038B500F148040546204602F07BFFE865DA
:101280002046BDE8384002F089BF08B5C16D806DC9
:1012900004F0B8FA08BD0000F0B50446002785B098
:1012A00004F1480502F056FE284602F085FF154E6F
:1012B00000F01EFB144B69462046009301970294F0
:1012C000039602F08BFE6846FFF7F8FE00F026FB5F
:1012D00000F00EFB0D4B694620468DE88800029415
:1012E000039602F0A1FE6846FFF7E8FE00F016FB49
:1012F00000232846E365A36502F010FF204605B0F1
:10130000F0BD00BF687D0000711200006312000094
:101310000748084A08B5121A002104F01AFF03F022
:10132000CEF904F04BFE03F0D1F903F011FA00BF3F
:10133000D0020010D42A0010022801DD03F072B997
:101340000120704708B5012003F002FA08B5FFF745
:10135000F9FF000030B50D68044C0268B5FBF4F3EA
:101360001A4404FB135302600B6030BD00CA9A3B61
:10137000426B806B101A18BF012070470120704724
:10138000034610B5826B016B501C9863885CDA6B66
:101390009C6B013AB4FBF2F102FB11429A6310BD5F
:1013A000034610B107C983E80700704770474268D9
:1013B000816812F0010F4FEA620203681CBF88586F
:1013C000C35888181847000030B500250446124B52
:1013D00085B003602A466946039502F061FF6846BE
:1013E000FFF76CFE012269462046039502F058FF84
:1013F0006846FFF763FE04F1400000F045F904F190
:10140000300000F041F9054B20462360FEF70CFF49
:10141000204605B030BD00BF007E000048810000BE
:1014200010B50446FFF7D0FF204603F0C4F920466C
:1014300010BD30B5044685B0051D284602F0F4F80D
:10144000F0B1626CA36C9A4210D0A36C226C591C50
:10145000A164D15CE36CA06C013BB0FBF3F203FB35
:1014600012032846A36402F005F9E6E700232046AC
:1014700001226946039302F013FF6846FFF71EFE40
:1014800005B030BD10B586B08DE80C00019B02920E
:101490000393064B04919DF8202002A9059302F0C6
:1014A000FFFE02A8FFF70AFE06B010BD747D000023
:1014B0007FB504461D464FF41653089E02F0E6FB26
:1014C00020460E4B294640F8303B00F0ECF806FB76
:1014D00005F104F1400000F0E6F8094B20460293C4
:1014E00000230393009304AB13E90C002146FFF79C
:1014F000C9FF20462565666504B070BD007E00000A
:101500006B15000070B5044686B0043002F08CF80C
:10151000C0B1002602AD012229462046059602F000
:10152000BFFE2846FFF7CAFD2046FFF782FF064BA5
:10153000039602930123009395E80C002146204670
:10154000FFF7A0FF06B070BD3314000043680268C7
:1015500010B55C1C4460D154C3684168013BB1FBC9
:10156000F3F203FB1213436010BD38B5051D0446AA
:10157000284602F053F838B1284602F035F8C1B2D7
:1015800004F13000FFF7E2FF38BD38B505460C46E0
:101590004030C9B2FFF7DAFF2846FFF7B3FF204615
:1015A00038BD2DE9F04107460C46B1B10D4600F1BA
:1015B00040082E4616F8011B21B14046FFF7C6FF32
:1015C0003546F6E70A214046FFF7C0FF2C1B384698
:1015D000FFF798FF601CBDE8F0810846BDE8F08188
:1015E0002DE9F04107460D4691B1A2B10E468C1887
:1015F00000F14008B44205D016F8011B4046FFF741
:10160000A5FFF7E73846FFF77DFF601BBDE8F081D7
:101610000846BDE8F0811046BDE8F0810EB42DE922
:10162000F04185B0026D02AFD31D23F00703ADEB8F
:10163000030D07F1240454F8048B02AE0546002183
:10164000304604F086FD2246414630467C6005F077
:10165000CFFD2B6D024683420CD200905D220848DC
:10166000084900F0CBF900200C37BD46BDE8F04139
:1016700003B0704731462846FFF7B2FFF4E700BFDA
:10168000BE7D0000807D000010B50446006808B1F2
:1016900003F084F8204610BD0021C26841608160DB
:1016A000006804F056BD38B5044608460D4603F000
:1016B00069F8E56020602046FFF7EEFF204638BD60
:1016C00070B50E460446154601F0A4FD013609D05A
:1016D0002046002101F0B8FD29462046BDE87040B3
:1016E00001F0AFBD70BD38B504460D4643685AB130
:1016F000C26820461360012101F0A6FD294620465C
:10170000BDE8384001F09DBD0269F2E70322FFF712
:10171000D7BF70B50E460446154601F07BFD013675
:1017200006D02A462046BDE870400221FFF7DBBF05
:1017300070BD0022FFF7EDBF004870472C7E00000F
:10174000014800F00CB800BF2C7E000038B50446FC
:101750000D4603681B68984763681D6038BD0368C1
:1017600070B5DB680446984763685A6823681AB9FD
:101770009B68BDE8704018475B68156898476368C8
:10178000281A00285A6807DC916859601B68002BEA
:10179000EAD050689847E7E7236810681B69BDE8FE
:1017A00070401847F8B506460C461F46154600F02F
:1017B0009FF80021706884E8A000436853B9A360D3
:1017C00079B9336844601B6928469847BDE8F840FA
:1017D00000F0A4B81A68AA1A002AF0DB19469B6820
:1017E000ECE78C60F2E738B505460C4600F080F86F
:1017F0006A685368A3420ED19B6853602A682BB96C
:1018000093689847BDE8384000F088B812691868B6
:101810009047F7E71346002BF4D09A689442F9D129
:10182000A2689A60EEE703685B68184710B5044643
:1018300001300DD110BD9C4209D12046896802F0CB
:10184000E9F82046BDE81040022102F0FCB80C3156
:101850000B685A1CEFD10248BDE8104000F0CEB82A
:10186000797E0000884208B508D0431C06D00131BB
:1018700006D0044800F0C2F84FF0FF31084608BD1A
:101880000146FBE7487E00000B685A1C01D1184650
:101890007047834201D1486870470C31F4E700007B
:1018A000421C10B5044607D0FFF7EEFF431C044668
:1018B00002D1024800F0A2F8204610BD597E000077
:1018C00000F04CB808B500F049F838B100F04EF817
:1018D00030B900F043F80028FBD108BD4FF0FF30CD
:1018E00008BDEFF31080C04300F001007047000016
:1018F00008B5FFF7F6FF72B6064B1A6822B980F0FA
:101900000100054AC0B210701A681A6801321A60E4
:1019100008BD00BFD00C0010CC0C001008B5074B60
:101920001A6852B1FFF7DDFF1A68013A1A601B68A6
:101930001BB9034B1B7803B962B608BDD00C00106D
:10194000CC0C001030B585B06D46182420462946D1
:10195000ABBE0446204605B030BD0000024B1868FF
:1019600000F00100704700BFF0ED00E037B540F235
:10197000051401AD20462946ABBE0446204603B0FF
:1019800030BD000000B599B0FFF7B2FF17496846B7
:10199000FFF7CFFE164906A8FFF7CBFE15490CA8A6
:1019A000FFF7C7FE144912A8FFF7C3FE019A039B75
:1019B00096201A60079A0A9B1A600D9A109B1A606B
:1019C000139A159B1A6002F07BFD019A049B9620E6
:1019D0001A60079A099B1A600D9A0F9B1A60139A56
:1019E000169B1A6002F06CFDE0E700BF32C00920D0
:1019F00034C0092035C0092037C009200FB40120A8
:101A000008B502F0A5FE01F02FBC000008B5024C9D
:101A100023689847FCE700BFCC00001008B50B48CE
:101A200000F09AFD0A4B18600A4800F095FD0A4B39
:101A300018600A4800F090FD094B186004F0BEFAE7
:101A4000BDE808400021084602F040BED87E0000F4
:101A50003C230010D47E0000DC0C0010D07E00007F
:101A6000D40C0010FFF7D2BF10B5044600F0D4FC30
:101A70002146BDE8104002460148FFF7BFBF00BF46
:101A8000987E000002F074BF0B4AF0B4C2F180539C
:101A900003F50043B3F5806F194628BF4FF480610A
:101AA000064F074D5B1A074C07489E183A602E6098
:101AB00023600160F0BC7047D82A00105820001045
:101AC000E40C001054200010E00C001000F028FE80
:101AD000FFF7DAFF0348002100F0C6FD00F01EFC0E
:101AE000FEE70000D0000010024B4FF0FF311868F5
:101AF00000F050BDDC0C0010014B186800F072BD06
:101B0000DC0C001030B502788C78013A4368D2B210
:101B100013B19D78A54207D2022A4B60416006D8D6
:101B200003B19960886030BD18465B68F0E7002318
:101B30008B6030BD436802785968013A022A4160DF
:101B40004FF0000205D809B188605A609A601846C3
:101B500070475A60FBE70000034B5A68426000225E
:101B600058608260704700BF302A0010104B10B5DB
:101B7000DA688AB19A8A8A42DC680CD3C460D86079
:101B8000C468036104B12061521A92B28282998AB8
:101B90008A1A9A8210BD3CB900248A1AC460D8609F
:101BA00003619A82848210BDA38A1A442346E2E725
:101BB000482A00102DE9F041174DEB6853B100267B
:101BC000AB8A164F013BDFF85880AB82AA8A0AB96C
:101BD000EC680CB9BDE8F081A36833B16168596065
:101BE000616809B18B606260A66021463846FFF7E4
:101BF00089FFA38AAB826378042B01BFD8F8003039
:101C0000E28A9B18A38201236370E368EB600BB147
:101C10001D61E6602661D9E7482A0010302A0010CD
:101C2000C42A001083682BB142685A6042685AB1D6
:101C300093607047054B5A68904202D142685A60DF
:101C400070471346002AF6D1704700BF302A0010B3
:101C500010B5846801462CB94378012B0DD1074C8F
:101C600003E0A4682378002BFBD00846FFF7DAFFD7
:101C70002046BDE81040FFF745BF10BD302A0010D8
:101C8000036910B563B1C268DA60C2684AB1998A63
:101C9000848A2144998213610023C3600023036175
:101CA00010BD9A82FAE7000070B4114BDD78EFF3B3
:101CB0001086EFF3108272B69A78954211D90132EC
:101CC0009A701A78541CA54208BF00241C7006B9EB
:101CD00062B6954207D970BC03EBC20358609960A5
:101CE0007047002EF4D070BC0220FFF7BDBE00BFCD
:101CF000B4220010054B1B7823B94FF08052044BDF
:101D00001A6070470122034B1A707047381D00108B
:101D100004ED00E0391D001038B51A4B1A4C186854
:101D200001234370FFF718FF6578A3783BB9174884
:101D30006570FFF7FFFEBDE8384000F0CBBD04EB57
:101D4000C503586802789AB9198900F00BFAE3784C
:101D500001359D4208BF0025EFF31083EFF3108299
:101D600072B6A278013AA270002BDED162B6DCE72F
:101D7000012A03D1996800F083F9E8E701F006F938
:101D8000E5E700BF7C2A0010B4220010302A0010C2
:101D9000084B4FF0FF301A68074B1A6000225A6058
:101DA000072243F8042C054A136843F07F4313606D
:101DB000704700BFF87E000014E000E020ED00E076
:101DC0007047000008B50B4B186801234370FFF7FC
:101DD000C3FE00F0FDF9084A136801331360FFF7F2
:101DE000E9FE00F0FFFC0548FFF7A4FEBDE808404F
:101DF00000F070BD7C2A0010C42A0010302A0010A8
:101E0000064B1A68136BD26A934203D81A68044BC4
:101E10009A4202D00120FFF727BE70477C2A0010AB
:101E2000A52E5AE2F0B54FF080764FF0000E836A8F
:101E3000056B9B0802BF1E4B1B889B0805EB8302AA
:101E4000540748BF043A02E94200A2F14004A2F15B
:101E50004406A2F10C0746F804EFBE42FBD1C66966
:101E600042F8206C41631249C4620968C90017D561
:101E7000112B15D96FF00701103B5B084B43A3F101
:101E800038010A444FF0CC30214691420BD108333F
:101E90001C44231F9D423CBF4FF0CC3344F8043C0C
:101EA000044B2B60F0BD41F8040C41F8080DECE741
:101EB000E07E0000A52E5AE2C36A19627047C36A29
:101EC00019625A627047002ABBBF22F000420732F3
:101ED000033222F00702A8BF22F0030210B5B4BFFC
:101EE00010230C2392B1D4188C420FD80144034420
:101EF000544241600360826021449818814202D3B9
:101F000000510346F9E70020186010BD012010BD04
:101F1000EFF3108372B6026803F001030AB111688F
:101F2000016003B962B61046704781420DD3436821
:101F300099420AD2EFF3108372B602680A60016018
:101F400013F0010003D162B67047012070470020F2
:101F50007047012303700023103989084370837090
:101F60004360038143818381C181704770B5858956
:101F700004461646002D38D043891A1D50F82220F9
:101F800001330A60C2899BB29A42438104BF002395
:101F900043814368F3B14378022B1BD1FFF7CAFD9D
:101FA00005460021FFF788FF2389E9691A1D44F8D7
:101FB00022100133E2899BB29A42238108BF002399
:101FC000284608BF2381FFF75BFE284600F09CFCF3
:101FD000002070BDEFF31080EFF3108372B6013D67
:101FE000A5810028F4D162B670BD4AB14268094BA0
:101FF00042B11968FFF786FD0821304600F0A6FCC3
:10200000012070BD1B6843605A60986001234370D3
:10201000F2E700BF7C2A0010C2898089101A70473D
:1020200008B5FFF741FEBDE80840FFF763BE8389AE
:1020300010B504460BB34389043350F823300B60CA
:102040004378022B04D10021FFF72EFEFFF752FE4A
:10205000EFF31083EFF3108272B6A289013AA281E6
:1020600003B962B66389E28901339BB29A42638104
:1020700001D100236381042010BD184610BD00006B
:10208000436870B504460E46002B4BD04578022DB0
:1020900020D0032D0AD0012D61D1FFF74BFD04465E
:1020A00032461021FFF70BFF65700EE00846FFF780
:1020B0002FFF0546002852D02046FFF73BFD29465A
:1020C0000446FFF7F9FE012363702046FFF7D8FDB1
:1020D000214622E0FFF72EFD05460021FFF7ECFE2A
:1020E0002389E9691A1D44F82210EFF31082EFF3F7
:1020F000108172B6A1890131A18102B962B6E2896B
:1021000001339BB29A42238104BF00232381012320
:1021100028466B70FFF7B4FD2946BDE870401048B3
:10212000FFF7F0BC8089E189884213D223891A1D08
:1021300044F82260EFF31082EFF3108572B601309D
:10214000A08102B962B601339BB2994208BF002355
:10215000238170BD0320BDE87040FFF785BC70BDD2
:10216000302A001010B5038B42781943062A044622
:102170000183438B15D133EA010219D121EA03010E
:1021800021832046FFF77CFD012320466370628B8C
:102190000821FFF794FE2146BDE810400548FFF7EF
:1021A000B1BC052A04D111EA030201D04283E5E75C
:1021B00010BD00BF302A00100022034B1A60034AF2
:1021C0001268DA80704700BF682A0010DC7E0000C9
:1021D00008B50E4B5A680E4B196891420D4905D04F
:1021E0001A60DA880868013A02449A8098880A8856
:1021F00090420AD1002205481A60FFF79BFCBDE817
:10220000084001460148FFF77DBC08BD302A001098
:10221000682A0010C42A001030B500240A4A136846
:1022200043B90360816013B19D68691A996044B134
:10223000206030BD9D68A942F3D31C46491B1B6832
:10224000EEE7106030BD00BF782A0010C0B1431C1B
:1022500011D00C4B984211D84FF47A710A4B1B687D
:102260005A1E01FB0020B0FBF3F34FF6FE708342D1
:1022700006D898B270474FF6FF7070474FF6FE7061
:10228000704700BF00093D00947E000038B183070D
:1022900004D10378002B18BF00207047002070473E
:1022A000B0B50E4D00AF2878A8B90D4C236893F84F
:1022B000241000F06DFB2368DA78FF2A03D1DA6A74
:1022C000203282F3098862680AB984E80C0000F0C1
:1022D00017FD01232B700020B0BD00BF752A001030
:1022E0007C2A0010014B1878704700BF752A001037
:1022F00010B5EFF3108434B9EFF305841CB9EFF394
:102300001484E40702D4034B187810BDDFF808C02A
:1023100000DF10BD752A0010E522000090B589B0DD
:1023200000AFEFF31083002B37D1EFF30583002BC1
:1023300033D1FFF7DDFF28B9194C246814B1646864
:1023400004B1A047EFF3148404F00304022C18D066
:10235000032C1CD0012C1ED007F1200484F3098823
:10236000104C2478E40710D5022484F31488BFF3BA
:102370004F8FBFF36F8FDFF830C000DF2437BD46CB
:1023800090BD084C2478E407F5D40324EDE7054C10
:102390002478E407EFD5FF20F0E78220EEE700BFC6
:1023A000642A0010C27E0000A122000070B50B4616
:1023B0001646024610B90024204670BD0068002869
:1023C000F9D0B2F90440E51CADB2062DF3D8D168BE
:1023D000C1B11269043444EA012100F017FB00285E
:1023E000E9D00A4B013853F82040094AE36A5A639E
:1023F000084B1B6843B19B6833B13146E07898477E
:10240000E063D9E70A46E5E7E663D5E778220010FE
:10241000B5250000642A001008B500F0B1FA18B123
:10242000024B013853F8200008BD00BF782200108D
:1024300010B5FFF72BFF044670B1084B1B681BB1AA
:10244000DB680BB1C06B9847E07800F035FBFF28E4
:102450000CBF8120002010BD802010BD642A001018
:1024600008B528B1FFF7F2FE00F08CFD402008BD52
:1024700008BD000010B5EFF3108434B9EFF3058404
:102480001CB9DFF80CC000DF10BD822010BD0000B9
:1024900061240000830705D138B1436901691B68D5
:1024A0001846704700231946FAE70346FBE7000089
:1024B00010B504460846DFF80CC000DF84E80300CE
:1024C000204610BD9524000010B548B1046824B121
:1024D000237823B9204600F059FC204610BD002087
:1024E00010BD70B510F0030405460E4611D180B141
:1024F0000378032B0DD10846FFF7A8FE01462846B6
:1025000000F012FD012806D1002E14BFC120812049
:1025100070BD802070BD204670BD820708B50AD10D
:1025200048B10378032B06D100F08EFCFF280CBFC6
:102530008120002008BD802008BD10B510F00304E4
:1025400007D130B10378032B03D100F027FC2046DC
:1025500010BD802010BD000070B50546EFF310845B
:1025600094B9EFF305867EB9EFF31484E40706D43B
:10257000064C24781CB9BDE87040FFF7A5BF28467B
:10258000DFF80CC000DF70BD002070BD752A0010A0
:10259000C924000010B5EFF3108434B9EFF30584BB
:1025A0001CB9DFF80CC000DF10BD822010BD000098
:1025B000E3240000084808B54FF0FF310068FFF73A
:1025C000E9FFDFF818C000DF0446FFF75BFA20469A
:1025D000DFF80CC000DFFEE7702A001019240000AD
:1025E0003124000010B5EFF3108434B9EFF3058403
:1025F0001CB9DFF80CC000DF10BD822010BD000048
:102600001B2500002DE9F04180460F461646EFF3EA
:10261000108404BBEFF30583D3B9EFF31483DB0716
:1026200006D40E4B1B781BB9BDE8F041FFF7BEBEC8
:102630000B4D4FF0FF312868FFF7ACFF404639469D
:102640003246DFF820C000DF04462868FFF7CAFFE3
:102650002046BDE8F0810024FAE700BF752A00108B
:10266000702A0010AD2300000022FFF7CBBF00004E
:1026700010B5EFF3108434B9EFF305841CB9DFF81B
:102680000CC000DF10BD822010BD00003B25000003
:1026900010B5044660B1016851B1406848B1037893
:1026A00033B90431890089B2FFF753FC606810BD6B
:1026B000002010BD38B5114C23780BB900F0A6FAF4
:1026C000FF220F4B25781B689A708DB929460D485B
:1026D000FFF7DEFF0C4B2A46186029460B48FFF730
:1026E00065FE0B4B18600B48FFF736FF0A4B18606E
:1026F000012300202370094B187038BD742A001084
:102700007C2A0010C87E000038230010E47E000000
:102710002C2A0010FC7E0000702A0010752A001080
:1027200010B5EFF3108474B9EFF305845CB9EFF3DF
:102730001484E40703D4BDE81040FFF7BBBFDFF803
:102740000CC000DF10BD822010BD0000B5260000C7
:102750002DE9FF410C46804618B30378012B25D1A3
:102760000846FFF773FD02A902464046FFF7FEFB4D
:10277000012811D10020002C0246034618BF40203A
:10278000029904460D4616461F4620462946324603
:102790003B4604B0BDE8F08100200246034610200D
:1027A000EEE78024054606460746EEE7002580242E
:1027B0002E462F46E9E770B50E461446054660B131
:1027C0005AB90378012B08D1FFF726FC38B1284607
:1027D0003146FFF725FC204670BD802070BD81206A
:1027E00070BD0000F8B5114E34682CB1A368104FCD
:1027F000013BA360A26802B1F8BD25682146386894
:102800003560FFF7D8FF10B10420FFF72DF9637989
:10281000012B07D1E1682046FFF7FEFC002DEBD02D
:102820002C46E7E701232371F8E700BF782A001060
:10283000382300107FB504461646084601B122B180
:1028400080232360204604B070BD0B78012BF7D1A4
:1028500002A9FFF7ECFB042808BF102301AD14BF49
:102860000196019395E8070084E80700EAE7000075
:1028700038B504461546EFF3108010B9EFF3058024
:1028800028B12A462046FFF7D5FF204638BD084626
:102890001146DFF80CC000DF84E80700F5E7000010
:1028A000512700007FB50A4C4FF0FF32216803A882
:1028B000FFF7DEFF039B102BF6D1049901A8FFF769
:1028C000F7FD019B002BEFD002989847ECE700BF83
:1028D00038230010054B586002234370044B1B68DB
:1028E0001BB11B690BB1C06B184770477C2A0010E5
:1028F000642A001008B50348FFF71CF9BDE808403A
:10290000FFF7E8BF302A001070B5044618B9BDE8DB
:102910007040FFF7EFBF0B4EA27830680125837837
:102920009A4208D9FFF718F9336820465D70BDE870
:102930007040FFF7CFBF65702146BDE87040024888
:10294000FFF7E0B87C2A0010302A001038B50D4699
:10295000014680B14FF6FF739842074C02D02068C1
:10296000FFF704F9236805485D70FFF7E3F8BDE859
:102970003840FFF7AFBF38BD7C2A0010302A001066
:10298000024B186800B1C078704700BF7C2A001065
:1029900010B5A8B9194B1B68997083F82410184812
:1029A00043689B788B4201D8002010BD134C2168EE
:1029B000FFF7A8F8012223685A70FFF79BFFF3E79F
:1029C000104B1B88984217D80F4B013853F8204002
:1029D00094B10A4BA1701B6884F824109C42DED08D
:1029E0002046FFF735F96378012BDDD10448FFF766
:1029F000A1F8FFF789FFD7E7FF2010BD7C2A001060
:102A0000302A0010C47E0000782200102DE9F04723
:102A10000D4611F0FF0F8046234816469A4608BF20
:102A20000135FFF775FA044620B94FF00009484612
:102A3000BDE8F08700211D4B06631B88280A1C4E49
:102A4000A0628B4201F10109EFD006EB890252F836
:102A5000042C0F464946002AF3D10123EDB284F835
:102A60000390C4F81CA0C4F838A022706370A5704D
:102A700084F824506260A260E26022612262A28235
:102A8000E2822283628384F8252018B90948FFF77F
:102A90003FFA206320464146FFF7C4F9204646F836
:102AA0002740FFF731FFC2E760260010C47E000018
:102AB00078220010682000102DE9F84F4D4D18B114
:102AC0002B68DB78984241D100232C680127637082
:102AD00001F081FFE062FFF793F92B68DFF82881AE
:102AE0001C6AA4B92A684449D3784448013B41F898
:102AF0002340116BFFF719FA296841480C63FFF76F
:102B000014FA2C60FFF7F6FE2046BDE8F88F6368E4
:102B1000B3B12046FFF70EF806460021FFF7CCF9C7
:102B20003046FFF7ADF8777031464046FEF7EAFFD2
:102B3000E368326A6780A660E26034621C46D0E7D0
:102B4000E2686380A360E3601446CAE72D4B1B88EC
:102B500098424DD8284B471E53F827609946002EBF
:102B600046D04FF0010A3046FFF75CF83046FFF7D9
:102B700087F8DFF894B0346AB4B9316B1F4849F86C
:102B80002740FFF7D2F9314634631D48FFF7CDF9EE
:102B90001D48296843689A788B789A42B4D90123F2
:102BA0004B70FEF7AFFFADE76368DBB12046FEF781
:102BB000C1FF80460021FFF77FF94046FFF760F82C
:102BC00088F801A041465846FEF79CFFE368D8F814
:102BD0002020A4F802A0C4F80880E260C8F82040D1
:102BE0001C46C9E7E2686380A360E3601446C3E75C
:102BF000FF2489E77C2A001078220010682000104A
:102C000060260010C47E0000302A001038B52C4B1E
:102C10002C491A880023184693424DD32A4B402250
:102C200019882A48FFF74FF9294B2A481A882A4B56
:102C300042F000421968FFF746F9284B082219882C
:102C4000274B284C1868FFF73EF9FF230025E37057
:102C5000012320486370A5622570A57084F8245074
:102C60006560A560E56025612562A582E582258312
:102C7000658384F82550FFF74BF91B4920632046F4
:102C8000FFF7D0F80422194B20461A705D60184BEC
:102C90001A70DD601D619D82164B1C6002236370FB
:102CA000FFF718FE144A154B12781D705D70DA702C
:102CB000BDE83840FFF780BA41F823000133ABE7A5
:102CC000C47E000078220010907E00006026001074
:102CD000E07E0000682000108C7E0000927E0000E4
:102CE000D80C0010842A0010651A0000302A001049
:102CF000482A00107C2A0010C17E0000B422001077
:102D000008B51E4B1A6842F47F021A601B681B024A
:102D100003F07F43DB43B3FA83F3194ADBB2126853
:102D2000C3F10803C2F30222934298BF531C6FF011
:102D30008072144802FA03F3016803F07F4321F024
:102D40007F4213430360FFF723F80F4B00281860FE
:102D500012DBFF22012100F1604000F564400270A7
:102D60001A6853099B0003F1604302F01F0203F548
:102D7000614301FA02F21A6008BD00BF20ED00E0D5
:102D80000CED00E01CED00E0602A0010032303704E
:102D90000023438043608360C3607047F8B5438875
:102DA00004469BB18068036A9C4228D1E3680362B1
:102DB00090F82430026A52BB82789A4206D083701F
:102DC0001F4B1B68984201D0FEF742FF01261D4FA2
:102DD000656825BB1B4843686BB1194E9A7831680A
:102DE0008B789A4207D9FEF78DFE01223368284678
:102DF0005A70FFF789FD00202070F8BD1346002BA4
:102E0000D6D0DA689442F9D1E268DA60D0E7516846
:102E100019B189788B4238BF0B46D268CBE7204680
:102E2000FEF788FE05460021FFF746F82846FEF724
:102E300027FF6E7029463846FEF764FEC8E700BFDC
:102E40007C2A0010302A00102DE9F84343880546FB
:102E5000002B63D0324F81683A6891425ED1013BCA
:102E60009BB243801BB100242046BDE8F8830B6A67
:102E7000984229D1C3680B6291F824300C6A5CBB7C
:102E80008B706A68DFF89C80002A3BD02846FEF7EA
:102E900051FE06464FF001092146FFF70DF8304676
:102EA000FEF7EEFE336A3968EB60D8F80430A5F817
:102EB0000290AE6035628A789B789A4214D330468D
:102EC000FFF722FDD0E71346002BD5D0DA689542F4
:102ED000F9D1EA68DA60CFE762681AB19278934272
:102EE00038BF1346E468CAE74046FEF70BFE31469A
:102EF0004046FEF707FE3B6883F8019086F8019094
:102F00002046DDE7D8F8042092789A42ABD94046B3
:102F1000FEF7F8FD01223B685A70F1E7FF24A3E7B2
:102F20007C2A0010302A0010438870B504460E46F3
:102F3000134D43B92A68116A8260C160106201337F
:102F40006380002070BD80682A689042F7D081B10C
:102F5000937882789A4202D28370FEF779FE626893
:102F60004AB129682046FEF7CDFD09213046FFF71A
:102F7000EDFC012070BD2B6863605A609C60F4E733
:102F80007C2A00100321FFF7E1BC0000426810B565
:102F90007AB1FEF7CFFD0446FEF772FE012120460E
:102FA0006170FEF789FF2146BDE810400348FEF737
:102FB000A9BD42880132428010BD00BF302A0010F6
:102FC0002DE9F74F4FF0010A3A4C3B4AD4F80490F0
:102FD000DFF8E8B0D4F80880676AA66AB9F1000F94
:102FE00015D1DFF8D490DFF8D4A0B8F1000F22D1CA
:102FF0004FF0010ADFF8C080DFF8C09077BB2E4F9A
:10300000DFF8B880002E3ED103B0BDE8F08FB9FAEA
:1030100089F5C5F11F05EDB252F8250028B101214F
:10302000DBF8003001929847019A0AFA05F5E5604D
:10303000A9EB0509D2E7B8FA88F5C5F11F05EDB28D
:1030400059F8250018B10221DAF800309847012319
:1030500003FA05F5E560A8EB0508C6E7B7FA87F5BA
:10306000C5F11F05EDB20F2D08D805F1200358F862
:10307000230018B10121D9F8003098470AFA05F564
:10308000E5627F1BBAE7B6FA86F5C5F11F05EDB21A
:103090000F2D08D805F1200357F8230018B102219D
:1030A000D8F800309847012303FA05F5E562761B4E
:1030B000A8E700BF808002404C1D00100C1E0010CD
:1030C00070B51E464B1C044622D0124B124D1A609E
:1030D00021F01F03036001F01F0321F05F01A942EB
:1030E000436002D00D48FEF789FC23686268AB425A
:1030F0000B4918BF203241F82260A260094915200F
:1031000000F0CEFC4FF40012074B00201A6070BD97
:10311000084670BD0C1E001000C00920007F000092
:103120004C1D0010C12F000000E100E0002182686A
:10313000014B43F8221070474C1D001030B5036856
:103140002C4DAB4209D02C4CA34217D0012930D1D1
:10315000AB420AD0A34219D030BD012344680129F3
:1031600003FA04F3254CE36030D10123406823497E
:10317000AAB10A69834013430B6130BD012344683F
:10318000012903FA04F31D4CE36216D101234068C0
:103190001A494AB10A6B834013430B6330BD0A6975
:1031A000834022EA0303E7E70A6B834022EA030332
:1031B000F3E7AB420AD0A342CED1012340680F49C6
:1031C00092B14A6B834013434B63C5E701234068C8
:1031D0000A4922B14A69834013434B6130BD4A69B1
:1031E000834022EA0303F8E74A6B834022EA0303A1
:1031F000EAE700BF00C0092040C0092080800240EB
:1032000010B50021044600F005FC012004F01F0465
:10321000A04010BD38B505464B1C0C4629600FD0A8
:103220000846FFF7EDFF24F01F0404F11803EB60DC
:1032300004F11C032B6104F1140368606B61AC6042
:1032400038BD006800F0FFBB11B1012907D07047FD
:1032500082684168136823EA01031360704782683B
:10326000416813680B43F8E708B5FEF72BFB002213
:10327000044BC3F8C020044A136923F0040313610C
:1032800030BF08BD00C00F4000ED00E0012810B4C1
:1032900008D0022808D010BC7047506820F0010008
:1032A000506010E003460EE038230F4803FB010393
:1032B0005868013006D018699C68046093F836306D
:1032C000002BEAD0002338225143074842184058C7
:1032D0000028E0D01BB992F83620002ADBD0034A40
:1032E0001946126810BC1047181E0010101E00105E
:1032F000034A00219068C0F34200FFF7C7BF00BF38
:1033000000C00040034A01219068C0F34200FFF76B
:10331000BDBF00BF00000140034A02219068C0F316
:103320004200FFF7B3BF00BF00800940034A0321FA
:103330009068C0F34200FFF7A9BF00BF00C009407A
:1033400070B50B46066829498E4222D006DCA1F5ED
:1033500080418E420CD000210C460BE024498E4265
:103360001AD001F580418E42F5D12249082401E0AE
:10337000052421499AB10125726805FA03F3134324
:103380007360204600F08CFB1C4B05FA04F41C60B3
:1033900070BD1B490624EDE71A490724EAE7012B13
:1033A0000AD042683820184900FB021292F8361001
:1033B00092F83520D14217D1012202FA03F0B3FA74
:1033C00083F371685B0921EA00017160716802FA98
:1033D00003F30B4208D1094B02FA04F4C3F880400E
:1033E000BFF34F8FBFF36F8F70BD00BF0000014070
:1033F000008009402D330000F132000000E100E0C0
:103400000533000019330000181E00102DE9F04F9D
:10341000644B046887B09C4200F08D806ADCA3F5A1
:1034200080439C4279D0604B0801D3F800C0BCFBBC
:10343000F0F293B200FB12C2002A00F0AA8001252C
:10344000E6469946AB464FF0000A019103910026EB
:103450004FEA4E030493DDF804804FEA8E03EFB287
:103460000593F3B20093049B002BABBF059BB3FB0A
:10347000F8F3B3FBF8F31B09A8BF5B090133C3F3EF
:103480004F03002B00F0888016B1012B08BF0223E8
:10349000A8195843C000BEFBF0F00130C1EB50004A
:1034A0000028B8BF40420290029A0398824262DA32
:1034B00091425AD10F2D07D1BB469946DDF800A0A5
:1034C0005F464B46CDF800A0217B41F0800121737F
:1034D000C3F30721DBB221712370009B43EA07127B
:1034E000D2B284F82820237B03F07F03237307B034
:1034F000BDE8F08F2D4B9C4229D003F580439C42C0
:1035000091D12B4BD3F8AC2122F44022C3F8AC214B
:10351000D3F8AC2142F4802224E0254BD3F8A82133
:1035200022F0C002C3F8A821D3F8A82142F040023B
:10353000C3F8A82177E71E4BD3F8A82122F44072E4
:10354000C3F8A821D3F8A82142F48072F0E7184B01
:10355000D3F8AC2122F44032C3F8AC21D3F8AC212B
:1035600042F48032C3F8AC215DE7BB469946029A2B
:10357000DDF800A003920136F3B2BB428844FFF4A9
:1035800070AF0F2D9CD0019B01350B44E644019395
:103590005DE70127009297E7002E0CBF012302236D
:1035A00076E700BF00000140E40000100080094001
:1035B00000C00F40034B1960382341684B43024958
:1035C000CA507047101E0010181E001030B431B9D8
:1035D00038254368034C05FB034383F8362030BC91
:1035E000FFF7AEBE181E001010B50268137DDB0792
:1035F000FCD5382443680848117804FB0303586855
:10360000C9B2013006D058699B680360536843F023
:1036100001035360084610BD181E00100368187D92
:1036200000F00100704700003821114A436801FB97
:103630000323DA69013209D01A6B1B6A12681A4235
:1036400014D10368187DC0F3801070470268127DA2
:10365000920604D50022012083F83420704793F8A5
:1036600034000F288CBF00200120704700207047D5
:10367000181E001038B504460D462046FFF7D4FF4B
:103680000028FAD038212368EDB21D706368044A1F
:1036900001FB032393F83420013283F8342038BD32
:1036A000181E00102DE9F84F9A463C4C0368054659
:1036B000A34218BF00248946904647681CB1237C6A
:1036C00003F03F03237438234FF0FF32344E284673
:1036D00003FB0763DA615A60002283F83520114644
:1036E000FFF72EFEB9F1000F55D02E494046FEF7E8
:1036F000CBF82D4983465046FEF7C6F8A9F10203E0
:10370000012B1BD8BAF1FF3F0BD0244B98420DD1AF
:1037100064B1237C244943F0800323745046FEF7B0
:1037200085F8B9F1030F0CD0BDE8F88F382000FB05
:10373000076051461C30FDF7E9FFF2E7B9F1010FD0
:1037400029D1B8F1FF3F01D1BDE8F88F07222B68DE
:103750001A72124B9B450AD14CB1237C404643F070
:10376000400323740F49BDE8F84FFEF75FB83824D3
:1037700004FB0760414600220430FDF7CAFF012226
:103780006B68284604FB036686F835200021BDE8F7
:10379000F84FFFF7D5BDBDE8F88F00BF000001402E
:1037A000181E0010547F0000307F00002DE9F0410A
:1037B0000F460546464938461646FEF771F8454914
:1037C00004463046FEF76CF801462046FEF74AF8FC
:1037D000414B0446984228605DD047D8A3F580430A
:1037E000984250D001234FF0000823724FF4165135
:1037F0002846C4F80480FFF709FE03222B683449E9
:103800001A733846FEF712F832493046FEF70EF8C2
:103810007A1C03D04146384600F015F9731C03D0DA
:103820000021304600F00FF92B4B9C424BD03ED884
:10383000A3F580439C4243D038216A68274B284631
:1038400001FB02324FF0FF3300215360D3611A466F
:10385000FFF728FF224B9C4206D10122214B6968C9
:103860001A602868204B03C3BDE8F0811F4B9842C3
:1038700017D003F580439842B4D11D4AD2F8C43022
:1038800043F0007304E01A4AD2F8C43043F008034E
:10389000C2F8C430A6E7164AD2F8C43043F0100389
:1038A000F6E7134AD2F8C43043F08073F0E70F4BC9
:1038B0009C420AD003F580439C42BDD1032300E023
:1038C00000236B60B8E70123FBE70223F9E700BFA1
:1038D000E47F0000787F000000000140181E001007
:1038E00000C00040141E0010C82A001000800940CB
:1038F00000C00F4008B5104B1868E0B901210F4A0D
:103900001960D2F8C43043F40003C2F8C430A2F501
:10391000D022106702200A4B1B6850600948B3FB95
:10392000F0F3013BD36004205160074900F0B8F880
:103930001022064B1A6008BDF81E001000C00F4090
:10394000E400001000093D004117000000E100E024
:1039500008B5044B1B680BB9FFF7CCFF024B986806
:1039600008BD00BFF81E001000400940034B9861DD
:103970005A6942F001025A61704700BF0040094095
:10398000024A536923F00103536170470040094024
:103990000122014B1A6070470040094070B50C4687
:1039A000164D064629462046FDF77AFF144B307027
:1039B000D3F8C420294642F48052C3F8C420D3F877
:1039C000A8212046BDE8704022F04072C3F8A8212B
:1039D000D3F8A82142F08072C3F8A821094B1A68D5
:1039E000094B1344094A93FBF2F3013B1B02084ABB
:1039F00043F400131360FDF719BF00BF50800000AF
:103A000000C00F40E40000103F5DC600405DC600EE
:103A10000040034010B5032400F16040A0F51C20D5
:103A200043000009800000F1804000F5303002685A
:103A300003F01E039C4022EA0402026002689940DF
:103A40001143016010BD00F16040A0F51C20430946
:103A50009B0003F1804303F5303330B500F01F02C3
:103A60009C6EC1F3800505FA02F224EA02049C660A
:103A70009C6E22439A6695B9032443000009800096
:103A800000F1804000F53030026C03F01E039C40D2
:103A900022EA04020264026C99401143016430BDC1
:103AA00030B50C4CA268A4681346B4F1805F0CD208
:103AB000131F094C094A53F8045F42F8045FA242FD
:103AC000F9D14FF08053034A9360103043F820102F
:103AD00030BD00BF00ED00E0C0000010FCFFFF0F94
:103AE0002022264BC3F8A021D3F8A021920603D5AB
:103AF000D3F8A0215006FBD50222C3F804210022EE
:103B00000120C3F8A821C3F8AC210B22C3F80C0193
:103B1000AA21C3F884205522C3F88C10C3F88C2046
:103B2000C3F88000C3F88C10C3F88C20134B1A46DE
:103B3000D3F888104901FBD50321C3F88010AA21CE
:103B4000C3F88C105521C3F88C10D2F8883013F0CC
:103B5000407FFAD00523C2F80831094BC2F8C430BF
:103B60000023C2F8C831136823F4704323F03A03EA
:103B700043F4405343F03A031360704700C00F40D2
:103B8000DE8728040368DB69184703685B69184708
:103B900003689B6A184700F03ABBA0F13000FFF7BA
:103BA000FABF00F037BBA0F13000FFF7FABF4FF0CB
:103BB000FF31443000F0FEBEA0F13000FFF7F7BF48
:103BC000443000F0FABEA0F13000FFF7F9BF00006A
:103BD00038B504461D46049B00F024FB294604F139
:103BE000300000F099F8064B04F1440003F108029C
:103BF00028332260236300F0C5FE204638BD00BF95
:103C0000BC80000010B5044643694168194400F0C7
:103C100095FB636A04F118001B68BDE81040184763
:103C20007FB506466D46FDF763FE304600F08CFB1F
:103C3000002306F11804AC4203930BD02046FDF795
:103C40003DFA3CB1039B1BB15B686946204698472F
:103C5000039B73622846FDF731FAFDF75FFE04B05F
:103C600070BD704710B50446024B0360FCF7DCFAE8
:103C7000204610BD4881000010B50446FFF7F2FF52
:103C8000204600F098FD204610BD000010B5044607
:103C900000F0C8FA014B2046236010BD48810000A7
:103CA00070477047F8B50E46036804469B6B8F1843
:103CB00035469847BD4207D0236815F8011B1B6C99
:103CC000204698470130F5D123682046DB6B9847A2
:103CD000A81BF8BDF8B50E46036804469B6B8F1809
:103CE00035469847BD4208D0236820465B6C98470C
:103CF000431C02D005F8010BF4E723682046DB6B78
:103D00009847A81BF8BD00207047002070477047F7
:103D100000207047002070471FB50446002200F0C5
:103D200077F8094B2246236000230849236101A844
:103D300003F032F8064901A802F088F8206100F08B
:103D40000AFD204604B010BDB0810000A081000033
:103D5000A481000010B50446054B0360006901F022
:103D6000BBFE044B2046236000F076F8204610BDD1
:103D7000B0810000608100000EB477B5044603688E
:103D800007AD55F8046B9B6B98472069019501F0CE
:103D90005DFF019A3146206902F0F2FB0546236877
:103DA0002046DB6B9847284603B0BDE8704003B05F
:103DB0007047884238B504460D460AD0FDF77EF9B3
:103DC0003CB1EB681BB15B68294620469847EB681D
:103DD000E360204638BD007B70470000036870B583
:103DE000044683B9094D4FF0FF312868FEF7D2FB36
:103DF00023682BB9261D02D0304600F0C3FD266093
:103E00002868FEF7EFFB206870BD00BF3C23001060
:103E100038B50E4B0446036000230D464360A16095
:103E200002730B48FFF7DAFF4FF0FF3100F0C2FDDD
:103E300055B1084B1A681C6062600548FFF7CEFF59
:103E400000F0BBFD204638BD6560F6E7008200004B
:103E5000001F0010FC1E001010B50446114B03603B
:103E60001148FFF7BBFF4FF0FF3100F0A3FDA3683F
:103E70002BB10E4A13689C420ED1636813600A4846
:103E8000FFF7ACFF00F099FD237B13B9204600F04B
:103E900095FC204610BD13465A689442FBD16268D7
:103EA0005A60ECE700820000001F0010FC1E0010AA
:103EB00010B50446FFF7D0FF204600F07CFC2046FA
:103EC00010BD0000F8B5074610480E46FFF786FF04
:103ED0004FF0FF3100F06EFD0D4B1C6864B1A5681A
:103EE0008DB132463946284602F0FBFF58B92846C4
:103EF00002F0EFFF864206D10448FFF76FFF00F0A3
:103F00005CFD2046F8BD6468E8E700BF001F0010B4
:103F1000FC1E00107047000010B50446074B40F827
:103F20001C3BFFF703F904F13800FDF7C7F804F173
:103F30002800FDF7C3F8204610BD00BF1082000026
:103F400010B50446FFF7E8FF204600F034FC204699
:103F500010BD00002DE9FF4105461C4B044645F805
:103F6000043B18220E462846002102F0F2F80023F6
:103F7000DFF86480164FE361236263626363636406
:103F8000694604F12800CDF800800397FFF711FF80
:103F90006846FDF793F8694604F13800CDF80080D3
:103FA0000397FFF706FF6846FDF788F82346094A9E
:103FB000314604F11C00FFF783F828463146FDF72F
:103FC000A5FB204604B0BDE8F08100BF10820000D0
:103FD0005C7D00007B400000153F00007FB50E4671
:103FE0000446FDF785FCF56804F128001C345DB13A
:103FF0003146FFF7DEFE012201212046FFF79EF841
:10400000FDF78CFC04B070BD054B69460093054B71
:104010000393FFF7CEFE6846FDF750F82A46EBE71C
:10402000153F00005C7D00007FB50E460446FDF79D
:104030005FFCF56804F138001C345DB13146FFF7D0
:10404000B8FE012202212046FFF778F8FDF766FC52
:1040500004B070BD054B69460093054B0393FFF711
:10406000A8FE6846FDF72AF82A46EBE7153F000050
:104070005C7D0000C3681B681847012908B502D0A1
:10408000022904D008BD2830FFF7F4FF08BD3830FE
:10409000FAE7002310B5036043600A7804462F2A2C
:1040A0000DD14A785AB1481C1946206023681A7805
:1040B0002F2A06D101332360FFF704FF60602046FA
:1040C00010BD002AF8D0013301312360EEE700680B
:1040D0007047406808B520B1FFF77DFE431E584287
:1040E000584108BD10B50446FFF7F3FF00B1606802
:1040F00010BD406808B520B1FFF76DFEB0FA80F042
:10410000400908BD10B50446FFF7F3FF00B1606831
:1041100010BD4068003018BF0120704710B504463C
:10412000FDF7E6FB23682BB9E068FDF77CFB012374
:1041300060602360BDE81040FDF7F0BB38B5054670
:10414000FDF7D6FB2C6824B1E868FDF76CFB6C68C2
:10415000041BFDF7E3FB204638BD38B50546FDF7E7
:10416000C7FB2846AC68FFF7E9FF0444FDF7D6FB20
:10417000204638BD08B5FFF7F0FF01F03BFA0249D1
:1041800001F040FB08BD00BF0024744908B5FFF7EB
:10419000E4FF4FF47A7390FBF3F008BD10B50446CA
:1041A000FDF7A6FBE068FDF73EFB00236060A3601F
:1041B000BDE81040FDF7B2BB002310B503604360BB
:1041C00083600446FDF7B8FAE0602046FFF7E6FF9B
:1041D000204610BD70477047704700EB011293698D
:1041E00002F10C001B68184770B505460E460446E0
:1041F00055F8043B1B68984728463146FFF706F9F7
:104200002368E6622046BDE870405B6818470430CA
:10421000FFF7EAB910B50C460430FFF72BFA204639
:1042200010BD00002DE9FF410F46002104469046D5
:10423000174A184E184DC362026041608160816167
:10424000816269460C3003950096FFF7B2FD68461F
:10425000FCF734FF694604F11C0003950096251D08
:10426000FFF7A7FD6846FCF729FF42463946284676
:10427000FFF79CFAE16A2846FFF7C8F8284622466D
:104280000649FFF797F9204604B0BDE8F08100BF6A
:1042900020820000D54100005C7D0000DB41000071
:1042A0002DE9FF4105468846164655F8043B04466D
:1042B0001B689847FDF71CFBD8F80C70300197B1CC
:1042C0000C3041462044FFF774FD01223146284658
:1042D000FFF77CF9FDF722FB236820465B689847CF
:1042E00004B0BDE8F081074B0C300093064B6946E3
:1042F00020440393FFF75DFD6846FCF7DFFE3A4676
:10430000E4E700BFD54100005C7D000003689B68C6
:1043100018470000074B10B503600023436083601B
:10432000C3600446FDF708FA03492061FDF70EFA61
:10433000204610BD388200000D43000003460A46A7
:10434000011D0069FDF72EBA011D0069FDF74BBA8A
:1043500010B50446024B0360FFF7F6FF204610BD80
:1043600038820000436A18301B68184710B50446AD
:10437000006930B1036861695B6A98470023236173
:1043800010BD6FF0150010BD30B40446006903681D
:104390009D6A1346AC460A46616930BC604730B43A
:1043A000044600690368DD6A1346AC460A46616943
:1043B00030BC6047036941691A681846126B1047A0
:1043C000036941691A681846526B104730B40446B5
:1043D000006903689D6B1346AC460A46616930BCB0
:1043E0006047036941691A681846D26B1047036930
:1043F00041691A681846126C1047036941691A68C6
:104400001846526C104770B50D460169044641B913
:1044100029680E6A00F114012846B04718B92561D1
:1044200070BD6FF0150070BD074B10B503600369D8
:1044300004460BB1FFF79AFF044B20462360FFF7B9
:104440000BFD204610BD00BF6082000060810000AF
:1044500010B50446FFF7E8FF204600F0ACF920460F
:1044600010BD0000002210B504461146FFF7D0FC35
:10447000034B2046236000232361636110BD00BF0E
:104480006082000001F0BABE01F016BF01F06ABE02
:1044900070B505464FF47A74FFF75AFA95FBF4F4B9
:1044A000002C064602DDFDF71CFA28B9FFF750FA8A
:1044B000801BA842FAD370BD204600F061FAF5E7F0
:1044C0004FF47A735843FFF7E3BF0000034B10B576
:1044D00003600446FFF7A8FF204610BDAC82000031
:1044E00008B5084B1B685BB907490848084AFFF73D
:1044F0005DF94FF41651BDE808400448FEF786BF49
:1045000008BD00BF141E001002C00920C82A0010F8
:1045100003C0092070470000022810B5044601DCE2
:10452000002010BD01F080FA092300220360094B2E
:10453000033C53F8240043F8242040B103681B696E
:104540009847041EECDA01F06FFA644204604FF001
:10455000FF3010BD381F0010F8B505460E46144652
:1045600001F062FA0923022D03600FDC124B1B6875
:104570000BB9FFF7B5FF35463719104EBD4215D0C0
:1045800015F8011B3046FFF775F8F7E70C4B033DB4
:1045900053F8250060B103682246DB68314698472E
:1045A000041E03DA01F040FA634203602046F8BDBE
:1045B0004FF0FF34FAE700BF141E0010C82A0010A5
:1045C000381F001070B504460D46164601F02CFA4F
:1045D0000923022C03600BDC0F4B1B680BB9FFF7A0
:1045E0007FFF0E48FFF700F801242870204670BDB9
:1045F0000B4B033C53F8240058B1036832469B68C8
:1046000029469847041EF1DA01F00EFA634203606E
:10461000ECE74FF0FF34E9E7141E0010C82A001041
:10462000381F001010B5044601F0FEF90923022CD2
:10463000036010DD0A4B033C53F8240040B10368CB
:104640009B699847041E08DA01F0EEF964420460A1
:104650004FF0FF3010BD012010BD002010BD00BF85
:10466000381F001070B504460D46164601F0DCF9FF
:104670000923022C03600BDD084B033C53F8240094
:1046800040B1036832462946BDE87040DB691847EF
:10469000002070BD4FF0FF3070BD00BF381F00100C
:1046A000022808B504DC4FF4005300204B6008BD1D
:1046B00001F0BAF9092303604FF0FF3008BD08B5D7
:1046C000FFF728FFFDF702FA08BD704708B5FFF7AE
:1046D000FCFFBDE80840FCF70FBB00000C4A10B51A
:1046E00013681844EFF30881884205D30C22094B64
:1046F0004FF0FF301A6010BD07490C6824B107491C
:10470000096821448842F1D21060184610BD00BFEC
:10471000E8000010D02A001054200010582000108B
:10472000094C08B523680546986801F08FFA23689C
:10473000D86801F08BFAFDF7C3F808B1FDF702F96C
:104740000DB1FDF71FF9FEE7EC00001001207047E6
:1047500008B5FFF7E5FF002102F067BA08B5FDF7DD
:10476000C3F908BD08B5FDF7C7F908BD10B501F0DC
:10477000ADFC044610B90248FDF740F9204610BDD3
:104780000F83000010B501F0A1FC044610B90248E7
:10479000FDF734F9204610BDF082000008B101F0A9
:1047A0009DBC704710B50446FFF790FE2046FFF70A
:1047B000F5FF204610BDFFF7F1BF000010B504461D
:1047C0000C48FFF70BFB4FF0FF3100F0F3F800232C
:1047D0001946094A52F82300A04208BF42F82310A4
:1047E0000133402BF6D10348FFF7F8FABDE810403B
:1047F00000F0E3B838200010381F00102DE9F3470F
:1048000089464E49064602F05AFB044628B9FFF78E
:1048100067FE204602B0BDE8F0874949304602F005
:104820004EFB18B9FFF75CFE0124F2E7454930461C
:1048300002F045FB18B9FFF753FE0224E9E701F047
:10484000F3F80923404F03604048FFF7C7FA4FF0E1
:10485000FF3100F0AFF80024B84657F82450002D7F
:1048600054D00134402CF8D101F0DEF81823036055
:104870003648FFF7B3FA00F0A0F80DE0314668467D
:10488000FFF707FC6846FFF744FC40B947F82400EF
:1048900001F0CAF8022303604FF0FF34B9E768461D
:1048A000FFF727FC20B16846FFF72CFC05463FE0E8
:1048B0006846FFF717FC824630B901F0B5F80223CD
:1048C000036047F824A0E7E71820FFF74FFF0646EC
:1048D000FFF7C8FD1E4B68463360FFF7F8FB29F46D
:1048E0008033024651463046FFF78DFD071E0BDA36
:1048F00001F09AF87F4207601EB1336830465B686A
:10490000984748F82450C7E7354611E04FF0FF3389
:104910000E4847F82430FFF761FA00F04EF833787C
:104920003A2BABD16A460B49304602F059FA009D4A
:10493000002DE6D048F8245003346AE734830000A1
:104940003B8300002C830000381F0010382000102B
:10495000AC820000A081000038B50446FFF706FDD8
:1049600005461CB1236820465B689847284638BD39
:10497000024B1B6803B11847704700BF5C20001052
:10498000FDF778BD38B5044600F108051022002176
:10499000284601F0DEFB204640F8045FFDF7DCFD11
:1049A000206010B90248FDF729F8204638BD00BF45
:1049B000438300000068FDF7EDBD0068FDF712BEFF
:1049C00010B504460068FDF753FE204610BD0000F8
:1049D00080F309887047EFF309807047684680F3D9
:1049E00009883F480078C00714BF0220032080F3E5
:1049F00014887047DFF8ECC0EFF305831B0618BF7F
:104A00006047EFF31483DB0708BF604700DF7047A0
:104A1000DFF8D4C0EFF305831B0618BF6047EFF340
:104A20001483DB0708BF604700DF7047EFF309809E
:104A3000816911F8021CF1B990E80F10E047EFF31B
:104A4000098C8CE80700294B93E8060091420FD0AF
:104A500039B12CE9F00FC1F82CC00CB4FDF7D0F936
:104A60000CBC1A60D2F82CC0BCE8F00F8CF309889B
:104A70006FF0020E704710B51D4A1268914209D8B6
:104A80001C4C54F8214090E80F10A047EFF3098C1C
:104A90008CE80F0010BDFDF73FF9144B93E80600BA
:104AA000914210D0EFF3098C2CE9F00FC1F82CC023
:104AB0000CB4FDF7A5F90CBC1A60D2F82CC0BCE808
:104AC000F00F8CF309886FF0020E7047FDF77AF94A
:104AD000FFF7E3BFFDF774F9FDF774F9FFF7DDBFEA
:104AE000C27E0000111F00002B1F00007C2A001056
:104AF00000000000FCFFFFFF0649074A074B9A42EF
:104B0000BEBF51F8040B42F8040BF8E70448804795
:104B1000044800473C850000C8000010CC0200108B
:104B2000E13A000011130000FEE7FEE7FEE7FEE7B2
:104B3000FEE7FEE7FEE7FEE7FEE7FEE781F0004165
:104B400002E000BF83F0004330B54FEA41044FEA72
:104B5000430594EA050F08BF90EA020F1FBF54EA0D
:104B6000000C55EA020C7FEA645C7FEA655C00F0A9
:104B7000E2804FEA5454D4EB5555B8BF6D420CDD7A
:104B80002C4480EA020281EA030382EA000083EAFD
:104B9000010180EA020281EA0303362D88BF30BD9D
:104BA00011F0004F4FEA01314FF4801C4CEA1131F3
:104BB00002D0404261EB410113F0004F4FEA033352
:104BC0004CEA133302D0524263EB430394EA050FDD
:104BD00000F0A780A4F10104D5F1200E0DDB02FA4C
:104BE0000EFC22FA05F2801841F1000103FA0EF2E0
:104BF000801843FA05F359410EE0A5F120050EF1A6
:104C0000200E012A03FA0EFC28BF4CF0020C43FAD6
:104C100005F3C01851EBE37101F0004507D54FF0E3
:104C2000000EDCF1000C7EEB00006EEB0101B1F533
:104C3000801F1BD3B1F5001F0CD349085FEA300079
:104C40004FEA3C0C04F101044FEA445212F5800F84
:104C500080F09A80BCF1004F08BF5FEA500C50F121
:104C6000000041EB045141EA050130BD5FEA4C0C04
:104C7000404141EB010111F4801FA4F10104E9D18D
:104C800091F0000F04BF01460020B1FA81F308BF84
:104C90002033A3F10B03B3F120020CDA0C3208DD50
:104CA00002F1140CC2F10C0201FA0CF021FA02F12B
:104CB0000CE002F11402D8BFC2F1200C01FA02F19B
:104CC00020FA0CFCDCBF41EA0C019040E41AA2BFC0
:104CD00001EB0451294330BD6FEA04041F3C1CDA88
:104CE0000C340EDC04F11404C4F1200220FA04F0A8
:104CF00001FA02F340EA030021FA04F345EA030152
:104D000030BDC4F10C04C4F1200220FA02F001FA13
:104D100004F340EA0300294630BD21FA04F0294695
:104D200030BD94F0000F83F4801306BF81F480112E
:104D30000134013D4EE77FEA645C18BF7FEA655CA1
:104D400029D094EA050F08BF90EA020F05D054EA73
:104D5000000C04BF1946104630BD91EA030F1EBF78
:104D60000021002030BD5FEA545C05D1400049417C
:104D700028BF41F0004130BD14F580043CBF01F56F
:104D8000801130BD01F0004545F0FE4141F4700155
:104D90004FF0000030BD7FEA645C1ABF1946104630
:104DA0007FEA655C1CBF0B46024650EA013406BF31
:104DB00052EA033591EA030F41F4002130BD00BFF0
:104DC00090F0000F04BF0021704730B54FF48064AD
:104DD00004F132044FF000054FF0000150E700BF2E
:104DE00090F0000F04BF0021704730B54FF480648D
:104DF00004F1320410F0004548BF40424FF000017A
:104E00003EE700BF42004FEAE2014FEA31014FEABC
:104E100002701FBF12F07F4393F07F4F81F060510B
:104E2000704792F0000F14BF93F07F4F704730B57A
:104E30004FF4607401F0004521F0004120E700BF0D
:104E400050EA010208BF704730B54FF000050AE094
:104E500050EA010208BF704730B511F0004502D595
:104E6000404261EB41014FF4806404F132045FEA97
:104E7000915C3FF4DCAE4FF003025FEADC0C18BF3C
:104E800003325FEADC0C18BF033202EBDC02C2F132
:104E9000200300FA03FC20FA02F001FA03FE40EAC4
:104EA0000E0021FA02F11444C1E600BF70B54FF0C4
:104EB000FF0C4CF4E06C1CEA11541DBF1CEA1355A6
:104EC00094EA0C0F95EA0C0F00F0DEF82C4481EA0E
:104ED000030621EA4C5123EA4C5350EA013518BF2E
:104EE00052EA033541F4801143F4801338D0A0FB1B
:104EF00002CE4FF00005E1FB02E506F00042E0FBC8
:104F000003E54FF00006E1FB03569CF0000F18BFCD
:104F10004EF0010EA4F1FF04B6F5007F64F5407475
:104F200004D25FEA4E0E6D4146EB060642EAC62108
:104F300041EA55514FEAC52040EA5E504FEACE2E75
:104F4000B4F1FD0C88BFBCF5E06F1ED8BEF1004F78
:104F500008BF5FEA500E50F1000041EB045170BDF4
:104F600006F0004646EA010140EA020081EA030138
:104F7000B4EB5C04C2BFD4EB0C0541EA045170BD34
:104F800041F480114FF0000E013C00F3AB8014F1AE
:104F9000360FDEBF002001F0004170BDC4F10004F7
:104FA000203C35DA0C341BDC04F11404C4F1200578
:104FB00000FA05F320FA04F001FA05F240EA0200D3
:104FC00001F0004221F0004110EBD37021FA04F609
:104FD00042EB06015EEA430E08BF20EAD37070BDC3
:104FE000C4F10C04C4F1200500FA04F320FA05F022
:104FF00001FA04F240EA020001F0004110EBD37024
:1050000041F100015EEA430E08BF20EAD37070BD93
:10501000C4F1200500FA05F24EEA020E20FA04F36C
:1050200001FA05F243EA020321FA04F001F000411B
:1050300021FA04F220EA020000EBD3705EEA430E8C
:1050400008BF20EAD37070BD94F0000F0FD101F0BB
:105050000046400041EB010111F4801F08BF013CF4
:10506000F7D041EA060195F0000F18BF704703F032
:105070000046520043EB030313F4801F08BF013DB9
:10508000F7D043EA0603704794EA0C0F0CEA135575
:1050900018BF95EA0C0F0CD050EA410618BF52EA2F
:1050A0004306D1D181EA030101F000414FF0000035
:1050B00070BD50EA410606BF1046194652EA430643
:1050C00019D094EA0C0F02D150EA013613D195EAB7
:1050D0000C0F05D152EA03361CBF104619460AD1FF
:1050E00081EA030101F0004141F0FE4141F4700109
:1050F0004FF0000070BD41F0FE4141F4780170BDF9
:1051000070B54FF0FF0C4CF4E06C1CEA11541DBF5D
:105110001CEA135594EA0C0F95EA0C0F00F0A7F85F
:10512000A4EB050481EA030E52EA03354FEA01318C
:1051300000F088804FEA03334FF0805545EA13139F
:1051400043EA12634FEA022245EA111545EA106567
:105150004FEA00260EF000419D4208BF964244F1FE
:10516000FD0404F5407402D25B084FEA3202B61A1D
:1051700065EB03055B084FEA32024FF480104FF4F1
:10518000002CB6EB020E75EB030E22BFB61A754665
:1051900040EA0C005B084FEA3202B6EB020E75EBF8
:1051A000030E22BFB61A754640EA5C005B084FEA60
:1051B0003202B6EB020E75EB030E22BFB61A75462D
:1051C00040EA9C005B084FEA3202B6EB020E75EB38
:1051D000030E22BFB61A754640EADC0055EA060EF9
:1051E00018D04FEA051545EA16754FEA06164FEA3C
:1051F000C30343EA52734FEAC2025FEA1C1CC0D1E8
:1052000011F4801F0BD141EA00014FF000004FF074
:10521000004CB6E711F4801F04BF01430020B4F135
:10522000FD0C88BFBCF5E06F3FF6AFAEB5EB030CED
:1052300004BFB6EB020C5FEA500C50F1000041EBEA
:10524000045170BD0EF0004E4EEA113114EB5C04B7
:10525000C2BFD4EB0C0541EA045170BD41F480118A
:105260004FF0000E013C90E645EA060E8DE60CEA92
:10527000135594EA0C0F08BF95EA0C0F3FF43BAFAF
:1052800094EA0C0F0AD150EA01347FF434AF95EA66
:105290000C0F7FF425AF104619462CE795EA0C0F4A
:1052A00006D152EA03353FF4FDAE1046194622E717
:1052B00050EA410618BF52EA43067FF4C5AE50EAF1
:1052C00041047FF40DAF52EA43057FF4EBAE12E7E1
:1052D0004FF0FF3C06E000BF4FF0010C02E000BFC2
:1052E0004FF0010C4DF804CD4FEA410C7FEA6C5CA5
:1052F0004FEA430C18BF7FEA6C5C1BD001B050EA48
:10530000410C0CBF52EA430C91EA030F02BF90EA32
:10531000020F0020704710F1000F91EA030F58BFF1
:10532000994208BF90422CBFD8176FEAE37040F053
:10533000010070474FEA410C7FEA6C5C02D150EAF1
:10534000013C07D14FEA430C7FEA6C5CD6D152EAAC
:10535000033CD3D05DF8040B704700BF8446104671
:1053600062468C461946634600E000BF01B5FFF770
:10537000B7FF002848BF10F1000F01BD4DF808ED40
:10538000FFF7F4FF0CBF012000205DF808FB00BF11
:105390004DF808EDFFF7EAFF34BF012000205DF86B
:1053A00008FB00BF4DF808EDFFF7E0FF94BF0120B8
:1053B00000205DF808FB00BF4DF808EDFFF7CEFFB9
:1053C00094BF012000205DF808FB00BF4DF808EDF8
:1053D000FFF7C4FF34BF012000205DF808FB00BFC9
:1053E0004FEA4102B2F1E04324BFB3F5001CDCF107
:1053F000FE5C0DD901F0004C4FEAC0024CEA50703F
:10540000B2F1004F40EB830008BF20F0010070476D
:1054100011F0804F21D113F13872BCBF01F0004070
:10542000704741F480114FEA5252C2F11802C2F1A2
:10543000200C10FA0CF320FA02F018BF40F0010023
:105440004FEAC1234FEAD32303FA0CFC40EA0C00D5
:1054500023FA02F34FEA4303CCE77FEA625307D112
:1054600050EA01331EBF4FF0FE4040F44000704749
:1054700001F0004040F0FE4040F40000704700BFE3
:1054800080F0004002E000BF81F0004142001FBFF9
:105490005FEA410392EA030F7FEA226C7FEA236C02
:1054A0006AD04FEA1262D2EB1363C1BFD2184140F7
:1054B00048404140B8BF5B42192B88BF704710F08D
:1054C000004F40F4000020F07F4018BF404211F030
:1054D000004F41F4000121F07F4118BF494292EA98
:1054E000030F3FD0A2F1010241FA03FC10EB0C00C4
:1054F000C3F1200301FA03F100F0004302D5494251
:1055000060EB4000B0F5000F13D3B0F1807F06D3FD
:1055100040084FEA310102F10102FE2A51D2B1F1F5
:10552000004F40EBC25008BF20F0010040EA0300EA
:105530007047490040EB000010F4000FA2F1010297
:10554000EDD1B0FA80FCACF1080CB2EB0C0200FA21
:105550000CF0AABF00EBC25052421843BCBFD0406F
:105560001843704792F0000F81F4000106BF80F4E9
:1055700000000132013BB5E74FEA41037FEA226CAC
:1055800018BF7FEA236C21D092EA030F04D092F077
:10559000000F08BF0846704790EA010F1CBF0020AB
:1055A000704712F07F4F04D1400028BF40F0004008
:1055B000704712F100723CBF00F50000704700F028
:1055C000004343F0FE4040F4000070477FEA22624F
:1055D00016BF08467FEA23630146420206BF5FEA20
:1055E000412390EA010F40F4800070474FF0000320
:1055F00004E000BF10F0004348BF40425FEA000CE7
:1056000008BF704743F0964301464FF000001CE08E
:1056100050EA010208BF70474FF000030AE000BFE4
:1056200050EA010208BF704711F0004302D5404222
:1056300061EB41015FEA010C02BF84460146002094
:1056400043F0B64308BFA3F18053A3F50003BCFAAF
:105650008CF2083AA3EBC25310DB01FA02FC63445C
:1056600000FA02FCC2F12002BCF1004F20FA02F263
:1056700043EB020008BF20F00100704702F1200256
:1056800001FA02FCC2F1200250EA4C0021FA02F2B7
:1056900043EB020008BF20EADC7070474FF0FF0CBC
:1056A0001CEAD0521EBF1CEAD15392EA0C0F93EAB7
:1056B0000C0F6FD01A4480EA010C400218BF5FEA59
:1056C00041211ED04FF0006343EA501043EA5111CC
:1056D000A0FB01310CF00040B1F5000F3EBF4900C6
:1056E00041EAD3715B0040EA010062F17F02FD2ACA
:1056F0001DD8B3F1004F40EBC25008BF20F00100AD
:10570000704790F0000F0CF0004C08BF49024CEAC3
:10571000502040EA51207F3AC2BFD2F1FF0340EA55
:10572000C250704740F400004FF00003013A5DDCC6
:1057300012F1190FDCBF00F000407047C2F1000207
:10574000410021FA02F1C2F1200200FA02FC5FEAF4
:10575000310040F1000053EA4C0308BF20EADC703E
:10576000704792F0000F00F0004C02BF400010F4B0
:10577000000F013AF9D040EA0C0093F0000F01F05D
:10578000004C02BF490011F4000F013BF9D041EA7F
:105790000C018FE70CEAD15392EA0C0F18BF93EA81
:1057A0000C0F0AD030F0004C18BF31F0004CD8D1AB
:1057B00080EA010000F00040704790F0000F17BF32
:1057C00090F0004F084691F0000F91F0004F14D078
:1057D00092EA0C0F01D142020FD193EA0C0F03D1D0
:1057E0004B0218BF084608D180EA010000F00040D3
:1057F00040F0FE4040F40000704740F0FE4040F4AE
:10580000400070474FF0FF0C1CEAD0521EBF1CEA4C
:10581000D15392EA0C0F93EA0C0F69D0A2EB03026A
:1058200080EA010C49024FEA402037D04FF0805304
:1058300043EA111143EA10130CF000408B4238BFC9
:105840005B0042F17D024FF4000C8B4224BF5B1AD7
:1058500040EA0C00B3EB510F24BFA3EB510340EA25
:105860005C00B3EB910F24BFA3EB910340EA9C00D3
:10587000B3EBD10F24BFA3EBD10340EADC001B0143
:1058800018BF5FEA1C1CE0D1FD2A3FF650AF8B42E7
:1058900040EBC25008BF20F0010070470CF0004CF4
:1058A0004CEA50207F32C2BFD2F1FF0340EAC2501F
:1058B000704740F400004FF00003013A37E792F0E0
:1058C000000F00F0004C02BF400010F4000F013A3E
:1058D000F9D040EA0C0093F0000F01F0004C02BF39
:1058E000490011F4000F013BF9D041EA0C0195E7A2
:1058F0000CEAD15392EA0C0F08D142027FF47DAF3B
:1059000093EA0C0F7FF470AF084676E793EA0C0F2A
:1059100004D14B023FF44CAF08466EE730F0004C28
:1059200018BF31F0004CCAD130F000427FF45CAFB8
:1059300031F000437FF43CAF5FE700BF4FF0FF3C26
:1059400006E000BF4FF0010C02E000BF4FF0010C79
:105950004DF804CD4FEA40024FEA41037FEA226C42
:1059600018BF7FEA236C11D001B052EA530C18BF64
:1059700090EA010F58BFB2EB030088BFC81738BFC9
:105980006FEAE17018BF40F0010070477FEA226CB7
:1059900002D15FEA402C05D17FEA236CE4D15FEAB3
:1059A000412CE1D05DF8040B704700BF84460846E7
:1059B0006146FFE70FB5FFF7C9FF002848BF10F1A8
:1059C000000F0FBD4DF808EDFFF7F4FF0CBF0120ED
:1059D00000205DF808FB00BF4DF808EDFFF7EAFF77
:1059E00034BF012000205DF808FB00BF4DF808ED32
:1059F000FFF7E0FF94BF012000205DF808FB00BF27
:105A00004DF808EDFFF7D2FF94BF012000205DF8AC
:105A100008FB00BF4DF808EDFFF7C8FF34BF0120B9
:105A200000205DF808FB00BF014B1868704700BFFD
:105A3000EC00001070B505460C4611B90026304642
:105A400070BD18B183690BB900F052F91F4B9C422D
:105A500032D16C68B4F90C30002BEFD021462846C7
:105A600000F042F8236B064633B1216A2846984776
:105A70000028B8BF4FF0FF36A3891B0603D5216964
:105A80002846FEF703FD616B41B104F144039942DE
:105A900002D02846FEF7FAFC00236363A16C21B113
:105AA0002846FEF7F3FC0023A36400F08DF90023E1
:105AB000A38100F08AF9C2E7054B9C4201D1AC6892
:105AC000C8E7044B9C4208BFEC68C3E7888300002A
:105AD000A883000068830000024B01461868FFF7A6
