:1000000000800010813F0000B13F0000B33F0000BE
:10001000B53F0000B73F0000B93F000000000000FE
:10002000000000000000000000000000B53E0000DD
:10003000BD3F0000000000001F3F0000553F0000D2
:10004000C33F0000C33F0000C33F0000C33F0000A8
:10005000C33F0000C33F0000C33F0000C33F000098
:10006000C33F0000C33F0000C33F0000C33F000088
:10007000C33F0000C33F0000C33F0000C33F000078
:10008000C33F0000C33F0000C33F0000C33F000068
:10009000C33F0000C33F0000C33F0000C33F000058
:1000A000C33F0000C33F0000C33F0000C33F000048
:1000B000C33F0000C33F0000C33F0000C33F000038
:1000C000C33F0000C33F0000C33F000010B5054C14
:1000D000237833B9044B13B10448AFF300800123F4
:1000E000237010BDC8020010000000004C77000013
:1000F0000C4B43B10C4810B50C49AFF300800C48D1
:10010000036823B910BD0A48036833B97047094B27
:10011000002BF7D0BDE810401847064B002BF5D058
:10012000184700BF000000004C770000CC02001010
:10013000C8020010000000007047000008B5002150
:10014000C06804F0E7FB014B186008BD30060010E2
:1001500008B50021406804F0DDFB014B186008BDC4
:10016000300600100368184708B10B680360704739
:1001700070474FF0FF31083003F060BE70B50D4C92
:10018000236883B90C4D4FF0FF31286801F03EFD24
:1001900023682BB9261D02D0304603F037FE2660B7
:1001A000286801F05BFD20684FF0FF31BDE870402A
:1001B00003F044BE14190010341D0010083003F081
:1001C00040BE10B5044603F03AFD204610BD0000C5
:1001D00010B50446034B40F8083B03F035FE2046BB
:1001E00010BD00BF2870000010B50446FFF7F0FFF7
:1001F000204603F024FD204610BD0000024B1A6982
:100200005B681360704700BF7003001070B50C4C42
:10021000236883B90B4D4FF0FF31286801F0F6FCDD
:1002200023682BB9261D02D0304603F0EFFD26606F
:10023000286801F013FD2068BDE8704003F001BE9E
:1002400014190010341D001038B504460D4618224C
:10025000002105F008FA2046294600F0A9FC2046B6
:1002600038BD000000000000114B70B5196804F0A3
:100270004FFB064620F0004004F008F80AA3D3E93B
:10028000002304F0D3FA003018BF012000214400FD
:1002900030464FF0010504F0F7FD00B9054644EA89
:1002A000050000F0030070BD9A9999999999C93F8A
:1002B00030060010044B1A695B681360034BDA6860
:1002C0005B681360704700BFFC020010E40200107E
:1002D000C36810B504460BB19B689847204610BD13
:1002E00038B505460446064B45F8183B02F058FF62
:1002F0002846FFF7EDFF204603F07AFA204638BD86
:100300008073000010B50446FFF7EAFF204603F0B3
:1003100096FC204610BD000010B50446024B036059
:10032000FFF7DEFF204610BD8074000070B5054663
:10033000074B064645F80C3B45B100F12C04AC4296
:1003400004D0103C2046FFF7C3FFF8E7304670BDED
:100350005474000010B50446FFF7E8FF204603F090
:100360006EFC204610BD000010B50446084B44301A
:1003700040F8443C203340F8143C03F065FD04F1A0
:10038000300003F0C1F82046FFF7D0FF204610BD33
:1003900010730000A0F13000E6E700BF38B5CB686D
:1003A00004460D460BB15B689847EB682046E36056
:1003B00038BD0000F0B5154685B006466846FFF723
:1003C000EDFF0E49284604F0ADFB6C4604F096FDA7
:1003D00006F11805A542074607D02846FFF778FF23
:1003E0001DB169462846FFF7D9FF3946304602F06D
:1003F000C3FE2046FFF76CFF05B0F0BD0024744932
:100400001FB50B4B6946DA685B680A4813600A4BF4
:10041000DA685B681360094B094A0093094B039340
:10042000FFF7C8FF6846FFF753FF05B05DF804FB10
:10043000E40200103406001070030010FD010000FB
:1004400052499D39387000001FB50B4B69461A6937
:100450005B680A4813600A4BDA685B681360094BF3
:10046000094A0093094B0393FFF7A4FF6846FFF77F
:100470002FFF05B05DF804FBE40200103406001005
:1004800070030010FD01000052499D3938700000D2
:1004900008B50020FFF7E8FE430803D0BDE8084098
:1004A000FFF708BFC30703D5BDE80840FFF7A8BFA3
:1004B000BDE80840FFF7C8BF2DE9F04F4FF07E5868
:1004C00000244FF07C5B89B010220021684605F0C3
:1004D000CAF8A74BA74A0493A74B04A9A7480793B8
:1004E000FFF768FF04A8FFF7F3FEA54B0493A54BA5
:1004F0000593A54800F0BFFAA44800F0BCFAA44850
:1005000000F0B9FA8146A34800F0B5FA0746A248C0
:1005100000F0B1FA0646A14800F0ADFA054648469B
:1005200003F0B4FE8CA3D3E9002303F04FFD8CA3AA
:10053000D3E9002304F028F804F096F982463846FF
:1005400003F0A4FE84A3D3E9002303F03FFD84A3BA
:10055000D3E9002304F018F804F086F90746304682
:1005600003F094FE7CA3D3E9002303F02FFD7CA3CA
:10057000D3E9002304F008F804F076F9064628468B
:1005800003F084FE74A3D3E9002303F01FFD74A3DA
:10059000D3E9002303F0F8FF04F066F9414605466D
:1005A000504604F07BFC002840F0A38021465046D2
:1005B00004F056FC00B1A2464146384604F06EFCF9
:1005C000002840F098802146384604F049FC00B1EC
:1005D00027464146304604F061FC002840F08D80FB
:1005E0002146304604F03CFC00B1264641462846F0
:1005F00004F054FCDFF8DC9158B92146284604F099
:100600002FFC00287BD15946284604F047FC0028DF
:1006100075D00125D9F80C30D9F804201A60594654
:10062000304604F03BFC5E4B00286FD04FF00109D0
:100630001A695B6813605B4E002D40F08580594657
:10064000384604F02BFC002865D0384603F01EFE27
:100650000022554B03F0BAFC02460B4603F0B8FCEF
:1006600004F002F93369726807462E461A60504654
:1006700003F00CFE00224C4B03F0A8FC0B46024694
:1006800003F0A6FC04F0F0F801904848FFF776FD6F
:10069000474802F03FF982464448FFF7B7FD454915
:1006A000504604F03FFA04F003FC43490246434835
:1006B00002F03CFF4248FFF75CFD3946414801F03B
:1006C000DDFE414803F0BDFB404B002E3ED0DA6812
:1006D0005B6813603E4BB9F1000F39D0DA685B6894
:1006E0006846136008AB03EB850555F8103C984746
:1006F000FFE6C24660E747466BE7464676E7D9F82D
:100700001030D9F8042000251A6088E7DA685B68A1
:10071000814613608FE75946384604F0A1FB68B163
:10072000384603F0B3FD10A3D3E9002304F092F898
:1007300020B1336972682E461A6003E0F36872686C
:1007400001261A60274692E7F368F3E71A69BFE7C4
:100750001A69C4E7AFF30080567DAEB6627FA93F49
:10076000E4A59BC420B0A23F9A9999999999D93F41
:1007700091040000A69BC43A387000008803001062
:10078000510100003D0100005C060010D003001084
:10079000C805001008050010680500104804001086
:1007A000D8040010A80400100000E03F2806001044
:1007B0002C06001000007A4444700000440300102E
:1007C000B0030010B4030010B8030010C004001000
:1007D000F00400103004001010B50446FFF7C4FD0B
:1007E000204603F02CFA204610BDA0F13000F3E7BC
:1007F00010B50446FFF790FD204603F020FA20468E
:1008000010BD00004FF4165373B5544D544C009373
:10081000544A00235449284602F086FC2246534994
:10082000284603F0E3F952495248FFF70DFD524EB6
:1008300052495348FFF708FD52495348534DFFF7BB
:1008400003FD5349304600F01DF93046514E224613
:10085000294603F0CBF95049304600F013F93046F1
:100860004E4E2246294603F0C1F94D49304600F06C
:1008700009F930464B4E2246294603F0B7F94A495A
:10088000304600F0FFF83046484E2246294603F035
:10089000ADF94749304600F0F5F83046454E22465E
:1008A000294603F0A3F94449304600F0EBF822460C
:1008B0002946304603F09AF940494148FFF7C4FC05
:1008C00040494148FFF7C0FC404D41494148FFF7CE
:1008D000BBFC414B28462B60FFF750FC3F49281DCD
:1008E00001F0DCFF2846FFF791FC28463C4D2246EC
:1008F0003C4903F07BF9284600263B4B40F8083B77
:1009000003F084FA281D394901F09AFD224638493E
:10091000284603F06BF9374D37493848FFF794FC08
:1009200037493848FFF790FC284602F043FF364B22
:100930006E622B602846354D2246354903F056F944
:10094000284602F037FF22462846324B32496E6273
:100950002B6002B0BDE8704003F048B914030010EA
:10096000C800001003C0092002C00920690300006C
:1009700032C00920300400105C06001034C0092089
:10098000D804001035C00920A80400101D0A00007A
:1009900040C00920D003001045C009200805001000
:1009A00044C00920C805001043C009206805001094
:1009B00042C009204804001041C009200BC0092092
:1009C000FC0200100AC00920E402001028060010F2
:1009D00005C00920700300101070000019C0092024
:1009E000B003001039010000287000001AC009206F
:1009F000D1010000880300103EC00920C00400108F
:100A00003FC00920F004001080730000340600107D
:100A1000E1020000807400001903000010B50446D4
:100A200002F0B4FD204610BD034610B107C983E8AB
:100A30000700704770474268816812F0010F4FEA63
:100A4000620203681CBF8858C3588818184710B53D
:100A50000446483002F0F2FBA06510BD38B500F145
:100A600048040546204602F0E9FBE8652046BDE85B
:100A7000384002F0EFBB08B5C16D806D04F006F997
:100A800008BD0000F0B50446002785B004F1480514
:100A900002F09AFD284602F0EBFB154E00F068F9D3
:100AA000144B69462046009301970294039602F086
:100AB000CFFD6846FFF70CFC00F070F900F058F924
:100AC0000D4B694620468DE888000294039602F09B
:100AD000E5FD6846FFF7FCFB00F060F900232846BF
:100AE000E365A36502F07DFB204605B0F0BD00BFC5
:100AF000547000005D0A00004F0A00000748084AD1
:100B000008B5121A002104F0AEFD03F028F804F035
:100B1000DFFC03F02BF803F06BF800BFC8020010F5
:100B2000CC240010022801DD02F0CCBF0120704768
:100B300008B5012003F05CF808B5FFF7F9FF70B5C0
:100B40000E460446154601F0E5FD013609D0204663
:100B5000002101F0F9FD29462046BDE8704001F072
:100B6000F0BD70BD38B504460D4643685AB1C26841
:100B700020461360012101F0E7FD29462046BDE82B
:100B8000384001F0DEBD0269F2E70322FFF7D7BF6C
:100B900070B50E460446154601F0BCFD013606D080
:100BA0002A462046BDE870400221FFF7DBBF70BD3A
:100BB0000022FFF7EDBF00000048704760700000A2
:100BC000014800F00CB800BF6070000038B5044662
:100BD0000D4603681B68984763681D6038BD03684D
:100BE00070B5DB680446984763685A6823681AB989
:100BF0009B68BDE8704018475B6815689847636854
:100C0000281A00285A6807DC916859601B68002B75
:100C1000EAD050689847E7E7236810681B69BDE889
:100C200070401847F8B506460C461F46154600F0BA
:100C30009FF80021706884E8A000436853B9A3605E
:100C400079B9336844601B6928469847BDE8F84085
:100C500000F0A4B81A68AA1A002AF0DB19469B68AB
:100C6000ECE78C60F2E738B505460C4600F080F8FA
:100C70006A685368A3420ED19B6853602A682BB9F7
:100C800093689847BDE8384000F088B81269186842
:100C90009047F7E71346002BF4D09A689442F9D1B5
:100CA000A2689A60EEE703685B68184710B50446CF
:100CB00001300DD110BD9C4209D12046896801F058
:100CC00035FE2046BDE81040022101F048BE0C313F
:100CD0000B685A1CEFD10248BDE8104000F091B8F3
:100CE000AD700000884208B508D0431C06D0013121
:100CF00006D0044800F085F84FF0FF31084608BDE3
:100D00000146FBE77C7000000B685A1C01D11846B5
:100D10007047834201D1486870470C31F4E7000006
:100D2000421C10B5044607D0FFF7EEFF431C0446F3
:100D300002D1024800F065F8204610BD8D70000019
:100D400000F04CB808B500F049F838B100F04EF8A2
:100D500030B900F043F80028FBD108BD4FF0FF3058
:100D600008BDEFF31080C04300F0010070470000A1
:100D700008B5FFF7F6FF72B6064B1A6822B980F085
:100D80000100054AC0B210701A681A6801321A6070
:100D900008BD00BFC8060010C406001008B5074B08
:100DA0001A6852B1FFF7DDFF1A68013A1A601B6832
:100DB0001BB9034B1B7803B962B608BDC806001007
:100DC000C406001030B585B06D461824204629466B
:100DD000ABBE0446204605B030BD0000024B18688B
:100DE00000F00100704700BFF0ED00E037B540F2C1
:100DF000051401AD20462946ABBE0446204603B08B
:100E000030BD0FB4012008B502F0F2FE00B599B074
:100E1000FFF7AEFF17496846FFF7CAFE164906A856
:100E2000FFF7C6FE15490CA8FFF7C2FE144912A829
:100E3000FFF7BEFE019A039B96201A60079A0A9B51
:100E40001A600D9A109B1A60139A159B1A6002F093
:100E500087FD019A049B96201A60079A099B1A60E5
:100E60000D9A0F9B1A60139A169B1A6002F078FD78
:100E7000E0E700BF32C0092034C0092035C0092096
:100E800037C0092001F070BC08B5024C23689847B0
:100E9000FCE700BFCC00001008B50B4800F098FE3E
:100EA0000A4B18600A4800F093FE0A4B18600A4883
:100EB00000F08EFE094B186004F00AFBBDE8084004
:100EC0000021084602F052BE0C710000341D0010D3
:100ED00008710000D406001004710000CC06001058
:100EE000FFF7D2BF10B5044600F0D2FD2146BDE8A1
:100EF000104002460148FFF784BF00BFCC700000DD
:100F000002F07ABF0B4AF0B4C2F1805303F50043FC
:100F1000B3F5806F194628BF4FF48061064F074D27
:100F20005B1A074C07489E183A602E6023600160E8
:100F3000F0BC7047D0240010501A0010DC060010DE
:100F40004C1A0010D806001000F026FFFFF7DAFF59
:100F50000348002100F0C4FE00F01CFDFEE7000085
:100F6000D0000010024B4FF0FF31186800F04EBE69
:100F7000D4060010014B186800F070BED4060010B3
:100F800030B502788C78013A4368D2B213B19D78BB
:100F9000A54207D2022A4B60416006D803B199608E
:100FA000886030BD18465B68F0E700238B6030BD79
:100FB000436802785968013A022A41604FF0000202
:100FC00005D809B188605A609A60184670475A601F
:100FD000FBE70000034B5A684260002258608260C1
:100FE000704700BF28240010104B10B5DA688AB192
:100FF0009A8A8A42DC680CD3C460D860C4680361F2
:1010000004B12061521A92B28282998A8A1A9A8213
:1010100010BD3CB900248A1AC460D86003619A826A
:10102000848210BDA38A1A442346E2E740240010BC
:101030002DE9F041174DEB6853B10026AB8A164FEE
:10104000013BDFF85880AB82AA8A0AB9EC680CB978
:10105000BDE8F081A36833B161685960616809B186
:101060008B606260A66021463846FFF789FFA38A3D
:10107000AB826378042B01BFD8F80030E28A9B185A
:10108000A38201236370E368EB600BB11D61E6602E
:101090002661D9E74024001028240010BC24001049
:1010A00083682BB142685A6042685AB193607047B6
:1010B000054B5A68904202D142685A607047134605
:1010C000002AF6D1704700BF2824001010B58468AC
:1010D00001462CB94378012B0DD1074C03E0A468DD
:1010E0002378002BFBD00846FFF7DAFF2046BDE847
:1010F0001040FFF745BF10BD28240010036910B54C
:1011000063B1C268DA60C2684AB1998A848A2144AC
:10111000998213610023C3600023036110BD9A828A
:10112000FAE7000070B4114BDD78EFF31086EFF3AF
:10113000108272B69A78954211D901329A701A7853
:10114000541CA54208BF00241C7006B962B6954223
:1011500007D970BC03EBC203586099607047002E3A
:10116000F4D070BC0220FFF7BDBE00BFAC1C001065
:10117000032303700023438043608360C360704790
:10118000F8B5438804469BB18068036A9C4228D125
:10119000E368036290F82430026A52BB82789A4274
:1011A00006D083701F4B1B68984201D0FFF78EFF5B
:1011B00001261D4F656825BB1B4843686BB1194E5E
:1011C0009A7831688B789A4207D9FFF7D9FE0122C5
:1011D000336828465A7000F0D3FE00202070F8BD16
:1011E0001346002BD6D0DA689442F9D1E268DA606F
:1011F000D0E7516819B189788B4238BF0B46D26865
:10120000CBE72046FFF7D4FE0546002100F0F6F8B4
:101210002846FFF773FF6E7029463846FFF7B0FE89
:10122000C8E700BF74240010282400102DE9F843FB
:1012300043880546002B63D0324F81683A6891425B
:101240005ED1013B9BB243801BB100242046BDE828
:10125000F8830B6A984229D1C3680B6291F8243055
:101260000C6A5CBB8B706A68DFF89C80002A3BD0FC
:101270002846FFF79DFE06464FF00109214600F083
:10128000BDF83046FFF73AFF336A3968EB60D8F8AB
:101290000430A5F80290AE6035628A789B789A4255
:1012A00014D3304600F06CFED0E71346002BD5D0A7
:1012B000DA689542F9D1EA68DA60CFE762681AB174
:1012C0009278934238BF1346E468CAE74046FFF776
:1012D00057FE31464046FFF753FE3B6883F80190C6
:1012E00086F801902046DDE7D8F8042092789A42EB
:1012F000ABD94046FFF744FE01223B685A70F1E744
:10130000FF24A3E77424001028240010438870B53C
:1013100004460E46134D43B92A68116A8260C160C3
:10132000106201336380002070BD80682A6890429B
:10133000F7D081B1937882789A4202D28370FFF716
:10134000C5FE62684AB129682046FFF719FE0921E7
:10135000304600F037FE012070BD2B6863605A6094
:101360009C60F4E774240010F0B54FF080764FF0E5
:10137000000E836A056B9B0802BF1E4B1B889B08EF
:1013800005EB8302540748BF043A02E94200A2F188
:101390004004A2F14406A2F10C0746F804EFBE4255
:1013A000FBD1C66942F8206C41631249C4620968E6
:1013B000C90017D5112B15D96FF00701103B5B0839
:1013C0004B43A3F138010A444FF0CC3021469142FF
:1013D0000BD108331C44231F9D423CBF4FF0CC333C
:1013E00044F8043C044B2B60F0BD41F8040C41F878
:1013F000080DECE714710000A52E5AE2C36A1962C9
:101400007047C36A19625A6270470000054B1B7827
:1014100023B94FF08052044B1A6070470122034BEE
:101420001A7070473017001004ED00E031170010FB
:1014300038B51A4B1A4C186801234370FFF7CAFDE0
:101440006578A3783BB917486570FFF7B1FDBDE833
:10145000384000F07BBD04EBC503586802789AB9A8
:10146000198900F0BBF9E37801359D4208BF0025DA
:10147000EFF31083EFF3108272B6A278013AA270F4
:10148000002BDED162B6DCE7012A03D1996800F0B7
:1014900033F9E8E700F0BAFFE5E700BF7424001075
:1014A000AC1C001028240010084B4FF0FF301A68C5
:1014B000074B1A6000225A60072243F8042C054AA1
:1014C000136843F07F431360704700BF2C71000026
:1014D00014E000E020ED00E07047000008B50B4B81
:1014E000186801234370FFF775FD00F0ADF9084A55
:1014F000136801331360FFF79BFD00F0AFFC054854
:10150000FFF756FDBDE8084000F020BD7424001030
:10151000BC24001028240010064B1A68136BD26AF2
:10152000934203D81A68044B9A4202D00120FFF775
:10153000D9BC704774240010A52E5AE2002ABBBF04
:1015400022F000420732033222F00702A8BF22F045
:10155000030210B5B4BF10230C2392B1D4188C42EF
:101560000FD8014403445442416003608260214427
:101570009818814202D300510346F9E70020186011
:1015800010BD012010BDEFF3108372B6026803F0A6
:1015900001030AB11168016003B962B610467047D1
:1015A00081420DD3436899420AD2EFF3108372B699
:1015B00002680A60016013F0010003D162B670474F
:1015C0000120704700207047012303700023103969
:1015D0008908437083704360038143818381C181A3
:1015E0007047000070B5858904461646002D38D036
:1015F00043891A1D50F8222001330A60C2899BB228
:101600009A42438104BF002343814368F3B1437886
:10161000022B1BD1FFF7CCFC05460021FFF7EEFEA5
:101620002389E9691A1D44F822100133E2899BB22B
:101630009A42238108BF0023284608BF2381FFF771
:101640005DFD284600F09CFC002070BDEFF310808B
:10165000EFF3108372B6013DA5810028F4D162B684
:1016600070BD4AB14268094B42B11968FFF788FC66
:101670000821304600F0A6FC012070BD1B684360C5
:101680005A60986001234370F2E700BF7424001091
:10169000C2898089101A704708B5FFF743FDBDE87D
:1016A0000840FFF7B3BE838910B504460BB34389E6
:1016B000043350F823300B604378022B04D100210F
:1016C000FFF730FDFFF7A2FEEFF31083EFF3108278
:1016D00072B6A289013AA28103B962B66389E2892E
:1016E00001339BB29A42638101D1002363810420BC
:1016F00010BD184610BD0000436870B504460E4684
:10170000002B4BD04578022D20D0032D0AD0012D7F
:1017100061D1FFF74DFC044632461021FFF771FE00
:1017200065700EE00846FFF72EFF0546002852D0F0
:101730002046FFF73DFC29460446FFF75FFE0123E4
:1017400063702046FFF7DAFC214622E0FFF730FC09
:1017500005460021FFF752FE2389E9691A1D44F866
:101760002210EFF31082EFF3108172B6A1890131DC
:10177000A18102B962B6E28901339BB29A42238108
:1017800004BF00232381012328466B70FFF7B6FCBA
:101790002946BDE870401048FFF7F2BB8089E18917
:1017A000884213D223891A1D44F82260EFF3108275
:1017B000EFF3108572B60130A08102B962B6013331
:1017C0009BB2994208BF0023238170BD0320BDE86E
:1017D0007040FFF787BB70BD2824001010B5038B45
:1017E00042781943062A04460183438B15D133EA14
:1017F000010219D121EA030121832046FFF77EFC73
:10180000012320466370628B0821FFF7FAFD214611
:10181000BDE810400548FFF7B3BB052A04D111EA23
:10182000030201D04283E5E710BD00BF2824001069
:101830000022034B1A60034A1268DA80704700BF27
:10184000602400101071000008B50E4B5A680E4B52
:10185000196891420D4905D01A60DA880868013A82
:1018600002449A8098880A8890420AD1002205484A
:101870001A60FFF79DFBBDE8084001460148FFF7ED
:101880007FBB08BD2824001060240010BC24001079
:1018900030B500240A4A136843B90360816013B16C
:1018A0009D68691A996044B1206030BD9D68A94265
:1018B000F3D31C46491B1B68EEE7106030BD00BF28
:1018C00070240010C0B1431C11D00C4B984211D8A9
:1018D0004FF47A710A4B1B685A1E01FB0020B0FBC3
:1018E000F3F34FF6FE70834206D898B270474FF676
:1018F000FF7070474FF6FE70704700BF00093D0053
:10190000C870000038B1830704D10378002B18BFDA
:101910000020704700207047B0B50E4D00AF28780A
:10192000A8B90D4C236893F8241000F06DFB2368D0
:10193000DA78FF2A03D1DA6A203282F309886268F2
:101940000AB984E80C0000F017FD01232B70002079
:10195000B0BD00BF6D24001074240010014B187836
:10196000704700BF6D24001010B5EFF3108434B938
:10197000EFF305841CB9EFF31484E40702D4034B9E
:10198000187810BDDFF808C000DF10BD6D2400100E
:101990005D19000090B589B000AFEFF31083002B04
:1019A00037D1EFF30583002B33D1FFF7DDFF28B9E3
:1019B000194C246814B1646804B1A047EFF314848F
:1019C00004F00304022C18D0032C1CD0012C1ED0D0
:1019D00007F1200484F30988104C2478E40710D51B
:1019E000022484F31488BFF34F8FBFF36F8FDFF8A7
:1019F00030C000DF2437BD4690BD084C2478E40792
:101A0000F5D40324EDE7054C2478E407EFD5FF2057
:101A1000F0E78220EEE700BF5C240010F6700000C3
:101A20001919000070B50B461646024610B900247D
:101A3000204670BD00680028F9D0B2F90440E51CCA
:101A4000ADB2062DF3D8D168C1B11269043444EAAD
:101A5000012100F017FB0028E9D00A4B013853F8A8
:101A60002040094AE36A5A63084B1B6843B19B68EC
:101A700033B13146E0789847E063D9E70A46E5E7B5
:101A8000E663D5E7701C00102D1C00005C240010DC
:101A900008B500F0B1FA18B1024B013853F8200034
:101AA00008BD00BF701C001010B5FFF72BFF0446E7
:101AB00070B1084B1B681BB1DB680BB1C06B98475A
:101AC000E07800F035FBFF280CBF8120002010BD1E
:101AD000802010BD5C24001008B528B1FFF7F2FE8D
:101AE00000F090FC402008BD08BD000010B5EFF3E9
:101AF000108434B9EFF305841CB9DFF80CC000DFA3
:101B000010BD822010BD0000D91A0000830705D146
:101B100038B1436901691B681846704700231946AC
:101B2000FAE70346FBE7000010B504460846DFF875
:101B30000CC000DF84E80300204610BD0D1B000030
:101B400010B548B1046824B1237823B92046FFF7C3
:101B50000FFB204610BD002010BD70B510F003042F
:101B600005460E4611D180B10378032B0DD10846EE
:101B7000FFF7A8FE01462846FFF7C8FB012806D15B
:101B8000002E14BFC120812070BD802070BD204672
:101B900070BD820708B50AD148B10378032B06D17E
:101BA000FFF744FBFF280CBF8120002008BD8020E8
:101BB00008BD10B510F0030407D130B10378032B32
:101BC00003D1FFF7DDFA204610BD802010BD0000D4
:101BD00070B50546EFF3108494B9EFF305867EB92E
:101BE000EFF31484E40706D4064C24781CB9BDE84E
:101BF0007040FFF7A5BF2846DFF80CC000DF70BDBE
:101C0000002070BD6D240010411B000010B5EFF3E3
:101C1000108434B9EFF305841CB9DFF80CC000DF81
:101C200010BD822010BD00005B1B0000084808B5F5
:101C30004FF0FF310068FFF7E9FFDFF818C000DF61
:101C40000446FFF75DF92046DFF80CC000DFFEE731
:101C500068240010911A0000A91A000010B5EFF3D3
:101C6000108434B9EFF305841CB9DFF80CC000DF31
:101C700010BD822010BD0000931B00002DE9F04133
:101C800080460F461646EFF3108404BBEFF305833E
:101C9000D3B9EFF31483DB0706D40E4B1B781BB9C3
:101CA000BDE8F041FFF7BEBE0B4D4FF0FF31286895
:101CB000FFF7ACFF404639463246DFF820C000DF70
:101CC00004462868FFF7CAFF2046BDE8F0810024DB
:101CD000FAE700BF6D24001068240010251A0000E8
:101CE0000022FFF7CBBF000010B5EFF3108434B92A
:101CF000EFF305841CB9DFF80CC000DF10BD8220B3
:101D000010BD0000B31B000010B5044660B10168AF
:101D100051B1406848B1037833B90431890089B2C0
:101D2000FFF752FC606810BD002010BD38B5114CA3
:101D300023780BB900F0A6FAFF220F4B25781B6819
:101D40009A708DB929460D48FFF7DEFF0C4B2A46E5
:101D5000186029460B48FFF765FE0B4B18600B48CF
:101D6000FFF736FF0A4B1860012300202370094B50
:101D7000187038BD6C24001074240010FC70000032
:101D8000301D001018710000242400103071000074
:101D9000682400106D24001010B5EFF3108474B99E
:101DA000EFF305845CB9EFF31484E40703D4BDE8D2
:101DB0001040FFF7BBBFDFF80CC000DF10BD822072
:101DC00010BD00002D1D00002DE9FF410C4680468E
:101DD00018B30378012B25D10846FFF773FD02A93C
:101DE00002464046FFF7FEFB012811D10020002CDF
:101DF0000246034618BF4020029904460D46164687
:101E00001F462046294632463B4604B0BDE8F081D5
:101E10000020024603461020EEE7802405460646D1
:101E20000746EEE7002580242E462F46E9E770B5E9
:101E30000E461446054660B15AB90378012B08D105
:101E4000FFF726FC38B128463146FFF725FC20462F
:101E500070BD802070BD812070BD0000F8B5114EAE
:101E600034682CB1A368104F013BA360A26802B193
:101E7000F8BD2568214638683560FFF7D8FF10B1F6
:101E80000420FFF72FF86379012B07D1E168204682
:101E9000FFF7FEFC002DEBD02C46E7E70123237172
:101EA000F8E700BF70240010301D00107FB5044615
:101EB0001646084601B122B180232360204604B0B3
:101EC00070BD0B78012BF7D102A9FFF7ECFB0428BA
:101ED00008BF102301AD14BF0196019395E80700D8
:101EE00084E80700EAE7000038B504461546EFF33A
:101EF000108010B9EFF3058028B12A462046FFF77D
:101F0000D5FF204638BD08461146DFF80CC000DF7B
:101F100084E80700F5E70000C91D00007FB50A4C02
:101F20004FF0FF32216803A8FFF7DEFF039B102B61
:101F3000F6D1049901A8FFF7F7FD019B002BEFD024
:101F400002989847ECE700BF301D0010054B586021
:101F500002234370044B1B681BB11B690BB1C06BA0
:101F600018477047742400105C24001008B503481B
:101F7000FFF71EF8BDE80840FFF7E8BF282400106F
:101F800070B5044618B9BDE87040FFF7EFBF0B4EBF
:101F9000A2783068012583789A4208D9FFF71AF8A9
:101FA000336820465D70BDE87040FFF7CFBF6570B5
:101FB0002146BDE870400248FEF7E2BF74240010DD
:101FC0002824001038B50D46014680B14FF6FF7346
:101FD0009842074C02D02068FFF706F823680548AE
:101FE0005D70FEF7E5FFBDE83840FFF7AFBF38BDD5
:101FF0007424001028240010024B186800B1C07827
:10200000704700BF7424001010B5A8B9194B1B68A5
:10201000997083F82410184843689B788B4201D844
:10202000002010BD134C2168FEF7AAFF012223688F
:102030005A70FFF79BFFF3E7104B1B88984217D8A5
:102040000F4B013853F8204094B10A4BA1701B6824
:1020500084F824109C42DED02046FFF737F86378DE
:10206000012BDDD10448FEF7A3FFFFF789FFD7E777
:10207000FF2010BD7424001028240010F870000008
:10208000701C00102DE9F0470D4611F0FF0F80463F
:10209000234816469A4608BF0135FFF774FA0446EE
:1020A00020B94FF000094846BDE8F08700211D4BDC
:1020B00006631B88280A1C4EA0628B4201F10109AD
:1020C000EFD006EB890252F8042C0F464946002A4D
:1020D000F3D10123EDB284F80390C4F81CA0C4F836
:1020E00038A022706370A57084F824506260A260EA
:1020F000E26022612262A282E2822283628384F809
:10210000252018B90948FFF73EFA206320464146CA
:10211000FFF72AF9204646F82740FFF731FFC2E7CC
:1021200058200010F8700000701C0010601A001099
:102130002DE9F84F4D4D18B12B68DB78984241D10D
:1021400000232C680127637001F089FEE062FFF72D
:10215000E3F92B68DFF828811C6AA4B92A6844498E
:10216000D3784448013B41F82340116BFFF718FA3C
:10217000296841480C63FFF713FA2C60FFF7F6FE5D
:102180002046BDE8F88F6368B3B12046FEF710FF24
:1021900006460021FFF732F93046FEF7AFFF7770B1
:1021A00031464046FEF7ECFEE368326A6780A6607F
:1021B000E26034621C46D0E7E2686380A360E360BB
:1021C0001446CAE72D4B1B8898424DD8284B471E12
:1021D00053F827609946002E46D04FF0010A30464A
:1021E000FEF75EFF3046FEF789FFDFF894B0346AF1
:1021F000B4B9316B1F4849F82740FFF7D1F9314690
:1022000034631D48FFF7CCF91D48296843689A7864
:102210008B789A42B4D901234B70FEF7B1FEADE73B
:102220006368DBB12046FEF7C3FE80460021FFF75E
:10223000E5F84046FEF762FF88F801A0414658469F
:10224000FEF79EFEE368D8F82020A4F802A0C4F8A8
:102250000880E260C8F820401C46C9E7E268638055
:10226000A360E3601446C3E7FF2489E774240010E9
:10227000701C0010601A001058200010F870000048
:102280002824001038B52C4B2C491A8800231846F6
:1022900093424DD32A4B402219882A48FFF74EF922
:1022A000294B2A481A882A4B42F000421968FFF746
:1022B00045F9284B08221988274B284C1868FFF746
:1022C0003DF9FF230025E370012320486370A562D8
:1022D0002570A57084F824506560A560E5602561CF
:1022E0002562A582E5822583658384F82550FFF762
:1022F0004AF91B4920632046FFF736F80422194BA0
:1023000020461A705D60184B1A70DD601D619D8259
:10231000164B1C6002236370FFF718FE144A154B1E
:1023200012781D705D70DA70BDE83840FFF780BA32
:1023300041F823000133ABE7F8700000701C001077
:10234000C47000005820001014710000601A0010C2
:10235000C0700000C6700000D00600107C24001081
:10236000E10E000028240010402400107424001006
:10237000F5700000AC1C001008B51E4B1A6842F442
:102380007F021A601B681B0203F07F43DB43B3FA32
:1023900083F3194ADBB21268C3F10803C2F30222C5
:1023A000934298BF531C6FF08072144802FA03F3F3
:1023B000016803F07F4321F07F4213430360FFF77E
:1023C00073F80F4B0028186012DBFF22012100F187
:1023D000604000F5644002701A6853099B0003F1E5
:1023E000604302F01F0203F5614301FA02F21A6032
:1023F00008BD00BF20ED00E00CED00E01CED00E0AA
:10240000582400100321FFF7DDBD0000426810B51D
:102410007AB1FEF7CDFD0446FEF770FE012120469D
:102420006170FEF7EBFF2146BDE810400348FEF760
:10243000A7BD42880132428010BD00BF2824001091
:1024400070B50C460A4D064629462046FEF768FC44
:10245000084A3070D2F8A831294623F44003C2F864
:10246000A8312046FEF722FC0022034B1A6070BD03
:102470003471000000C00F4000C0084038B50D4660
:102480000021284602F0ECFC0B4C10B10023236025
:1024900038BD4FF07E51284602F000FD10B14FF6D6
:1024A000C073F4E70549284602F03CFB02F000FD4A
:1024B000800180B2206038BD00C0084000C07F4469
:1024C0002DE9F74F4FF0010A3A4C3B4AD4F80490FB
:1024D000DFF8E8B0D4F80880676AA66AB9F1000F9F
:1024E00015D1DFF8D490DFF8D4A0B8F1000F22D1D5
:1024F0004FF0010ADFF8C080DFF8C09077BB2E4FA5
:10250000DFF8B880002E3ED103B0BDE8F08FB9FAF5
:1025100089F5C5F11F05EDB252F8250028B101215A
:10252000DBF8003001929847019A0AFA05F5E56058
:10253000A9EB0509D2E7B8FA88F5C5F11F05EDB298
:1025400059F8250018B10221DAF800309847012324
:1025500003FA05F5E560A8EB0508C6E7B7FA87F5C5
:10256000C5F11F05EDB20F2D08D805F1200358F86D
:10257000230018B10121D9F8003098470AFA05F56F
:10258000E5627F1BBAE7B6FA86F5C5F11F05EDB225
:102590000F2D08D805F1200357F8230018B10221A8
:1025A000D8F800309847012303FA05F5E562761B59
:1025B000A8E700BF808002404417001004180010F4
:1025C00070B51E464B1C044622D0124B124D1A60A9
:1025D00021F01F03036001F01F0321F05F01A942F6
:1025E000436002D00D48FEF70CFC23686268AB42E2
:1025F0000B4918BF203241F82260A260094915201A
:1026000000F0FAFC4FF40012074B00201A6070BD76
:10261000084670BD0418001000C009204C7100006D
:1026200044170010C124000000E100E0002182688E
:10263000014B43F8221070474417001030B503686F
:102640002C4DAB4209D02C4CA34217D0012930D1DC
:10265000AB420AD0A34219D030BD012344680129FE
:1026600003FA04F3254CE36030D101234068234989
:10267000AAB10A69834013430B6130BD012344684A
:10268000012903FA04F31D4CE36216D101234068CB
:102690001A494AB10A6B834013430B6330BD0A6980
:1026A000834022EA0303E7E70A6B834022EA03033D
:1026B000F3E7AB420AD0A342CED1012340680F49D1
:1026C00092B14A6B834013434B63C5E701234068D3
:1026D0000A4922B14A69834013434B6130BD4A69BC
:1026E000834022EA0303F8E74A6B834022EA0303AC
:1026F000EAE700BF00C0092040C0092080800240F6
:1027000010B50021044600F011F9012004F01F0467
:10271000A04010BD38B505464B1C0C4629600FD0B3
:102720000846FFF7EDFF24F01F0404F11803EB60E7
:1027300004F11C032B6104F1140368606B61AC604D
:1027400038BD006800F00BB911B1012907D07047FE
:1027500082684168136823EA010313607047826846
:10276000416813680B43F8E708B5FEF7EBFA00225F
:10277000044BC3F8C020044A136923F00403136117
:1027800030BF08BD00C00F4000ED00E008B5104BA1
:102790001868E0B901210F4A1960D2F8C43043F437
:1027A0000003C2F8C430A2F5D022106702200A4B01
:1027B0001B6850600948B3FBF0F3013BD360042071
:1027C0005160074900F018FC1022064B1A6008BD42
:1027D0000818001000C00F40E400001000093D0080
:1027E000C10B000000E100E008B5044B1B680BB909
:1027F000FFF7CCFF024B986808BD00BF0818001017
:1028000000400940034B98615A6942F001025A6145
:10281000704700BF00400940024A536923F001039A
:1028200053617047004009400122014B1A60704714
:10283000004009400C4B00781A6822F0FF021A6031
:102840000122196882400A431A601A6842F08072B5
:102850001A6058680028FCDA1A68C0F30B1022F0DE
:1028600080721A60704700BF0040034070B5064692
:10287000FFF7E0FF04463046FFF7DCFF0546304631
:10288000FFF7D8FFAC4282BF23462C461D46A84224
:1028900028BF2846A04238BF204670BD70B50C4600
:1028A000164D064629462046FEF73AFA144B30707C
:1028B000D3F8C420294642F48052C3F8C420D3F888
:1028C000A8212046BDE8704022F04072C3F8A8213C
:1028D000D3F8A82142F08072C3F8A821094B1A68E6
:1028E000094B1344094A93FBF2F3013B1B02084ACC
:1028F00043F400131360FEF7D9B900BF7C710000E8
:1029000000C00F40E40000103F5DC600405DC600FF
:102910000040034008B5FFF7A9FF02F0ABF80249F9
:1029200002F000F908BD00BF0108803910B503248A
:1029300000F16040A0F51C2043000009800000F178
:10294000804000F53030026803F01E039C4022EA0C
:1029500004020260026899401143016010BD00F159
:102960006040A0F51C2043099B0003F1804303F560
:10297000303330B500F01F029C6EC1F3800505FABC
:1029800002F224EA02049C669C6E22439A6695B980
:10299000032443000009800000F1804000F530303E
:1029A000026C03F01E039C4022EA04020264026CE3
:1029B00099401143016430BD012810B408D00228A9
:1029C00008D010BC7047506820F00100506010E043
:1029D00003460EE038230F4803FB0103586801301B
:1029E00006D018699C68046093F83630002BEAD052
:1029F0000023382251430748421840580028E0D0AD
:102A00001BB992F83620002ADBD0034A1946126817
:102A100010BC1047141800100C180010034A0021B5
:102A20009068C0F34200FFF7C7BF00BF00C000407E
:102A3000034A01219068C0F34200FFF7BDBF00BF09
:102A400000000140034A02219068C0F34200FFF7F2
:102A5000B3BF00BF00800940034A03219068C0F360
:102A60004200FFF7A9BF00BF00C0094070B50B4688
:102A7000066829498E4222D006DCA1F580418E42AB
:102A80000CD000210C460BE024498E421AD001F5EF
:102A900080418E42F5D12249082401E005242149D4
:102AA0009AB10125726805FA03F313437360204657
:102AB00000F0A2FA1C4B05FA04F41C6070BD1B491F
:102AC0000624EDE71A490724EAE7012B0AD04268F9
:102AD0003820184900FB021292F8361092F835207F
:102AE000D14217D1012202FA03F0B3FA83F37168DD
:102AF0005B0921EA00017160716802FA03F30B427D
:102B000008D1094B02FA04F4C3F88040BFF34F8F99
:102B1000BFF36F8F70BD00BF00000140008009400F
:102B2000592A00001D2A000000E100E0312A0000BF
:102B3000452A0000141800102DE9F04F644B04687A
:102B400087B09C4200F08D806ADCA3F580439C42F4
:102B500079D0604B0801D3F800C0BCFBF0F293B20F
:102B600000FB12C2002A00F0AA800125E646994621
:102B7000AB464FF0000A0191039100264FEA4E0345
:102B80000493DDF804804FEA8E03EFB20593F3B2AD
:102B90000093049B002BABBF059BB3FBF8F3B3FB87
:102BA000F8F31B09A8BF5B090133C3F34F03002BE4
:102BB00000F0888016B1012B08BF0223A8195843E2
:102BC000C000BEFBF0F00130C1EB50000028B8BFE0
:102BD00040420290029A0398824262DA91425AD1AC
:102BE0000F2D07D1BB469946DDF800A05F464B4646
:102BF000CDF800A0217B41F080012173C3F30721B0
:102C0000DBB221712370009B43EA0712D2B284F831
:102C10002820237B03F07F03237307B0BDE8F08FE8
:102C20002D4B9C4229D003F580439C4291D12B4BE4
:102C3000D3F8AC2122F44022C3F8AC21D3F8AC2164
:102C400042F4802224E0254BD3F8A82122F0C002D0
:102C5000C3F8A821D3F8A82142F04002C3F8A82164
:102C600077E71E4BD3F8A82122F44072C3F8A821BD
:102C7000D3F8A82142F48072F0E7184BD3F8AC21C6
:102C800022F44032C3F8AC21D3F8AC2142F48032B4
:102C9000C3F8AC215DE7BB469946029ADDF800A077
:102CA00003920136F3B2BB428844FFF470AF0F2D9C
:102CB0009CD0019B01350B44E64401935DE701275D
:102CC000009297E7002E0CBF0123022376E700BF96
:102CD00000000140E40000100080094000C00F40E7
:102CE000034B1960382341684B430249CA5070476F
:102CF0000C1800101418001010B50268137DDB07C3
:102D0000FCD5382443680848117804FB030358684D
:102D1000C9B2013006D058699B680360536843F01C
:102D200001035360084610BD141800103821114AE1
:102D3000436801FB0323DA69013209D01A6B1B6A6D
:102D400012681A4214D10368187DC0F380107047CE
:102D50000268127D920604D50022012083F83420F7
:102D6000704793F834000F288CBF00200120704773
:102D7000002070471418001038B504460D46204650
:102D8000FFF7D4FF0028FAD038212368EDB21D7078
:102D90006368044A01FB032393F83420013283F86B
:102DA000342038BD141800102DE9F84F9A463C4CD9
:102DB00003680546A34218BF002489469046476829
:102DC0001CB1237C03F03F03237438234FF0FF3200
:102DD000344E284603FB0763DA615A60002283F809
:102DE00035201146FFF742FEB9F1000F55D02E49AC
:102DF0004046FDF789FF2D4983465046FDF784FF85
:102E0000A9F10203012B1BD8BAF1FF3F0BD0244BD1
:102E100098420DD164B1237C244943F0800323748C
:102E20005046FDF743FFB9F1030F0CD0BDE8F88F12
:102E3000382000FB076051461C30FDF7A6FEF2E784
:102E4000B9F1010F29D1B8F1FF3F01D1BDE8F88FE9
:102E500007222B681A72124B9B450AD14CB1237C76
:102E6000404643F0400323740F49BDE8F84FFDF797
:102E70001DBF382404FB0760414600220430FDF7E3
:102E800087FE01226B68284604FB036686F835201E
:102E90000021BDE8F84FFFF7E9BDBDE8F88F00BF9E
:102EA00000000140141800100C720000E8710000CE
:102EB0002DE9F0410F460546464938461646FDF7CE
:102EC0002FFF454904463046FDF72AFF01462046BC
:102ED000FDF708FF414B0446984228605DD047D873
:102EE000A3F58043984250D001234FF0000823728D
:102EF0004FF416512846C4F80480FFF71DFE032244
:102F00002B6834491A733846FDF7D0FE32493046F3
:102F1000FDF7CCFE7A1C03D041463846FFF71FFD73
:102F2000731C03D000213046FFF719FD2B4B9C4248
:102F30004BD03ED8A3F580439C4243D038216A68E9
:102F4000274B284601FB02324FF0FF33002153602C
:102F5000D3611A46FFF728FF224B9C4206D101227B
:102F6000214B69681A602868204B03C3BDE8F081D3
:102F70001F4B984217D003F580439842B4D11D4AA5
:102F8000D2F8C43043F0007304E01A4AD2F8C430D7
:102F900043F00803C2F8C430A6E7164AD2F8C4309A
:102FA00043F01003F6E7134AD2F8C43043F08073BD
:102FB000F0E70F4B9C420AD003F580439C42BDD101
:102FC000032300E000236B60B8E70123FBE7022343
:102FD000F9E700BF9C720000307200000000014061
:102FE0001418001000C0004010180010C024001079
:102FF0000080094000C00F4030B50C4CA268A468A6
:103000001346B4F1805F0CD2131F094C094A53F8E0
:10301000045F42F8045FA242F9D14FF08053034AA3
:103020009360103043F8201030BD00BF00ED00E089
:10303000C0000010FCFFFF0F2022264BC3F8A02188
:10304000D3F8A021920603D5D3F8A0215006FBD5D2
:103050000222C3F8042100220120C3F8A821C3F8EA
:10306000AC210B22C3F80C01AA21C3F884205522FD
:10307000C3F88C10C3F88C20C3F88000C3F88C1000
:10308000C3F88C20134B1A46D3F888104901FBD59E
:103090000321C3F88010AA21C3F88C105521C3F86E
:1030A0008C10D2F8883013F0407FFAD00523C2F894
:1030B0000831094BC2F8C4300023C2F8C831136884
:1030C00023F4704323F03A0343F4405343F03A03AC
:1030D0001360704700C00F40DE8728040368DB6977
:1030E000184703685B69184703689B6A184700F034
:1030F00014BBA0F13000FFF7FABF00F011BBA0F144
:103100003000FFF7FABF4FF0FF31443000F096BEB9
:10311000A0F13000FFF7F7BF443000F092BEA0F1FD
:103120003000FFF7F9BF000038B504461D46049B88
:1031300000F0FEFA294604F1300000F0C7F9064B12
:1031400004F1440003F1080228332260236300F0F5
:103150005DFE204638BD00BF0873000010B5044670
:1031600043694168194400F039FB636A04F11800AF
:103170001B68BDE81040184738B504460D46FDF7FA
:10318000F7FD204600F030FB65612069FDF78BFDFF
:103190002918204600F022FBBDE83840FDF7FEBDAF
:1031A0007FB506466D46FDF7E3FD304600F01CFB9B
:1031B000002306F11804AC4203930BD02046FDF720
:1031C00087F83CB1039B1BB15B6869462046984772
:1031D000039B73622846FDF77BF8FDF7DFFD04B023
:1031E00070BD10B50446FDF7C3FD23682BB9E06838
:1031F000FDF759FD012360602360BDE81040FDF735
:10320000CDBD38B50546FDF7B3FD2C6824B1E8689F
:10321000FDF749FD6C68041BFDF7C0FD204638BD75
:1032200038B50546FDF7A4FD2846AC68FFF7E9FF71
:103230000444FDF7B3FD204638BD000008B5FFF794
:10324000EFFF01F01BFC024901F020FD08BD00BFAB
:103250000024744910B50446FDF78AFDE068FDF7C7
:1032600022FD00236060A360BDE81040FDF796BD1D
:10327000002310B50360436083600446FDF79CFCA7
:10328000E0602046FFF7E6FF204610BD007B704758
:10329000036870B5044683B9094D4FF0FF312868C3
:1032A000FEF7B4FC23682BB9261D02D0304600F08F
:1032B000ADFD26602868FEF7D1FC206870BD00BF18
:1032C000341D001038B50E4B0446036000230D4634
:1032D0004360A16002730B48FFF7DAFF4FF0FF3144
:1032E00000F0ACFD55B1084B1A681C6062600548DF
:1032F000FFF7CEFF00F0A5FD204638BD6560F6E77C
:1033000094730000F8180010F418001010B504466B
:10331000114B03601148FFF7BBFF4FF0FF3100F086
:103320008DFDA3682BB10E4A13689C420ED16368D1
:1033300013600A48FFF7ACFF00F083FD237B13B94D
:10334000204600F07FFC204610BD13465A68944288
:10335000FBD162685A60ECE794730000F818001023
:10336000F418001010B50446FFF7D0FF204600F017
:1033700066FC204610BD0000F8B5074610480E4612
:10338000FFF786FF4FF0FF3100F058FD0D4B1C6832
:1033900064B1A5688DB132463946284603F023F85A
:1033A00058B9284603F017F8864206D10448FFF7BB
:1033B0006FFF00F046FD2046F8BD6468E8E700BFF7
:1033C000F8180010F4180010002310B503604360D3
:1033D0000A7804462F2A0DD14A785AB1481C19465A
:1033E000206023681A782F2A06D101332360FFF763
:1033F000C3FF6060204610BD002AF8D001330131C0
:103400002360EEE700687047406808B520B1FFF719
:103410003DFF431E5842584108BD10B50446FFF712
:10342000F3FF00B1606810BD406808B520B1FFF738
:103430002DFFB0FA80F0400908BD10B50446FFF733
:10344000F3FF00B1606810BD4068003018BF012074
:10345000704770477047F8B50E46036804469B6B8B
:103460008F1835469847BD4207D0236815F8011BD1
:103470001B6C204698470130F5D123682046DB6B52
:103480009847A81BF8BDF8B50E46036804469B6B29
:103490008F1835469847BD4208D0236820465B6C9C
:1034A0009847431C02D005F8010BF4E72368204637
:1034B000DB6B9847A81BF8BD0020704700207047C1
:1034C0007047002070470020704700001FB5044679
:1034D0000022FFF7F7FE094B22462360002308492C
:1034E000236101A802F0DAFE064901A801F038FFC5
:1034F000206100F080FB204604B010BDF473000092
:10350000E4730000E873000010B50446054B036047
:10351000006901F06BFD044B20462360FFF7F6FEC7
:10352000204610BDF4730000A47300000EB477B5FC
:103530000446036807AD55F8046B9B6B98472069F8
:10354000019501F00DFE019A3146206902F0A2FAC0
:10355000054623682046DB6B9847284603B0BDE844
:10356000704003B07047884238B504460D460AD013
:10357000FCF7AEFE3CB1EB681BB15B682946204608
:103580009847EB68E360204638BD704710B50446A5
:10359000074B40F81C3BFFF749F804F13800FCF7F3
:1035A00097FE04F12800FCF793FE204610BD00BFF3
:1035B0004474000010B50446FFF7E8FF204600F011
:1035C0003EFB204610BD00002DE9FF4105461C4B87
:1035D000044645F8043B18220E462846002102F016
:1035E00042F80023DFF86480164FE36123626362D0
:1035F00063636364694604F12800CDF80080039793
:10360000FFF7B1FF6846FCF763FE694604F1380036
:10361000CDF800800397FFF7A6FF6846FCF758FE39
:103620002346094A314604F11C00FEF7C9FF28462B
:103630003146FDF7AAFA204604B0BDE8F08100BF8C
:103640004474000038700000EF3600008B35000035
:103650007FB50E460446FDF78BFBF56804F12800A4
:103660001C345DB13146FFF77EFF01220121204667
:10367000FEF7E4FFFDF792FB04B070BD054B694611
:103680000093054B0393FFF76EFF6846FCF720FE9F
:103690002A46EBE78B350000387000007FB50E46F8
:1036A0000446FDF765FBF56804F138001C345DB194
:1036B0003146FFF758FF012202212046FEF7BEFFE8
:1036C000FDF76CFB04B070BD054B69460093054BDC
:1036D0000393FFF748FF6846FCF7FAFD2A46EBE73D
:1036E0008B35000038700000C3681B68184701293B
:1036F00008B502D0022904D008BD2830FFF7F4FF36
:1037000008BD3830FAE770477047704700EB011288
:10371000936902F10C001B6818470430FFF7ECBAFC
:1037200010B50C460430FFF727FB204610BD000003
:103730002DE9FF410F46002104469046174A184ED6
:10374000184DC36202604160816081618162694697
:103750000C3003950096FFF706FF6846FCF7B8FDAE
:10376000694604F11C0003950096251DFFF7FBFE3A
:103770006846FCF7ADFD424639462846FFF798FB00
:10378000E16A2846FFF7D8F9284622460649FFF79E
:10379000A7FA204604B0BDE8F08100BF54740000D1
:1037A00007370000387000000D37000003689B6881
:1037B00018470000074B10B5036000234360836087
:1037C000C3600446FDF7F8F903492061FDF7FEF9EF
:1037D000204610BD6C740000AD37000003460A4659
:1037E000011D0069FDF71EBA011D0069FDF73BBA16
:1037F00010B50446024B0360FFF7F6FF204610BDEC
:103800006C740000436A18301B68184710B50446F2
:10381000006930B1036861695B6A984700232361DE
:1038200010BD6FF0150010BD30B404460069036888
:103830009D6A1346AC460A46616930BC604730B4A5
:10384000044600690368DD6A1346AC460A466169AE
:1038500030BC6047036941691A681846126B10470B
:10386000036941691A681846526B104730B4044620
:10387000006903689D6B1346AC460A46616930BC1B
:103880006047036941691A681846D26B104703699B
:1038900041691A681846126C1047036941691A6831
:1038A0001846526C104770B50D460169044641B97F
:1038B00029680E6A00F114012846B04718B925613D
:1038C00070BD6FF0150070BD074B10B50360036944
:1038D00004460BB1FFF79AFF044B20462360FFF725
:1038E00015FD204610BD00BF94740000A4730000B5
:1038F00010B50446FFF7E8FF204600F0A0F9204687
:1039000010BD0000002210B504461146FFF7DAFC96
:10391000034B2046236000232361636110BD00BF79
:103920009474000001F0F4BE01F050BF01F0A4BE99
:1039300070B505464FF47A74FEF756FF95FBF4F424
:10394000002C064602DDFDF70CFA28B9FEF74CFF05
:10395000801BA842FAD370BD204600F055FAF5E767
:103960004FF47A735843FFF7E3BF0000034B10B5E1
:1039700003600446FFF7A8FF204610BDE074000076
:1039800008B5084B1B685BB907490848084AFFF7A8
:103990008FFA4FF41651BDE808400448FFF7CCB841
:1039A00008BD00BF1018001002C00920C02400107C
:1039B00003C0092070470000022810B5044601DC4E
:1039C000002010BD01F0BAFA092300220360094B60
:1039D000033C53F8240043F8242040B103681B69DA
:1039E0009847041EECDA01F0A9FA644204604FF033
:1039F000FF3010BD30190010F8B505460E461446CC
:103A000001F09CFA0923022D03600FDC124B1B68A6
:103A10000BB9FFF7B5FF35463719104EBD4215D02B
:103A200015F8011B3046FFF7A7F9F7E70C4B033DEC
:103A300053F8250060B103682246DB683146984799
:103A4000041E03DA01F07AFA634203602046F8BDEF
:103A50004FF0FF34FAE700BF10180010C024001028
:103A60003019001070B504460D46164601F066FA8E
:103A70000923022C03600BDC0F4B1B680BB9FFF70B
:103A80007FFF0E48FFF738F901242870204670BDEB
:103A90000B4B033C53F8240058B1036832469B6833
:103AA00029469847041EF1DA01F048FA63420360A0
:103AB000ECE74FF0FF34E9E710180010C0240010C5
:103AC0003019001010B5044601F038FA0923022C11
:103AD000036010DD0A4B033C53F8240040B1036837
:103AE0009B699847041E08DA01F028FA64420460D2
:103AF0004FF0FF3010BD012010BD002010BD00BFF1
:103B00003019001070B504460D46164601F016FA3D
:103B10000923022C03600BDD084B033C53F82400FF
:103B200040B1036832462946BDE87040DB6918475A
:103B3000002070BD4FF0FF3070BD00BF3019001085
:103B4000022808B504DC4FF4005300204B6008BD88
:103B500001F0F4F9092303604FF0FF3008BD08B508
:103B6000FFF728FFFDF7F0F908BD704708B5FFF72C
:103B7000FCFFBDE80840FCF79FBC00000C4A10B5F4
:103B800013681844EFF30881884205D30C22094BCF
:103B90004FF0FF301A6010BD07490C6824B1074987
:103BA000096821448842F1D21060184610BD00BF58
:103BB000E8000010C82400104C1A0010501A001021
:103BC000094C08B523680546986801F0C9FA2368CE
:103BD000D86801F0C5FAFDF7B3F808B1FDF7F2F8BF
:103BE0000DB1FDF713F9FEE7EC000010012070475E
:103BF00008B5FFF7E5FF002102F099BA08B5FDF717
:103C0000B1F908BD08B5FDF7B5F908BD10B501F06B
:103C1000E7FC044610B90248FDF7F3F8204610BD52
:103C20002475000008B101F0E3BC704710B50446EC
:103C3000FFF79CFE2046FFF7F5FF204610BDFFF77B
:103C4000F1BF000010B504460C48FFF721FB4FF010
:103C5000FF3100F0F3F800231946094A52F8230017
:103C6000A04208BF42F823100133402BF6D103488D
:103C7000FFF70EFBBDE8104000F0E3B8301A00106B
:103C8000301900102DE9F34789464E49064602F0E7
:103C900098FB044628B9FFF773FE204602B0BDE842
:103CA000F0874949304602F08CFB18B9FFF768FEEF
:103CB0000124F2E74549304602F083FB18B9FFF7CB
:103CC0005FFE0224E9E701F039F90923404F036060
:103CD0004048FFF7DDFA4FF0FF3100F0AFF8002465
:103CE000B84657F82450002D54D00134402CF8D158
:103CF00001F024F9182303603648FFF7C9FA00F0F1
:103D0000A0F80DE031466846FFF75EFB6846FFF716
:103D10009BFB40B947F8240001F010F9022303602F
:103D20004FF0FF34B9E76846FFF77EFB20B16846E5
:103D3000FFF783FB05463FE06846FFF76EFB8246D0
:103D400030B901F0FBF80223036047F824A0E7E74D
:103D50001820FFF75BFF0646FFF7D4FD1E4B6846B1
:103D60003360FFF74FFB29F480330246514630465B
:103D7000FFF799FD071E0BDA01F0E0F87F420760BC
:103D80001EB1336830465B68984748F82450C7E74F
:103D9000354611E04FF0FF330E4847F82430FFF767
:103DA00077FA00F04EF833783A2BABD16A460B49DC
:103DB000304602F097FA009D002DE6D048F82450D6
:103DC00003346AE749750000507500004175000032
:103DD00030190010301A0010E0740000E473000085
:103DE00038B50446FFF712FD05461CB1236820468E
:103DF0005B689847284638BD024B1B6803B11847DB
:103E0000704700BF541A0010FDF770BE38B5044665
:103E100000F1080510220021284601F024FC20466C
:103E200040F8045FFDF7D4FE206010B90248FCF7AB
:103E3000E8FF204638BD00BF587500000068FDF758
:103E4000E5BE0068FDF70ABF10B504460068FDF73F
:103E50004BFF204610BD000080F309887047EFF348
:103E600009807047684680F309883F480078C0079A
:103E700014BF0220032080F314887047DFF8ECC0E1
:103E8000EFF305831B0618BF6047EFF31483DB07CE
:103E900008BF604700DF7047DFF8D4C0EFF3058349
:103EA0001B0618BF6047EFF31483DB0708BF6047AA
:103EB00000DF7047EFF30980816911F8021CF1B946
:103EC00090E80F10E047EFF3098C8CE80700294BCE
:103ED00093E8060091420FD039B12CE9F00FC1F8F8
:103EE0002CC00CB4FDF718FB0CBC1A60D2F82CC027
:103EF000BCE8F00F8CF309886FF0020E704710B524
:103F00001D4A1268914209D81C4C54F8214090E88F
:103F10000F10A047EFF3098C8CE80F0010BDFDF7E0
:103F200087FA144B93E80600914210D0EFF3098C06
:103F30002CE9F00FC1F82CC00CB4FDF7EDFA0CBC65
:103F40001A60D2F82CC0BCE8F00F8CF309886FF02F
:103F5000020E7047FDF7C2FAFFF7E3BFFDF7BCFAA8
:103F6000FDF7BCFAFFF7DDBFF67000008715000013
:103F7000A11500007424001000000000FCFFFFFFEA
:103F80000649074A074B9A42BEBF51F8040B42F854
:103F9000040BF8E7044880470448004758770000BE
:103FA000C8000010C802001039300000FD0A0000EF
:103FB000FEE7FEE7FEE7FEE7FEE7FEE7FEE7FEE7D9
:103FC000FEE7FEE781F0004102E000BF83F000431E
:103FD00030B54FEA41044FEA430594EA050F08BFA4
:103FE00090EA020F1FBF54EA000C55EA020C7FEA68
:103FF000645C7FEA655C00F0E2804FEA5454D4EBE5
:104000005555B8BF6D420CDD2C4480EA020281EAAE
:10401000030382EA000083EA010180EA020281EAE6
:104020000303362D88BF30BD11F0004F4FEA013138
:104030004FF4801C4CEA113102D0404261EB410147
:1040400013F0004F4FEA03334CEA133302D05242CD
:1040500063EB430394EA050F00F0A780A4F1010489
:10406000D5F1200E0DDB02FA0EFC22FA05F28018C3
:1040700041F1000103FA0EF2801843FA05F35941A9
:104080000EE0A5F120050EF1200E012A03FA0EFC28
:1040900028BF4CF0020C43FA05F3C01851EBE37152
:1040A00001F0004507D54FF0000EDCF1000C7EEB6F
:1040B00000006EEB0101B1F5801F1BD3B1F5001FAD
:1040C0000CD349085FEA30004FEA3C0C04F10104CC
:1040D0004FEA445212F5800F80F09A80BCF1004FF5
:1040E00008BF5FEA500C50F1000041EB045141EA77
:1040F000050130BD5FEA4C0C404141EB010111F478
:10410000801FA4F10104E9D191F0000F04BF014622
:104110000020B1FA81F308BF2033A3F10B03B3F100
:1041200020020CDA0C3208DD02F1140CC2F10C0290
:1041300001FA0CF021FA02F10CE002F11402D8BFEE
:10414000C2F1200C01FA02F120FA0CFCDCBF41EABA
:104150000C019040E41AA2BF01EB0451294330BD89
:104160006FEA04041F3C1CDA0C340EDC04F1140466
:10417000C4F1200220FA04F001FA02F340EA03003D
:1041800021FA04F345EA030130BDC4F10C04C4F183
:10419000200220FA02F001FA04F340EA0300294663
:1041A00030BD21FA04F0294630BD94F0000F83F4AD
:1041B000801306BF81F480110134013D4EE77FEA90
:1041C000645C18BF7FEA655C29D094EA050F08BFDC
:1041D00090EA020F05D054EA000C04BF19461046BD
:1041E00030BD91EA030F1EBF0021002030BD5FEA01
:1041F000545C05D14000494128BF41F0004130BD29
:1042000014F580043CBF01F5801130BD01F000457C
:1042100045F0FE4141F470014FF0000030BD7FEAEF
:10422000645C1ABF194610467FEA655C1CBF0B46EA
:10423000024650EA013406BF52EA033591EA030F01
:1042400041F4002130BD00BF90F0000F04BF0021F9
:10425000704730B54FF4806404F132044FF000052C
:104260004FF0000150E700BF90F0000F04BF0021A5
:10427000704730B54FF4806404F1320410F000450B
:1042800048BF40424FF000013EE700BF42004FEA06
:10429000E2014FEA31014FEA02701FBF12F07F4383
:1042A00093F07F4F81F06051704792F0000F14BF80
:1042B00093F07F4F704730B54FF4607401F00045C4
:1042C00021F0004120E700BF50EA010208BF70471B
:1042D00030B54FF000050AE050EA010208BF704710
:1042E00030B511F0004502D5404261EB41014FF479
:1042F000806404F132045FEA915C3FF4DCAE4FF07D
:1043000003025FEADC0C18BF03325FEADC0C18BF63
:10431000033202EBDC02C2F1200300FA03FC20FAB4
:1043200002F001FA03FE40EA0E0021FA02F1144401
:10433000C1E600BF70B54FF0FF0C4CF4E06C1CEA16
:1043400011541DBF1CEA135594EA0C0F95EA0C0F8B
:1043500000F0DEF82C4481EA030621EA4C5123EAFE
:104360004C5350EA013518BF52EA033541F480112D
:1043700043F4801338D0A0FB02CE4FF00005E1FBE0
:1043800002E506F00042E0FB03E54FF00006E1FB2A
:1043900003569CF0000F18BF4EF0010EA4F1FF046D
:1043A000B6F5007F64F5407404D25FEA4E0E6D41AD
:1043B00046EB060642EAC62141EA55514FEAC520BE
:1043C00040EA5E504FEACE2EB4F1FD0C88BFBCF53A
:1043D000E06F1ED8BEF1004F08BF5FEA500E50F1EB
:1043E000000041EB045170BD06F0004646EA0101B1
:1043F00040EA020081EA0301B4EB5C04C2BFD4EBE3
:104400000C0541EA045170BD41F480114FF0000EDB
:10441000013C00F3AB8014F1360FDEBF002001F049
:10442000004170BDC4F10004203C35DA0C341BDCC3
:1044300004F11404C4F1200500FA05F320FA04F095
:1044400001FA05F240EA020001F0004221F00041C9
:1044500010EBD37021FA04F642EB06015EEA430E3C
:1044600008BF20EAD37070BDC4F10C04C4F120056C
:1044700000FA04F320FA05F001FA04F240EA02001F
:1044800001F0004110EBD37041F100015EEA430EF0
:1044900008BF20EAD37070BDC4F1200500FA05F210
:1044A0004EEA020E20FA04F301FA05F243EA02038F
:1044B00021FA04F001F0004121FA04F220EA02009E
:1044C00000EBD3705EEA430E08BF20EAD37070BDE4
:1044D00094F0000F0FD101F00046400041EB0101C4
:1044E00011F4801F08BF013CF7D041EA060195F0A6
:1044F000000F18BF704703F00046520043EB030360
:1045000013F4801F08BF013DF7D043EA060370474C
:1045100094EA0C0F0CEA135518BF95EA0C0F0CD057
:1045200050EA410618BF52EA4306D1D181EA03019D
:1045300001F000414FF0000070BD50EA410606BF97
:104540001046194652EA430619D094EA0C0F02D1DC
:1045500050EA013613D195EA0C0F05D152EA033621
:104560001CBF104619460AD181EA030101F000413F
:1045700041F0FE4141F470014FF0000070BD41F088
:10458000FE4141F4780170BD70B54FF0FF0C4CF462
:10459000E06C1CEA11541DBF1CEA135594EA0C0F81
:1045A00095EA0C0F00F0A7F8A4EB050481EA030ECE
:1045B00052EA03354FEA013100F088804FEA0333B5
:1045C0004FF0805545EA131343EA12634FEA022283
:1045D00045EA111545EA10654FEA00260EF0004144
:1045E0009D4208BF964244F1FD0404F5407402D296
:1045F0005B084FEA3202B61A65EB03055B084FEA27
:1046000032024FF480104FF4002CB6EB020E75EB23
:10461000030E22BFB61A754640EA0C005B084FEA4B
:104620003202B6EB020E75EB030E22BFB61A7546C8
:1046300040EA5C005B084FEA3202B6EB020E75EB13
:10464000030E22BFB61A754640EA9C005B084FEA8B
:104650003202B6EB020E75EB030E22BFB61A754698
:1046600040EADC0055EA060E18D04FEA051545EA87
:1046700016754FEA06164FEAC30343EA52734FEA30
:10468000C2025FEA1C1CC0D111F4801F0BD141EAA9
:1046900000014FF000004FF0004CB6E711F4801F0E
:1046A00004BF01430020B4F1FD0C88BFBCF5E06FEE
:1046B0003FF6AFAEB5EB030C04BFB6EB020C5FEAFE
:1046C000500C50F1000041EB045170BD0EF0004E53
:1046D0004EEA113114EB5C04C2BFD4EB0C0541EA85
:1046E000045170BD41F480114FF0000E013C90E682
:1046F00045EA060E8DE60CEA135594EA0C0F08BF46
:1047000095EA0C0F3FF43BAF94EA0C0F0AD150EA44
:1047100001347FF434AF95EA0C0F7FF425AF1046D7
:1047200019462CE795EA0C0F06D152EA03353FF4FF
:10473000FDAE1046194622E750EA410618BF52EA7C
:1047400043067FF4C5AE50EA41047FF40DAF52EA50
:1047500043057FF4EBAE12E74FF0FF3C06E000BFED
:104760004FF0010C02E000BF4FF0010C4DF804CDFA
:104770004FEA410C7FEA6C5C4FEA430C18BF7FEABA
:104780006C5C1BD001B050EA410C0CBF52EA430CE8
:1047900091EA030F02BF90EA020F0020704710F168
:1047A000000F91EA030F58BF994208BF90422CBFF7
:1047B000D8176FEAE37040F0010070474FEA410CF0
:1047C0007FEA6C5C02D150EA013C07D14FEA430C0E
:1047D0007FEA6C5CD6D152EA033CD3D05DF8040B7F
:1047E000704700BF8446104662468C4619466346B1
:1047F00000E000BF01B5FFF7B7FF002848BF10F188
:10480000000F01BD4DF808EDFFF7F4FF0CBF0120CC
:1048100000205DF808FB00BF4DF808EDFFF7EAFF48
:1048200034BF012000205DF808FB00BF4DF808ED03
:10483000FFF7E0FF94BF012000205DF808FB00BFF8
:104840004DF808EDFFF7CEFF94BF012000205DF882
:1048500008FB00BF4DF808EDFFF7C4FF34BF01208F
:1048600000205DF808FB00BF4FEA4102B2F1E043CF
:1048700024BFB3F5001CDCF1FE5C0DD901F0004C47
:104880004FEAC0024CEA5070B2F1004F40EB830097
:1048900008BF20F00100704711F0804F21D113F1C3
:1048A0003872BCBF01F00040704741F480114FEAFC
:1048B0005252C2F11802C2F1200C10FA0CF320FA85
:1048C00002F018BF40F001004FEAC1234FEAD323A2
:1048D00003FA0CFC40EA0C0023FA02F34FEA43030C
:1048E000CCE77FEA625307D150EA01331EBF4FF095
:1048F000FE4040F44000704701F0004040F0FE40B0
:1049000040F40000704700BF80F0004002E000BFAC
:1049100081F0004142001FBF5FEA410392EA030FAA
:104920007FEA226C7FEA236C6AD04FEA1262D2EBF4
:104930001363C1BFD218414048404140B8BF5B42F9
:10494000192B88BF704710F0004F40F4000020F092
:104950007F4018BF404211F0004F41F4000121F0A8
:104960007F4118BF494292EA030F3FD0A2F10102F2
:1049700041FA03FC10EB0C00C3F1200301FA03F130
:1049800000F0004302D5494260EB4000B0F5000F53
:1049900013D3B0F1807F06D340084FEA310102F112
:1049A0000102FE2A51D2B1F1004F40EBC25008BFC4
:1049B00020F0010040EA03007047490040EB00008E
:1049C00010F4000FA2F10102EDD1B0FA80FCACF1BD
:1049D000080CB2EB0C0200FA0CF0AABF00EBC250BC
:1049E00052421843BCBFD0401843704792F0000FAA
:1049F00081F4000106BF80F400000132013BB5E7FD
:104A00004FEA41037FEA226C18BF7FEA236C21D072
:104A100092EA030F04D092F0000F08BF08467047D7
:104A200090EA010F1CBF0020704712F07F4F04D1A5
:104A3000400028BF40F00040704712F100723CBFB8
:104A400000F50000704700F0004343F0FE4040F4E2
:104A5000000070477FEA226216BF08467FEA2363A0
:104A60000146420206BF5FEA412390EA010F40F48B
:104A7000800070474FF0000304E000BF10F00043D7
:104A800048BF40425FEA000C08BF704743F09643BE
:104A900001464FF000001CE050EA010208BF7047D9
:104AA0004FF000030AE000BF50EA010208BF704760
:104AB00011F0004302D5404261EB41015FEA010C75
:104AC00002BF84460146002043F0B64308BFA3F16D
:104AD0008053A3F50003BCFA8CF2083AA3EBC2534F
:104AE00010DB01FA02FC634400FA02FCC2F120026E
:104AF000BCF1004F20FA02F243EB020008BF20F0A5
:104B00000100704702F1200201FA02FCC2F120020A
:104B100050EA4C0021FA02F243EB020008BF20EAFF
:104B2000DC7070474FF0FF0C1CEAD0521EBF1CEA2D
:104B3000D15392EA0C0F93EA0C0F6FD01A4480EA1B
:104B4000010C400218BF5FEA41211ED04FF0006304
:104B500043EA501043EA5111A0FB01310CF0004030
:104B6000B1F5000F3EBF490041EAD3715B0040EA56
:104B7000010062F17F02FD2A1DD8B3F1004F40EB26
:104B8000C25008BF20F00100704790F0000F0CF0F9
:104B9000004C08BF49024CEA502040EA51207F3ABD
:104BA000C2BFD2F1FF0340EAC250704740F4000098
:104BB0004FF00003013A5DDC12F1190FDCBF00F089
:104BC00000407047C2F10002410021FA02F1C2F137
:104BD000200200FA02FC5FEA310040F1000053EAD3
:104BE0004C0308BF20EADC70704792F0000F00F021
:104BF000004C02BF400010F4000F013AF9D040EA27
:104C00000C0093F0000F01F0004C02BF490011F4BA
:104C1000000F013BF9D041EA0C018FE70CEAD153B8
:104C200092EA0C0F18BF93EA0C0F0AD030F0004C38
:104C300018BF31F0004CD8D180EA010000F00040EC
:104C4000704790F0000F17BF90F0004F084691F0AA
:104C5000000F91F0004F14D092EA0C0F01D14202E4
:104C60000FD193EA0C0F03D14B0218BF084608D1AD
:104C700080EA010000F0004040F0FE4040F40000F7
:104C8000704740F0FE4040F4400070474FF0FF0C8A
:104C90001CEAD0521EBF1CEAD15392EA0C0F93EAD1
:104CA0000C0F69D0A2EB030280EA010C49024FEA23
:104CB000402037D04FF0805343EA111143EA1013DC
:104CC0000CF000408B4238BF5B0042F17D024FF494
:104CD000000C8B4224BF5B1A40EA0C00B3EB510F6F
:104CE00024BFA3EB510340EA5C00B3EB910F24BF58
:104CF000A3EB910340EA9C00B3EBD10F24BFA3EBDD
:104D0000D10340EADC001B0118BF5FEA1C1CE0D1A4
:104D1000FD2A3FF650AF8B4240EBC25008BF20F057
:104D2000010070470CF0004C4CEA50207F32C2BFAB
:104D3000D2F1FF0340EAC250704740F400004FF048
:104D40000003013A37E792F0000F00F0004C02BF79
:104D5000400010F4000F013AF9D040EA0C0093F043
:104D6000000F01F0004C02BF490011F4000F013B9D
:104D7000F9D041EA0C0195E70CEAD15392EA0C0F05
:104D800008D142027FF47DAF93EA0C0F7FF470AF3D
:104D9000084676E793EA0C0F04D14B023FF44CAF80
:104DA00008466EE730F0004C18BF31F0004CCAD115
:104DB00030F000427FF45CAF31F000437FF43CAF51
:104DC0005FE700BF4FF0FF3C06E000BF4FF0010C73
:104DD00002E000BF4FF0010C4DF804CD4FEA400255
:104DE0004FEA41037FEA226C18BF7FEA236C11D09F
:104DF00001B052EA530C18BF90EA010F58BFB2EB52
:104E0000030088BFC81738BF6FEAE17018BF40F0D1
:104E1000010070477FEA226C02D15FEA402C05D185
:104E20007FEA236CE4D15FEA412CE1D05DF8040B0A
:104E3000704700BF844608466146FFE70FB5FFF79D
:104E4000C9FF002848BF10F1000F0FBD4DF808ED55
:104E5000FFF7F4FF0CBF012000205DF808FB00BF46
:104E60004DF808EDFFF7EAFF34BF012000205DF8A0
:104E700008FB00BF4DF808EDFFF7E0FF94BF0120ED
:104E800000205DF808FB00BF4DF808EDFFF7D2FFEA
:104E900094BF012000205DF808FB00BF4DF808ED2D
:104EA000FFF7C8FF34BF012000205DF808FB00BFFA
:104EB0004FEA4002B2F1FE4F0FD34FF09E03B3EB27
:104EC00012620DD94FEA002343F0004310F0004F67
:104ED00023FA02F018BF404270474FF000007047BD
:104EE00012F1610F01D1420205D110F0004008BF5C
:104EF0006FF0004070474FF00000704742000ED244
:104F0000B2F1FE4F0BD34FF09E03B3EB126209D404
:104F10004FEA002343F0004323FA02F070474FF0BA
:104F20000000704712F1610F01D1420202D14FF02F
:104F3000FF3070474FF00000704700BF014B18680A
:104F4000704700BFEC00001070B505460C4611B963
:104F50000026304670BD18B183690BB900F052F9D4
:104F60001F4B9C4232D16C68B4F90C30002BEFD04F
:104F70002146284600F042F8236B064633B1216AE9
:104F8000284698470028B8BF4FF0FF36A3891B0674
:104F900003D521692846FEF7C9FC616B41B104F1D4
:104FA0004403994202D02846FEF7C0FC0023636305
:104FB000A16C21B12846FEF7B9FC0023A36400F0E0
:104FC0008DF90023A38100F08AF9C2E7054B9C42CA
:104FD00001D1AC68C8E7044B9C4208BFEC68C3E74A
:104FE000A0750000C075000080750000024B0146EE
:104FF0001868FFF7A9BF00BFEC0000108A892DE9EF
:10500000F041054610070C465AD44B68002B05DCCE
:105010000B6C002B02DC0020BDE8F081E66A002E5C
:10502000F9D0002312F480522F682B6033D0606DCA
:10503000A3895A0705D56368C01A636B0BB1236C4B
:10504000C01A00230246E66A216A2846B047431C7C
:10505000A38906D129681D294BD82B4ACA40D607F7
:1050600047D5002262602269D904226004D5421C1F
:1050700001D12B6803B96065616B2F600029CAD02C
:1050800004F14403994202D02846FEF74FFC002069
:105090006063BDE8F081216A01232846B047411CC6
:1050A000C6D12B68002BC3D01D2B01D0162B01D1EC
:1050B0002F60B0E7A38943F04003A381BDE8F081EE
:1050C0000F69002FA7D0930718BF00230E6808BFF1
:1050D0004B69A6EB07080F608B60B8F1000F9ADDF3
:1050E00043463A46216A2846A66AB047002807DCAC
:1050F000A38943F04003A3814FF0FF30BDE8F08166
:105100000744A8EB0008E8E70100402038B50B6928
:1051100005460C46DBB118B183690BB900F072F893
:105120000C4B9C4209D16C68B4F90C307BB1214620
:105130002846BDE83840FFF761BF074B9C4201D1CC
:10514000AC68F1E7054B9C4208BFEC68ECE7002037
:1051500038BD00BFA0750000C0750000807500005C
:10516000014620B9044B0549186800F093B9044B77
:105170001868FFF7CBBF00BFE07500000D510000BD
:10518000EC000010014900F085B900BF0D5100008E
:10519000002310B504460360436083608181436649
:1051A000C281036143618361194608225C3000F0CB
:1051B0005AFA054B24626362044BA362044BE36218
:1051C000044B236310BD00BF396300005F63000020
:1051D00097630000BB63000070B568254A1E554305
:1051E0000E4605F17401FEF79DFB044640B1002117
:1051F00080E842000C30A06005F1680200F033FA4C
:10520000204670BD836910B5044633BB8364C36414
:105210000365124B124A1B688262984204BF012345
:10522000836100F01FF86060204600F01BF8A0606A
:10523000204600F017F80022E06004216068FFF7C4
:10524000A7FF01220921A068FFF7A2FF0222122175
:10525000E068FFF79DFF0123A36110BDE07500002A
:1052600085510000F8B51C4B07461E68B36913B999
:105270003046FFF7C7FF4836B4687368013B03D573
:10528000336833B13668F7E7B4F90C506DB1683460
:10529000F4E704213846FFF79FFF30600028F1D182
:1052A0000C2304463B602046F8BD4FF6FF73E381B4
:1052B00001236566A3812560A56065602561656140
:1052C000A5610822294604F15C0000F0CCF9656371
:1052D000A563A564E564E6E7E075000070477047E4
:1052E000F7B50F46114601AA054601F0CDFA06466C
:1052F00018B90024204603B0F0BD2846FFF7B2FFDE
:1053000004460028F5D04FF4DB73019A394628464D
:1053100000F0BCFE002806DA0025FFF7DFFFA581BC
:10532000FFF7DDFFE5E70A4BE0816362094BA681E9
:10533000A362094B2462E362084B2363F305D9D5CA
:10534000022300222146284600F012F8D2E700BFCF
:10535000396300005F63000097630000BB630000D7
:10536000024B0A4601461868FFF7BABFEC0000106E
:1053700000F000B82DE9F8430C4691461E4605465C
:1053800018B183690BB9FFF73DFF3F4B9C4212D127
:105390006C68A38903F48473B3F5847F03D1214639
:1053A0002846FFF7B3FED4F82C80B8F1000F0CD1DB
:1053B0001D232B6057E0354B9C4201D1AC68E8E7D8
:1053C000334B9C4208BFEC68E3E7012E30D0022E3D
:1053D00001D0002E55D123691BB92146284600F083
:1053E000BFF821462846FFF791FE074600283AD12C
:1053F00033464A46216A2846C047013033D0616BA4
:1054000041B104F14403994202D02846FEF78EFAD6
:10541000002363630021236961602360A38908225C
:1054200023F40263A38104F15C0000F01CF91CE08A
:1054300021462846FFF76AFEA28912F480520CD05A
:10544000606DA3895A0713D56368C01A636B0BB1EB
:10545000236CC01A81440026BDE7216A33462846E2
:10546000C047411CEDD14FF0FF373846BDE8F88307
:105470001B07EFD52368002BECD022699B1A184438
:10548000E8E7162395E700BFA0750000C07500008F
:10549000807500002DE9F84380468946002600F11A
:1054A000480414B93046BDE8F883A5686768013F31
:1054B00001D52468F5E7AB89012B07D9B5F90E3082
:1054C000013303D029464046C84706436835EEE716
:1054D00070B500250C4E0D4CA41BA410A54209D19B
:1054E00001F086FD00250A4E0A4CA41BA410A5421B
:1054F00005D170BD56F8253098470135EEE756F8CE
:10550000253098470135F2E7BC020010BC020010BC
:10551000BC020010C402001070B50E46B1F90E10A6
:1055200090B0002914461D4607DA00232B60B3898A
:105530001A0610D44FF480630EE001AA01F0DAF9E4
:105540000028F2DB029A02F47042A2F500535A429C
:105550005A412A60EEE740230020236010B070BD5E
:105560008B8973B59D0706460C4607D504F14703A2
:10557000236023610123636102B070BD01AB6A4601
:10558000FFF7CAFF009905463046FEF7CBF948B948
:10559000B4F90C309A05EFD423F0030343F002036F
:1055A000A381E3E70D4BB362A389206043F080033E
:1055B000A381009B20616361019B5BB1B4F90E1074
:1055C000304601F0A9F928B1A38923F0030343F081
:1055D0000103A381A3891D43A581CDE78551000067
:1055E000024B01461868FEF79DB900BFEC000010A1
:1055F000024B01461868FEF799B900BFEC00001095
:1056000010B5C9B202449042034601D1002010BD3A
:105610001C7801308C42F6D1184610BD10B5431EDF
:105620000A44914200D110BD11F8014B03F8014F1B
:10563000F7E7884210B501EB020303D8421E9942F6
:105640000CD110BD9842F9D28118D21AD34200D1A0
:1056500010BD13F8014D01F8014DF7E711F8014BAA
:1056600002F8014FEBE703460244934200D1704732
:1056700003F8011BF9E7000038B50546002943D0BF
:1056800051F8043C0C1F002BB8BFE418FEF7B6FA23
:105690001E4A1368104633B9636014602846BDE89B
:1056A0003840FEF7AFBAA3420BD921686218934283
:1056B00001BF1A685B685218226063600460EDE7FE
:1056C00013465A680AB1A242FAD919685818A0427A
:1056D0000BD120680144581882421960DED110684D
:1056E0005268014419605A60D8E702D90C232B6034
:1056F000D4E7206821188A4201BF1168526809184E
:10570000216062605C60C9E738BD00BF581A0010B4
:1057100070B5CD1C25F0030508350C2D38BF0C25C0
:10572000002D064601DBA94203D90C23336000207B
:1057300070BDFEF763FA234A1468214691B9224CE2
:1057400023681BB9304600F0B3FC20602946304680
:1057500000F0AEFC431C26D10C2330463360FEF72C
:1057600051FAE4E70B685B1B1AD40B2B0FD90B60C3
:10577000CC18CD503046FEF745FA04F10B00231D3E
:1057800020F00700C31A1BD05A42E25070BD8C4271
:105790000BBF63684B681360636018BF0C46E9E792
:1057A0000C464968CAE7C41C24F00304A04205D093
:1057B000211A304600F07CFC0130CDD02560D9E7BD
:1057C00070BD00BF581A00105C1A0010F8B50746EB
:1057D00014460E4621B91146BDE8F840FEF7A2B8BE
:1057E00022B9FEF7A3F825462846F8BD01F0DAF8FD
:1057F00084420FD921463846FEF794F80546002822
:10580000F2D031462246FFF709FF31463846FEF70F
:105810008DF8E9E73546E7E7936810B4013B002BC4
:10582000936008DA9469A34202DBCBB20A2B02D15F
:1058300010BC00F047BF1368581C10601970C8B244
:1058400010BC7047F8B506460F461446D518AC4252
:1058500001D1002007E03A4614F8011B3046FFF75B
:10586000DBFF431CF3D1F8BD2DE9F04F9DB00C4692
:1058700017460393064618B183690BB9FFF7C2FCBC
:105880007C4B9C4257D17468A38918075DD5236966
:10589000002B5AD00023099320238DF82930302380
:1058A0004FF0010B8DF82A30B846454615F8013BFC
:1058B000002B55D1B8EB070A0BD053463A46214688
:1058C0003046FFF7BFFF013000F0C480099B53440E
:1058D000099398F80030002B00F0BC8000234FF0B3
:1058E000FF3204930793059206938DF853301A9371
:1058F000052229786048FFF783FE05F10108049B23
:10590000002831D1D90644BF20228DF853201A0730
:1059100044BF2B228DF853202A782A2A2CD000212C
:105920000A20079AA84698F800300135303B092B29
:105930006DD971B326E0514B9C4201D1B468A3E705
:105940004F4B9C4208BFF4689EE72146304600F06A
:105950001DFF00289ED04FF0FF301DB0BDE8F08F36
:10596000252BA7D0A846A0E7434A4546801A0BFA44
:1059700000F018430490BBE7039A111D12680391CD
:10598000002A01DB079204E0524243F0020307922F
:10599000049398F800302E2B10D198F8013008F1BC
:1059A00001012A2B37D1039B08F102081A1D1B683D
:1059B0000392002BB8BF4FF0FF330593314D032204
:1059C00098F800102846FFF71BFE40B14023401B0B
:1059D00003FA00F0049B08F101080343049398F8CC
:1059E00000100622284808F101078DF82810FFF75B
:1059F00007FE002834D0254B03BB039B073323F05D
:105A0000070308330393099B4B4409934CE700FBBE
:105A10000232012186E700230A25184605938846AD
:105A200098F800200131303A092A03D9002BC5D05B
:105A30000590C3E705FB00200123F0E703AB0093CB
:105A40002246134B04A93046AFF30080B0F1FF3F6C
:105A50008146D8D1A3895B063FF57DAF09987CE7E5
:105A600003AB009322460A4B04A9304600F094F899
:105A7000ECE700BFA0750000E4750000C0750000F1
:105A800080750000EA750000EE750000000000005F
:105A90004558000013460A46014602480068FFF7D1
:105AA000E3BE00BFEC0000102DE9F04791461F4611
:105AB0008A680B6906469342B8BF1346C9F800309E
:105AC00091F843200C46DDF8208012B10133C9F86B
:105AD00000302368990642BFD9F800300233C9F874
