:1000000000800010B53D0000E53D0000E73D000028
:10001000E93D0000EB3D0000ED3D00000000000068
:10002000000000000000000000000000E93C0000AB
:10003000F13D000000000000533D0000893D00003C
:10004000F73D0000F73D0000F73D0000F73D0000E0
:10005000F73D0000F73D0000F73D0000F73D0000D0
:10006000F73D0000F73D0000F73D0000F73D0000C0
:10007000F73D0000F73D0000F73D0000F73D0000B0
:10008000F73D0000F73D0000F73D0000F73D0000A0
:10009000F73D0000F73D0000F73D0000F73D000090
:1000A000F73D0000F73D0000F73D0000F73D000080
:1000B000F73D0000F73D0000F73D0000F73D000070
:1000C000F73D0000F73D0000F73D000010B5054C7E
:1000D000237833B9044B13B10448AFF300800123F4
:1000E000237010BDC8020010000000000C75000055
:1000F0000C4B43B10C4810B50C49AFF300800C48D1
:10010000036823B910BD0A48036833B97047094B27
:10011000002BF7D0BDE810401847064B002BF5D058
:10012000184700BF000000000C750000CC02001052
:10013000C80200100000000008B50021C06804F0EB
:1001400003FB014B186008BD2806001008B500210C
:10015000406804F0F9FA014B186008BD2806001049
:100160000368184708B10B680360704770474FF089
:10017000FF31083003F07CBD083003F07CBD000087
:1001800010B50446034B40F8083B03F077FD2046CA
:1001900010BD00BF446E000010B50446FFF7F0FF2D
:1001A000204603F066FC204610BD0000024B1A6991
:1001B0005B681360704700BF7003001038B50446D9
:1001C0000D461822002105F068F92046294600F066
:1001D00085FC204638BD0000114B70B5196804F04D
:1001E000B1FA064620F0004003F06AFF0AA3D3E903
:1001F000002304F035FA003018BF0120002144002C
:1002000030464FF0010504F059FD00B9054644EAB7
:10021000050000F0030070BD9A9999999999C93F1A
:1002200028060010044B1A695B681360034BDA68F8
:100230005B681360704700BFFC020010E40200100E
:10024000C36810B504460BB19B689847204610BDA3
:1002500038B505460446064B45F8183B02F0BAFE91
:100260002846FFF7EDFF204603F0DCF9204638BDB5
:100270004071000010B50446FFF7EAFF204603F086
:10028000F8FB204610BD000010B50446024B036089
:10029000FFF7DEFF204610BD4072000070B5054636
:1002A000074B064645F80C3B45B100F12C04AC4227
:1002B00004D0103C2046FFF7C3FFF8E7304670BD7E
:1002C0001472000010B50446FFF7E8FF204603F063
:1002D000D0FB204610BD000010B50446084B44304A
:1002E00040F8443C203340F8143C03F0C7FC04F1D0
:1002F000300002F0EBFE2046FFF7D0FF204610BD95
:10030000D0700000A0F13000E6E700BF38B5CB6840
:1003100004460D460BB15B689847EB682046E360E6
:1003200038BD0000F0B5154685B006466846FFF7B3
:10033000EDFF0E49284604F00FFB6C4604F0F8FC74
:1003400006F11805A542074607D02846FFF778FFB3
:100350001DB169462846FFF7D9FF3946304602F0FD
:1003600025FE2046FFF76CFF05B0F0BD0024744960
:100370001FB50B4B6946DA685B680A4813600A4B85
:10038000DA685B681360094B094A0093094B0393D1
:10039000FFF7C8FF6846FFF753FF05B05DF804FBA1
:1003A000E40200102C06001070030010AD010000E4
:1003B00052499D39546E00001FB50B4B69461A69AE
:1003C0005B680A4813600A4BDA685B681360094B84
:1003D000094A0093094B0393FFF7A4FF6846FFF710
:1003E0002FFF05B05DF804FBE40200102C0600109E
:1003F00070030010AD01000052499D39546E000099
:1004000008B50020FFF7E8FE430803D0BDE8084028
:10041000FFF708BFC30703D5BDE80840FFF7A8BF33
:10042000BDE80840FFF7C8BF2DE9F04F4FF07E58F8
:1004300000244FF07C5B89B010220021684605F053
:100440002CF8A54BA54A0493A54B04A9A5480793EE
:10045000FFF768FF04A8FFF7F3FEA34B0493A34B39
:100460000593A34800F09DFAA24800F09AFAA2482A
:1004700000F097FA8146A14800F093FA0746A04899
:1004800000F08FFA06469F4800F08BFA0546484672
:1004900003F016FE8AA3D3E9002303F0B1FC8AA37C
:1004A000D3E9002303F08AFF04F0F8F882463846C7
:1004B00003F006FE82A3D3E9002303F0A1FC82A38C
:1004C000D3E9002303F07AFF04F0E8F8074630464A
:1004D00003F0F6FD7AA3D3E9002303F091FC7AA39D
:1004E000D3E9002303F06AFF04F0D8F80646284653
:1004F00003F0E6FD72A3D3E9002303F081FC72A3AD
:10050000D3E9002303F05AFF04F0C8F8414605463A
:10051000504604F0DDFB002840F09F802146504605
:1005200004F0B8FB00B1A2464146384604F0D0FBC7
:10053000002840F094802146384604F0ABFB00B11F
:1005400027464146304604F0C3FB002840F089802E
:100550002146304604F09EFB00B12646414628461F
:1005600004F0B6FBDFF8CC9158B92146284604F0D8
:1005700091FB002877D15946284604F0A9FB0028B2
:1005800071D00125D9F80C30D9F804201A605946E9
:10059000304604F09DFB5C4B00286BD04FF0010906
:1005A0001A695B681360594E002D40F081805946EE
:1005B000384604F08DFB002861D0384603F080FDFA
:1005C0000022534B03F01CFC02460B4603F01AFCBE
:1005D00004F064F83369726807462E461A60504684
:1005E00003F06EFD00224A4B03F00AFC02460B4664
:1005F00003F008FC04F052F8019003F061FD02469C
:100600000B464448444902F073FD384603F058FD58
:100610000B46024641493F4802F06AFD4048FFF759
:10062000A6FD39463F4801F0BFFE3F4803F023FBDB
:100630003E4B002E3ED0DA685B6813603C4BB9F14C
:10064000000F39D0DA685B686846136008AB03EBCB
:10065000850555F8103C984703E7C24664E74746CE
:100660006FE746467AE7D9F81030D9F8042000251C
:100670001A608CE7DA685B688146136093E7594635
:10068000384604F007FB68B1384603F019FD10A3A3
:10069000D3E9002303F0F8FF20B1336972682E46D6
:1006A0001A6003E0F368726801261A60274696E72D
:1006B000F368F3E71A69BFE71A69C4E7AFF300808C
:1006C000567DAEB6627FA93FE4A59BC420B0A23F91
:1006D0009A9999999999D93F01040000A69BC43A27
:1006E000546E0000880300104D0100003901000025
:1006F00054060010D0030010C805001008050010B3
:100700006805001048040010D8040010A804001068
:100710000000E03F44030010606E00006E6E0000B9
:10072000B0030010B4030010B8030010C0040010A0
:10073000F00400103004001010B50446FFF7CCFDA3
:10074000204603F096F9204610BDA0F13000F3E7F3
:1007500010B50446FFF798FD204603F08AF92046BD
:1007600010BD00004FF4165373B54B4D4B4C009326
:100770004B4A00234B49284602F0F0FB22464A49E7
:10078000284603F04DF949494948FFF717FD494EFE
:1007900049494A48FFF712FD49494A484A4DFFF77F
:1007A0000DFD4A49304600F003F93046484E2246D6
:1007B000294603F035F94749304600F0F9F830464C
:1007C000454E2246294603F02BF94449304600F0B5
:1007D000EFF83046424E2246294603F021F94149BE
:1007E000304600F0E5F830463F4E2246294603F0F9
:1007F00017F93E49304600F0DBF830463C4E2246C1
:10080000294603F00DF93B49304600F0D1F8224665
:100810002946304603F004F937493848FFF7CEFC43
:10082000374D38493848FFF7C9FC38493848FFF791
:10083000C5FC28460026374B40F8083B03F000FA79
:10084000281D354901F092FD22463449284603F01F
:10085000E7F8334D33493448FFF7B0FC33493448A7
:10086000FFF7ACFC284602F0BFFE324B6E622B60F5
:100870002846314D2246314903F0D2F8284602F08D
:10088000B3FE224628462E4B2E496E622B6002B0E4
:10089000BDE8704003F0C4B814030010C800001095
:1008A00003C0092002C00920D902000032C009207B
:1008B000300400105406001034C00920D804001081
:1008C00035C00920A80400104909000045C00920CE
:1008D000D003001044C009200805001043C00920BF
:1008E000C805001042C009206805001041C0092059
:1008F0004804001040C009200BC00920FC02001071
:10090000B00300100AC00920E402001005C009204D
:1009100070030010446E00001AC00920810100001D
:10092000880300103EC00920C00400103FC0092009
:10093000F0040010407100002C060010510200006D
:10094000407200008902000010B5044602F0A0FCCD
:10095000204610BD034610B107C983E80700704761
:1009600070474268816812F0010F4FEA6202036823
:100970001CBF8858C3588818184710B5044648301B
:1009800002F0B4FDA06510BD38B500F1480405467D
:10099000204602F0ABFDE8652046BDE8384002F095
:1009A000B1BD08B5C16D806D04F08AF808BD0000C6
:1009B000F0B50446002785B004F1480502F086FC36
:1009C000284602F0ADFD154E00F068F9144B69465B
:1009D0002046009301970294039602F0BBFC684600
:1009E000FFF72EFC00F070F900F058F90D4B694646
:1009F00020468DE888000294039602F0D1FC6846F8
:100A0000FFF71EFC00F060F900232846E365A365AC
:100A100002F040FD204605B0F0BD00BF806E000032
:100A2000890900007B0900000748084A08B5121A26
:100A3000002104F032FD02F0ACFF04F063FC02F090
:100A4000AFFF02F0EFFF00BFC8020010AC2400109F
:100A5000022801DD02F050BF0120704708B50120D7
:100A600002F0E0FF08B5FFF7F9FF70B50E46044647
:100A7000154601F0E5FD013609D02046002101F0C0
:100A8000F9FD29462046BDE8704001F0F0BD70BD7B
:100A900038B504460D4643685AB1C2682046136013
:100AA000012101F0E7FD29462046BDE8384001F06C
:100AB000DEBD0269F2E70322FFF7D7BF70B50E462D
:100AC0000446154601F0BCFD013606D02A462046F4
:100AD000BDE870400221FFF7DBBF70BD0022FFF7C9
:100AE000EDBF0000004870478C6E0000014800F028
:100AF0000CB800BF8C6E000038B504460D46036884
:100B00001B68984763681D6038BD036870B5DB6873
:100B10000446984763685A6823681AB99B68BDE819
:100B2000704018475B68156898476368281A002862
:100B30005A6807DC916859601B68002BEAD050683E
:100B40009847E7E7236810681B69BDE870401847BD
:100B5000F8B506460C461F46154600F09FF80021E2
:100B6000706884E8A000436853B9A36079B933681A
:100B700044601B6928469847BDE8F84000F0A4B8D7
:100B80001A68AA1A002AF0DB19469B68ECE78C6009
:100B9000F2E738B505460C4600F080F86A685368FD
:100BA000A3420ED19B6853602A682BB9936898477B
:100BB000BDE8384000F088B8126918689047F7E738
:100BC0001346002BF4D09A689442F9D1A2689A6037
:100BD000EEE703685B68184710B5044601300DD195
:100BE00010BD9C4209D12046896802F0D9F8204600
:100BF000BDE81040022102F0ECB80C310B685A1C21
:100C0000EFD10248BDE8104000F0CEB8D96E000028
:100C1000884208B508D0431C06D0013106D00448EC
:100C200000F0C2F84FF0FF31084608BD0146FBE76F
:100C3000A86E00000B685A1C01D118467047834209
:100C400001D1486870470C31F4E70000421C10B530
:100C5000044607D0FFF7EEFF431C044602D10248CA
:100C600000F0A2F8204610BDB96E000000F04CB8AC
:100C700008B500F049F838B100F04EF830B900F08E
:100C800043F80028FBD108BD4FF0FF3008BDEFF35B
:100C90001080C04300F001007047000008B5FFF766
:100CA000F6FF72B6064B1A6822B980F00100054AB9
:100CB000C0B210701A681A6801321A6008BD00BF0D
:100CC000C0060010BC06001008B5074B1A6852B1E8
:100CD000FFF7DDFF1A68013A1A601B681BB9034B66
:100CE0001B7803B962B608BDC0060010BC06001030
:100CF00030B585B06D46182420462946ABBE044663
:100D0000204605B030BD0000024B186800F001001D
:100D1000704700BFF0ED00E037B540F2051401ADBB
:100D200020462946ABBE0446204603B030BD000035
:100D300000B599B0FFF7B2FF17496846FFF7CEFE3E
:100D4000164906A8FFF7CAFE15490CA8FFF7C6FE0C
:100D5000144912A8FFF7C2FE019A039B96201A605D
:100D6000079A0A9B1A600D9A109B1A60139A159B9A
:100D70001A6002F00FFD019A049B96201A60079AF0
:100D8000099B1A600D9A0F9B1A60139A169B1A60A2
:100D900002F000FDE0E700BF32C0092034C00920A6
:100DA00035C0092037C009200FB4012008B502F072
:100DB00039FE01F06FBC000008B5024C236898476B
:100DC000FCE700BFCC00001008B50B4800F09AFD0E
:100DD0000A4B18600A4800F095FD0A4B18600A4853
:100DE00000F090FD094B186004F08CFABDE8084053
:100DF0000021084602F0D4BD386F0000141D001019
:100E0000346F0000CC060010306F0000C4060010E4
:100E1000FFF7D2BF10B5044600F0D4FC2146BDE870
:100E2000104002460148FFF7BFBF00BFF86E000048
:100E300002F0FCBE0B4AF0B4C2F1805303F500434C
:100E4000B3F5806F194628BF4FF48061064F074DF8
:100E50005B1A074C07489E183A602E6023600160B9
:100E6000F0BC7047B02400102C1A0010D4060010FB
:100E7000281A0010D006001000F028FEFFF7DAFF55
:100E80000348002100F0C6FD00F01EFCFEE7000054
:100E9000D0000010024B4FF0FF31186800F050BD39
:100EA000CC060010014B186800F072BDCC06001093
:100EB00030B502788C78013A4368D2B213B19D788C
:100EC000A54207D2022A4B60416006D803B199605F
:100ED000886030BD18465B68F0E700238B6030BD4A
:100EE000436802785968013A022A41604FF00002D3
:100EF00005D809B188605A609A60184670475A60F0
:100F0000FBE70000034B5A68426000225860826091
:100F1000704700BF08240010104B10B5DA688AB182
:100F20009A8A8A42DC680CD3C460D860C4680361C2
:100F300004B12061521A92B28282998A8A1A9A82E4
:100F400010BD3CB900248A1AC460D86003619A823B
:100F5000848210BDA38A1A442346E2E720240010AD
:100F60002DE9F041174DEB6853B10026AB8A164FBF
:100F7000013BDFF85880AB82AA8A0AB9EC680CB949
:100F8000BDE8F081A36833B161685960616809B157
:100F90008B606260A66021463846FFF789FFA38A0E
:100FA000AB826378042B01BFD8F80030E28A9B182B
:100FB000A38201236370E368EB600BB11D61E660FF
:100FC0002661D9E720240010082400109C2400107A
:100FD00083682BB142685A6042685AB19360704787
:100FE000054B5A68904202D142685A6070471346D6
:100FF000002AF6D1704700BF0824001010B584689D
:1010000001462CB94378012B0DD1074C03E0A468AD
:101010002378002BFBD00846FFF7DAFF2046BDE817
:101020001040FFF745BF10BD08240010036910B53C
:1010300063B1C268DA60C2684AB1998A848A21447D
:10104000998213610023C3600023036110BD9A825B
:10105000FAE7000070B4114BDD78EFF31086EFF380
:10106000108272B69A78954211D901329A701A7824
:10107000541CA54208BF00241C7006B962B69542F4
:1010800007D970BC03EBC203586099607047002E0B
:10109000F4D070BC0220FFF7BDBE00BF8C1C001056
:1010A000054B1B7823B94FF08052044B1A607047F0
:1010B0000122034B1A7070472817001004ED00E05E
:1010C0002917001038B51A4B1A4C186801234370C1
:1010D000FFF718FF6578A3783BB917486570FFF7ED
:1010E000FFFEBDE8384000F0CBBD04EBC5035868F7
:1010F00002789AB9198900F00BFAE37801359D421C
:1011000008BF0025EFF31083EFF3108272B6A278C8
:10111000013AA270002BDED162B6DCE7012A03D1CE
:10112000996800F083F9E8E701F006F9E5E700BF08
:10113000542400108C1C001008240010084B4FF0A1
:10114000FF301A68074B1A6000225A60072243F8E2
:10115000042C054A136843F07F431360704700BFB7
:10116000586F000014E000E020ED00E07047000040
:1011700008B50B4B186801234370FFF7C3FE00F05E
:10118000FDF9084A136801331360FFF7E9FE00F028
:10119000FFFC0548FFF7A4FEBDE8084000F070BD65
:1011A000542400109C24001008240010064B1A68D8
:1011B000136BD26A934203D81A68044B9A4202D046
:1011C0000120FFF727BE704754240010A52E5AE2D5
:1011D000F0B54FF080764FF0000E836A056B9B08E8
:1011E00002BF1E4B1B889B0805EB8302540748BFB8
:1011F000043A02E94200A2F14004A2F14406A2F13D
:101200000C0746F804EFBE42FBD1C66942F8206CD9
:1012100041631249C4620968C90017D5112B15D959
:101220006FF00701103B5B084B43A3F138010A4400
:101230004FF0CC30214691420BD108331C44231F80
:101240009D423CBF4FF0CC3344F8043C044B2B6030
:10125000F0BD41F8040C41F8080DECE7406F0000C8
:10126000A52E5AE2C36A19627047C36A19625A62AC
:101270007047002ABBBF22F000420732033222F03F
:101280000702A8BF22F0030210B5B4BF10230C233D
:1012900092B1D4188C420FD80144034454424160A7
:1012A0000360826021449818814202D300510346B2
:1012B000F9E70020186010BD012010BDEFF3108386
:1012C00072B6026803F001030AB11168016003B944
:1012D00062B61046704781420DD3436899420AD2E4
:1012E000EFF3108372B602680A60016013F0010028
:1012F00003D162B670470120704700207047012378
:1013000003700023103989084370837043600381A0
:1013100043818381C181704770B585890446164633
:10132000002D38D043891A1D50F8222001330A605D
:10133000C2899BB29A42438104BF00234381436820
:10134000F3B14378022B1BD1FFF7CAFD05460021FC
:10135000FFF788FF2389E9691A1D44F82210013339
:10136000E2899BB29A42238108BF0023284608BF26
:101370002381FFF75BFE284600F09CFC002070BD37
:10138000EFF31080EFF3108372B6013DA5810028C2
:10139000F4D162B670BD4AB14268094B42B11968D6
:1013A000FFF786FD0821304600F0A6FC012070BD45
:1013B0001B6843605A60986001234370F2E700BFE6
:1013C00054240010C2898089101A704708B5FFF7AD
:1013D00041FEBDE80840FFF763BE838910B50446AF
:1013E0000BB34389043350F823300B604378022B4E
:1013F00004D10021FFF72EFEFFF752FEEFF310831A
:10140000EFF3108272B6A289013AA28103B962B6E3
:101410006389E28901339BB29A42638101D100233F
:101420006381042010BD184610BD0000436870B5EC
:1014300004460E46002B4BD04578022D20D0032DBC
:101440000AD0012D61D1FFF74BFD04463246102131
:10145000FFF70BFF65700EE00846FFF72FFF05460C
:10146000002852D02046FFF73BFD29460446FFF7EF
:10147000F9FE012363702046FFF7D8FD214622E0E4
:10148000FFF72EFD05460021FFF7ECFE2389E969F1
:101490001A1D44F82210EFF31082EFF3108172B698
:1014A000A1890131A18102B962B6E28901339BB2FF
:1014B0009A42238104BF00232381012328466B70B5
:1014C000FFF7B4FD2946BDE870401048FFF7F0BCB7
:1014D0008089E189884213D223891A1D44F8226049
:1014E000EFF31082EFF3108572B60130A08102B9DC
:1014F00062B601339BB2994208BF0023238170BDBD
:101500000320BDE87040FFF785BC70BD08240010C3
:1015100010B5038B42781943062A04460183438B96
:1015200015D133EA010219D121EA030121832046B2
:10153000FFF77CFD012320466370628B0821FFF7D3
:1015400094FE2146BDE810400548FFF7B1BC052ACE
:1015500004D111EA030201D04283E5E710BD00BFC8
:10156000082400100022034B1A60034A1268DA8034
:10157000704700BF402400103C6F000008B50E4BC0
:101580005A680E4B196891420D4905D01A60DA88E5
:101590000868013A02449A8098880A8890420AD1E1
:1015A000002205481A60FFF79BFCBDE80840014691
:1015B0000148FFF77DBC08BD08240010402400103E
:1015C0009C24001030B500240A4A136843B9036014
:1015D000816013B19D68691A996044B1206030BD83
:1015E0009D68A942F3D31C46491B1B68EEE71060B7
:1015F00030BD00BF50240010C0B1431C11D00C4BB3
:10160000984211D84FF47A710A4B1B685A1E01FB9D
:101610000020B0FBF3F34FF6FE70834206D898B279
:1016200070474FF6FF7070474FF6FE70704700BF6F
:1016300000093D00F46E000038B1830704D103783F
:10164000002B18BF0020704700207047B0B50E4D2A
:1016500000AF2878A8B90D4C236893F8241000F047
:101660006DFB2368DA78FF2A03D1DA6A203282F32D
:10167000098862680AB984E80C0000F017FD0123AC
:101680002B700020B0BD00BF4D240010542400106A
:10169000014B1878704700BF4D24001010B5EFF3D0
:1016A000108434B9EFF305841CB9EFF31484E40714
:1016B00002D4034B187810BDDFF808C000DF10BD5E
:1016C0004D2400109116000090B589B000AFEFF3E3
:1016D0001083002B37D1EFF30583002B33D1FFF7B5
:1016E000DDFF28B9194C246814B1646804B1A0471F
:1016F000EFF3148404F00304022C18D0032C1CD044
:10170000012C1ED007F1200484F30988104C2478A2
:10171000E40710D5022484F31488BFF34F8FBFF37E
:101720006F8FDFF830C000DF2437BD4690BD084C16
:101730002478E407F5D40324EDE7054C2478E40786
:10174000EFD5FF20F0E78220EEE700BF3C24001039
:10175000226F00004D16000070B50B46164602467B
:1017600010B90024204670BD00680028F9D0B2F9F5
:101770000440E51CADB2062DF3D8D168C1B11269A1
:10178000043444EA012100F017FB0028E9D00A4B99
:10179000013853F82040094AE36A5A63084B1B6832
:1017A00043B19B6833B13146E0789847E063D9E7AD
:1017B0000A46E5E7E663D5E7501C00106119000012
:1017C0003C24001008B500F0B1FA18B1024B013802
:1017D00053F8200008BD00BF501C001010B5FFF7E3
:1017E0002BFF044670B1084B1B681BB1DB680BB1C3
:1017F000C06B9847E07800F035FBFF280CBF8120D4
:10180000002010BD802010BD3C24001008B528B178
:10181000FFF7F2FE00F08CFD402008BD08BD00007F
:1018200010B5EFF3108434B9EFF305841CB9DFF879
:101830000CC000DF10BD822010BD00000D1800009C
:10184000830705D138B1436901691B6818467047A1
:1018500000231946FAE70346FBE7000010B50446EB
:101860000846DFF80CC000DF84E80300204610BD06
:101870004118000010B548B1046824B1237823B999
:10188000204600F059FC204610BD002010BD70B568
:1018900010F0030405460E4611D180B10378032BE6
:1018A0000DD10846FFF7A8FE0146284600F012FDBC
:1018B000012806D1002E14BFC120812070BD8020D8
:1018C00070BD204670BD820708B50AD148B10378C3
:1018D000032B06D100F08EFCFF280CBF81200020D6
:1018E00008BD802008BD10B510F0030407D130B149
:1018F0000378032B03D100F027FC204610BD802085
:1019000010BD000070B50546EFF3108494B9EFF3F5
:1019100005867EB9EFF31484E40706D4064C2478D8
:101920001CB9BDE87040FFF7A5BF2846DFF80CC022
:1019300000DF70BD002070BD4D2400107518000040
:1019400010B5EFF3108434B9EFF305841CB9DFF858
:101950000CC000DF10BD822010BD00008F180000F9
:10196000084808B54FF0FF310068FFF7E9FFDFF8DE
:1019700018C000DF0446FFF75BFA2046DFF80CC012
:1019800000DFFEE748240010C5170000DD17000047
:1019900010B5EFF3108434B9EFF305841CB9DFF808
:1019A0000CC000DF10BD822010BD0000C718000071
:1019B0002DE9F04180460F461646EFF3108404BB34
:1019C000EFF30583D3B9EFF31483DB0706D40E4B93
:1019D0001B781BB9BDE8F041FFF7BEBE0B4D4FF0C1
:1019E000FF312868FFF7ACFF404639463246DFF842
:1019F00020C000DF04462868FFF7CAFF2046BDE884
:101A0000F0810024FAE700BF4D24001048240010A4
:101A1000591700000022FFF7CBBF000010B5EFF30D
:101A2000108434B9EFF305841CB9DFF80CC000DF73
:101A300010BD822010BD0000E718000010B504465C
:101A400060B1016851B1406848B1037833B90431DD
:101A5000890089B2FFF753FC606810BD002010BDFB
:101A600038B5114C23780BB900F0A6FAFF220F4BC2
:101A700025781B689A708DB929460D48FFF7DEFF5F
:101A80000C4B2A46186029460B48FFF765FE0B4BA6
:101A900018600B48FFF736FF0A4B1860012300203F
:101AA0002370094B187038BD4C24001054240010CA
:101AB000286F0000101D0010446F00000424001067
:101AC0005C6F0000482400104D24001010B5EFF3A7
:101AD000108474B9EFF305845CB9EFF31484E40760
:101AE00003D4BDE81040FFF7BBBFDFF80CC000DF38
:101AF00010BD822010BD0000611A00002DE9FF41D9
:101B00000C46804618B30378012B25D10846FFF711
:101B100073FD02A902464046FFF7FEFB012811D1E2
:101B20000020002C0246034618BF402002990446BC
:101B30000D4616461F462046294632463B4604B00F
:101B4000BDE8F0810020024603461020EEE7802425
:101B5000054606460746EEE7002580242E462F461A
:101B6000E9E770B50E461446054660B15AB90378E8
:101B7000012B08D1FFF726FC38B128463146FFF784
:101B800025FC204670BD802070BD812070BD000006
:101B9000F8B5114E34682CB1A368104F013BA36017
:101BA000A26802B1F8BD2568214638683560FFF7A4
:101BB000D8FF10B10420FFF72DF96379012B07D16D
:101BC000E1682046FFF7FEFC002DEBD02C46E7E74E
:101BD00001232371F8E700BF50240010101D0010EE
:101BE0007FB504461646084601B122B18023236022
:101BF000204604B070BD0B78012BF7D102A9FFF786
:101C0000ECFB042808BF102301AD14BF019601931B
:101C100095E8070084E80700EAE7000038B50446C5
:101C20001546EFF3108010B9EFF3058028B12A466E
:101C30002046FFF7D5FF204638BD08461146DFF89D
:101C40000CC000DF84E80700F5E70000FD1A000083
:101C50007FB50A4C4FF0FF32216803A8FFF7DEFF83
:101C6000039B102BF6D1049901A8FFF7F7FD019B08
:101C7000002BEFD002989847ECE700BF101D001032
:101C8000054B586002234370044B1B681BB11B6952
:101C90000BB1C06B18477047542400103C2400104F
:101CA00008B50348FFF71CF9BDE80840FFF7E8BF97
:101CB0000824001070B5044618B9BDE87040FFF75D
:101CC000EFBF0B4EA2783068012583789A4208D97D
:101CD000FFF718F9336820465D70BDE87040FFF7E4
:101CE000CFBF65702146BDE870400248FFF7E0B8FD
:101CF000542400100824001038B50D46014680B168
:101D00004FF6FF739842074C02D02068FFF704F9A2
:101D1000236805485D70FFF7E3F8BDE83840FFF73A
:101D2000AFBF38BD5424001008240010024B1868BF
:101D300000B1C078704700BF5424001010B5A8B996
:101D4000194B1B68997083F82410184843689B78D6
:101D50008B4201D8002010BD134C2168FFF7A8F872
:101D6000012223685A70FFF79BFFF3E7104B1B8893
:101D7000984217D80F4B013853F8204094B10A4BC2
:101D8000A1701B6884F824109C42DED02046FFF727
:101D900035F96378012BDDD10448FFF7A1F8FFF78F
:101DA00089FFD7E7FF2010BD54240010082400103D
:101DB000246F0000501C00102DE9F0470D4611F073
:101DC000FF0F8046234816469A4608BF0135FFF7A5
:101DD00075FA044620B94FF000094846BDE8F0877F
:101DE00000211D4B06631B88280A1C4EA0628B42F3
:101DF00001F10109EFD006EB890252F8042C0F46DD
:101E00004946002AF3D10123EDB284F80390C4F8C7
:101E10001CA0C4F838A022706370A57084F8245008
:101E20006260A260E26022612262A282E282228378
:101E3000628384F8252018B90948FFF73FFA206328
:101E400020464146FFF7C4F9204646F82740FFF7F1
:101E500031FFC2E738200010246F0000501C001032
:101E6000401A00102DE9F84F4D4D18B12B68DB7862
:101E7000984241D100232C680127637001F009FFCB
:101E8000E062FFF793F92B68DFF828811C6AA4B998
:101E90002A684449D3784448013B41F82340116BF8
:101EA000FFF719FA296841480C63FFF714FA2C6010
:101EB000FFF7F6FE2046BDE8F88F6368B3B1204611
:101EC000FFF70EF806460021FFF7CCF93046FFF782
:101ED000ADF8777031464046FEF7EAFFE368326AB4
:101EE0006780A660E26034621C46D0E7E2686380E7
:101EF000A360E3601446CAE72D4B1B8898424DD877
:101F0000284B471E53F827609946002E46D04FF0C5
:101F1000010A3046FFF75CF83046FFF787F8DFF834
:101F200094B0346AB4B9316B1F4849F82740FFF7C1
:101F3000D2F9314634631D48FFF7CDF91D482968B1
:101F400043689A788B789A42B4D901234B70FEF794
:101F5000AFFFADE76368DBB12046FEF7C1FF804607
:101F60000021FFF77FF94046FFF760F888F801A0ED
:101F700041465846FEF79CFFE368D8F82020A4F8B5
:101F800002A0C4F80880E260C8F820401C46C9E7F7
:101F9000E2686380A360E3601446C3E7FF2489E737
:101FA00054240010501C0010401A0010382000105B
:101FB000246F00000824001038B52C4B2C491A88D7
:101FC0000023184693424DD32A4B402219882A48B1
:101FD000FFF74FF9294B2A481A882A4B42F0004252
:101FE0001968FFF746F9284B08221988274B284C17
:101FF0001868FFF73EF9FF230025E370012320480E
:102000006370A5622570A57084F824506560A56092
:10201000E56025612562A582E5822583658384F8D4
:102020002550FFF74BF91B4920632046FFF7D0F8F6
:102030000422194B20461A705D60184B1A70DD603F
:102040001D619D82164B1C6002236370FFF718FE12
:10205000144A154B12781D705D70DA70BDE8384077
:10206000FFF780BA41F823000133ABE7246F00008B
:10207000501C0010F06E000038200010406F00006F
:10208000401A0010EC6E0000F26E0000C80600104E
:102090005C240010110E0000082400102024001001
:1020A00054240010216F00008C1C001008B51E4B3A
:1020B0001A6842F47F021A601B681B0203F07F4318
:1020C000DB43B3FA83F3194ADBB21268C3F10803A6
:1020D000C2F30222934298BF531C6FF080721448DF
:1020E00002FA03F3016803F07F4321F07F421343B8
:1020F0000360FFF723F80F4B0028186012DBFF2264
:10210000012100F1604000F5644002701A68530933
:102110009B0003F1604302F01F0203F5614301FAE3
:1021200002F21A6008BD00BF20ED00E00CED00E0F7
:102130001CED00E0382400100323037000234380CB
:1021400043608360C3607047F8B5438804469BB121
:102150008068036A9C4228D1E368036290F82430C7
:10216000026A52BB82789A4206D083701F4B1B686A
:10217000984201D0FEF742FF01261D4F656825BB3E
:102180001B4843686BB1194E9A7831688B789A4234
:1021900007D9FEF78DFE0122336828465A70FFF7F3
:1021A00089FD00202070F8BD1346002BD6D0DA68D8
:1021B0009442F9D1E268DA60D0E7516819B18978C0
:1021C0008B4238BF0B46D268CBE72046FEF788FE2D
:1021D00005460021FFF746F82846FEF727FF6E70F8
:1021E00029463846FEF764FEC8E700BF54240010B5
:1021F000082400102DE9F84343880546002B63D0DE
:10220000324F81683A6891425ED1013B9BB2438074
:102210001BB100242046BDE8F8830B6A984229D1FF
:10222000C3680B6291F824300C6A5CBB8B706A68DF
:10223000DFF89C80002A3BD02846FEF751FE064678
:102240004FF001092146FFF70DF83046FEF7EEFE8C
:10225000336A3968EB60D8F80430A5F80290AE60B4
:1022600035628A789B789A4214D33046FFF722FD74
:10227000D0E71346002BD5D0DA689542F9D1EA6849
:10228000DA60CFE762681AB19278934238BF13469A
:10229000E468CAE74046FEF70BFE31464046FEF7CB
:1022A00007FE3B6883F8019086F801902046DDE741
:1022B000D8F8042092789A42ABD94046FEF7F8FD50
:1022C00001223B685A70F1E7FF24A3E75424001071
:1022D00008240010438870B504460E46134D43B9D8
:1022E0002A68116A8260C160106201336380002035
:1022F00070BD80682A689042F7D081B19378827867
:102300009A4202D28370FEF779FE62684AB1296868
:102310002046FEF7CDFD09213046FFF7EDFC0120F8
:1023200070BD2B6863605A609C60F4E75424001011
:102330000321FFF7E1BC0000426810B57AB1FEF757
:10234000CFFD0446FEF772FE012120466170FEF7C4
:1023500089FF2146BDE810400348FEF7A9BD428829
:102360000132428010BD00BF0824001070B50C4639
:102370000A4D064629462046FEF768FC084A30709A
:10238000D2F8A831294623F44003C2F8A8312046E8
:10239000FEF722FC0022034B1A6070BD606F000044
:1023A00000C00F4000C0084038B50D460021284647
:1023B00002F070FC0B4C10B10023236038BD4FF0CD
:1023C0007E51284602F084FC10B14FF6C073F4E74A
:1023D0000549284602F0C0FA02F084FC800180B270
:1023E000206038BD00C0084000C07F442DE9F74F91
:1023F0004FF0010A3A4C3B4AD4F80490DFF8E8B0B9
:10240000D4F80880676AA66AB9F1000F15D1DFF821
:10241000D490DFF8D4A0B8F1000F22D14FF0010A18
:10242000DFF8C080DFF8C09077BB2E4FDFF8B880B0
:10243000002E3ED103B0BDE8F08FB9FA89F5C5F1A1
:102440001F05EDB252F8250028B10121DBF800305C
:1024500001929847019A0AFA05F5E560A9EB05098A
:10246000D2E7B8FA88F5C5F11F05EDB259F8250095
:1024700018B10221DAF800309847012303FA05F574
:10248000E560A8EB0508C6E7B7FA87F5C5F11F05B3
:10249000EDB20F2D08D805F1200358F8230018B12C
:1024A0000121D9F8003098470AFA05F5E5627F1B4B
:1024B000BAE7B6FA86F5C5F11F05EDB20F2D08D8BB
:1024C00005F1200357F8230018B10221D8F8003095
:1024D0009847012303FA05F5E562761BA8E700BFDC
:1024E000808002403C170010FC17001070B51E469B
:1024F0004B1C044622D0124B124D1A6021F01F03D0
:10250000036001F01F0321F05F01A942436002D084
:102510000D48FEF749FC23686268AB420B4918BFBF
:10252000203241F82260A2600949152000F07EFCAB
:102530004FF40012074B00201A6070BD084670BDB2
:10254000FC17001000C00920786F00003C17001035
:10255000ED23000000E100E000218268014B43F818
:10256000221070473C17001030B503682C4DAB4269
:1025700009D02C4CA34217D0012930D1AB420AD04C
:10258000A34219D030BD01234468012903FA04F3A2
:10259000254CE36030D1012340682349AAB10A6980
:1025A000834013430B6130BD01234468012903FAC2
:1025B00004F31D4CE36216D1012340681A494AB165
:1025C0000A6B834013430B6330BD0A69834022EAE0
:1025D0000303E7E70A6B834022EA0303F3E7AB4216
:1025E0000AD0A342CED1012340680F4992B14A6B71
:1025F000834013434B63C5E7012340680A4922B176
:102600004A69834013434B6130BD4A69834022EAE3
:102610000303F8E74A6B834022EA0303EAE700BFBB
:1026200000C0092040C009208080024010B5002170
:10263000044600F0B5FB012004F01F04A04010BDCB
:1026400038B505464B1C0C4629600FD00846FFF7ED
:10265000EDFF24F01F0404F11803EB6004F11C03E8
:102660002B6104F1140368606B61AC6038BD0068D5
:1026700000F0AFBB11B1012907D0704782684168F3
:10268000136823EA01031360704782684168136886
:102690000B43F8E708B5FEF7EBFA0022044BC3F84A
:1026A000C020044A136923F00403136130BF08BD3E
:1026B00000C00F4000ED00E0012810B408D002284F
:1026C00008D010BC7047506820F00100506010E046
:1026D00003460EE038230F4803FB0103586801301E
:1026E00006D018699C68046093F83630002BEAD055
:1026F0000023382251430748421840580028E0D0B0
:102700001BB992F83620002ADBD0034A194612681A
:1027100010BC10470818001000180010034A0021D0
:102720009068C0F34200FFF7C7BF00BF00C0004081
:10273000034A01219068C0F34200FFF7BDBF00BF0C
:1027400000000140034A02219068C0F34200FFF7F5
:10275000B3BF00BF00800940034A03219068C0F363
:102760004200FFF7A9BF00BF00C0094070B50B468B
:10277000066829498E4222D006DCA1F580418E42AE
:102780000CD000210C460BE024498E421AD001F5F2
:1027900080418E42F5D12249082401E005242149D7
:1027A0009AB10125726805FA03F31343736020465A
:1027B00000F03CFB1C4B05FA04F41C6070BD1B4987
:1027C0000624EDE71A490724EAE7012B0AD04268FC
:1027D0003820184900FB021292F8361092F8352082
:1027E000D14217D1012202FA03F0B3FA83F37168E0
:1027F0005B0921EA00017160716802FA03F30B4280
:1028000008D1094B02FA04F4C3F88040BFF34F8F9C
:10281000BFF36F8F70BD00BF000001400080094012
:10282000592700001D27000000E100E031270000CB
:1028300045270000081800102DE9F04F644B04688C
:1028400087B09C4200F08D806ADCA3F580439C42F7
:1028500079D0604B0801D3F800C0BCFBF0F293B212
:1028600000FB12C2002A00F0AA800125E646994624
:10287000AB464FF0000A0191039100264FEA4E0348
:102880000493DDF804804FEA8E03EFB20593F3B2B0
:102890000093049B002BABBF059BB3FBF8F3B3FB8A
:1028A000F8F31B09A8BF5B090133C3F34F03002BE7
:1028B00000F0888016B1012B08BF0223A8195843E5
:1028C000C000BEFBF0F00130C1EB50000028B8BFE3
:1028D00040420290029A0398824262DA91425AD1AF
:1028E0000F2D07D1BB469946DDF800A05F464B4649
:1028F000CDF800A0217B41F080012173C3F30721B3
:10290000DBB221712370009B43EA0712D2B284F834
:102910002820237B03F07F03237307B0BDE8F08FEB
:102920002D4B9C4229D003F580439C4291D12B4BE7
:10293000D3F8AC2122F44022C3F8AC21D3F8AC2167
:1029400042F4802224E0254BD3F8A82122F0C002D3
:10295000C3F8A821D3F8A82142F04002C3F8A82167
:1029600077E71E4BD3F8A82122F44072C3F8A821C0
:10297000D3F8A82142F48072F0E7184BD3F8AC21C9
:1029800022F44032C3F8AC21D3F8AC2142F48032B7
:10299000C3F8AC215DE7BB469946029ADDF800A07A
:1029A00003920136F3B2BB428844FFF470AF0F2D9F
:1029B0009CD0019B01350B44E64401935DE7012760
:1029C000009297E7002E0CBF0123022376E700BF99
:1029D00000000140E40000100080094000C00F40EA
:1029E000034B1960382341684B430249CA50704772
:1029F000001800100818001010B50268137DDB07DE
:102A0000FCD5382443680848117804FB0303586850
:102A1000C9B2013006D058699B680360536843F01F
:102A200001035360084610BD081800103821114AF0
:102A3000436801FB0323DA69013209D01A6B1B6A70
:102A400012681A4214D10368187DC0F380107047D1
:102A50000268127D920604D50022012083F83420FA
:102A6000704793F834000F288CBF00200120704776
:102A7000002070470818001038B504460D4620465F
:102A8000FFF7D4FF0028FAD038212368EDB21D707B
:102A90006368044A01FB032393F83420013283F86E
:102AA000342038BD081800102DE9F84F9A463C4CE8
:102AB00003680546A34218BF00248946904647682C
:102AC0001CB1237C03F03F03237438234FF0FF3203
:102AD000344E284603FB0763DA615A60002283F80C
:102AE00035201146FFF742FEB9F1000F55D02E49AF
:102AF0004046FEF79FF82D4983465046FEF79AF868
:102B0000A9F10203012B1BD8BAF1FF3F0BD0244BD4
:102B100098420DD164B1237C244943F0800323748F
:102B20005046FEF759F8B9F1030F0CD0BDE8F88F05
:102B3000382000FB076051461C30FDF7BCFFF2E770
:102B4000B9F1010F29D1B8F1FF3F01D1BDE8F88FEC
:102B500007222B681A72124B9B450AD14CB1237C79
:102B6000404643F0400323740F49BDE8F84FFEF799
:102B700033B8382404FB0760414600220430FDF7D7
:102B80009DFF01226B68284604FB036686F835200A
:102B90000021BDE8F84FFFF7E9BDBDE8F88F00BFA1
:102BA0000000014008180010CC6F0000A86F000062
:102BB0002DE9F0410F460546464938461646FEF7D0
:102BC00045F8454904463046FEF740F801462046A0
:102BD000FEF71EF8414B0446984228605DD047D866
:102BE000A3F58043984250D001234FF00008237290
:102BF0004FF416512846C4F80480FFF71DFE032247
:102C00002B6834491A733846FDF7E6FF32493046DF
:102C1000FDF7E2FF7A1C03D04146384600F0D9F8B0
:102C2000731C03D00021304600F0D3F82B4B9C429C
:102C30004BD03ED8A3F580439C4243D038216A68EC
:102C4000274B284601FB02324FF0FF33002153602F
:102C5000D3611A46FFF728FF224B9C4206D101227E
:102C6000214B69681A602868204B03C3BDE8F081D6
:102C70001F4B984217D003F580439842B4D11D4AA8
:102C8000D2F8C43043F0007304E01A4AD2F8C430DA
:102C900043F00803C2F8C430A6E7164AD2F8C4309D
:102CA00043F01003F6E7134AD2F8C43043F08073C0
:102CB000F0E70F4B9C420AD003F580439C42BDD104
:102CC000032300E000236B60B8E70123FBE7022346
:102CD000F9E700BF5C700000F06F000000000140E9
:102CE0000818001000C0004004180010A0240010B4
:102CF0000080094000C00F4008B5104B1868E0B9CB
:102D000001210F4A1960D2F8C43043F40003C2F81D
:102D1000C430A2F5D022106702200A4B1B68506015
:102D20000948B3FBF0F3013BD3600420516007492D
:102D300000F07CF81022064B1A6008BDE81800105D
:102D400000C00F40E400001000093D00ED0A000043
:102D500000E100E008B5044B1B680BB9FFF7CCFF9E
:102D6000024B986808BD00BFE818001000400940F9
:102D7000034B98615A6942F001025A61704700BFE3
:102D800000400940024A536923F001035361704730
:102D9000004009400122014B1A6070470040094081
:102DA00010B5032400F16040A0F51C204300000989
:102DB000800000F1804000F53030026803F01E030F
:102DC0009C4022EA040202600268994011430160BB
:102DD00010BD00F16040A0F51C2043099B0003F1E9
:102DE000804303F5303330B500F01F029C6EC1F311
:102DF000800505FA02F224EA02049C669C6E2243D6
:102E00009A6695B9032443000009800000F18040D0
:102E100000F53030026C03F01E039C4022EA0402ED
:102E20000264026C99401143016430BD30B50C4C12
:102E3000A268A4681346B4F1805F0CD2131F094C3A
:102E4000094A53F8045F42F8045FA242F9D14FF0F7
:102E50008053034A9360103043F8201030BD00BF08
:102E600000ED00E0C0000010FCFFFF0F2022264B09
:102E7000C3F8A021D3F8A021920603D5D3F8A0214E
:102E80005006FBD50222C3F8042100220120C3F81A
:102E9000A821C3F8AC210B22C3F80C01AA21C3F866
:102EA00084205522C3F88C10C3F88C20C3F880000E
:102EB000C3F88C10C3F88C20134B1A46D3F8881033
:102EC0004901FBD50321C3F88010AA21C3F88C1057
:102ED0005521C3F88C10D2F8883013F0407FFAD017
:102EE0000523C2F80831094BC2F8C4300023C2F8E8
:102EF000C831136823F4704323F03A0343F440537A
:102F000043F03A031360704700C00F40DE87280487
:102F10000368DB69184703685B69184703689B6AA5
:102F2000184700F015BBA0F13000FFF7FABF00F022
:102F300012BBA0F13000FFF7FABF4FF0FF31443071
:102F400000F096BEA0F13000FFF7F7BF443000F06C
:102F500092BEA0F13000FFF7F9BF000038B504467B
:102F60001D46049B00F0FEFA294604F1300000F0F3
:102F70008FF8064B04F1440003F108022833226065
:102F8000236300F05DFE204638BD00BFC87000001E
:102F900010B5044643694168194400F039FB636A7F
:102FA00004F118001B68BDE81040184738B5044606
:102FB0000D46FDF773FE204600F030FB6561206989
:102FC000FDF707FE2918204600F022FBBDE8384037
:102FD000FDF77ABE7FB506466D46FDF75FFE3046CB
:102FE00000F01CFB002306F11804AC4203930BD045
:102FF0002046FDF725F93CB1039B1BB15B68694690
:1030000020469847039B73622846FDF719F9FDF7A0
:103010005BFE04B070BD70477047F8B50E4603689C
:1030200004469B6B8F1835469847BD4207D02368EE
:1030300015F8011B1B6C204698470130F5D1236819
:103040002046DB6B9847A81BF8BDF8B50E46036811
:1030500004469B6B8F1835469847BD4208D02368BD
:1030600020465B6C9847431C02D005F8010BF4E73F
:1030700023682046DB6B9847A81BF8BD00207047EB
:103080000020704770470020704700207047000004
:103090001FB50446002200F077F8094B2246236052
:1030A00000230849236101A803F012F8064901A88A
:1030B00002F070F8206100F0B8FC204604B010BDAA
:1030C000A4710000947100009871000010B50446CE
:1030D000054B0360006901F0A3FE044B204623600A
:1030E00000F076F8204610BDA47100005471000075
:1030F0000EB477B50446036807AD55F8046B9B6BB7
:1031000098472069019501F045FF019A31462069F1
:1031100002F0DAFB054623682046DB6B9847284619
:1031200003B0BDE8704003B07047884238B504462C
:103130000D460AD0FDF784F83CB1EB681BB15B6823
:10314000294620469847EB68E360204638BD007B5F
:1031500070470000036870B5044683B9094D4FF00D
:10316000FF312868FEF7ECFB23682BB9261D02D03F
:10317000304600F065FD26602868FEF709FC2068EF
:1031800070BD00BF141D001038B50E4B044603601F
:1031900000230D464360A16002730B48FFF7DAFF7E
:1031A0004FF0FF3100F064FD55B1084B1A681C6008
:1031B00062600548FFF7CEFF00F05DFD204638BD98
:1031C0006560F6E7F4710000F0180010EC180010CC
:1031D00010B50446114B03601148FFF7BBFF4FF0D9
:1031E000FF3100F045FDA3682BB10E4A13689C42E5
:1031F0000ED1636813600A48FFF7ACFF00F03BFD97
:10320000237B13B9204600F037FC204610BD13463F
:103210005A689442FBD162685A60ECE7F47100008E
:10322000F0180010EC18001010B50446FFF7D0FF9E
:10323000204600F01EFC204610BD0000F8B50746F1
:1032400010480E46FFF786FF4FF0FF3100F010FDEB
:103250000D4B1C6864B1A5688DB1324639462846CD
:1032600002F0DBFF58B9284602F0CFFF864206D1B4
:103270000448FFF76FFF00F0FEFC2046F8BD6468CD
:10328000E8E700BFF0180010EC18001070470000CD
:1032900010B50446074B40F81C3BFFF75DF904F1FD
:1032A0003800FCF7CDFF04F12800FCF7C9FF2046E9
:1032B00010BD00BF0472000010B50446FFF7E8FF20
:1032C000204600F0D6FB204610BD00002DE9FF414E
:1032D00005461C4B044645F8043B18220E4628467A
:1032E000002102F0DAF80023DFF86480164FE36172
:1032F0002362636263636364694604F12800CDF866
:1033000000800397FFF711FF6846FCF799FF6946B5
:1033100004F13800CDF800800397FFF706FF6846F8
:10332000FCF78EFF2346094A314604F11C00FFF7E3
:10333000DDF828463146FDF7BEFB204604B0BDE867
:10334000F08100BF04720000546E0000F3330000EF
:103350008D3200007FB50E460446FDF79FFCF568F0
:1033600004F128001C345DB13146FFF7DEFE012276
:1033700001212046FFF7F8F8FDF7A6FC04B070BD68
:10338000054B69460093054B0393FFF7CEFE684655
:10339000FCF756FF2A46EBE78D320000546E000022
:1033A0007FB50E460446FDF779FCF56804F1380058
:1033B0001C345DB13146FFF7B8FE012202212046E0
:1033C000FFF7D2F8FDF780FC04B070BD054B6946ED
:1033D0000093054B0393FFF7A8FE6846FCF730FF08
:1033E0002A46EBE78D320000546E0000C3681B686C
:1033F0001847012908B502D0022904D008BD283099
:10340000FFF7F4FF08BD3830FAE7002310B503607A
:1034100043600A7804462F2A0DD14A785AB1481CD5
:103420001946206023681A782F2A06D101332360B9
:10343000FFF704FF6060204610BD002AF8D001337A
:1034400001312360EEE700687047406808B520B19D
:10345000FFF77DFE431E5842584108BD10B5044693
:10346000FFF7F3FF00B1606810BD406808B520B1F8
:10347000FFF76DFEB0FA80F0400908BD10B50446B4
:10348000FFF7F3FF00B1606810BD4068003018BF5F
:103490000120704710B50446FDF700FC23682BB9E6
:1034A000E068FDF796FB012360602360BDE81040F3
:1034B000FDF70ABC38B50546FDF7F0FB2C6824B1D2
:1034C000E868FDF786FB6C68041BFDF7FDFB2046F2
:1034D00038BD38B50546FDF7E1FB2846AC68FFF777
:1034E000E9FF0444FDF7F0FB204638BD08B5FFF7BF
:1034F000F0FF01F0DDF9024901F0E2FA08BD00BF7A
:103500000024744910B50446FDF7C8FBE068FDF7D8
:1035100060FB00236060A360BDE81040FDF7D4BBF2
:10352000002310B50360436083600446FDF7DAFAB8
:10353000E0602046FFF7E6FF204610BD7047704769
:10354000704700EB0112936902F10C001B681847E9
:103550000430FFF751BA10B50C460430FFF78CFA6F
:10356000204610BD2DE9FF410F460021044690463C
:10357000174A184E184DC362026041608160816134
:10358000816269460C3003950096FFF7CEFD6846D0
:10359000FCF756FE694604F11C0003950096251DB4
:1035A000FFF7C3FD6846FCF74BFE42463946284606
:1035B000FFF7FEFAE16A2846FFF73EF92846224661
:1035C0000649FFF70DFA204604B0BDE8F08100BFC0
:1035D000147200003D350000546E000043350000B9
:1035E00003689B6818470000074B10B50360002371
:1035F00043608360C3600446FDF774FA03492061A9
:10360000FDF77AFA204610BD2C720000E13500006B
:1036100003460A46011D0069FDF79ABA011D0069BB
:10362000FDF7B7BA10B50446024B0360FFF7F6FF8B
:10363000204610BD2C720000436A18301B681847E2
:1036400010B50446006930B1036861695B6A984748
:103650000023236110BD6FF0150010BD30B4044687
:10366000006903689D6A1346AC460A46616930BC2E
:10367000604730B4044600690368DD6A1346AC460F
:103680000A46616930BC6047036941691A68184697
:10369000126B1047036941691A681846526B10474C
:1036A00030B40446006903689D6B1346AC460A4675
:1036B000616930BC6047036941691A681846D26B7A
:1036C0001047036941691A681846126C104703696C
:1036D00041691A681846526C104770B50D46016969
:1036E000044641B929680E6A00F114012846B04722
:1036F00018B9256170BD6FF0150070BD074B10B58E
:103700000360036904460BB1FFF79AFF044B2046A0
:103710002360FFF75DFD204610BD00BF547200001E
:103720005471000010B50446FFF7E8FF204600F092
:10373000A0F9204610BD0000002210B50446114635
:10374000FFF722FD034B20462360002323616361C2
:1037500010BD00BF5472000001F0F4BE01F050BF74
:1037600001F0A4BE70B505464FF47A74FFF7F2FA83
:1037700095FBF4F4002C064602DDFDF788FA28B923
:10378000FFF7E8FA801BA842FAD370BD204600F08C
:1037900055FAF5E74FF47A735843FFF7E3BF00009B
:1037A000034B10B503600446FFF7A8FF204610BD89
:1037B000A072000008B5084B1B685BB907490848B0
:1037C000084AFFF7F5F94FF41651BDE808400448E0
:1037D000FFF732B808BD00BF0418001002C009206E
:1037E000A024001003C0092070470000022810B573
:1037F000044601DC002010BD01F0BAFA09230022C2
:103800000360094B033C53F8240043F8242040B1E3
:1038100003681B699847041EECDA01F0A9FA6442B8
:1038200004604FF0FF3010BD0C190010F8B50546CC
:103830000E46144601F09CFA0923022D03600FDCAA
:10384000124B1B680BB9FFF7B5FF35463719104E01
:10385000BD4215D015F8011B3046FFF70DF9F7E70B
:103860000C4B033D53F8250060B103682246DB682A
:1038700031469847041E03DA01F07AFA6342036086
:103880002046F8BD4FF0FF34FAE700BF04180010DF
:10389000A02400100C19001070B504460D46164601
:1038A00001F066FA0923022C03600BDC0F4B1B6846
:1038B0000BB9FFF77FFF0E48FFF79EF80124287031
:1038C000204670BD0B4B033C53F8240058B10368ED
:1038D00032469B6829469847041EF1DA01F048FAFF
:1038E00063420360ECE74FF0FF34E9E7041800108F
:1038F000A02400100C19001010B5044601F038FA8D
:103900000923022C036010DD0A4B033C53F824000A
:1039100040B103689B699847041E08DA01F028FA51
:10392000644204604FF0FF3010BD012010BD002044
:1039300010BD00BF0C19001070B504460D461646A8
:1039400001F016FA0923022C03600BDD084B033C3F
:1039500053F8240040B1036832462946BDE8704060
:10396000DB691847002070BD4FF0FF3070BD00BF0D
:103970000C190010022808B504DC4FF40053002095
:103980004B6008BD01F0F4F9092303604FF0FF30EC
:1039900008BD08B5FFF728FFFDF76EFA08BD7047B0
:1039A00008B5FFF7FCFFBDE80840FCF73DBD00008F
:1039B0000C4A10B513681844EFF30881884205D308
:1039C0000C22094B4FF0FF301A6010BD07490C68FC
:1039D00024B10749096821448842F1D21060184691
:1039E00010BD00BFE8000010A8240010281A001025
:1039F0002C1A0010094C08B523680546986801F098
:103A0000C9FA2368D86801F0C5FAFDF72FF908B1A3
:103A1000FDF76EF90DB1FDF78BF9FEE7EC00001034
:103A20000120704708B5FFF7E5FF002102F099BAC1
:103A300008B5FDF72FFA08BD08B5FDF733FA08BD44
:103A400010B501F0E7FC044610B90248FDF7ACF9E7
:103A5000204610BDE472000008B101F0E3BC7047DD
:103A600010B50446FFF79CFE2046FFF7F5FF204601
:103A700010BDFFF7F1BF000010B504460C48FFF77A
:103A800069FB4FF0FF3100F0F3F800231946094AB3
:103A900052F82300A04208BF42F823100133402B04
:103AA000F6D10348FFF756FBBDE8104000F0E3B83D
:103AB0000C1A00100C1900102DE9F34789464E49E5
:103AC000064602F098FB044628B9FFF773FE20462D
:103AD00002B0BDE8F0874949304602F08CFB18B9C6
:103AE000FFF768FE0124F2E74549304602F083FB08
:103AF00018B9FFF75FFE0224E9E701F039F909235D
:103B0000404F03604048FFF725FB4FF0FF3100F0C6
:103B1000AFF80024B84657F82450002D54D0013493
:103B2000402CF8D101F024F9182303603648FFF740
:103B300011FB00F0A0F80DE031466846FFF765FC88
:103B40006846FFF7A2FC40B947F8240001F010F9DD
:103B5000022303604FF0FF34B9E76846FFF785FCA6
:103B600020B16846FFF78AFC05463FE06846FFF74C
:103B700075FC824630B901F0FBF80223036047F878
:103B800024A0E7E71820FFF75BFF0646FFF7D4FD08
:103B90001E4B68463360FFF756FC29F4803302461B
:103BA00051463046FFF799FD071E0BDA01F0E0F8A9
:103BB0007F4207601EB1336830465B68984748F81B
:103BC0002450C7E7354611E04FF0FF330E4847F861
:103BD0002430FFF7BFFA00F04EF833783A2BABD120
:103BE0006A460B49304602F097FA009D002DE6D058
:103BF00048F8245003346AE709730000107300008A
:103C0000017300000C1900100C1A0010A0720000C3
:103C10009471000038B50446FFF712FD05461CB14B
:103C2000236820465B689847284638BD024B1B68CE
:103C300003B11847704700BF301A0010FDF7F0BD00
:103C400038B5044600F1080510220021284601F08D
:103C500024FC204640F8045FFDF754FE206010B9B4
:103C60000248FDF7A1F8204638BD00BF18730000D8
:103C70000068FDF765BE0068FDF78ABE10B5044612
:103C80000068FDF7CBFE204610BD000080F30988D8
:103C90007047EFF309807047684680F309883F4812
:103CA0000078C00714BF0220032080F314887047F7
:103CB000DFF8ECC0EFF305831B0618BF6047EFF396
:103CC0001483DB0708BF604700DF7047DFF8D4C00C
:103CD000EFF305831B0618BF6047EFF31483DB0780
:103CE00008BF604700DF7047EFF30980816911F872
:103CF000021CF1B990E80F10E047EFF3098C8CE853
:103D00000700294B93E8060091420FD039B12CE906
:103D1000F00FC1F82CC00CB4FDF748FA0CBC1A60C7
:103D2000D2F82CC0BCE8F00F8CF309886FF0020EBB
:103D3000704710B51D4A1268914209D81C4C54F8BE
:103D4000214090E80F10A047EFF3098C8CE80F009A
:103D500010BDFDF7B7F9144B93E80600914210D05F
:103D6000EFF3098C2CE9F00FC1F82CC00CB4FDF76F
:103D70001DFA0CBC1A60D2F82CC0BCE8F00F8CF312
:103D800009886FF0020E7047FDF7F2F9FFF7E3BF05
:103D9000FDF7ECF9FDF7ECF9FFF7DDBF226F00004E
:103DA000BD120000D71200005424001000000000D3
:103DB000FCFFFFFF0649074A074B9A42BEBF51F876
:103DC000040B42F8040BF8E7044880470448004716
:103DD00018750000C8000010C80200106D2E000009
:103DE000290A0000FEE7FEE7FEE7FEE7FEE7FEE742
:103DF000FEE7FEE7FEE7FEE781F0004102E000BFDC
:103E000083F0004330B54FEA41044FEA430594EA9A
:103E1000050F08BF90EA020F1FBF54EA000C55EAD5
:103E2000020C7FEA645C7FEA655C00F0E2804FEAA6
:103E30005454D4EB5555B8BF6D420CDD2C4480EA88
:103E4000020281EA030382EA000083EA010180EAB8
:103E5000020281EA0303362D88BF30BD11F0004F06
:103E60004FEA01314FF4801C4CEA113102D040423C
:103E700061EB410113F0004F4FEA03334CEA133377
:103E800002D0524263EB430394EA050F00F0A7808F
:103E9000A4F10104D5F1200E0DDB02FA0EFC22FA8A
:103EA00005F2801841F1000103FA0EF2801843FA7E
:103EB00005F359410EE0A5F120050EF1200E012A6F
:103EC00003FA0EFC28BF4CF0020C43FA05F3C018AD
:103ED00051EBE37101F0004507D54FF0000EDCF126
:103EE000000C7EEB00006EEB0101B1F5801F1BD3CF
:103EF000B1F5001F0CD349085FEA30004FEA3C0CD3
:103F000004F101044FEA445212F5800F80F09A80C8
:103F1000BCF1004F08BF5FEA500C50F1000041EBCC
:103F2000045141EA050130BD5FEA4C0C404141EBD0
:103F3000010111F4801FA4F10104E9D191F0000FF7
:103F400004BF01460020B1FA81F308BF2033A3F17A
:103F50000B03B3F120020CDA0C3208DD02F1140C71
:103F6000C2F10C0201FA0CF021FA02F10CE002F1AC
:103F70001402D8BFC2F1200C01FA02F120FA0CFCA5
:103F8000DCBF41EA0C019040E41AA2BF01EB0451EE
:103F9000294330BD6FEA04041F3C1CDA0C340EDCEC
:103FA00004F11404C4F1200220FA04F001FA02F32F
:103FB00040EA030021FA04F345EA030130BDC4F1ED
:103FC0000C04C4F1200220FA02F001FA04F340EAE2
:103FD0000300294630BD21FA04F0294630BD94F093
:103FE000000F83F4801306BF81F480110134013D7A
:103FF0004EE77FEA645C18BF7FEA655C29D094EAEB
:10400000050F08BF90EA020F05D054EA000C04BF68
:104010001946104630BD91EA030F1EBF0021002053
:1040200030BD5FEA545C05D14000494128BF41F0F2
:10403000004130BD14F580043CBF01F5801130BD56
:1040400001F0004545F0FE4141F470014FF00000E1
:1040500030BD7FEA645C1ABF194610467FEA655C92
:104060001CBF0B46024650EA013406BF52EA033534
:1040700091EA030F41F4002130BD00BF90F0000F22
:1040800004BF0021704730B54FF4806404F132045E
:104090004FF000054FF0000150E700BF90F0000F17
:1040A00004BF0021704730B54FF4806404F132043E
:1040B00010F0004548BF40424FF000013EE700BF0E
:1040C00042004FEAE2014FEA31014FEA02701FBF9E
:1040D00012F07F4393F07F4F81F06051704792F070
:1040E000000F14BF93F07F4F704730B54FF46074EA
:1040F00001F0004521F0004120E700BF50EA010235
:1041000008BF704730B54FF000050AE050EA0102E1
:1041100008BF704730B511F0004502D5404261EB51
:1041200041014FF4806404F132045FEA915C3FF492
:10413000DCAE4FF003025FEADC0C18BF03325FEA2B
:10414000DC0C18BF033202EBDC02C2F1200300FAE0
:1041500003FC20FA02F001FA03FE40EA0E0021FA05
:1041600002F11444C1E600BF70B54FF0FF0C4CF4EF
:10417000E06C1CEA11541DBF1CEA135594EA0C0FA5
:1041800095EA0C0F00F0DEF82C4481EA030621EAE0
:104190004C5123EA4C5350EA013518BF52EA03351B
:1041A00041F4801143F4801338D0A0FB02CE4FF0CD
:1041B0000005E1FB02E506F00042E0FB03E54FF0FD
:1041C0000006E1FB03569CF0000F18BF4EF0010EF5
:1041D000A4F1FF04B6F5007F64F5407404D25FEAF1
:1041E0004E0E6D4146EB060642EAC62141EA5551A4
:1041F0004FEAC52040EA5E504FEACE2EB4F1FD0CE6
:1042000088BFBCF5E06F1ED8BEF1004F08BF5FEA63
:10421000500E50F1000041EB045170BD06F0004615
:1042200046EA010140EA020081EA0301B4EB5C04C2
:10423000C2BFD4EB0C0541EA045170BD41F48011BA
:104240004FF0000E013C00F3AB8014F1360FDEBFDF
:10425000002001F0004170BDC4F10004203C35DABB
:104260000C341BDC04F11404C4F1200500FA05F33E
:1042700020FA04F001FA05F240EA020001F00042DF
:1042800021F0004110EBD37021FA04F642EB060155
:104290005EEA430E08BF20EAD37070BDC4F10C047F
:1042A000C4F1200500FA04F320FA05F001FA04F243
:1042B00040EA020001F0004110EBD37041F100012F
:1042C0005EEA430E08BF20EAD37070BDC4F120053A
:1042D00000FA05F24EEA020E20FA04F301FA05F2A2
:1042E00043EA020321FA04F001F0004121FA04F24A
:1042F00020EA020000EBD3705EEA430E08BF20EA1A
:10430000D37070BD94F0000F0FD101F00046400053
:1043100041EB010111F4801F08BF013CF7D041EAD5
:10432000060195F0000F18BF704703F000465200D9
:1043300043EB030313F4801F08BF013DF7D043EAAA
:104340000603704794EA0C0F0CEA135518BF95EA60
:104350000C0F0CD050EA410618BF52EA4306D1D1E7
:1043600081EA030101F000414FF0000070BD50EA06
:10437000410606BF1046194652EA430619D094EA90
:104380000C0F02D150EA013613D195EA0C0F05D17A
:1043900052EA03361CBF104619460AD181EA0301CE
:1043A00001F0004141F0FE4141F470014FF0000086
:1043B00070BD41F0FE4141F4780170BD70B54FF021
:1043C000FF0C4CF4E06C1CEA11541DBF1CEA1355A1
:1043D00094EA0C0F95EA0C0F00F0A7F8A4EB050483
:1043E00081EA030E52EA03354FEA013100F088807A
:1043F0004FEA03334FF0805545EA131343EA126343
:104400004FEA022245EA111545EA10654FEA0026F7
:104410000EF000419D4208BF964244F1FD0404F5B0
:10442000407402D25B084FEA3202B61A65EB03050C
:104430005B084FEA32024FF480104FF4002CB6EBC9
:10444000020E75EB030E22BFB61A754640EA0C0049
:104450005B084FEA3202B6EB020E75EB030E22BF89
:10446000B61A754640EA5C005B084FEA3202B6EBCA
:10447000020E75EB030E22BFB61A754640EA9C0089
:104480005B084FEA3202B6EB020E75EB030E22BF59
:10449000B61A754640EADC0055EA060E18D04FEA17
:1044A000051545EA16754FEA06164FEAC30343EAB7
:1044B00052734FEAC2025FEA1C1CC0D111F4801F84
:1044C0000BD141EA00014FF000004FF0004CB6E77D
:1044D00011F4801F04BF01430020B4F1FD0C88BF1C
:1044E000BCF5E06F3FF6AFAEB5EB030C04BFB6EB27
:1044F000020C5FEA500C50F1000041EB045170BD1A
:104500000EF0004E4EEA113114EB5C04C2BFD4EB46
:104510000C0541EA045170BD41F480114FF0000ECA
:10452000013C90E645EA060E8DE60CEA135594EA46
:104530000C0F08BF95EA0C0F3FF43BAF94EA0C0F49
:104540000AD150EA01347FF434AF95EA0C0F7FF4BE
:1045500025AF104619462CE795EA0C0F06D152EA12
:1045600003353FF4FDAE1046194622E750EA4106F6
:1045700018BF52EA43067FF4C5AE50EA41047FF407
:104580000DAF52EA43057FF4EBAE12E74FF0FF3C6C
:1045900006E000BF4FF0010C02E000BF4FF0010C3D
:1045A0004DF804CD4FEA410C7FEA6C5C4FEA430CB6
:1045B00018BF7FEA6C5C1BD001B050EA410C0CBF05
:1045C00052EA430C91EA030F02BF90EA020F002067
:1045D000704710F1000F91EA030F58BF994208BFCE
:1045E00090422CBFD8176FEAE37040F0010070478B
:1045F0004FEA410C7FEA6C5C02D150EA013C07D1E2
:104600004FEA430C7FEA6C5CD6D152EA033CD3D02C
:104610005DF8040B704700BF8446104662468C4626
:104620001946634600E000BF01B5FFF7B7FF002859
:1046300048BF10F1000F01BD4DF808EDFFF7F4FF82
:104640000CBF012000205DF808FB00BF4DF808ED0D
:10465000FFF7EAFF34BF012000205DF808FB00BF30
:104660004DF808EDFFF7E0FF94BF012000205DF852
:1046700008FB00BF4DF808EDFFF7CEFF94BF012007
:1046800000205DF808FB00BF4DF808EDFFF7C4FF00
:1046900034BF012000205DF808FB00BF4FEA410253
:1046A000B2F1E04324BFB3F5001CDCF1FE5C0DD990
:1046B00001F0004C4FEAC0024CEA5070B2F1004FDA
:1046C00040EB830008BF20F00100704711F0804FDD
:1046D00021D113F13872BCBF01F00040704741F4A2
:1046E00080114FEA5252C2F11802C2F1200C10FAA6
:1046F0000CF320FA02F018BF40F001004FEAC1238A
:104700004FEAD32303FA0CFC40EA0C0023FA02F32D
:104710004FEA4303CCE77FEA625307D150EA013303
:104720001EBF4FF0FE4040F44000704701F00040D3
:1047300040F0FE4040F40000704700BF80F00040B1
:1047400002E000BF81F0004142001FBF5FEA410369
:1047500092EA030F7FEA226C7FEA236C6AD04FEA69
:104760001262D2EB1363C1BFD218414048404140AE
:10477000B8BF5B42192B88BF704710F0004F40F460
:10478000000020F07F4018BF404211F0004F41F47C
:10479000000121F07F4118BF494292EA030F3FD048
:1047A000A2F1010241FA03FC10EB0C00C3F120035B
:1047B00001FA03F100F0004302D5494260EB4000EA
:1047C000B0F5000F13D3B0F1807F06D340084FEA55
:1047D000310102F10102FE2A51D2B1F1004F40EB4A
:1047E000C25008BF20F0010040EA030070474900B2
:1047F00040EB000010F4000FA2F10102EDD1B0FA7D
:1048000080FCACF1080CB2EB0C0200FA0CF0AABF71
:1048100000EBC25052421843BCBFD040184370470F
:1048200092F0000F81F4000106BF80F40000013215
:10483000013BB5E74FEA41037FEA226C18BF7FEAEC
:10484000236C21D092EA030F04D092F0000F08BF2E
:104850000846704790EA010F1CBF0020704712F015
:104860007F4F04D1400028BF40F00040704712F154
:1048700000723CBF00F50000704700F0004343F0B9
:10488000FE4040F4000070477FEA226216BF0846EF
:104890007FEA23630146420206BF5FEA412390EAB2
:1048A000010F40F4800070474FF0000304E000BFA8
:1048B00010F0004348BF40425FEA000C08BF704759
:1048C00043F0964301464FF000001CE050EA01021D
:1048D00008BF70474FF000030AE000BF50EA010232
:1048E00008BF704711F0004302D5404261EB41011F
:1048F0005FEA010C02BF84460146002043F0B64344
:1049000008BFA3F18053A3F50003BCFA8CF2083A68
:10491000A3EBC25310DB01FA02FC634400FA02FC71
:10492000C2F12002BCF1004F20FA02F243EB020078
:1049300008BF20F00100704702F1200201FA02FCDA
:10494000C2F1200250EA4C0021FA02F243EB0200CD
:1049500008BF20EADC7070474FF0FF0C1CEAD05211
:104960001EBF1CEAD15392EA0C0F93EA0C0F6FD0D2
:104970001A4480EA010C400218BF5FEA41211ED0B0
:104980004FF0006343EA501043EA5111A0FB01319C
:104990000CF00040B1F5000F3EBF490041EAD37171
:1049A0005B0040EA010062F17F02FD2A1DD8B3F1ED
:1049B000004F40EBC25008BF20F00100704790F05C
:1049C000000F0CF0004C08BF49024CEA502040EAAE
:1049D00051207F3AC2BFD2F1FF0340EAC250704774
:1049E00040F400004FF00003013A5DDC12F1190FB2
:1049F000DCBF00F000407047C2F10002410021FA24
:104A000002F1C2F1200200FA02FC5FEA310040F13B
:104A1000000053EA4C0308BF20EADC70704792F0B4
:104A2000000F00F0004C02BF400010F4000F013AEC
:104A3000F9D040EA0C0093F0000F01F0004C02BFE7
:104A4000490011F4000F013BF9D041EA0C018FE756
:104A50000CEAD15392EA0C0F18BF93EA0C0F0AD05C
:104A600030F0004C18BF31F0004CD8D180EA010082
:104A700000F00040704790F0000F17BF90F0004F1B
:104A8000084691F0000F91F0004F14D092EA0C0FFD
:104A900001D142020FD193EA0C0F03D14B0218BF90
:104AA000084608D180EA010000F0004040F0FE40D6
:104AB00040F40000704740F0FE4040F44000704772
:104AC0004FF0FF0C1CEAD0521EBF1CEAD15392EAF1
:104AD0000C0F93EA0C0F69D0A2EB030280EA010CE1
:104AE00049024FEA402037D04FF0805343EA11117A
:104AF00043EA10130CF000408B4238BF5B0042F1D8
:104B00007D024FF4000C8B4224BF5B1A40EA0C007C
:104B1000B3EB510F24BFA3EB510340EA5C00B3EBAE
:104B2000910F24BFA3EB910340EA9C00B3EBD10F9C
:104B300024BFA3EBD10340EADC001B0118BF5FEAEE
:104B40001C1CE0D1FD2A3FF650AF8B4240EBC25017
:104B500008BF20F0010070470CF0004C4CEA5020D8
:104B60007F32C2BFD2F1FF0340EAC250704740F427
:104B700000004FF00003013A37E792F0000F00F019
:104B8000004C02BF400010F4000F013AF9D040EA97
:104B90000C0093F0000F01F0004C02BF490011F42B
:104BA000000F013BF9D041EA0C0195E70CEAD15323
:104BB00092EA0C0F08D142027FF47DAF93EA0C0F0A
:104BC0007FF470AF084676E793EA0C0F04D14B02EE
:104BD0003FF44CAF08466EE730F0004C18BF31F0A0
:104BE000004CCAD130F000427FF45CAF31F000439A
:104BF0007FF43CAF5FE700BF4FF0FF3C06E000BF33
:104C00004FF0010C02E000BF4FF0010C4DF804CD55
:104C10004FEA40024FEA41037FEA226C18BF7FEA65
:104C2000236C11D001B052EA530C18BF90EA010F67
:104C300058BFB2EB030088BFC81738BF6FEAE170F6
:104C400018BF40F0010070477FEA226C02D15FEA92
:104C5000402C05D17FEA236CE4D15FEA412CE1D0FE
:104C60005DF8040B704700BF844608466146FFE7C5
:104C70000FB5FFF7C9FF002848BF10F1000F0FBDA7
:104C80004DF808EDFFF7F4FF0CBF012000205DF8A0
:104C900008FB00BF4DF808EDFFF7EAFF34BF012025
:104CA00000205DF808FB00BF4DF808EDFFF7E0FFBE
:104CB00094BF012000205DF808FB00BF4DF808ED0F
:104CC000FFF7D2FF94BF012000205DF808FB00BF72
:104CD0004DF808EDFFF7C8FF34BF012000205DF854
:104CE00008FB00BF4FEA4002B2F1FE4F0FD34FF076
:104CF0009E03B3EB12620DD94FEA002343F0004349
:104D000010F0004F23FA02F018BF404270474FF0F6
:104D10000000704712F1610F01D1420205D110F07D
:104D2000004008BF6FF0004070474FF00000704730
:104D300042000ED2B2F1FE4F0BD34FF09E03B3EB05
:104D4000126209D44FEA002343F0004323FA02F031
:104D500070474FF00000704712F1610F01D142021D
:104D600002D14FF0FF3070474FF00000704700BF96
:104D7000014B1868704700BFEC00001070B5054685
:104D80000C4611B90026304670BD18B183690BB9C5
:104D900000F052F91F4B9C4232D16C68B4F90C30D0
:104DA000002BEFD02146284600F042F8236B064640
:104DB00033B1216A284698470028B8BF4FF0FF3624
:104DC000A3891B0603D521692846FEF7C9FC616B40
:104DD00041B104F14403994202D02846FEF7C0FCD9
:104DE00000236363A16C21B12846FEF7B9FC0023C0
:104DF000A36400F08DF90023A38100F08AF9C2E7D3
:104E0000054B9C4201D1AC68C8E7044B9C4208BFEB
:104E1000EC68C3E76073000080730000407300001B
:104E2000024B01461868FFF7A9BF00BFEC00001055
:104E30008A892DE9F041054610070C465AD44B6883
:104E4000002B05DC0B6C002B02DC0020BDE8F081A0
:104E5000E66A002EF9D0002312F480522F682B60EE
:104E600033D0606DA3895A0705D56368C01A636B98
:104E70000BB1236CC01A00230246E66A216A284659
:104E8000B047431CA38906D129681D294BD82B4A5A
:104E9000CA40D60747D5002262602269D904226041
:104EA00004D5421C01D12B6803B96065616B2F608A
:104EB0000029CAD004F14403994202D02846FEF7E3
:104EC0004FFC00206063BDE8F081216A0123284681
:104ED000B047411CC6D12B68002BC3D01D2B01D07D
:104EE000162B01D12F60B0E7A38943F04003A381C3
:104EF000BDE8F0810F69002FA7D0930718BF0023EA
:104F00000E6808BF4B69A6EB07080F608B60B8F10D
:104F1000000F9ADD43463A46216A2846A66AB04702
:104F2000002807DCA38943F04003A3814FF0FF3042
:104F3000BDE8F0810744A8EB0008E8E70100402045
:104F400038B50B6905460C46DBB118B183690BB95E
:104F500000F072F80C4B9C4209D16C68B4F90C302B
:104F60007BB121462846BDE83840FFF761BF074BBB
:104F70009C4201D1AC68F1E7054B9C4208BFEC684C
:104F8000ECE7002038BD00BF6073000080730000B4
:104F900040730000014620B9044B0549186800F031
:104FA00093B9044B1868FFF7CBBF00BFA073000094
:104FB000414F0000EC000010014900F085B900BF2E
:104FC000414F0000002310B5044603604360836036
:104FD00081814366C281036143618361194608226E
:104FE0005C3000F05AFA054B24626362044BA36202
:104FF000044BE362044B236310BD00BF6D610000EE
:1050000093610000CB610000EF61000070B568257E
:105010004A1E55430E4605F17401FEF79DFB0446FA
:1050200040B1002180E842000C30A06005F1680228
:1050300000F033FA204670BD836910B5044633BBD7
:105040008364C3640365124B124A1B6882629842F0
:1050500004BF0123836100F01FF86060204600F068
:105060001BF8A060204600F017F80022E060042141
:105070006068FFF7A7FF01220921A068FFF7A2FFE0
:1050800002221221E068FFF79DFF0123A36110BDFA
:10509000A0730000B94F0000F8B51C4B07461E680E
:1050A000B36913B93046FFF7C7FF4836B468736871
:1050B000013B03D5336833B13668F7E7B4F90C50D8
:1050C0006DB16834F4E704213846FFF79FFF306084
:1050D0000028F1D10C2304463B602046F8BD4FF672
:1050E000FF73E38101236566A3812560A560656088
:1050F00025616561A5610822294604F15C0000F084
:10510000CCF96563A563A564E564E6E7A0730000D8
:1051100070477047F7B50F46114601AA054601F0E2
:10512000CDFA064618B90024204603B0F0BD284643
:10513000FFF7B2FF04460028F5D04FF4DB73019A65
:105140003946284600F0BCFE002806DA0025FFF7A5
:10515000DFFFA581FFF7DDFFE5E70A4BE081636232
:10516000094BA681A362094B2462E362084B2363C7
:10517000F305D9D5022300222146284600F012F873
:10518000D2E700BF6D61000093610000CB610000B9
:10519000EF610000024B0A4601461868FFF7BABFEC
:1051A000EC00001000F000B82DE9F8430C469146E1
:1051B0001E46054618B183690BB9FFF73DFF3F4B0B
:1051C0009C4212D16C68A38903F48473B3F5847F85
:1051D00003D121462846FFF7B3FED4F82C80B8F15E
:1051E000000F0CD11D232B6057E0354B9C4201D1A1
:1051F000AC68E8E7334B9C4208BFEC68E3E7012E5C
:1052000030D0022E01D0002E55D123691BB9214682
:10521000284600F0BFF821462846FFF791FE0746D2
:1052200000283AD133464A46216A2846C047013011
:1052300033D0616B41B104F14403994202D0284656
:10524000FEF78EFA00236363002123696160236007
:10525000A389082223F40263A38104F15C0000F017
:105260001CF91CE021462846FFF76AFEA28912F4C9
:1052700080520CD0606DA3895A0713D56368C01A99
:10528000636B0BB1236CC01A81440026BDE7216A11
:1052900033462846C047411CEDD14FF0FF37384612
:1052A000BDE8F8831B07EFD52368002BECD02269FB
:1052B0009B1A1844E8E7162395E700BF60730000C7
:1052C00080730000407300002DE9F8438046894652
:1052D000002600F1480414B93046BDE8F883A568FB
:1052E0006768013F01D52468F5E7AB89012B07D931
:1052F000B5F90E30013303D029464046C84706436E
:105300006835EEE770B500250C4E0D4CA41BA410BB
:10531000A54209D101F086FD00250A4E0A4CA41BC6
:10532000A410A54205D170BD56F825309847013527
:10533000EEE756F8253098470135F2E7BC02001039
:10534000BC020010BC020010C402001070B50E4672
:10535000B1F90E1090B0002914461D4607DA00235B
:105360002B60B3891A0610D44FF480630EE001AAB3
:1053700001F0DAF90028F2DB029A02F47042A2F599
:1053800000535A425A412A60EEE74023002023602E
:1053900010B070BD8B8973B59D0706460C4607D5C6
:1053A00004F14703236023610123636102B070BDF0
:1053B00001AB6A46FFF7CAFF009905463046FEF783
:1053C000CBF948B9B4F90C309A05EFD423F00303B4
:1053D00043F00203A381E3E70D4BB362A38920608E
:1053E00043F08003A381009B20616361019B5BB15B
:1053F000B4F90E10304601F0A9F928B1A38923F0C1
:10540000030343F00103A381A3891D43A581CDE7D5
:10541000B94F0000024B01461868FEF79DB900BF66
:10542000EC000010024B01461868FEF799B900BF66
:10543000EC00001010B5C9B202449042034601D1FD
:10544000002010BD1C7801308C42F6D1184610BDEA
:1054500010B5431E0A44914200D110BD11F8014B12
:1054600003F8014FF7E7884210B501EB020303D8B8
:10547000421E99420CD110BD9842F9D28118D21A1D
:10548000D34200D110BD13F8014D01F8014DF7E7EB
:1054900011F8014B02F8014FEBE703460244934237
:1054A00000D1704703F8011BF9E7000038B5054645
:1054B000002943D051F8043C0C1F002BB8BFE4185E
:1054C000FEF7B6FA1E4A1368104633B963601460DB
:1054D0002846BDE83840FEF7AFBAA3420BD9216891
:1054E0006218934201BF1A685B68521822606360B9
:1054F0000460EDE713465A680AB1A242FAD9196866
:105500005818A0420BD120680144581882421960F3
:10551000DED110685268014419605A60D8E702D998
:105520000C232B60D4E7206821188A4201BF116840
:1055300052680918216062605C60C9E738BD00BF2D
:10554000341A001070B5CD1C25F0030508350C2D5C
:1055500038BF0C25002D064601DBA94203D90C23D8
:105560003360002070BDFEF763FA234A14682146B9
:1055700091B9224C23681BB9304600F0B3FC20607F
:105580002946304600F0AEFC431C26D10C233046A1
:105590003360FEF751FAE4E70B685B1B1AD40B2B60
:1055A0000FD90B60CC18CD503046FEF745FA04F108
:1055B0000B00231D20F00700C31A1BD05A42E250F3
:1055C00070BD8C420BBF63684B681360636018BF8B
:1055D0000C46E9E70C464968CAE7C41C24F00304FA
:1055E000A04205D0211A304600F07CFC0130CDD01D
:1055F0002560D9E770BD00BF341A0010381A0010BA
:10560000F8B5074614460E4621B91146BDE8F840E4
:10561000FEF7A2B822B9FEF7A3F825462846F8BD42
:1056200001F0DAF884420FD921463846FEF794F8A3
:1056300005460028F2D031462246FFF709FF3146E1
:105640003846FEF78DF8E9E73546E7E7936810B48A
:10565000013B002B936008DA9469A34202DBCBB2D2
:105660000A2B02D110BC00F047BF1368581C106011
:105670001970C8B210BC7047F8B506460F461446FC
:10568000D518AC4201D1002007E03A4614F8011BBE
:105690003046FFF7DBFF431CF3D1F8BD2DE9F04F97
:1056A0009DB00C4617460393064618B183690BB9A3
:1056B000FFF7C2FC7C4B9C4257D17468A389180742
:1056C0005DD52369002B5AD00023099320238DF840
:1056D000293030234FF0010B8DF82A30B84645466B
:1056E00015F8013B002B55D1B8EB070A0BD05346F8
:1056F0003A4621463046FFF7BFFF013000F0C48034
:10570000099B5344099398F80030002B00F0BC80AB
:1057100000234FF0FF3204930793059206938DF810
:1057200053301A93052229786048FFF783FE05F16C
:105730000108049B002831D1D90644BF20228DF8EE
:1057400053201A0744BF2B228DF853202A782A2A87
:105750002CD000210A20079AA84698F8003001357D
:10576000303B092B6DD971B326E0514B9C4201D1DE
:10577000B468A3E74F4B9C4208BFF4689EE72146FC
:10578000304600F01DFF00289ED04FF0FF301DB0C6
:10579000BDE8F08F252BA7D0A846A0E7434A454691
:1057A000801A0BFA00F018430490BBE7039A111D0E
:1057B00012680391002A01DB079204E0524243F091
:1057C00002030792049398F800302E2B10D198F81A
:1057D000013008F101012A2B37D1039B08F102089F
:1057E0001A1D1B680392002BB8BF4FF0FF330593BF
:1057F000314D032298F800102846FFF71BFE40B1F8
:105800004023401B03FA00F0049B08F10108034306
:10581000049398F800100622284808F101078DF833
:105820002810FFF707FE002834D0254B03BB039B4D
:10583000073323F0070308330393099B4B44099371
:105840004CE700FB0232012186E700230A251846B7
:105850000593884698F800200131303A092A03D987
:10586000002BC5D00590C3E705FB00200123F0E71E
:1058700003AB00932246134B04A93046AFF30080DC
:10588000B0F1FF3F8146D8D1A3895B063FF57DAFDC
:1058900009987CE703AB009322460A4B04A93046E3
:1058A00000F094F8ECE700BF60730000A473000000
:1058B0008073000040730000AA730000AE73000004
:1058C000000000007956000013460A4601460248CF
:1058D0000068FFF7E3BE00BFEC0000102DE9F047C1
:1058E00091461F468A680B6906469342B8BF134625
:1058F000C9F8003091F843200C46DDF8208012B141
:105900000133C9F800302368990642BFD9F8003046
:105910000233C9F80030256815F0060507D104F1F7
:10592000190AE368D9F800209B1A9D422ADB94F8F3
:1059300043302268003318BF012392062FD404F1AC
:10594000430239463046C047013022D02368E5681B
:1059500003F00603042B18BF0025D9F800204FF0F0
:10596000000908BFAD1AA368226908BF25EAE575DA
:105970009342C4BF9B1AED181A344D451BD1002029
:10598000BDE8F0870123524639463046C047013012
:1059900003D14FF0FF30BDE8F0870135C1E730207B
:1059A000E11881F843005A1C94F845102244023350
:1059B00082F84310C3E70123224639463046C047E8
:1059C0000130E6D009F10109D7E700002DE9F043E5
:1059D00017460A7E85B06E2A984606460C460C9BF2
:1059E00001F1430E00F0BC801AD8632A2ED00AD8E9
:1059F000002A00F0C880582A00F08A8004F142058D
:105A000084F842202AE0642A01D0692AF6D121686C
:105A10001A6811F0800F23D0111D1960136827E058
:105A2000732A00F0B48008D86F2A2AD0702AE5D1F2
:105A30000A6842F020020A6003E0752A21D0782A21
:105A4000DCD178226F4984F8452064E01A6801F1BE
:105A50004205111D1960136884F842300123A3E048
:105A600011F0400F02F104011960D7D0B2F90030F3
:105A7000002B03DA2D225B4284F8432062490A227C
:105A800017E02068196810F0800F03D0081D186017
:105A90000B6806E010F0400F01F104001860F7D029
:105AA0000B886F2A14BF0A2208225749002084F865
:105AB00043006568002DA560C0F29C80206820F03E
:105AC00004002060002B3FD1002D40F095807546EA
:105AD000082A0BD12368DA0708D5236962689A423D
